{
  "contractName": "SimpleStorage",
  "abi": [
    {
      "constant": false,
      "inputs": [
        {
          "name": "x",
          "type": "uint256"
        }
      ],
      "name": "set",
      "outputs": [],
      "payable": false,
      "stateMutability": "nonpayable",
      "type": "function"
    },
    {
      "constant": false,
      "inputs": [],
      "name": "addFive",
      "outputs": [],
      "payable": false,
      "stateMutability": "nonpayable",
      "type": "function"
    },
    {
      "constant": false,
      "inputs": [
        {
          "name": "xG",
          "type": "uint256[2]"
        }
      ],
      "name": "checkPubKey",
      "outputs": [
        {
          "name": "",
          "type": "bool"
        }
      ],
      "payable": false,
      "stateMutability": "nonpayable",
      "type": "function"
    },
    {
      "constant": true,
      "inputs": [],
      "name": "get",
      "outputs": [
        {
          "name": "",
          "type": "uint256"
        }
      ],
      "payable": false,
      "stateMutability": "view",
      "type": "function"
    }
  ],
  "bytecode": "0x608060405234801561001057600080fd5b506102ff806100206000396000f300608060405260043610610062576000357c0100000000000000000000000000000000000000000000000000000000900463ffffffff16806360fe47b114610067578063661d8829146100945780636d4ce63c146100ab578063a991534c146100d6575b600080fd5b34801561007357600080fd5b5061009260048036038101908080359060200190929190505050610140565b005b3480156100a057600080fd5b506100a961014a565b005b3480156100b757600080fd5b506100c061015c565b6040518082815260200191505060405180910390f35b3480156100e257600080fd5b506101266004803603810190808060400190600280602002604051908101604052809291908260026020028082843782019150505050509192919290505050610165565b604051808215151515815260200191505060405180910390f35b8060008190555050565b60056000808282540192505081905550565b60008054905090565b600061017082610177565b9050919050565b600061018282610189565b9050919050565b6000806000807ffffffffffffffffffffffffffffffffffffffffffffffffffffffffefffffc2f92508460006002811015156101c157fe5b6020020151600014806101e65750828560006002811015156101df57fe5b6020020151145b8061020457508460016002811015156101fb57fe5b60200201516000145b8061022157508285600160028110151561021a57fe5b6020020151145b1561022f57600093506102cb565b8280151561023957fe5b85600160028110151561024857fe5b602002015186600160028110151561025c57fe5b60200201510991508280151561026e57fe5b60078480151561027a57fe5b87600060028110151561028957fe5b60200201518680151561029857fe5b8960006002811015156102a757fe5b60200201518a60006002811015156102bb57fe5b6020020151090908905080821493505b5050509190505600a165627a7a72305820104004f3e56fbbdfbae84eaf74994c08613dc2a9da733854d29c7e938c1313750029",
  "source": "// SPDX-License-Identifier: MIT\npragma solidity >=0.4.21 <0.7.0;\nimport \"./libraries/Secp256k1_noconflict.sol\";\n\ncontract SimpleStorage {\n  uint storedData;\n\n  function set(uint x) public {\n    storedData = x;\n  }\n\n  function addFive() public {\n    storedData += 5;\n  }\n\n  function checkPubKey(uint[2] xG) public returns (bool){\n    return Secp256k1_noconflict.isPubKey(xG);\n  }\n\n  function get() public view returns (uint) {\n    return storedData;\n  }\n}\n",
  "sourcePath": "/Users/mariambeltagy/Desktop/DZK_Vote-main/Dapp/contracts/SimpleStorage.sol",
  "compiler": {
    "name": "solc",
    "version": "0.4.26+commit.4563c3fc.Emscripten.clang"
  },
  "schemaVersion": "3.0.23",
  "updatedAt": "2021-05-17T04:17:45.824Z",
  "networkType": "ethereum",
  "devdoc": {
    "methods": {}
  },
  "userdoc": {
    "methods": {}
  }
}