{
  "contractName": "VotingSys",
  "abi": [
    {
      "constant": true,
      "inputs": [
        {
          "name": "",
          "type": "address"
        }
      ],
      "name": "eligible",
      "outputs": [
        {
          "name": "",
          "type": "bool"
        }
      ],
      "payable": false,
      "stateMutability": "view",
      "type": "function",
      "signature": "0x0713b139"
    },
    {
      "constant": true,
      "inputs": [],
      "name": "currentState",
      "outputs": [
        {
          "name": "",
          "type": "uint8"
        }
      ],
      "payable": false,
      "stateMutability": "view",
      "type": "function",
      "signature": "0x0c3f6acf"
    },
    {
      "constant": true,
      "inputs": [],
      "name": "ballotName",
      "outputs": [
        {
          "name": "",
          "type": "string"
        }
      ],
      "payable": false,
      "stateMutability": "view",
      "type": "function",
      "signature": "0x1b26586c"
    },
    {
      "constant": true,
      "inputs": [],
      "name": "totalEligible",
      "outputs": [
        {
          "name": "",
          "type": "uint256"
        }
      ],
      "payable": false,
      "stateMutability": "view",
      "type": "function",
      "signature": "0x3138ffe7"
    },
    {
      "constant": true,
      "inputs": [
        {
          "name": "",
          "type": "uint256"
        }
      ],
      "name": "finalTally",
      "outputs": [
        {
          "name": "",
          "type": "uint256"
        }
      ],
      "payable": false,
      "stateMutability": "view",
      "type": "function",
      "signature": "0x3a5f547a"
    },
    {
      "constant": true,
      "inputs": [
        {
          "name": "",
          "type": "uint256"
        }
      ],
      "name": "options",
      "outputs": [
        {
          "name": "",
          "type": "string"
        }
      ],
      "payable": false,
      "stateMutability": "view",
      "type": "function",
      "signature": "0x409e2205"
    },
    {
      "constant": true,
      "inputs": [],
      "name": "minDeposit",
      "outputs": [
        {
          "name": "",
          "type": "uint256"
        }
      ],
      "payable": false,
      "stateMutability": "view",
      "type": "function",
      "signature": "0x41b3d185"
    },
    {
      "constant": true,
      "inputs": [
        {
          "name": "",
          "type": "address"
        }
      ],
      "name": "addressID",
      "outputs": [
        {
          "name": "",
          "type": "uint256"
        }
      ],
      "payable": false,
      "stateMutability": "view",
      "type": "function",
      "signature": "0x4a4ab63d"
    },
    {
      "constant": true,
      "inputs": [
        {
          "name": "",
          "type": "address"
        }
      ],
      "name": "voteCast",
      "outputs": [
        {
          "name": "",
          "type": "bool"
        }
      ],
      "payable": false,
      "stateMutability": "view",
      "type": "function",
      "signature": "0x57dee00d"
    },
    {
      "constant": true,
      "inputs": [
        {
          "name": "",
          "type": "uint256"
        }
      ],
      "name": "prevFinalTally",
      "outputs": [
        {
          "name": "",
          "type": "uint256"
        }
      ],
      "payable": false,
      "stateMutability": "view",
      "type": "function",
      "signature": "0x8460be61"
    },
    {
      "constant": true,
      "inputs": [],
      "name": "owner",
      "outputs": [
        {
          "name": "",
          "type": "address"
        }
      ],
      "payable": false,
      "stateMutability": "view",
      "type": "function",
      "signature": "0x8da5cb5b"
    },
    {
      "constant": true,
      "inputs": [],
      "name": "totalRegistered",
      "outputs": [
        {
          "name": "",
          "type": "uint256"
        }
      ],
      "payable": false,
      "stateMutability": "view",
      "type": "function",
      "signature": "0x927416c0"
    },
    {
      "constant": true,
      "inputs": [],
      "name": "endVotingPhase",
      "outputs": [
        {
          "name": "",
          "type": "uint256"
        }
      ],
      "payable": false,
      "stateMutability": "view",
      "type": "function",
      "signature": "0xa300e224"
    },
    {
      "constant": true,
      "inputs": [],
      "name": "endRegistrationPhase",
      "outputs": [
        {
          "name": "",
          "type": "uint256"
        }
      ],
      "payable": false,
      "stateMutability": "view",
      "type": "function",
      "signature": "0xb21a64da"
    },
    {
      "constant": true,
      "inputs": [
        {
          "name": "",
          "type": "address"
        }
      ],
      "name": "registered",
      "outputs": [
        {
          "name": "",
          "type": "bool"
        }
      ],
      "payable": false,
      "stateMutability": "view",
      "type": "function",
      "signature": "0xb2dd5c07"
    },
    {
      "constant": true,
      "inputs": [],
      "name": "totalVoted",
      "outputs": [
        {
          "name": "",
          "type": "uint256"
        }
      ],
      "payable": false,
      "stateMutability": "view",
      "type": "function",
      "signature": "0xb3a2273f"
    },
    {
      "constant": true,
      "inputs": [
        {
          "name": "",
          "type": "address"
        }
      ],
      "name": "refunds",
      "outputs": [
        {
          "name": "",
          "type": "uint256"
        }
      ],
      "payable": false,
      "stateMutability": "view",
      "type": "function",
      "signature": "0xbc3da535"
    },
    {
      "constant": true,
      "inputs": [
        {
          "name": "",
          "type": "uint256"
        }
      ],
      "name": "voters",
      "outputs": [
        {
          "name": "addr",
          "type": "address"
        }
      ],
      "payable": false,
      "stateMutability": "view",
      "type": "function",
      "signature": "0xda58c7d9"
    },
    {
      "constant": true,
      "inputs": [
        {
          "name": "",
          "type": "uint256"
        }
      ],
      "name": "addresses",
      "outputs": [
        {
          "name": "",
          "type": "address"
        }
      ],
      "payable": false,
      "stateMutability": "view",
      "type": "function",
      "signature": "0xedf26d9b"
    },
    {
      "constant": false,
      "inputs": [
        {
          "name": "newOwner",
          "type": "address"
        }
      ],
      "name": "transferOwnership",
      "outputs": [],
      "payable": false,
      "stateMutability": "nonpayable",
      "type": "function",
      "signature": "0xf2fde38b"
    },
    {
      "inputs": [],
      "payable": false,
      "stateMutability": "nonpayable",
      "type": "constructor",
      "signature": "constructor"
    },
    {
      "constant": false,
      "inputs": [],
      "name": "getVoter",
      "outputs": [
        {
          "name": "_registeredKey",
          "type": "uint256[2]"
        },
        {
          "name": "_reconstructedKey",
          "type": "uint256[2]"
        }
      ],
      "payable": false,
      "stateMutability": "nonpayable",
      "type": "function",
      "signature": "0x2b37f53c"
    },
    {
      "constant": false,
      "inputs": [
        {
          "name": "_ballotStatement",
          "type": "string"
        },
        {
          "name": "option1",
          "type": "string"
        },
        {
          "name": "option2",
          "type": "string"
        },
        {
          "name": "_endRegistrationPhase",
          "type": "uint256"
        },
        {
          "name": "_endVotingPhase",
          "type": "uint256"
        },
        {
          "name": "_depositRequired",
          "type": "uint256"
        },
        {
          "name": "addr",
          "type": "address[]"
        }
      ],
      "name": "creatBallot",
      "outputs": [
        {
          "name": "",
          "type": "bool"
        }
      ],
      "payable": false,
      "stateMutability": "nonpayable",
      "type": "function",
      "signature": "0xaeb32ae3"
    },
    {
      "constant": false,
      "inputs": [
        {
          "name": "addr",
          "type": "address[]"
        }
      ],
      "name": "addEligible",
      "outputs": [],
      "payable": false,
      "stateMutability": "nonpayable",
      "type": "function",
      "signature": "0x63333cb2"
    },
    {
      "constant": false,
      "inputs": [],
      "name": "deadlinePassed",
      "outputs": [
        {
          "name": "",
          "type": "bool"
        }
      ],
      "payable": false,
      "stateMutability": "nonpayable",
      "type": "function",
      "signature": "0x77df5fc8"
    },
    {
      "constant": false,
      "inputs": [
        {
          "name": "xG",
          "type": "uint256[2]"
        },
        {
          "name": "vG",
          "type": "uint256[3]"
        },
        {
          "name": "r",
          "type": "uint256"
        }
      ],
      "name": "register",
      "outputs": [
        {
          "name": "",
          "type": "bool"
        }
      ],
      "payable": true,
      "stateMutability": "payable",
      "type": "function",
      "signature": "0x08de18c3"
    },
    {
      "constant": false,
      "inputs": [],
      "name": "finishRegistrationPhase",
      "outputs": [
        {
          "name": "",
          "type": "bool"
        }
      ],
      "payable": false,
      "stateMutability": "nonpayable",
      "type": "function",
      "signature": "0x6447d208"
    },
    {
      "constant": false,
      "inputs": [
        {
          "name": "params",
          "type": "uint256[4]"
        },
        {
          "name": "y",
          "type": "uint256[2]"
        },
        {
          "name": "a1",
          "type": "uint256[2]"
        },
        {
          "name": "b1",
          "type": "uint256[2]"
        },
        {
          "name": "a2",
          "type": "uint256[2]"
        },
        {
          "name": "b2",
          "type": "uint256[2]"
        }
      ],
      "name": "submitVote",
      "outputs": [
        {
          "name": "",
          "type": "bool"
        }
      ],
      "payable": false,
      "stateMutability": "nonpayable",
      "type": "function",
      "signature": "0x648136d4"
    },
    {
      "constant": false,
      "inputs": [],
      "name": "computeTally",
      "outputs": [],
      "payable": false,
      "stateMutability": "nonpayable",
      "type": "function",
      "signature": "0x0997a83a"
    },
    {
      "constant": false,
      "inputs": [
        {
          "name": "xG",
          "type": "uint256[2]"
        },
        {
          "name": "r",
          "type": "uint256"
        },
        {
          "name": "vG",
          "type": "uint256[3]"
        }
      ],
      "name": "verifyKey",
      "outputs": [
        {
          "name": "",
          "type": "bool"
        }
      ],
      "payable": false,
      "stateMutability": "nonpayable",
      "type": "function",
      "signature": "0x05c5aabc"
    },
    {
      "constant": false,
      "inputs": [
        {
          "name": "params",
          "type": "uint256[4]"
        },
        {
          "name": "xG",
          "type": "uint256[2]"
        },
        {
          "name": "yG",
          "type": "uint256[2]"
        },
        {
          "name": "y",
          "type": "uint256[2]"
        },
        {
          "name": "a1",
          "type": "uint256[2]"
        },
        {
          "name": "b1",
          "type": "uint256[2]"
        },
        {
          "name": "a2",
          "type": "uint256[2]"
        },
        {
          "name": "b2",
          "type": "uint256[2]"
        }
      ],
      "name": "verify1outof2ZKP",
      "outputs": [
        {
          "name": "",
          "type": "bool"
        }
      ],
      "payable": false,
      "stateMutability": "nonpayable",
      "type": "function",
      "signature": "0xc07bbc87"
    }
  ],
  "bytecode": "0x60806040523480156200001157600080fd5b50336000806101000a81548173ffffffffffffffffffffffffffffffffffffffff021916908373ffffffffffffffffffffffffffffffffffffffff1602179055506000601460006101000a81548160ff021916908360038111156200007257fe5b0217905550615f3680620000876000396000f300608060405260043610610180576000357c0100000000000000000000000000000000000000000000000000000000900463ffffffff16806305c5aabc146101855780630713b1391461022857806308de18c3146102835780630997a83a146103195780630c3f6acf146103305780631b26586c146103695780632b37f53c146103f95780633138ffe71461047b5780633a5f547a146104a6578063409e2205146104e757806341b3d1851461058d5780634a4ab63d146105b857806357dee00d1461060f57806363333cb21461066a5780636447d208146106d0578063648136d4146106ff57806377df5fc8146108545780638460be61146108835780638da5cb5b146108c4578063927416c01461091b578063a300e22414610946578063aeb32ae314610971578063b21a64da14610adf578063b2dd5c0714610b0a578063b3a2273f14610b65578063bc3da53514610b90578063c07bbc8714610be7578063da58c7d914610d9a578063edf26d9b14610e07578063f2fde38b14610e74575b600080fd5b34801561019157600080fd5b5061020e6004803603810190808060400190600280602002604051908101604052809291908260026020028082843782019150505050509192919290803590602001909291908060600190600380602002604051908101604052809291908260036020028082843782019150505050509192919290505050610eb7565b604051808215151515815260200191505060405180910390f35b34801561023457600080fd5b50610269600480360381019080803573ffffffffffffffffffffffffffffffffffffffff1690602001909291905050506111e5565b604051808215151515815260200191505060405180910390f35b6102ff6004803603810190808060400190600280602002604051908101604052809291908260026020028082843782019150505050509192919290806060019060038060200260405190810160405280929190826003602002808284378201915050505050919291929080359060200190929190505050611205565b604051808215151515815260200191505060405180910390f35b34801561032557600080fd5b5061032e611549565b005b34801561033c57600080fd5b50610345611d06565b6040518082600381111561035557fe5b60ff16815260200191505060405180910390f35b34801561037557600080fd5b5061037e611d19565b6040518080602001828103825283818151815260200191508051906020019080838360005b838110156103be5780820151818401526020810190506103a3565b50505050905090810190601f1680156103eb5780820380516001836020036101000a031916815260200191505b509250505060405180910390f35b34801561040557600080fd5b5061040e611db7565b6040518083600260200280838360005b8381101561043957808201518184015260208101905061041e565b5050505090500182600260200280838360005b8381101561046757808201518184015260208101905061044c565b505050509050019250505060405180910390f35b34801561048757600080fd5b50610490611eb8565b6040518082815260200191505060405180910390f35b3480156104b257600080fd5b506104d160048036038101908080359060200190929190505050611ebe565b6040518082815260200191505060405180910390f35b3480156104f357600080fd5b5061051260048036038101908080359060200190929190505050611ed8565b6040518080602001828103825283818151815260200191508051906020019080838360005b83811015610552578082015181840152602081019050610537565b50505050905090810190601f16801561057f5780820380516001836020036101000a031916815260200191505b509250505060405180910390f35b34801561059957600080fd5b506105a2611f8a565b6040518082815260200191505060405180910390f35b3480156105c457600080fd5b506105f9600480360381019080803573ffffffffffffffffffffffffffffffffffffffff169060200190929190505050611f90565b6040518082815260200191505060405180910390f35b34801561061b57600080fd5b50610650600480360381019080803573ffffffffffffffffffffffffffffffffffffffff169060200190929190505050611fa8565b604051808215151515815260200191505060405180910390f35b34801561067657600080fd5b506106ce60048036038101908080359060200190820180359060200190808060200260200160405190810160405280939291908181526020018383602002808284378201915050505050509192919290505050611fc8565b005b3480156106dc57600080fd5b506106e56121e2565b604051808215151515815260200191505060405180910390f35b34801561070b57600080fd5b5061083a60048036038101908080608001906004806020026040519081016040528092919082600460200280828437820191505050505091929192908060400190600280602002604051908101604052809291908260026020028082843782019150505050509192919290806040019060028060200260405190810160405280929190826002602002808284378201915050505050919291929080604001906002806020026040519081016040528092919082600260200280828437820191505050505091929192908060400190600280602002604051908101604052809291908260026020028082843782019150505050509192919290806040019060028060200260405190810160405280929190826002602002808284378201915050505050919291929050505061287f565b604051808215151515815260200191505060405180910390f35b34801561086057600080fd5b50610869612c42565b604051808215151515815260200191505060405180910390f35b34801561088f57600080fd5b506108ae600480360381019080803590602001909291905050506130ad565b6040518082815260200191505060405180910390f35b3480156108d057600080fd5b506108d96130c7565b604051808273ffffffffffffffffffffffffffffffffffffffff1673ffffffffffffffffffffffffffffffffffffffff16815260200191505060405180910390f35b34801561092757600080fd5b506109306130ec565b6040518082815260200191505060405180910390f35b34801561095257600080fd5b5061095b6130f2565b6040518082815260200191505060405180910390f35b34801561097d57600080fd5b50610ac5600480360381019080803590602001908201803590602001908080601f0160208091040260200160405190810160405280939291908181526020018383808284378201915050505050509192919290803590602001908201803590602001908080601f0160208091040260200160405190810160405280939291908181526020018383808284378201915050505050509192919290803590602001908201803590602001908080601f0160208091040260200160405190810160405280939291908181526020018383808284378201915050505050509192919290803590602001909291908035906020019092919080359060200190929190803590602001908201803590602001908080602002602001604051908101604052809392919081815260200183836020028082843782019150505050505091929192905050506130f8565b604051808215151515815260200191505060405180910390f35b348015610aeb57600080fd5b50610af4613270565b6040518082815260200191505060405180910390f35b348015610b1657600080fd5b50610b4b600480360381019080803573ffffffffffffffffffffffffffffffffffffffff169060200190929190505050613276565b604051808215151515815260200191505060405180910390f35b348015610b7157600080fd5b50610b7a613296565b6040518082815260200191505060405180910390f35b348015610b9c57600080fd5b50610bd1600480360381019080803573ffffffffffffffffffffffffffffffffffffffff16906020019092919050505061329c565b6040518082815260200191505060405180910390f35b348015610bf357600080fd5b50610d80600480360381019080806080019060048060200260405190810160405280929190826004602002808284378201915050505050919291929080604001906002806020026040519081016040528092919082600260200280828437820191505050505091929192908060400190600280602002604051908101604052809291908260026020028082843782019150505050509192919290806040019060028060200260405190810160405280929190826002602002808284378201915050505050919291929080604001906002806020026040519081016040528092919082600260200280828437820191505050505091929192908060400190600280602002604051908101604052809291908260026020028082843782019150505050509192919290806040019060028060200260405190810160405280929190826002602002808284378201915050505050919291929080604001906002806020026040519081016040528092919082600260200280828437820191505050505091929192905050506132b4565b604051808215151515815260200191505060405180910390f35b348015610da657600080fd5b50610dc560048036038101908080359060200190929190505050613b31565b604051808273ffffffffffffffffffffffffffffffffffffffff1673ffffffffffffffffffffffffffffffffffffffff16815260200191505060405180910390f35b348015610e1357600080fd5b50610e3260048036038101908080359060200190929190505050613b6f565b604051808273ffffffffffffffffffffffffffffffffffffffff1673ffffffffffffffffffffffffffffffffffffffff16815260200191505060405180910390f35b348015610e8057600080fd5b50610eb5600480360381019080803573ffffffffffffffffffffffffffffffffffffffff169060200190929190505050613bad565b005b6000610ec1615d26565b600080610ecc615d48565b610ed4615d48565b610edc615d48565b7f79be667ef9dcbbac55a06295ce870b07029bfcdb2dce28d959f2815b16f81798866000600281101515610f0c57fe5b6020020181815250507f483ada7726a3c4655da4fbfc0e1108a8fd17b448a68554199c47d08ffb10d4b8866001600281101515610f4557fe5b602002018181525050610f578a613c4b565b1580610f695750610f6788613c5d565b155b15610f7757600096506111d8565b6002337f79be667ef9dcbbac55a06295ce870b07029bfcdb2dce28d959f2815b16f817987f483ada7726a3c4655da4fbfc0e1108a8fd17b448a68554199c47d08ffb10d4b88d8c604051602001808673ffffffffffffffffffffffffffffffffffffffff1673ffffffffffffffffffffffffffffffffffffffff16815260200185815260200184815260200183600260200280838360005b8381101561102a57808201518184015260208101905061100f565b5050505090500182600360200280838360005b8381101561105857808201518184015260208101905061103d565b50505050905001955050505050506040516020818303038152906040526040518082805190602001908083835b6020831015156110aa5780518252602082019150602081019050602083039250611085565b6001836020036101000a0380198251168184511680821785525050505050509050019150506020604051808303816000865af11580156110ee573d6000803e3d6000fd5b5050506040513d602081101561110357600080fd5b81019080805190602001909291905050509450846001900493506111278987613cd0565b9250611133848b613cd0565b915061113f8383614562565b905061116b817ffffffffffffffffffffffffffffffffffffffffffffffffffffffffefffffc2f614a88565b87600060038110151561117a57fe5b602002015181600060038110151561118e57fe5b60200201511480156111c557508760016003811015156111aa57fe5b60200201518160016003811015156111be57fe5b6020020151145b156111d357600196506111d8565b600096505b5050505050509392505050565b60046020528060005260406000206000915054906101000a900460ff1681565b600061120f615d26565b600180600381111561121d57fe5b601460009054906101000a900460ff16600381111561123857fe5b14151561124457600080fd5b61124c612c42565b1561125a5760009250611540565b6001600381111561126757fe5b601460009054906101000a900460ff16600381111561128257fe5b1415156112925760009250611540565b6015543410156112a55760009250611540565b600460003373ffffffffffffffffffffffffffffffffffffffff1673ffffffffffffffffffffffffffffffffffffffff16815260200190815260200160002060009054906101000a900460ff161561153b57611302868587610eb7565b1561153a5734600760003373ffffffffffffffffffffffffffffffffffffffff1673ffffffffffffffffffffffffffffffffffffffff16815260200190815260200160002081905550600a54600260003373ffffffffffffffffffffffffffffffffffffffff1673ffffffffffffffffffffffffffffffffffffffff168152602001908152602001600020819055506080604051908101604052803373ffffffffffffffffffffffffffffffffffffffff1681526020018781526020018381526020018381525060036000600a54815260200190815260200160002060008201518160000160006101000a81548173ffffffffffffffffffffffffffffffffffffffff021916908373ffffffffffffffffffffffffffffffffffffffff16021790555060208201518160010190600261143c929190615d6b565b50604082015181600301906002611454929190615d6b565b5060608201518160050190600261146c929190615d6b565b509050506001600560003373ffffffffffffffffffffffffffffffffffffffff1673ffffffffffffffffffffffffffffffffffffffff16815260200190815260200160002060006101000a81548160ff0219169083151502179055506000600660003373ffffffffffffffffffffffffffffffffffffffff1673ffffffffffffffffffffffffffffffffffffffff16815260200190815260200160002060006101000a81548160ff0219169083151502179055506001600a6000828254019250508190555060019250611540565b5b600092505b50509392505050565b611551615d26565b611559615d48565b611561615d26565b60008061156c615d48565b600280600381111561157a57fe5b601460009054906101000a900460ff16600381111561159557fe5b1415156115a157600080fd5b3373ffffffffffffffffffffffffffffffffffffffff166000809054906101000a900473ffffffffffffffffffffffffffffffffffffffff1673ffffffffffffffffffffffffffffffffffffffff161415156115fc57600080fd5b7f79be667ef9dcbbac55a06295ce870b07029bfcdb2dce28d959f2815b16f8179887600060028110151561162c57fe5b6020020181815250507f483ada7726a3c4655da4fbfc0e1108a8fd17b448a68554199c47d08ffb10d4b887600160028110151561166557fe5b602002018181525050600092505b600a548310156117f757600660006003600086815260200190815260200160002060000160009054906101000a900473ffffffffffffffffffffffffffffffffffffffff1673ffffffffffffffffffffffffffffffffffffffff1673ffffffffffffffffffffffffffffffffffffffff16815260200190815260200160002060009054906101000a900460ff16151561170b57600080fd5b60036000848152602001908152602001600020600501600280602002604051908101604052809291908260028015611758576020028201915b815481526020019060010190808311611744575b5050505050945060008314156117df5784600060028110151561177757fe5b602002015186600060038110151561178b57fe5b6020020181815250508460016002811015156117a357fe5b60200201518660016003811015156117b757fe5b60200201818152505060018660026003811015156117d157fe5b6020020181815250506117ea565b6117e98686614b55565b5b8280600101935050611673565b6003601460006101000a81548160ff0219169083600381111561181657fe5b0217905550600086600060038110151561182c57fe5b602002015114156119725760006010600060028110151561184957fe5b0181905550600a546010600160028110151561186157fe5b0181905550600760003373ffffffffffffffffffffffffffffffffffffffff1673ffffffffffffffffffffffffffffffffffffffff1681526020019081526020016000205493506000600760003373ffffffffffffffffffffffffffffffffffffffff1673ffffffffffffffffffffffffffffffffffffffff168152602001908152602001600020819055503373ffffffffffffffffffffffffffffffffffffffff166108fc859081150290604051600060405180830381858888f19350505050151561196d5783600760003373ffffffffffffffffffffffffffffffffffffffff1673ffffffffffffffffffffffffffffffffffffffff168152602001908152602001600020819055505b611cfd565b61199c867ffffffffffffffffffffffffffffffffffffffffffffffffffffffffefffffc2f614a88565b8660006002811015156119ab57fe5b60200201518260006003811015156119bf57fe5b6020020181815250508660016002811015156119d757fe5b60200201518260016003811015156119eb57fe5b6020020181815250506001826002600381101515611a0557fe5b602002018181525050600192505b600a5483111515611bc757816000600381101515611a2d57fe5b6020020151866000600381101515611a4157fe5b60200201511415611b86578260106000600281101515611a5d57fe5b0181905550600a5460106001600281101515611a7557fe5b0181905550600760003373ffffffffffffffffffffffffffffffffffffffff1673ffffffffffffffffffffffffffffffffffffffff1681526020019081526020016000205493506000600760003373ffffffffffffffffffffffffffffffffffffffff1673ffffffffffffffffffffffffffffffffffffffff168152602001908152602001600020819055503373ffffffffffffffffffffffffffffffffffffffff166108fc859081150290604051600060405180830381858888f193505050501515611b815783600760003373ffffffffffffffffffffffffffffffffffffffff1673ffffffffffffffffffffffffffffffffffffffff168152602001908152602001600020819055505b611cfd565b611b908288614b55565b611bba827ffffffffffffffffffffffffffffffffffffffffffffffffffffffffefffffc2f614a88565b8280600101935050611a13565b600060106000600281101515611bd957fe5b0181905550600060106001600281101515611bf057fe5b0181905550600760003373ffffffffffffffffffffffffffffffffffffffff1673ffffffffffffffffffffffffffffffffffffffff1681526020019081526020016000205493506000600760003373ffffffffffffffffffffffffffffffffffffffff1673ffffffffffffffffffffffffffffffffffffffff168152602001908152602001600020819055503373ffffffffffffffffffffffffffffffffffffffff166108fc859081150290604051600060405180830381858888f193505050501515611cfc5783600760003373ffffffffffffffffffffffffffffffffffffffff1673ffffffffffffffffffffffffffffffffffffffff168152602001908152602001600020819055505b5b50505050505050565b601460009054906101000a900460ff1681565b600d8054600181600116156101000203166002900480601f016020809104026020016040519081016040528092919081815260200182805460018160011615610100020316600290048015611daf5780601f10611d8457610100808354040283529160200191611daf565b820191906000526020600020905b815481529060010190602001808311611d9257829003601f168201915b505050505081565b611dbf615d26565b611dc7615d26565b6000600260003373ffffffffffffffffffffffffffffffffffffffff1673ffffffffffffffffffffffffffffffffffffffff16815260200190815260200160002054905060036000828152602001908152602001600020600101600280602002604051908101604052809291908260028015611e58576020028201915b815481526020019060010190808311611e44575b5050505050925060036000828152602001908152602001600020600301600280602002604051908101604052809291908260028015611eac576020028201915b815481526020019060010190808311611e98575b50505050509150509091565b600b5481565b601081600281101515611ecd57fe5b016000915090505481565b600e81600281101515611ee757fe5b016000915090508054600181600116156101000203166002900480601f016020809104026020016040519081016040528092919081815260200182805460018160011615610100020316600290048015611f825780601f10611f5757610100808354040283529160200191611f82565b820191906000526020600020905b815481529060010190602001808311611f6557829003601f168201915b505050505081565b60155481565b60026020528060005260406000206000915090505481565b60066020528060005260406000206000915054906101000a900460ff1681565b60006001806003811115611fd857fe5b601460009054906101000a900460ff166003811115611ff357fe5b141515611fff57600080fd5b3373ffffffffffffffffffffffffffffffffffffffff166000809054906101000a900473ffffffffffffffffffffffffffffffffffffffff1673ffffffffffffffffffffffffffffffffffffffff1614151561205a57600080fd5b600091505b82518210156121dd5760046000848481518110151561207a57fe5b9060200190602002015173ffffffffffffffffffffffffffffffffffffffff1673ffffffffffffffffffffffffffffffffffffffff16815260200190815260200160002060009054906101000a900460ff1615156121d05760016004600085858151811015156120e657fe5b9060200190602002015173ffffffffffffffffffffffffffffffffffffffff1673ffffffffffffffffffffffffffffffffffffffff16815260200190815260200160002060006101000a81548160ff0219169083151502179055506001838381518110151561215157fe5b9060200190602002015190806001815401808255809150509060018203906000526020600020016000909192909190916101000a81548173ffffffffffffffffffffffffffffffffffffffff021916908373ffffffffffffffffffffffffffffffffffffffff160217905550506001600b600082825401925050819055505b818060010192505061205f565b505050565b60006121ec615d26565b6121f4615d48565b6121fc615d48565b612204615d48565b6000600180600381111561221457fe5b601460009054906101000a900460ff16600381111561222f57fe5b14151561223b57600080fd5b3373ffffffffffffffffffffffffffffffffffffffff166000809054906101000a900473ffffffffffffffffffffffffffffffffffffffff1673ffffffffffffffffffffffffffffffffffffffff1614151561229657600080fd5b6003600a5410156122a657612876565b600360006001815260200190815260200160002060010160006002811015156122cb57fe5b01548360006003811015156122dc57fe5b6020020181815250506003600060018152602001908152602001600020600101600160028110151561230a57fe5b015483600160038110151561231b57fe5b602002018181525050600183600260038110151561233557fe5b602002018181525050600291505b600a548210156123b5576123a8836003600085815260200190815260200160002060010160028060200260405190810160405280929190826002801561239e576020028201915b81548152602001906001019080831161238a575b5050505050614b55565b8180600101925050612343565b6123df837ffffffffffffffffffffffffffffffffffffffffffffffffffffffffefffffc2f614a88565b8260006003811015156123ee57fe5b602002015160036000808152602001908152602001600020600301600060028110151561241757fe5b018190555082600160038110151561242b57fe5b60200201517ffffffffffffffffffffffffffffffffffffffffffffffffffffffffefffffc2f0360036000808152602001908152602001600020600301600160028110151561247657fe5b0181905550600191505b600a5482101561284d57600182141561252e576003600080815260200190815260200160002060010160006002811015156124b757fe5b01548460006003811015156124c857fe5b6020020181815250506003600080815260200190815260200160002060010160016002811015156124f557fe5b015484600160038110151561250657fe5b602002018181525050600184600260038110151561252057fe5b60200201818152505061258d565b61258c8460036000600186038152602001908152602001600020600101600280602002604051908101604052809291908260028015612582576020028201915b81548152602001906001019080831161256e575b5050505050614b55565b5b6001600a5403821415612643576125c4847ffffffffffffffffffffffffffffffffffffffffffffffffffffffffefffffc2f614a88565b8360006003811015156125d357fe5b60200201516003600084815260200190815260200160002060030160006002811015156125fc57fe5b018190555083600160038110151561261057fe5b602002015160036000848152602001908152602001600020600301600160028110151561263957fe5b0181905550612840565b60036000838152602001908152602001600020600101600060028110151561266757fe5b015486600060028110151561267857fe5b6020020181815250506003600083815260200190815260200160002060010160016002811015156126a557fe5b01547ffffffffffffffffffffffffffffffffffffffffffffffffffffffffefffffc2f038660016002811015156126d857fe5b6020020181815250506126eb8387614b55565b612715837ffffffffffffffffffffffffffffffffffffffffffffffffffffffffefffffc2f614a88565b82600060038110151561272457fe5b602002015186600060028110151561273857fe5b60200201818152505082600160038110151561275057fe5b60200201517ffffffffffffffffffffffffffffffffffffffffffffffffffffffffefffffc2f0386600160028110151561278657fe5b6020020181815250506127998487615036565b94506127c5857ffffffffffffffffffffffffffffffffffffffffffffffffffffffffefffffc2f614a88565b8460006003811015156127d457fe5b60200201516003600084815260200190815260200160002060030160006002811015156127fd57fe5b018190555084600160038110151561281157fe5b602002015160036000848152602001908152602001600020600301600160028110151561283a57fe5b01819055505b8180600101925050612480565b6002601460006101000a81548160ff0219169083600381111561286c57fe5b0217905550600196505b50505050505090565b60008061288a615d26565b612892615d26565b6000600260003373ffffffffffffffffffffffffffffffffffffffff1673ffffffffffffffffffffffffffffffffffffffff16815260200190815260200160002054935060036000858152602001908152602001600020600301600280602002604051908101604052809291908260028015612923576020028201915b81548152602001906001019080831161290f575b5050505050925060036000858152602001908152602001600020600101600280602002604051908101604052809291908260028015612977576020028201915b815481526020019060010190808311612963575b50505050509150600560003373ffffffffffffffffffffffffffffffffffffffff1673ffffffffffffffffffffffffffffffffffffffff16815260200190815260200160002060009054906101000a900460ff168015612a215750600660003373ffffffffffffffffffffffffffffffffffffffff1673ffffffffffffffffffffffffffffffffffffffff16815260200190815260200160002060009054906101000a900460ff16155b15612c2f57612a368b83858d8d8d8d8d6132b4565b15612c2e57896000600281101515612a4a57fe5b6020020151600360008681526020019081526020016000206005016000600281101515612a7357fe5b0181905550896001600281101515612a8757fe5b6020020151600360008681526020019081526020016000206005016001600281101515612ab057fe5b01819055506001600660003373ffffffffffffffffffffffffffffffffffffffff1673ffffffffffffffffffffffffffffffffffffffff16815260200190815260200160002060006101000a81548160ff0219169083151502179055506001600c60008282540192505081905550600760003373ffffffffffffffffffffffffffffffffffffffff1673ffffffffffffffffffffffffffffffffffffffff1681526020019081526020016000205490506000600760003373ffffffffffffffffffffffffffffffffffffffff1673ffffffffffffffffffffffffffffffffffffffff168152602001908152602001600020819055503373ffffffffffffffffffffffffffffffffffffffff166108fc829081150290604051600060405180830381858888f193505050501515612c255780600760003373ffffffffffffffffffffffffffffffffffffffff1673ffffffffffffffffffffffffffffffffffffffff168152602001908152602001600020819055505b60019450612c34565b5b600094505b505050509695505050505050565b6000612c4c615d26565b600080600954421115612c7e576003601460006101000a81548160ff02191690836003811115612c7857fe5b02179055505b600380811115612c8a57fe5b601460009054906101000a900460ff166003811115612ca557fe5b14156130a257600091505b600180549050821015612f7657600182815481101515612ccc57fe5b9060005260206000200160009054906101000a900473ffffffffffffffffffffffffffffffffffffffff1690506000600460008373ffffffffffffffffffffffffffffffffffffffff1673ffffffffffffffffffffffffffffffffffffffff16815260200190815260200160002060006101000a81548160ff0219169083151502179055506000600560008373ffffffffffffffffffffffffffffffffffffffff1673ffffffffffffffffffffffffffffffffffffffff16815260200190815260200160002060006101000a81548160ff021916908315150217905550608060405190810160405280600073ffffffffffffffffffffffffffffffffffffffff168152602001848152602001848152602001848152506003600084815260200190815260200160002060008201518160000160006101000a81548173ffffffffffffffffffffffffffffffffffffffff021916908373ffffffffffffffffffffffffffffffffffffffff160217905550602082015181600101906002612e53929190615d6b565b50604082015181600301906002612e6b929190615d6b565b50606082015181600501906002612e83929190615d6b565b509050506000600260008373ffffffffffffffffffffffffffffffffffffffff1673ffffffffffffffffffffffffffffffffffffffff168152602001908152602001600020819055506000600660008373ffffffffffffffffffffffffffffffffffffffff1673ffffffffffffffffffffffffffffffffffffffff16815260200190815260200160002060006101000a81548160ff0219169083151502179055506000600760008373ffffffffffffffffffffffffffffffffffffffff1673ffffffffffffffffffffffffffffffffffffffff168152602001908152602001600020819055508180600101925050612cb0565b6000600881905550600060098190555060016000612f949190615dab565b6000600a819055506000600b819055506000600c819055506020604051908101604052806000815250600d9080519060200190612fd2929190615dcc565b506020604051908101604052806000815250600e6000600281101515612ff457fe5b019080519060200190613008929190615dcc565b506020604051908101604052806000815250600e600160028110151561302a57fe5b01908051906020019061303e929190615dcc565b5060006010600060028110151561305157fe5b018190555060006010600160028110151561306857fe5b018190555060006015819055506000601460006101000a81548160ff0219169083600381111561309457fe5b0217905550600193506130a7565b600093505b50505090565b6012816002811015156130bc57fe5b016000915090505481565b6000809054906101000a900473ffffffffffffffffffffffffffffffffffffffff1681565b600a5481565b60095481565b60008080600381111561310757fe5b601460009054906101000a900460ff16600381111561312257fe5b14151561312e57600080fd5b3373ffffffffffffffffffffffffffffffffffffffff166000809054906101000a900473ffffffffffffffffffffffffffffffffffffffff1673ffffffffffffffffffffffffffffffffffffffff1614151561318957600080fd5b4286101561319a5760009150613264565b858510156131ab5760009150613264565b6131b4836154f8565b15156131c35760009150613264565b88600d90805190602001906131d9929190615dcc565b5087600e60006002811015156131eb57fe5b0190805190602001906131ff929190615dcc565b5086600e600160028110151561321157fe5b019080519060200190613225929190615dcc565b508560088190555084600981905550836015819055506001601460006101000a81548160ff0219169083600381111561325a57fe5b0217905550600191505b50979650505050505050565b60085481565b60056020528060005260406000206000915054906101000a900460ff1681565b600c5481565b60076020528060005260406000206000915090505481565b60006132be615d26565b6132c6615d48565b6132ce615d48565b6132d6615d26565b7f79be667ef9dcbbac55a06295ce870b07029bfcdb2dce28d959f2815b16f8179881600060028110151561330657fe5b6020020181815250507f483ada7726a3c4655da4fbfc0e1108a8fd17b448a68554199c47d08ffb10d4b881600160028110151561333f57fe5b6020020181815250506133518c613c4b565b158061336357506133618b613c4b565b155b8061337457506133728a613c4b565b155b80613385575061338389613c4b565b155b80613396575061339488613c4b565b155b806133a757506133a587613c4b565b155b806133b857506133b686613c4b565b155b156133c65760009450613b21565b7ffffffffffffffffffffffffffffffffebaaedce6af48a03bbfd25e8cd03641418015156133f057fe5b8d60016004811015156133ff57fe5b60200201518e600060048110151561341357fe5b6020020151086002338e8d8d8d8d8d604051602001808873ffffffffffffffffffffffffffffffffffffffff1673ffffffffffffffffffffffffffffffffffffffff16815260200187600260200280838360005b83811015613482578082015181840152602081019050613467565b5050505090500186600260200280838360005b838110156134b0578082015181840152602081019050613495565b5050505090500185600260200280838360005b838110156134de5780820151818401526020810190506134c3565b5050505090500184600260200280838360005b8381101561350c5780820151818401526020810190506134f1565b5050505090500183600260200280838360005b8381101561353a57808201518184015260208101905061351f565b5050505090500182600260200280838360005b8381101561356857808201518184015260208101905061354d565b505050509050019750505050505050506040516020818303038152906040526040518082805190602001908083835b6020831015156135bc5780518252602082019150602081019050602083039250613597565b6001836020036101000a0380198251168184511680821785525050505050509050019150506020604051808303816000865af1158015613600573d6000803e3d6000fd5b5050506040513d602081101561361557600080fd5b81019080805190602001909291905050506001900414151561363a5760009450613b21565b6136578d600260048110151561364c57fe5b602002015182613cd0565b925061367f8361367a8f600060048110151561366f57fe5b60200201518f613cd0565b614562565b91506136ab827ffffffffffffffffffffffffffffffffffffffffffffffffffffffffefffffc2f614a88565b8160006003811015156136ba57fe5b60200201518960006002811015156136ce57fe5b602002015114158061370657508160016003811015156136ea57fe5b60200201518960016002811015156136fe57fe5b602002015114155b156137145760009450613b21565b6137318d600260048110151561372657fe5b60200201518c613cd0565b9250613759836137548f600060048110151561374957fe5b60200201518d613cd0565b614562565b9150613785827ffffffffffffffffffffffffffffffffffffffffffffffffffffffffefffffc2f614a88565b81600060038110151561379457fe5b60200201518860006002811015156137a857fe5b60200201511415806137e057508160016003811015156137c457fe5b60200201518860016002811015156137d857fe5b602002015114155b156137ee5760009450613b21565b61380b8d600360048110151561380057fe5b602002015182613cd0565b92506138338361382e8f600160048110151561382357fe5b60200201518f613cd0565b614562565b915061385f827ffffffffffffffffffffffffffffffffffffffffffffffffffffffffefffffc2f614a88565b81600060038110151561386e57fe5b602002015187600060028110151561388257fe5b60200201511415806138ba575081600160038110151561389e57fe5b60200201518760016002811015156138b257fe5b602002015114155b156138c85760009450613b21565b8060006002811015156138d757fe5b60200201518460006002811015156138eb57fe5b60200201818152505080600160028110151561390357fe5b60200201517ffffffffffffffffffffffffffffffffffffffffffffffffffffffffefffffc2f0384600160028110151561393957fe5b60200201818152505089600060028110151561395157fe5b602002015182600060038110151561396557fe5b60200201818152505089600160028110151561397d57fe5b602002015182600160038110151561399157fe5b60200201818152505060018260026003811015156139ab57fe5b6020020181815250506139be8285615036565b92506139ea837ffffffffffffffffffffffffffffffffffffffffffffffffffffffffefffffc2f614a88565b8260006003811015156139f957fe5b6020020151846000600281101515613a0d57fe5b602002018181525050826001600381101515613a2557fe5b6020020151846001600281101515613a3957fe5b602002018181525050613a5f8d6001600481101515613a5457fe5b602002015185613cd0565b9250613a87613a818e6003600481101515613a7657fe5b60200201518d613cd0565b84614562565b9150613ab3827ffffffffffffffffffffffffffffffffffffffffffffffffffffffffefffffc2f614a88565b816000600381101515613ac257fe5b6020020151866000600281101515613ad657fe5b6020020151141580613b0e5750816001600381101515613af257fe5b6020020151866001600281101515613b0657fe5b602002015114155b15613b1c5760009450613b21565b600194505b5050505098975050505050505050565b60036020528060005260406000206000915090508060000160009054906101000a900473ffffffffffffffffffffffffffffffffffffffff16905081565b600181815481101515613b7e57fe5b906000526020600020016000915054906101000a900473ffffffffffffffffffffffffffffffffffffffff1681565b3373ffffffffffffffffffffffffffffffffffffffff166000809054906101000a900473ffffffffffffffffffffffffffffffffffffffff1673ffffffffffffffffffffffffffffffffffffffff16141515613c0857600080fd5b806000806101000a81548173ffffffffffffffffffffffffffffffffffffffff021916908373ffffffffffffffffffffffffffffffffffffffff16021790555050565b6000613c568261572e565b9050919050565b6000613c67615d26565b826000600381101515613c7657fe5b6020020151816000600281101515613c8a57fe5b602002018181525050826001600381101515613ca257fe5b6020020151816001600281101515613cb657fe5b602002018181525050613cc88161572e565b915050919050565b613cd8615d48565b6000806000613ce5615e4c565b613ced615d48565b613cf5615e7b565b60008060007ffffffffffffffffffffffffffffffffffffffffffffffffffffffffefffffc2f985060008c1415613d2b57614553565b6000604051985061020089016040525b8c15613d745760018d1615613d635760208d06905080888a015360206010821102818e03019c505b60028d049c50600188019750613d3b565b508797506060604051908101604052808c6000600281101515613d9357fe5b602002015181526020018c6001600281101515613dac57fe5b602002015181526020016001815250866000600881101515613dca57fe5b6020020181905250613dee866000600881101515613de457fe5b6020020151615878565b9450613dfa858c615036565b866001600881101515613e0957fe5b6020020181905250613e2e85876001600881101515613e2457fe5b6020020151614562565b866002600881101515613e3d57fe5b6020020181905250613e6285876002600881101515613e5857fe5b6020020151614562565b866003600881101515613e7157fe5b6020020181905250613e9685876003600881101515613e8c57fe5b6020020151614562565b866004600881101515613ea557fe5b6020020181905250613eca85876004600881101515613ec057fe5b6020020151614562565b866005600881101515613ed957fe5b6020020181905250613efe85876005600881101515613ef457fe5b6020020151614562565b866006600881101515613f0d57fe5b6020020181905250613f3285876006600881101515613f2857fe5b6020020151614562565b866007600881101515613f4157fe5b6020020181905250856001600881101515613f5857fe5b60200201516002600381101515613f6b57fe5b6020020151846000601081101515613f7f57fe5b60200201818152505088801515613f9257fe5b846000601081101515613fa157fe5b6020020151876002600881101515613fb557fe5b60200201516002600381101515613fc857fe5b602002015109846001601081101515613fdd57fe5b60200201818152505088801515613ff057fe5b846001601081101515613fff57fe5b602002015187600360088110151561401357fe5b6020020151600260038110151561402657fe5b60200201510984600260108110151561403b57fe5b6020020181815250508880151561404e57fe5b84600260108110151561405d57fe5b602002015187600460088110151561407157fe5b6020020151600260038110151561408457fe5b60200201510984600360108110151561409957fe5b602002018181525050888015156140ac57fe5b8460036010811015156140bb57fe5b60200201518760056008811015156140cf57fe5b602002015160026003811015156140e257fe5b6020020151098460046010811015156140f757fe5b6020020181815250508880151561410a57fe5b84600460108110151561411957fe5b602002015187600660088110151561412d57fe5b6020020151600260038110151561414057fe5b60200201510984600560108110151561415557fe5b6020020181815250508880151561416857fe5b84600560108110151561417757fe5b602002015187600760088110151561418b57fe5b6020020151600260038110151561419e57fe5b6020020151098460066010811015156141b357fe5b6020020181815250506141d98460066010811015156141ce57fe5b60200201518a615a30565b8460076010811015156141e857fe5b60200201818152505083600760108110151561420057fe5b602002015184600860108110151561421457fe5b6020020181815250508880151561422757fe5b84600860108110151561423657fe5b602002015185600560108110151561424a57fe5b60200201510984600f60108110151561425f57fe5b602002018181525050600692505b600283101515614334578880151561428157fe5b84600860108110151561429057fe5b602002015187600186016008811015156142a657fe5b602002015160026003811015156142b957fe5b6020020151098460086010811015156142ce57fe5b602002018181525050888015156142e157fe5b8460086010811015156142f057fe5b6020020151856002860360108110151561430657fe5b602002015109848460080160108110151561431d57fe5b60200201818152505082806001900393505061426d565b8880151561433e57fe5b84600860108110151561434d57fe5b602002015187600260088110151561436157fe5b6020020151600260038110151561437457fe5b60200201510984600960108110151561438957fe5b602002018181525050600092505b60078310156144195761440c86600185016008811015156143b457fe5b602002015185600986016010811015156143ca57fe5b60200201518b8015156143d957fe5b87600988016010811015156143ea57fe5b6020020151886009890160108110151561440057fe5b6020020151098c615adc565b8280600101935050614397565b5b6000871115614552578680600190039750508688015160001a915061443e8a615b78565b60108211156144c857600282601f0381151561445657fe5b0490506144c38a6040805190810160405280898560088110151561447657fe5b6020020151600060038110151561448957fe5b6020020151815260200189856008811015156144a157fe5b602002015160016003811015156144b457fe5b60200201518d03815250614b55565b61454d565b600082111561454c576002600183038115156144e057fe5b04905061454b8a6040805190810160405280898560088110151561450057fe5b6020020151600060038110151561451357fe5b60200201518152602001898560088110151561452b57fe5b6020020151600160038110151561453e57fe5b6020020151815250614b55565b5b5b61441a565b5b50505050505050505092915050565b61456a615d48565b6000614574615e9f565b61457c615e9f565b6000806000806000808b600260038110151561459457fe5b602002015114156145a757899850614a7a565b60008a60026003811015156145b857fe5b602002015114156145cb578a9850614a7a565b7ffffffffffffffffffffffffffffffffffffffffffffffffffffffffefffffc2f9750878015156145f857fe5b8b600260038110151561460757fe5b60200201518c600260038110151561461b57fe5b60200201510987600060048110151561463057fe5b6020020181815250508780151561464357fe5b87600060048110151561465257fe5b60200201518c600260038110151561466657fe5b60200201510987600160048110151561467b57fe5b6020020181815250508780151561468e57fe5b8a600260038110151561469d57fe5b60200201518b60026003811015156146b157fe5b6020020151098760026004811015156146c657fe5b602002018181525050878015156146d957fe5b8760026004811015156146e857fe5b60200201518b60026003811015156146fc57fe5b60200201510987600360048110151561471157fe5b6020020181815250506080604051908101604052808980151561473057fe5b89600260048110151561473f57fe5b60200201518e600060038110151561475357fe5b60200201510981526020018980151561476857fe5b89600360048110151561477757fe5b60200201518e600160038110151561478b57fe5b6020020151098152602001898015156147a057fe5b8960006004811015156147af57fe5b60200201518d60006003811015156147c357fe5b6020020151098152602001898015156147d857fe5b8960016004811015156147e757fe5b60200201518d60016003811015156147fb57fe5b602002015109815250955085600260048110151561481557fe5b602002015186600060048110151561482957fe5b602002015114156148785785600360048110151561484357fe5b602002015186600160048110151561485757fe5b602002015114151561486857614a7a565b6148718b615878565b9850614a7a565b8780151561488257fe5b86600060048110151561489157fe5b602002015189038760026004811015156148a757fe5b6020020151089450878015156148b957fe5b8660016004811015156148c857fe5b602002015189038760036004811015156148de57fe5b6020020151089350878015156148f057fe5b8586099250878015156148ff57fe5b85840991508780151561490e57fe5b8289038980151561491b57fe5b8687090890508780151561492b57fe5b8880151561493557fe5b8980151561493f57fe5b8589600060048110151561494f57fe5b6020020151096002098903820890508089600060038110151561496e57fe5b6020020181815250508780151561498157fe5b8880151561498b57fe5b828a038a80151561499857fe5b868a60006004811015156149a857fe5b6020020151090885098960016003811015156149c057fe5b602002018181525050878015156149d357fe5b888015156149dd57fe5b838860016004811015156149ed57fe5b60200201510989038a6001600381101515614a0457fe5b602002015108896001600381101515614a1957fe5b60200201818152505087801515614a2c57fe5b88801515614a3657fe5b8b6002600381101515614a4557fe5b60200201518d6002600381101515614a5957fe5b6020020151098609896002600381101515614a7057fe5b6020020181815250505b505050505050505092915050565b600080614aa8846002600381101515614a9d57fe5b602002015184615a30565b915082801515614ab457fe5b828309905082801515614ac357fe5b81856000600381101515614ad357fe5b602002015109846000600381101515614ae857fe5b60200201818152505082801515614afb57fe5b83801515614b0557fe5b828409856001600381101515614b1757fe5b602002015109846001600381101515614b2c57fe5b6020020181815250506001846002600381101515614b4657fe5b60200201818152505050505050565b6000614b5f615d26565b614b67615e9f565b6000806000806000808a6001600381101515614b7f57fe5b60200201511415614c0157886000600281101515614b9957fe5b60200201518a6000600381101515614bad57fe5b602002018181525050886001600281101515614bc557fe5b60200201518a6001600381101515614bd957fe5b60200201818152505060018a6002600381101515614bf357fe5b60200201818152505061502a565b6000896001600281101515614c1257fe5b60200201511415614c225761502a565b7ffffffffffffffffffffffffffffffffffffffffffffffffffffffffefffffc2f975087801515614c4f57fe5b8a6002600381101515614c5e57fe5b60200201518b6002600381101515614c7257fe5b602002015109876000600281101515614c8757fe5b60200201818152505087801515614c9a57fe5b876000600281101515614ca957fe5b60200201518b6002600381101515614cbd57fe5b602002015109876001600281101515614cd257fe5b6020020181815250506080604051908101604052808b6000600381101515614cf657fe5b602002015181526020018b6001600381101515614d0f57fe5b6020020151815260200189801515614d2357fe5b896000600281101515614d3257fe5b60200201518c6000600281101515614d4657fe5b602002015109815260200189801515614d5b57fe5b896001600281101515614d6a57fe5b60200201518c6001600281101515614d7e57fe5b6020020151098152509550856002600481101515614d9857fe5b6020020151866000600481101515614dac57fe5b60200201511415614e4757856003600481101515614dc657fe5b6020020151866001600481101515614dda57fe5b6020020151141515614e395760008a6000600381101515614df757fe5b60200201818152505060008a6001600381101515614e1157fe5b60200201818152505060008a6002600381101515614e2b57fe5b60200201818152505061502a565b614e428a615b78565b61502a565b87801515614e5157fe5b866000600481101515614e6057fe5b60200201518903876002600481101515614e7657fe5b602002015108945087801515614e8857fe5b866001600481101515614e9757fe5b60200201518903876003600481101515614ead57fe5b602002015108935087801515614ebf57fe5b858609925087801515614ece57fe5b858409915087801515614edd57fe5b82890389801515614eea57fe5b86870908905087801515614efa57fe5b88801515614f0457fe5b89801515614f0e57fe5b85896000600481101515614f1e57fe5b602002015109600209890382089050808a6000600381101515614f3d57fe5b60200201818152505087801515614f5057fe5b88801515614f5a57fe5b828a038a801515614f6757fe5b868a6000600481101515614f7757fe5b6020020151090885098a6001600381101515614f8f57fe5b60200201818152505087801515614fa257fe5b88801515614fac57fe5b83886001600481101515614fbc57fe5b60200201510989038b6001600381101515614fd357fe5b6020020151088a6001600381101515614fe857fe5b60200201818152505087801515614ffb57fe5b8a600260038110151561500a57fe5b602002015186098a600260038110151561502057fe5b6020020181815250505b50505050505050505050565b61503e615d48565b6000615048615d26565b615050615e9f565b6000806000806000808b600260038110151561506857fe5b602002015114156150bd576060604051908101604052808b600060028110151561508e57fe5b602002015181526020018b60016002811015156150a757fe5b60200201518152602001600181525098506154ea565b60008a60016002811015156150ce57fe5b602002015114156150e1578a98506154ea565b7ffffffffffffffffffffffffffffffffffffffffffffffffffffffffefffffc2f97508780151561510e57fe5b8b600260038110151561511d57fe5b60200201518c600260038110151561513157fe5b60200201510987600060028110151561514657fe5b6020020181815250508780151561515957fe5b87600060028110151561516857fe5b60200201518c600260038110151561517c57fe5b60200201510987600160028110151561519157fe5b6020020181815250506080604051908101604052808c60006003811015156151b557fe5b602002015181526020018c60016003811015156151ce57fe5b60200201518152602001898015156151e257fe5b8960006002811015156151f157fe5b60200201518d600060028110151561520557fe5b60200201510981526020018980151561521a57fe5b89600160028110151561522957fe5b60200201518d600160028110151561523d57fe5b602002015109815250955085600260048110151561525757fe5b602002015186600060048110151561526b57fe5b602002015114156153075785600360048110151561528557fe5b602002015186600160048110151561529957fe5b60200201511415156152f85760008b60006003811015156152b657fe5b60200201818152505060008b60016003811015156152d057fe5b60200201818152505060008b60026003811015156152ea57fe5b6020020181815250506154ea565b6153018b615878565b506154ea565b8780151561531157fe5b86600060048110151561532057fe5b6020020151890387600260048110151561533657fe5b60200201510894508780151561534857fe5b86600160048110151561535757fe5b6020020151890387600360048110151561536d57fe5b60200201510893508780151561537f57fe5b85860992508780151561538e57fe5b85840991508780151561539d57fe5b828903898015156153aa57fe5b868709089050878015156153ba57fe5b888015156153c457fe5b898015156153ce57fe5b858960006004811015156153de57fe5b602002015109600209890382089050808960006003811015156153fd57fe5b6020020181815250508780151561541057fe5b8880151561541a57fe5b828a038a80151561542757fe5b868a600060048110151561543757fe5b60200201510908850989600160038110151561544f57fe5b6020020181815250508780151561546257fe5b8880151561546c57fe5b8388600160048110151561547c57fe5b60200201510989038a600160038110151561549357fe5b6020020151088960016003811015156154a857fe5b602002018181525050878015156154bb57fe5b8b60026003811015156154ca57fe5b602002015186098960026003811015156154e057fe5b6020020181815250505b505050505050505092915050565b600080600080600381111561550957fe5b601460009054906101000a900460ff16600381111561552457fe5b14151561553057600080fd5b3373ffffffffffffffffffffffffffffffffffffffff166000809054906101000a900473ffffffffffffffffffffffffffffffffffffffff1673ffffffffffffffffffffffffffffffffffffffff1614151561558b57600080fd5b6003845110151561572257600091505b8351821015615719576004600085848151811015156155b657fe5b9060200190602002015173ffffffffffffffffffffffffffffffffffffffff1673ffffffffffffffffffffffffffffffffffffffff16815260200190815260200160002060009054906101000a900460ff16151561570c57600160046000868581518110151561562257fe5b9060200190602002015173ffffffffffffffffffffffffffffffffffffffff1673ffffffffffffffffffffffffffffffffffffffff16815260200190815260200160002060006101000a81548160ff0219169083151502179055506001848381518110151561568d57fe5b9060200190602002015190806001815401808255809150509060018203906000526020600020016000909192909190916101000a81548173ffffffffffffffffffffffffffffffffffffffff021916908373ffffffffffffffffffffffffffffffffffffffff160217905550506001600b600082825401925050819055505b818060010192505061559b565b60019250615727565b600092505b5050919050565b6000806000807ffffffffffffffffffffffffffffffffffffffffffffffffffffffffefffffc2f925084600060028110151561576657fe5b60200201516000148061578b57508285600060028110151561578457fe5b6020020151145b806157a957508460016002811015156157a057fe5b60200201516000145b806157c65750828560016002811015156157bf57fe5b6020020151145b156157d45760009350615870565b828015156157de57fe5b8560016002811015156157ed57fe5b602002015186600160028110151561580157fe5b60200201510991508280151561581357fe5b60078480151561581f57fe5b87600060028110151561582e57fe5b60200201518680151561583d57fe5b89600060028110151561584c57fe5b60200201518a600060028110151561586057fe5b6020020151090908905080821493505b505050919050565b615880615d48565b60008060008060008060007ffffffffffffffffffffffffffffffffffffffffffffffffffffffffefffffc2f965060008960026003811015156158bf57fe5b602002015114156158cf57615a24565b8860006003811015156158de57fe5b602002015195508860016003811015156158f457fe5b602002015194508680151561590557fe5b85860993508680151561591457fe5b8780151561591e57fe5b85880960040992508680151561593057fe5b8780151561593a57fe5b87880960030991508680151561594c57fe5b8780151561595657fe5b84850888038880151561596557fe5b8485090890508088600060038110151561597b57fe5b6020020181815250508680151561598e57fe5b8780151561599857fe5b888015156159a257fe5b8687096008098803888015156159b457fe5b898015156159be57fe5b848b0387088509088860016003811015156159d557fe5b602002018181525050868015156159e857fe5b878015156159f257fe5b8a6002600381101515615a0157fe5b60200201518709600209886002600381101515615a1a57fe5b6020020181815250505b50505050505050919050565b6000806000806000806000881480615a4757508688145b80615a525750600087145b15615a5c57600080fd5b86881115615a73578688811515615a6f57fe5b0697505b600193508692508791505b600082141515615ab7578183811515615a9357fe5b04905083848202860383848402860380955081965082975083985050505050615a7e565b6000851215615acd578460000387039550615ad1565b8495505b505050505092915050565b80801515615ae657fe5b82856000600381101515615af657fe5b602002015109846000600381101515615b0b57fe5b60200201818152505080801515615b1e57fe5b81801515615b2857fe5b838509856001600381101515615b3a57fe5b602002015109846001600381101515615b4f57fe5b6020020181815250506001846002600381101515615b6957fe5b60200201818152505050505050565b60008060008060008060007ffffffffffffffffffffffffffffffffffffffffffffffffffffffffefffffc2f96506000886002600381101515615bb757fe5b60200201511415615bc757615d1c565b876000600381101515615bd657fe5b60200201519550876001600381101515615bec57fe5b6020020151945086801515615bfd57fe5b858609935086801515615c0c57fe5b87801515615c1657fe5b858809600409925086801515615c2857fe5b87801515615c3257fe5b878809600309915086801515615c4457fe5b87801515615c4e57fe5b848508880388801515615c5d57fe5b84850908905080886000600381101515615c7357fe5b60200201818152505086801515615c8657fe5b87801515615c9057fe5b88801515615c9a57fe5b868709600809880388801515615cac57fe5b89801515615cb657fe5b848b038708850908886001600381101515615ccd57fe5b60200201818152505086801515615ce057fe5b87801515615cea57fe5b896002600381101515615cf957fe5b60200201518709600209886002600381101515615d1257fe5b6020020181815250505b5050505050505050565b6040805190810160405280600290602082028038833980820191505090505090565b606060405190810160405280600390602082028038833980820191505090505090565b8260028101928215615d9a579160200282015b82811115615d99578251825591602001919060010190615d7e565b5b509050615da79190615ec2565b5090565b5080546000825590600052602060002090810190615dc99190615ec2565b50565b828054600181600116156101000203166002900490600052602060002090601f016020900481019282601f10615e0d57805160ff1916838001178555615e3b565b82800160010185558215615e3b579182015b82811115615e3a578251825591602001919060010190615e1f565b5b509050615e489190615ec2565b5090565b610300604051908101604052806008905b615e65615ee7565b815260200190600190039081615e5d5790505090565b61020060405190810160405280601090602082028038833980820191505090505090565b608060405190810160405280600490602082028038833980820191505090505090565b615ee491905b80821115615ee0576000816000905550600101615ec8565b5090565b90565b6060604051908101604052806003906020820280388339808201915050905050905600a165627a7a723058208018f0cdf2c6d8f7976b4f4b58ebba05774e615a935c8f8dbd4c857a825aa4610029",
  "source": "pragma solidity >=0.4.21 <0.7.0;\r\n\r\nimport \"./Owned.sol\";\r\nimport \"./libraries/Secp256k1.sol\";\r\n\r\ncontract VotingSys is Owned {\r\n\r\n    struct Voter {\r\n        address addr;\r\n        uint[2] registeredKey;\r\n        uint[2] reconstructedKey;\r\n        uint[2] vote;\r\n    }\r\n\r\n    address[] public addresses;\r\n    mapping(address => uint) public addressID; // Address to Counter\r\n    mapping(uint => Voter) public voters;\r\n    mapping(address => bool) public eligible; // White list of addresses allowed to vote\r\n    mapping(address => bool) public registered; // Address registered?\r\n    mapping(address => bool) public voteCast; // Address voted?\r\n    mapping(address => uint) public refunds; //amount to be refunded\r\n\r\n    uint public endRegistrationPhase;\r\n    uint public endVotingPhase;\r\n    uint public totalRegistered; // Total number of participants that have submitted a voting key\r\n    uint public totalEligible;\r\n    uint public totalVoted;\r\n    string public ballotName; // Ballot Name\r\n    string[2] public options;\r\n    uint[2] public finalTally; // Final tally\r\n    uint[2] public prevFinalTally; // Final tally before last reset (not sure will be used)\r\n\r\n    enum State {CREATE, REGISTER, VOTE, FINISH}\r\n    State public currentState;\r\n\r\n    uint public minDeposit;\r\n\r\n    modifier inState(State s) {\r\n        if (currentState != s) {\r\n            revert();\r\n        }\r\n        _;\r\n    }\r\n\r\n    constructor() public {\r\n        currentState = State.CREATE;\r\n    }\r\n\r\n    function getVoter() public returns (uint[2] _registeredKey, uint[2] _reconstructedKey) {\r\n        uint index = addressID[msg.sender];\r\n        _registeredKey = voters[index].registeredKey;\r\n        _reconstructedKey = voters[index].reconstructedKey;\r\n    }\r\n\r\n    //  must be more that 3 voters in the beginning (called by create ballot only)\r\n    function setInitialEligible(address[] addr) private inState(State.CREATE) onlyOwner returns (bool){\r\n        if (addr.length >= 3) {\r\n            for (uint i = 0; i < addr.length; i++) {\r\n                if (!eligible[addr[i]]) {// avoid duplicates\r\n                    eligible[addr[i]] = true;\r\n                    addresses.push(addr[i]);\r\n                    totalEligible += 1;\r\n                }\r\n            }\r\n            return true;\r\n        } else {\r\n            return false;\r\n        }\r\n    }\r\n\r\n    function creatBallot(\r\n        string _ballotStatement,\r\n        string option1,\r\n        string option2,\r\n        uint _endRegistrationPhase,\r\n        uint _endVotingPhase,\r\n        uint _depositRequired,\r\n        address[] addr\r\n    )\r\n    public\r\n    inState(State.CREATE)\r\n    onlyOwner\r\n    returns (bool){\r\n        if (_endRegistrationPhase < now) {\r\n            return false;\r\n        }\r\n        if (_endVotingPhase < _endRegistrationPhase) {\r\n            return false;\r\n        }\r\n        if (!setInitialEligible(addr)) {\r\n            return false;\r\n        }\r\n        ballotName = _ballotStatement;\r\n        options[0] = option1;\r\n        options[1] = option2;\r\n        endRegistrationPhase = _endRegistrationPhase;\r\n        endVotingPhase = _endVotingPhase;\r\n        minDeposit = _depositRequired;\r\n        currentState = State.REGISTER;\r\n        return true;\r\n    }\r\n\r\n    //  inState(State.REGISTER) to allow the admin to add more eligible users in the reg phase\r\n    //  should be after creation of ballot\r\n    function addEligible(address[] addr) public inState(State.REGISTER) onlyOwner {\r\n        for (uint i = 0; i < addr.length; i++) {\r\n            if (!eligible[addr[i]]) {\r\n                eligible[addr[i]] = true;\r\n                addresses.push(addr[i]);\r\n                totalEligible += 1;\r\n            }\r\n        }\r\n    }\r\n\r\n    // called when someone try to:\r\n    // regester\r\n    // vote\r\n    // in order to set to correct state and reset if finished\r\n    function deadlinePassed() public returns (bool){\r\n        uint[2] memory empty;\r\n\r\n        if (now > endVotingPhase) {\r\n            currentState = State.FINISH;\r\n        }\r\n        if (currentState == State.FINISH) {\r\n            //    todo: should be separated in private function called resetBallot()\r\n            //    todo: lost deposits\r\n            for (uint i = 0; i < addresses.length; i++) {\r\n                address addr = addresses[i];\r\n                eligible[addr] = false;\r\n                // No longer eligible\r\n                registered[addr] = false;\r\n                // Remove voting registration\r\n                voters[i] = Voter({\r\n                addr : 0,\r\n                registeredKey : empty,\r\n                reconstructedKey : empty,\r\n                vote : empty\r\n                });\r\n                addressID[addr] = 0;\r\n                // Remove index\r\n                voteCast[addr] = false;\r\n                // Remove that vote was cast\r\n                refunds[addr] = 0;\r\n                // Remove refunds\r\n            }\r\n\r\n            // Reset timers.\r\n            endRegistrationPhase = 0;\r\n            endVotingPhase = 0;\r\n            delete addresses;\r\n\r\n            // reset voters activity\r\n            totalRegistered = 0;\r\n            totalEligible = 0;\r\n            totalVoted = 0;\r\n\r\n            // General values that need reset\r\n            ballotName = \"\";\r\n            options[0] = \"\";\r\n            options[1] = \"\";\r\n            finalTally[0] = 0;\r\n            finalTally[1] = 0;\r\n            minDeposit = 0;\r\n            currentState = State.CREATE;\r\n            return true;\r\n        }\r\n        return false;\r\n        //false means that current state != FINISH\r\n    }\r\n\r\n    function register(uint[2] xG, uint[3] vG, uint r) public inState(State.REGISTER) payable returns (bool) {\r\n\r\n        if (deadlinePassed()) {\r\n            return false;\r\n        }\r\n\r\n        if (currentState != State.REGISTER) {\r\n            return false;\r\n        }\r\n\r\n        if (msg.value < minDeposit) {\r\n            return false;\r\n        }\r\n        \r\n        // Only eligible addresses can vote\r\n        if (eligible[msg.sender]) {\r\n            if(verifyKey(xG,r,vG)){\r\n                // Update voter's registration\r\n                refunds[msg.sender] = msg.value;\r\n                uint[2] memory empty;\r\n                addressID[msg.sender] = totalRegistered;\r\n                voters[totalRegistered] = Voter({\r\n                addr : msg.sender,\r\n                registeredKey : xG,\r\n                reconstructedKey : empty,\r\n                vote : empty\r\n                });\r\n                registered[msg.sender] = true;\r\n                voteCast[msg.sender] = false;\r\n                totalRegistered += 1;\r\n                return true;\r\n            }\r\n            \r\n        }\r\n        return false;\r\n    }\r\n\r\n\r\n    // Timer has expired - we want to start computing the reconstructed keys\r\n    function finishRegistrationPhase() public inState(State.REGISTER) onlyOwner returns (bool) {\r\n\r\n        // Make sure at least 3 people have signed up...\r\n        if (totalRegistered < 3) {\r\n            return;\r\n        }\r\n        // We can only compute the public keys once participants\r\n        // have been given an opportunity to register their\r\n        // voting public key.\r\n        //        todo: comment this to bypass time while testing\r\n        //        if (block.timestamp < endRegistrationPhase) {\r\n        //            return false;\r\n        //        }\r\n\r\n        uint[2] memory temp;\r\n        uint[3] memory yG;\r\n        uint[3] memory before_i;\r\n        uint[3] memory after_i;\r\n\r\n        // Step 1 is to compute the index 1 reconstructed key\r\n        after_i[0] = voters[1].registeredKey[0];\r\n        after_i[1] = voters[1].registeredKey[1];\r\n        after_i[2] = 1;\r\n\r\n        for (uint i = 2; i < totalRegistered; i++) {\r\n            Secp256k1._addMixedM(after_i, voters[i].registeredKey);\r\n        }\r\n\r\n        ECCMath.toZ1(after_i, pp);\r\n        voters[0].reconstructedKey[0] = after_i[0];\r\n        voters[0].reconstructedKey[1] = pp - after_i[1];\r\n\r\n        // Step 2 is to add to before_i, and subtract from after_i.\r\n        for (i = 1; i < totalRegistered; i++) {\r\n\r\n            if (i == 1) {\r\n                before_i[0] = voters[0].registeredKey[0];\r\n                before_i[1] = voters[0].registeredKey[1];\r\n                before_i[2] = 1;\r\n            } else {\r\n                Secp256k1._addMixedM(before_i, voters[i - 1].registeredKey);\r\n            }\r\n\r\n            // If we have reached the end... just store before_i\r\n            // Otherwise, we need to compute a key.\r\n            // Counting from 0 to n-1...\r\n            if (i == (totalRegistered - 1)) {\r\n                ECCMath.toZ1(before_i, pp);\r\n                voters[i].reconstructedKey[0] = before_i[0];\r\n                voters[i].reconstructedKey[1] = before_i[1];\r\n\r\n            } else {\r\n\r\n                // Subtract 'i' from after_i\r\n                temp[0] = voters[i].registeredKey[0];\r\n                temp[1] = pp - voters[i].registeredKey[1];\r\n\r\n                // Grab negation of after_i (did not seem to work with Jacob co-ordinates)\r\n                Secp256k1._addMixedM(after_i, temp);\r\n                ECCMath.toZ1(after_i, pp);\r\n\r\n                temp[0] = after_i[0];\r\n                temp[1] = pp - after_i[1];\r\n\r\n                // Now we do before_i - after_i...\r\n                yG = Secp256k1._addMixed(before_i, temp);\r\n\r\n                ECCMath.toZ1(yG, pp);\r\n\r\n                voters[i].reconstructedKey[0] = yG[0];\r\n                voters[i].reconstructedKey[1] = yG[1];\r\n            }\r\n        }\r\n        currentState = State.VOTE;\r\n        return true;\r\n    }\r\n\r\n    // Given the 1 out of 2 ZKP - record the users vote! // todo: add inState(State.VOTE) after development\r\n    function submitVote(uint[4] params, uint[2] y, uint[2] a1, uint[2] b1, uint[2] a2, uint[2] b2) returns (bool) {\r\n\r\n        // HARD DEADLINE\r\n        //        todo: commented for development purpose\r\n        //        if(now > endVotingPhase) {\r\n        //            return;\r\n        //        }\r\n\r\n        uint i = addressID[msg.sender];\r\n\r\n        uint[2] memory yG = voters[i].reconstructedKey;\r\n        uint[2] memory xG = voters[i].registeredKey;\r\n\r\n        // Make sure the sender can vote, and hasn't already voted.\r\n        if (registered[msg.sender] && !voteCast[msg.sender]) {\r\n            // Verify the ZKP for the vote being cast\r\n            if (verify1outof2ZKP(params, xG, yG, y, a1, b1, a2, b2)) {\r\n\r\n                voters[i].vote[0] = y[0];\r\n                voters[i].vote[1] = y[1];\r\n\r\n                voteCast[msg.sender] = true;\r\n\r\n                totalVoted += 1;\r\n\r\n                // Refund the sender their ether..\r\n                // Voter has finished their part of the protocol...\r\n                uint refund = refunds[msg.sender];\r\n                refunds[msg.sender] = 0;\r\n\r\n                // We can still fail... Safety first.\r\n                // If failed... voter can call withdrawRefund()\r\n                // to collect their money once the election has finished.\r\n                if (!msg.sender.send(refund)) {\r\n                    refunds[msg.sender] = refund;\r\n                }\r\n\r\n                return true;\r\n            }\r\n        }\r\n\r\n        // Either vote has already been cast, or ZKP verification failed.\r\n        return false;\r\n    }\r\n\r\n    function computeTally() inState(State.VOTE) onlyOwner {\r\n        uint[2] memory G;\r\n        G[0] = Gx;\r\n        G[1] = Gy;\r\n        uint[3] memory temp;\r\n        uint[2] memory vote;\r\n        uint refund;\r\n\r\n        // Sum all votes\r\n        for (uint i = 0; i < totalRegistered; i++) {\r\n\r\n            // Confirm all votes have been cast...\r\n            if (!voteCast[voters[i].addr]) {\r\n                revert();\r\n            }\r\n\r\n            vote = voters[i].vote;\r\n\r\n            if (i == 0) {\r\n                temp[0] = vote[0];\r\n                temp[1] = vote[1];\r\n                temp[2] = 1;\r\n            } else {\r\n                Secp256k1._addMixedM(temp, vote);\r\n            }\r\n        }\r\n\r\n        // All votes have been accounted for...\r\n        // Get tally, and change state to 'Finished'\r\n        currentState = State.FINISH;\r\n\r\n\r\n        // Each vote is represented by a G.\r\n        // If there are no votes... then it is 0G = (0,0)...\r\n        if (temp[0] == 0) {\r\n            finalTally[0] = 0;\r\n            finalTally[1] = totalRegistered;\r\n\r\n            // Election Authority is responsible for calling this....\r\n            // He should not fail his own refund...\r\n            // Make sure tally is computed before refunding...\r\n            // TODO: Check if this is necessary\r\n            refund = refunds[msg.sender];\r\n            refunds[msg.sender] = 0;\r\n\r\n            if (!msg.sender.send(refund)) {\r\n                refunds[msg.sender] = refund;\r\n            }\r\n            return;\r\n        } else {\r\n\r\n            // There must be a vote. So lets\r\n            // start adding 'G' until we\r\n            // find the result.\r\n            ECCMath.toZ1(temp, pp);\r\n            uint[3] memory tempG;\r\n            tempG[0] = G[0];\r\n            tempG[1] = G[1];\r\n            tempG[2] = 1;\r\n\r\n            // Start adding 'G' and looking for a match\r\n            for (i = 1; i <= totalRegistered; i++) {\r\n\r\n                if (temp[0] == tempG[0]) {\r\n                    finalTally[0] = i;\r\n                    finalTally[1] = totalRegistered;\r\n\r\n                    // Election Authority is responsible for calling this....\r\n                    // He should not fail his own refund...\r\n                    // Make sure tally is computed before refunding...\r\n                    // TODO: Check if this is necessary\r\n                    // If it fails - he can use withdrawRefund()\r\n                    // Election cannot be reset until he is refunded.\r\n                    refund = refunds[msg.sender];\r\n                    refunds[msg.sender] = 0;\r\n\r\n                    if (!msg.sender.send(refund)) {\r\n                        refunds[msg.sender] = refund;\r\n                    }\r\n                    return;\r\n                }\r\n\r\n                // If something bad happens and we cannot find the Tally\r\n                // Then this 'addition' will be run 1 extra time due to how\r\n                // we have structured the for loop.\r\n                // TODO: Does it need fixes?\r\n                Secp256k1._addMixedM(tempG, G);\r\n                ECCMath.toZ1(tempG, pp);\r\n            }\r\n\r\n            // Something bad happened. We should never get here....\r\n            // This represents an error message... best telling people\r\n            // As we cannot recover from it anyway.\r\n            // TODO: Handle this better....\r\n            finalTally[0] = 0;\r\n            finalTally[1] = 0;\r\n\r\n            // Election Authority is responsible for calling this....\r\n            // He should not fail his own refund...\r\n            // TODO: Check if this is necessary\r\n            refund = refunds[msg.sender];\r\n            refunds[msg.sender] = 0;\r\n\r\n            if (!msg.sender.send(refund)) {\r\n                refunds[msg.sender] = refund;\r\n            }\r\n            return;\r\n        }\r\n    }\r\n\r\n    // todo: fix EL SHEEE2 DA!!!!!!!!!!!!!!!!!!!!!!\r\n    //____________________________________________________________________________\r\n    //_________________should be separated in another contract____________________\r\n    //___________________________gives stupid error!!!____________________________\r\n    //____________________________________________________________________________\r\n\r\n    // Modulus for public keys\r\n    uint constant pp = 0xFFFFFFFFFFFFFFFFFFFFFFFFFFFFFFFFFFFFFFFFFFFFFFFFFFFFFFFEFFFFFC2F;\r\n\r\n    // Base point (generator) G\r\n    uint constant Gx = 0x79BE667EF9DCBBAC55A06295CE870B07029BFCDB2DCE28D959F2815B16F81798;\r\n    uint constant Gy = 0x483ADA7726A3C4655DA4FBFC0E1108A8FD17B448A68554199C47D08FFB10D4B8;\r\n\r\n    // New  point (generator) Y\r\n    uint constant Yx = 98038005178408974007512590727651089955354106077095278304532603697039577112780;\r\n    uint constant Yy = 1801119347122147381158502909947365828020117721497557484744596940174906898953;\r\n\r\n    // Modulus for private keys (sub-group)\r\n    uint constant nn = 0xFFFFFFFFFFFFFFFFFFFFFFFFFFFFFFFEBAAEDCE6AF48A03BBFD25E8CD0364141;\r\n\r\n\r\n\r\n    // Parameters xG, r where r = v - xc, and vG.\r\n    // Verify that vG = rG + xcG!\r\n    function verifyKey(uint[2] xG, uint r, uint[3] vG) public returns (bool) {\r\n        uint[2] memory G;\r\n        G[0] = Gx;\r\n        G[1] = Gy;\r\n\r\n        // Check both keys are on the curve.\r\n        if (!Secp256k1.isPubKey(xG) || !Secp256k1.isPubKey(vG)) {\r\n            return false;\r\n            //Must be on the curve!\r\n        }\r\n\r\n        // Get c = H(g, g^{x}, g^{v});\r\n        bytes32 b_c = sha256(abi.encode(msg.sender, Gx, Gy, xG, vG));\r\n        uint c = uint(b_c);\r\n\r\n        // Get g^{r}, and g^{xc}\r\n        uint[3] memory rG = Secp256k1._mul(r, G);\r\n        uint[3] memory xcG = Secp256k1._mul(c, xG);\r\n\r\n        // Add both points together\r\n        uint[3] memory rGxcG = Secp256k1._add(rG, xcG);\r\n\r\n        // Convert to Affine Co-ordinates\r\n        ECCMath.toZ1(rGxcG, pp);\r\n\r\n        // Verify. Do they match?\r\n        if (rGxcG[0] == vG[0] && rGxcG[1] == vG[1]) {\r\n            return true;\r\n        } else {\r\n            return false;\r\n        }\r\n    }\r\n\r\n    // We verify that the ZKP is of 0 or 1.\r\n    // params[4] input is res2[4] from the creator\r\n\r\n    // We verify that the ZKP is of 0 or 1.\r\n    function verify1outof2ZKP(uint[4] params, uint[2] xG, uint[2] yG, uint[2] y, uint[2] a1, uint[2] b1, uint[2] a2, uint[2] b2) returns (bool) {\r\n        uint[2] memory temp1;\r\n        uint[3] memory temp2;\r\n        uint[3] memory temp3;\r\n\r\n        uint[2] memory G;\r\n        G[0] = Gx;\r\n        G[1] = Gy;\r\n\r\n\r\n        // Make sure we are only dealing with valid public keys!\r\n        if (!Secp256k1.isPubKey(xG) || !Secp256k1.isPubKey(yG) || !Secp256k1.isPubKey(y) || !Secp256k1.isPubKey(a1) ||\r\n        !Secp256k1.isPubKey(b1) || !Secp256k1.isPubKey(a2) || !Secp256k1.isPubKey(b2)) {\r\n            return false;\r\n        }\r\n\r\n        // Does c =? d1 + d2 (mod n)\r\n        if (uint(sha256(abi.encode(msg.sender, xG, y, a1, b1, a2, b2))) != addmod(params[0], params[1], nn)) {\r\n            return false;\r\n        }\r\n\r\n        // a1 =? g^{r1} * x^{d1}\r\n        temp2 = Secp256k1._mul(params[2], G);\r\n        temp3 = Secp256k1._add(temp2, Secp256k1._mul(params[0], xG));\r\n        ECCMath.toZ1(temp3, pp);\r\n\r\n        if (a1[0] != temp3[0] || a1[1] != temp3[1]) {\r\n            return false;\r\n        }\r\n\r\n        //b1 =? h^{r1} * y^{d1} (temp = affine 'y')\r\n        temp2 = Secp256k1._mul(params[2], yG);\r\n        temp3 = Secp256k1._add(temp2, Secp256k1._mul(params[0], y));\r\n        ECCMath.toZ1(temp3, pp);\r\n\r\n        if (b1[0] != temp3[0] || b1[1] != temp3[1]) {\r\n            return false;\r\n        }\r\n\r\n        //a2 =? g^{r2} * x^{d2}\r\n        temp2 = Secp256k1._mul(params[3], G);\r\n        temp3 = Secp256k1._add(temp2, Secp256k1._mul(params[1], xG));\r\n        ECCMath.toZ1(temp3, pp);\r\n\r\n        if (a2[0] != temp3[0] || a2[1] != temp3[1]) {\r\n            return false;\r\n        }\r\n\r\n        // Negate the 'y' co-ordinate of g\r\n        temp1[0] = G[0];\r\n        temp1[1] = pp - G[1];\r\n\r\n        // get 'y'\r\n        temp3[0] = y[0];\r\n        temp3[1] = y[1];\r\n        temp3[2] = 1;\r\n\r\n        // y-g\r\n        temp2 = Secp256k1._addMixed(temp3, temp1);\r\n\r\n        // Return to affine co-ordinates\r\n        ECCMath.toZ1(temp2, pp);\r\n        temp1[0] = temp2[0];\r\n        temp1[1] = temp2[1];\r\n\r\n        // (y-g)^{d2}\r\n        temp2 = Secp256k1._mul(params[1], temp1);\r\n\r\n        // Now... it is h^{r2} + temp2..\r\n        temp3 = Secp256k1._add(Secp256k1._mul(params[3], yG), temp2);\r\n\r\n        // Convert to Affine Co-ordinates\r\n        ECCMath.toZ1(temp3, pp);\r\n\r\n        // Should all match up.\r\n        if (b2[0] != temp3[0] || b2[1] != temp3[1]) {\r\n            return false;\r\n        }\r\n\r\n        return true;\r\n    }\r\n}",
  "sourcePath": "C:/Users/Mayar's Laptop/react_test/DZK_Vote/Dapp/contracts/VotingSys.sol",
  "compiler": {
    "name": "solc",
    "version": "0.4.26+commit.4563c3fc.Emscripten.clang"
  },
  "schemaVersion": "3.0.2",
  "updatedAt": "2021-07-14T16:27:51.152Z",
  "devdoc": {
    "methods": {}
  },
  "userdoc": {
    "methods": {}
  }
}