{
  "contractName": "VotingSys",
  "abi": [
    {
      "constant": true,
      "inputs": [
        {
          "name": "",
          "type": "address"
        }
      ],
      "name": "eligible",
      "outputs": [
        {
          "name": "",
          "type": "bool"
        }
      ],
      "payable": false,
      "stateMutability": "view",
      "type": "function"
    },
    {
      "constant": true,
      "inputs": [],
      "name": "currentState",
      "outputs": [
        {
          "name": "",
          "type": "uint8"
        }
      ],
      "payable": false,
      "stateMutability": "view",
      "type": "function"
    },
    {
      "constant": true,
      "inputs": [],
      "name": "ballotName",
      "outputs": [
        {
          "name": "",
          "type": "string"
        }
      ],
      "payable": false,
      "stateMutability": "view",
      "type": "function"
    },
    {
      "constant": true,
      "inputs": [],
      "name": "totalEligible",
      "outputs": [
        {
          "name": "",
          "type": "uint256"
        }
      ],
      "payable": false,
      "stateMutability": "view",
      "type": "function"
    },
    {
      "constant": true,
      "inputs": [
        {
          "name": "",
          "type": "uint256"
        }
      ],
      "name": "finalTally",
      "outputs": [
        {
          "name": "",
          "type": "uint256"
        }
      ],
      "payable": false,
      "stateMutability": "view",
      "type": "function"
    },
    {
      "constant": true,
      "inputs": [
        {
          "name": "",
          "type": "uint256"
        }
      ],
      "name": "options",
      "outputs": [
        {
          "name": "",
          "type": "string"
        }
      ],
      "payable": false,
      "stateMutability": "view",
      "type": "function"
    },
    {
      "constant": true,
      "inputs": [],
      "name": "minDeposit",
      "outputs": [
        {
          "name": "",
          "type": "uint256"
        }
      ],
      "payable": false,
      "stateMutability": "view",
      "type": "function"
    },
    {
      "constant": true,
      "inputs": [
        {
          "name": "",
          "type": "address"
        }
      ],
      "name": "addressID",
      "outputs": [
        {
          "name": "",
          "type": "uint256"
        }
      ],
      "payable": false,
      "stateMutability": "view",
      "type": "function"
    },
    {
      "constant": true,
      "inputs": [
        {
          "name": "",
          "type": "address"
        }
      ],
      "name": "votecast",
      "outputs": [
        {
          "name": "",
          "type": "bool"
        }
      ],
      "payable": false,
      "stateMutability": "view",
      "type": "function"
    },
    {
      "constant": true,
      "inputs": [
        {
          "name": "",
          "type": "uint256"
        }
      ],
      "name": "prevFinalTally",
      "outputs": [
        {
          "name": "",
          "type": "uint256"
        }
      ],
      "payable": false,
      "stateMutability": "view",
      "type": "function"
    },
    {
      "constant": true,
      "inputs": [],
      "name": "owner",
      "outputs": [
        {
          "name": "",
          "type": "address"
        }
      ],
      "payable": false,
      "stateMutability": "view",
      "type": "function"
    },
    {
      "constant": true,
      "inputs": [],
      "name": "totalRegistered",
      "outputs": [
        {
          "name": "",
          "type": "uint256"
        }
      ],
      "payable": false,
      "stateMutability": "view",
      "type": "function"
    },
    {
      "constant": true,
      "inputs": [],
      "name": "endVotingPhase",
      "outputs": [
        {
          "name": "",
          "type": "uint256"
        }
      ],
      "payable": false,
      "stateMutability": "view",
      "type": "function"
    },
    {
      "constant": true,
      "inputs": [],
      "name": "endRegistrationPhase",
      "outputs": [
        {
          "name": "",
          "type": "uint256"
        }
      ],
      "payable": false,
      "stateMutability": "view",
      "type": "function"
    },
    {
      "constant": true,
      "inputs": [
        {
          "name": "",
          "type": "address"
        }
      ],
      "name": "registered",
      "outputs": [
        {
          "name": "",
          "type": "bool"
        }
      ],
      "payable": false,
      "stateMutability": "view",
      "type": "function"
    },
    {
      "constant": true,
      "inputs": [],
      "name": "totalVoted",
      "outputs": [
        {
          "name": "",
          "type": "uint256"
        }
      ],
      "payable": false,
      "stateMutability": "view",
      "type": "function"
    },
    {
      "constant": true,
      "inputs": [
        {
          "name": "",
          "type": "address"
        }
      ],
      "name": "refunds",
      "outputs": [
        {
          "name": "",
          "type": "uint256"
        }
      ],
      "payable": false,
      "stateMutability": "view",
      "type": "function"
    },
    {
      "constant": true,
      "inputs": [
        {
          "name": "",
          "type": "uint256"
        }
      ],
      "name": "voters",
      "outputs": [
        {
          "name": "addr",
          "type": "address"
        }
      ],
      "payable": false,
      "stateMutability": "view",
      "type": "function"
    },
    {
      "constant": true,
      "inputs": [
        {
          "name": "",
          "type": "uint256"
        }
      ],
      "name": "addresses",
      "outputs": [
        {
          "name": "",
          "type": "address"
        }
      ],
      "payable": false,
      "stateMutability": "view",
      "type": "function"
    },
    {
      "constant": false,
      "inputs": [
        {
          "name": "newOwner",
          "type": "address"
        }
      ],
      "name": "transferOwnership",
      "outputs": [],
      "payable": false,
      "stateMutability": "nonpayable",
      "type": "function"
    },
    {
      "inputs": [],
      "payable": false,
      "stateMutability": "nonpayable",
      "type": "constructor"
    },
    {
      "constant": false,
      "inputs": [
        {
          "name": "_ballotStatement",
          "type": "string"
        },
        {
          "name": "option1",
          "type": "string"
        },
        {
          "name": "option2",
          "type": "string"
        },
        {
          "name": "_endRegistrationPhase",
          "type": "uint256"
        },
        {
          "name": "_endVotingPhase",
          "type": "uint256"
        },
        {
          "name": "_depositRequired",
          "type": "uint256"
        },
        {
          "name": "addr",
          "type": "address[]"
        }
      ],
      "name": "creatBallot",
      "outputs": [
        {
          "name": "",
          "type": "bool"
        }
      ],
      "payable": false,
      "stateMutability": "nonpayable",
      "type": "function"
    },
    {
      "constant": false,
      "inputs": [
        {
          "name": "addr",
          "type": "address[]"
        }
      ],
      "name": "addEligible",
      "outputs": [],
      "payable": false,
      "stateMutability": "nonpayable",
      "type": "function"
    },
    {
      "constant": false,
      "inputs": [],
      "name": "deadlinePassed",
      "outputs": [
        {
          "name": "",
          "type": "bool"
        }
      ],
      "payable": false,
      "stateMutability": "nonpayable",
      "type": "function"
    },
    {
      "constant": false,
      "inputs": [
        {
          "name": "xG",
          "type": "uint256[2]"
        },
        {
          "name": "vG",
          "type": "uint256[3]"
        },
        {
          "name": "r",
          "type": "uint256"
        }
      ],
      "name": "register",
      "outputs": [
        {
          "name": "",
          "type": "bool"
        }
      ],
      "payable": true,
      "stateMutability": "payable",
      "type": "function"
    },
    {
      "constant": false,
      "inputs": [
        {
          "name": "choice",
          "type": "uint256[2]"
        }
      ],
      "name": "submitVote",
      "outputs": [
        {
          "name": "",
          "type": "bool"
        }
      ],
      "payable": false,
      "stateMutability": "nonpayable",
      "type": "function"
    },
    {
      "constant": false,
      "inputs": [
        {
          "name": "xG",
          "type": "uint256[2]"
        },
        {
          "name": "r",
          "type": "uint256"
        },
        {
          "name": "vG",
          "type": "uint256[3]"
        }
      ],
      "name": "verifyKey",
      "outputs": [
        {
          "name": "",
          "type": "bool"
        }
      ],
      "payable": false,
      "stateMutability": "nonpayable",
      "type": "function"
    }
  ],
  "bytecode": "0x608060405234801561001057600080fd5b50336000806101000a81548173ffffffffffffffffffffffffffffffffffffffff021916908373ffffffffffffffffffffffffffffffffffffffff1602179055506000601460006101000a81548160ff0219169083600381111561007057fe5b021790555061436480620000856000396000f300608060405260043610610154576000357c0100000000000000000000000000000000000000000000000000000000900463ffffffff16806305c5aabc146101595780630713b139146101fc57806308de18c3146102575780630c3f6acf146102ed5780631b26586c146103265780633138ffe7146103b65780633a5f547a146103e1578063409e22051461042257806341b3d185146104c85780634a4ab63d146104f35780634bbc44e41461054a57806363333cb2146105b4578063742d4d311461061a57806377df5fc8146106755780638460be61146106a45780638da5cb5b146106e5578063927416c01461073c578063a300e22414610767578063aeb32ae314610792578063b21a64da14610900578063b2dd5c071461092b578063b3a2273f14610986578063bc3da535146109b1578063da58c7d914610a08578063edf26d9b14610a75578063f2fde38b14610ae2575b600080fd5b34801561016557600080fd5b506101e26004803603810190808060400190600280602002604051908101604052809291908260026020028082843782019150505050509192919290803590602001909291908060600190600380602002604051908101604052809291908260036020028082843782019150505050509192919290505050610b25565b604051808215151515815260200191505060405180910390f35b34801561020857600080fd5b5061023d600480360381019080803573ffffffffffffffffffffffffffffffffffffffff169060200190929190505050610e62565b604051808215151515815260200191505060405180910390f35b6102d36004803603810190808060400190600280602002604051908101604052809291908260026020028082843782019150505050509192919290806060019060038060200260405190810160405280929190826003602002808284378201915050505050919291929080359060200190929190505050610e82565b604051808215151515815260200191505060405180910390f35b3480156102f957600080fd5b506103026111c4565b6040518082600381111561031257fe5b60ff16815260200191505060405180910390f35b34801561033257600080fd5b5061033b6111d7565b6040518080602001828103825283818151815260200191508051906020019080838360005b8381101561037b578082015181840152602081019050610360565b50505050905090810190601f1680156103a85780820380516001836020036101000a031916815260200191505b509250505060405180910390f35b3480156103c257600080fd5b506103cb611275565b6040518082815260200191505060405180910390f35b3480156103ed57600080fd5b5061040c6004803603810190808035906020019092919050505061127b565b6040518082815260200191505060405180910390f35b34801561042e57600080fd5b5061044d60048036038101908080359060200190929190505050611295565b6040518080602001828103825283818151815260200191508051906020019080838360005b8381101561048d578082015181840152602081019050610472565b50505050905090810190601f1680156104ba5780820380516001836020036101000a031916815260200191505b509250505060405180910390f35b3480156104d457600080fd5b506104dd611347565b6040518082815260200191505060405180910390f35b3480156104ff57600080fd5b50610534600480360381019080803573ffffffffffffffffffffffffffffffffffffffff16906020019092919050505061134d565b6040518082815260200191505060405180910390f35b34801561055657600080fd5b5061059a6004803603810190808060400190600280602002604051908101604052809291908260026020028082843782019150505050509192919290505050611365565b604051808215151515815260200191505060405180910390f35b3480156105c057600080fd5b5061061860048036038101908080359060200190820180359060200190808060200260200160405190810160405280939291908181526020018383602002808284378201915050505050509192919290505050611644565b005b34801561062657600080fd5b5061065b600480360381019080803573ffffffffffffffffffffffffffffffffffffffff16906020019092919050505061185e565b604051808215151515815260200191505060405180910390f35b34801561068157600080fd5b5061068a61187e565b604051808215151515815260200191505060405180910390f35b3480156106b057600080fd5b506106cf60048036038101908080359060200190929190505050611d18565b6040518082815260200191505060405180910390f35b3480156106f157600080fd5b506106fa611d32565b604051808273ffffffffffffffffffffffffffffffffffffffff1673ffffffffffffffffffffffffffffffffffffffff16815260200191505060405180910390f35b34801561074857600080fd5b50610751611d57565b6040518082815260200191505060405180910390f35b34801561077357600080fd5b5061077c611d5d565b6040518082815260200191505060405180910390f35b34801561079e57600080fd5b506108e6600480360381019080803590602001908201803590602001908080601f0160208091040260200160405190810160405280939291908181526020018383808284378201915050505050509192919290803590602001908201803590602001908080601f0160208091040260200160405190810160405280939291908181526020018383808284378201915050505050509192919290803590602001908201803590602001908080601f016020809104026020016040519081016040528093929190818152602001838380828437820191505050505050919291929080359060200190929190803590602001909291908035906020019092919080359060200190820180359060200190808060200260200160405190810160405280939291908181526020018383602002808284378201915050505050509192919290505050611d63565b604051808215151515815260200191505060405180910390f35b34801561090c57600080fd5b50610915611edb565b6040518082815260200191505060405180910390f35b34801561093757600080fd5b5061096c600480360381019080803573ffffffffffffffffffffffffffffffffffffffff169060200190929190505050611ee1565b604051808215151515815260200191505060405180910390f35b34801561099257600080fd5b5061099b611f01565b6040518082815260200191505060405180910390f35b3480156109bd57600080fd5b506109f2600480360381019080803573ffffffffffffffffffffffffffffffffffffffff169060200190929190505050611f07565b6040518082815260200191505060405180910390f35b348015610a1457600080fd5b50610a3360048036038101908080359060200190929190505050611f1f565b604051808273ffffffffffffffffffffffffffffffffffffffff1673ffffffffffffffffffffffffffffffffffffffff16815260200191505060405180910390f35b348015610a8157600080fd5b50610aa060048036038101908080359060200190929190505050611f5d565b604051808273ffffffffffffffffffffffffffffffffffffffff1673ffffffffffffffffffffffffffffffffffffffff16815260200191505060405180910390f35b348015610aee57600080fd5b50610b23600480360381019080803573ffffffffffffffffffffffffffffffffffffffff169060200190929190505050611f9b565b005b6000610b2f614114565b600080610b3a614136565b610b42614136565b610b4a614136565b7f79be667ef9dcbbac55a06295ce870b07029bfcdb2dce28d959f2815b16f81798866000600281101515610b7a57fe5b6020020181815250507f483ada7726a3c4655da4fbfc0e1108a8fd17b448a68554199c47d08ffb10d4b8866001600281101515610bb357fe5b602002018181525050610bc58a612039565b1580610bd75750610bd58861204b565b155b15610be55760009650610e55565b6002337f79be667ef9dcbbac55a06295ce870b07029bfcdb2dce28d959f2815b16f817987f483ada7726a3c4655da4fbfc0e1108a8fd17b448a68554199c47d08ffb10d4b88d8c604051602001808673ffffffffffffffffffffffffffffffffffffffff1673ffffffffffffffffffffffffffffffffffffffff166c0100000000000000000000000002815260140185815260200184815260200183600260200280838360005b83811015610ca7578082015181840152602081019050610c8c565b5050505090500182600360200280838360005b83811015610cd5578082015181840152602081019050610cba565b50505050905001955050505050506040516020818303038152906040526040518082805190602001908083835b602083101515610d275780518252602082019150602081019050602083039250610d02565b6001836020036101000a0380198251168184511680821785525050505050509050019150506020604051808303816000865af1158015610d6b573d6000803e3d6000fd5b5050506040513d6020811015610d8057600080fd5b8101908080519060200190929190505050945084600190049350610da489876120be565b9250610db0848b6120be565b9150610dbc8383612950565b9050610de8817ffffffffffffffffffffffffffffffffffffffffffffffffffffffffefffffc2f612e76565b876000600381101515610df757fe5b6020020151816000600381101515610e0b57fe5b6020020151148015610e425750876001600381101515610e2757fe5b6020020151816001600381101515610e3b57fe5b6020020151145b15610e505760019650610e55565b600096505b5050505050509392505050565b60046020528060005260406000206000915054906101000a900460ff1681565b6000610e8c614114565b6001806003811115610e9a57fe5b601460009054906101000a900460ff166003811115610eb557fe5b141515610ec157600080fd5b610ec961187e565b15610ed757600092506111bb565b60016003811115610ee457fe5b601460009054906101000a900460ff166003811115610eff57fe5b141515610f0f57600092506111bb565b601554341015610f2257600092506111bb565b600460003373ffffffffffffffffffffffffffffffffffffffff1673ffffffffffffffffffffffffffffffffffffffff16815260200190815260200160002060009054906101000a900460ff16156111b657610f7f868587610b25565b8015610fd55750600560003373ffffffffffffffffffffffffffffffffffffffff1673ffffffffffffffffffffffffffffffffffffffff16815260200190815260200160002060009054906101000a900460ff16155b156111b55734600760003373ffffffffffffffffffffffffffffffffffffffff1673ffffffffffffffffffffffffffffffffffffffff16815260200190815260200160002081905550600a54600260003373ffffffffffffffffffffffffffffffffffffffff1673ffffffffffffffffffffffffffffffffffffffff168152602001908152602001600020819055506080604051908101604052803373ffffffffffffffffffffffffffffffffffffffff1681526020018781526020018381526020018381525060036000600a54815260200190815260200160002060008201518160000160006101000a81548173ffffffffffffffffffffffffffffffffffffffff021916908373ffffffffffffffffffffffffffffffffffffffff16021790555060208201518160010190600261110f929190614159565b50604082015181600301906002611127929190614159565b5060608201518160050190600261113f929190614159565b509050506001600560003373ffffffffffffffffffffffffffffffffffffffff1673ffffffffffffffffffffffffffffffffffffffff16815260200190815260200160002060006101000a81548160ff0219169083151502179055506001600a60008282540192505081905550600192506111bb565b5b600092505b50509392505050565b601460009054906101000a900460ff1681565b600d8054600181600116156101000203166002900480601f01602080910402602001604051908101604052809291908181526020018280546001816001161561010002031660029004801561126d5780601f106112425761010080835404028352916020019161126d565b820191906000526020600020905b81548152906001019060200180831161125057829003601f168201915b505050505081565b600b5481565b60108160028110151561128a57fe5b016000915090505481565b600e816002811015156112a457fe5b016000915090508054600181600116156101000203166002900480601f01602080910402602001604051908101604052809291908181526020018280546001816001161561010002031660029004801561133f5780601f106113145761010080835404028352916020019161133f565b820191906000526020600020905b81548152906001019060200180831161132257829003601f168201915b505050505081565b60155481565b60026020528060005260406000206000915090505481565b6000806000600280600381111561137857fe5b601460009054906101000a900460ff16600381111561139357fe5b14151561139f57600080fd5b6009544211156113ae5761163c565b600260003373ffffffffffffffffffffffffffffffffffffffff1673ffffffffffffffffffffffffffffffffffffffff168152602001908152602001600020549250600560003373ffffffffffffffffffffffffffffffffffffffff1673ffffffffffffffffffffffffffffffffffffffff16815260200190815260200160002060009054906101000a900460ff1680156114935750600660003373ffffffffffffffffffffffffffffffffffffffff1673ffffffffffffffffffffffffffffffffffffffff16815260200190815260200160002060009054906101000a900460ff16155b156116375784600360008581526020019081526020016000206005019060026114bd929190614199565b506001600660003373ffffffffffffffffffffffffffffffffffffffff1673ffffffffffffffffffffffffffffffffffffffff16815260200190815260200160002060006101000a81548160ff0219169083151502179055506001600c60008282540192505081905550600760003373ffffffffffffffffffffffffffffffffffffffff1673ffffffffffffffffffffffffffffffffffffffff1681526020019081526020016000205491506000600760003373ffffffffffffffffffffffffffffffffffffffff1673ffffffffffffffffffffffffffffffffffffffff168152602001908152602001600020819055503373ffffffffffffffffffffffffffffffffffffffff166108fc839081150290604051600060405180830381858888f19350505050151561162e5781600760003373ffffffffffffffffffffffffffffffffffffffff1673ffffffffffffffffffffffffffffffffffffffff168152602001908152602001600020819055505b6001935061163c565b600093505b505050919050565b6000600180600381111561165457fe5b601460009054906101000a900460ff16600381111561166f57fe5b14151561167b57600080fd5b3373ffffffffffffffffffffffffffffffffffffffff166000809054906101000a900473ffffffffffffffffffffffffffffffffffffffff1673ffffffffffffffffffffffffffffffffffffffff161415156116d657600080fd5b600091505b8251821015611859576004600084848151811015156116f657fe5b9060200190602002015173ffffffffffffffffffffffffffffffffffffffff1673ffffffffffffffffffffffffffffffffffffffff16815260200190815260200160002060009054906101000a900460ff16151561184c57600160046000858581518110151561176257fe5b9060200190602002015173ffffffffffffffffffffffffffffffffffffffff1673ffffffffffffffffffffffffffffffffffffffff16815260200190815260200160002060006101000a81548160ff021916908315150217905550600183838151811015156117cd57fe5b9060200190602002015190806001815401808255809150509060018203906000526020600020016000909192909190916101000a81548173ffffffffffffffffffffffffffffffffffffffff021916908373ffffffffffffffffffffffffffffffffffffffff160217905550506001600b600082825401925050819055505b81806001019250506116db565b505050565b60066020528060005260406000206000915054906101000a900460ff1681565b6000611888614114565b6000806008544211156118ba576002601460006101000a81548160ff021916908360038111156118b457fe5b02179055505b6009544211156118e9576003601460006101000a81548160ff021916908360038111156118e357fe5b02179055505b6003808111156118f557fe5b601460009054906101000a900460ff16600381111561191057fe5b1415611d0d57600091505b600180549050821015611be15760018281548110151561193757fe5b9060005260206000200160009054906101000a900473ffffffffffffffffffffffffffffffffffffffff1690506000600460008373ffffffffffffffffffffffffffffffffffffffff1673ffffffffffffffffffffffffffffffffffffffff16815260200190815260200160002060006101000a81548160ff0219169083151502179055506000600560008373ffffffffffffffffffffffffffffffffffffffff1673ffffffffffffffffffffffffffffffffffffffff16815260200190815260200160002060006101000a81548160ff021916908315150217905550608060405190810160405280600073ffffffffffffffffffffffffffffffffffffffff168152602001848152602001848152602001848152506003600084815260200190815260200160002060008201518160000160006101000a81548173ffffffffffffffffffffffffffffffffffffffff021916908373ffffffffffffffffffffffffffffffffffffffff160217905550602082015181600101906002611abe929190614159565b50604082015181600301906002611ad6929190614159565b50606082015181600501906002611aee929190614159565b509050506000600260008373ffffffffffffffffffffffffffffffffffffffff1673ffffffffffffffffffffffffffffffffffffffff168152602001908152602001600020819055506000600660008373ffffffffffffffffffffffffffffffffffffffff1673ffffffffffffffffffffffffffffffffffffffff16815260200190815260200160002060006101000a81548160ff0219169083151502179055506000600760008373ffffffffffffffffffffffffffffffffffffffff1673ffffffffffffffffffffffffffffffffffffffff16815260200190815260200160002081905550818060010192505061191b565b6000600881905550600060098190555060016000611bff91906141d9565b6000600a819055506000600b819055506000600c819055506020604051908101604052806000815250600d9080519060200190611c3d9291906141fa565b506020604051908101604052806000815250600e6000600281101515611c5f57fe5b019080519060200190611c739291906141fa565b506020604051908101604052806000815250600e6001600281101515611c9557fe5b019080519060200190611ca99291906141fa565b50600060106000600281101515611cbc57fe5b0181905550600060106001600281101515611cd357fe5b018190555060006015819055506000601460006101000a81548160ff02191690836003811115611cff57fe5b021790555060019350611d12565b600093505b50505090565b601281600281101515611d2757fe5b016000915090505481565b6000809054906101000a900473ffffffffffffffffffffffffffffffffffffffff1681565b600a5481565b60095481565b600080806003811115611d7257fe5b601460009054906101000a900460ff166003811115611d8d57fe5b141515611d9957600080fd5b3373ffffffffffffffffffffffffffffffffffffffff166000809054906101000a900473ffffffffffffffffffffffffffffffffffffffff1673ffffffffffffffffffffffffffffffffffffffff16141515611df457600080fd5b42861015611e055760009150611ecf565b85851015611e165760009150611ecf565b611e1f83612f43565b1515611e2e5760009150611ecf565b88600d9080519060200190611e449291906141fa565b5087600e6000600281101515611e5657fe5b019080519060200190611e6a9291906141fa565b5086600e6001600281101515611e7c57fe5b019080519060200190611e909291906141fa565b508560088190555084600981905550836015819055506001601460006101000a81548160ff02191690836003811115611ec557fe5b0217905550600191505b50979650505050505050565b60085481565b60056020528060005260406000206000915054906101000a900460ff1681565b600c5481565b60076020528060005260406000206000915090505481565b60036020528060005260406000206000915090508060000160009054906101000a900473ffffffffffffffffffffffffffffffffffffffff16905081565b600181815481101515611f6c57fe5b906000526020600020016000915054906101000a900473ffffffffffffffffffffffffffffffffffffffff1681565b3373ffffffffffffffffffffffffffffffffffffffff166000809054906101000a900473ffffffffffffffffffffffffffffffffffffffff1673ffffffffffffffffffffffffffffffffffffffff16141515611ff657600080fd5b806000806101000a81548173ffffffffffffffffffffffffffffffffffffffff021916908373ffffffffffffffffffffffffffffffffffffffff16021790555050565b600061204482613179565b9050919050565b6000612055614114565b82600060038110151561206457fe5b602002015181600060028110151561207857fe5b60200201818152505082600160038110151561209057fe5b60200201518160016002811015156120a457fe5b6020020181815250506120b681613179565b915050919050565b6120c6614136565b60008060006120d361427a565b6120db614136565b6120e36142a9565b60008060007ffffffffffffffffffffffffffffffffffffffffffffffffffffffffefffffc2f985060008c141561211957612941565b6000604051985061020089016040525b8c156121625760018d16156121515760208d06905080888a015360206010821102818e03019c505b60028d049c50600188019750612129565b508797506060604051908101604052808c600060028110151561218157fe5b602002015181526020018c600160028110151561219a57fe5b6020020151815260200160018152508660006008811015156121b857fe5b60200201819052506121dc8660006008811015156121d257fe5b60200201516132c3565b94506121e8858c61347b565b8660016008811015156121f757fe5b602002018190525061221c8587600160088110151561221257fe5b6020020151612950565b86600260088110151561222b57fe5b60200201819052506122508587600260088110151561224657fe5b6020020151612950565b86600360088110151561225f57fe5b60200201819052506122848587600360088110151561227a57fe5b6020020151612950565b86600460088110151561229357fe5b60200201819052506122b8858760046008811015156122ae57fe5b6020020151612950565b8660056008811015156122c757fe5b60200201819052506122ec858760056008811015156122e257fe5b6020020151612950565b8660066008811015156122fb57fe5b60200201819052506123208587600660088110151561231657fe5b6020020151612950565b86600760088110151561232f57fe5b602002018190525085600160088110151561234657fe5b6020020151600260038110151561235957fe5b602002015184600060108110151561236d57fe5b6020020181815250508880151561238057fe5b84600060108110151561238f57fe5b60200201518760026008811015156123a357fe5b602002015160026003811015156123b657fe5b6020020151098460016010811015156123cb57fe5b602002018181525050888015156123de57fe5b8460016010811015156123ed57fe5b602002015187600360088110151561240157fe5b6020020151600260038110151561241457fe5b60200201510984600260108110151561242957fe5b6020020181815250508880151561243c57fe5b84600260108110151561244b57fe5b602002015187600460088110151561245f57fe5b6020020151600260038110151561247257fe5b60200201510984600360108110151561248757fe5b6020020181815250508880151561249a57fe5b8460036010811015156124a957fe5b60200201518760056008811015156124bd57fe5b602002015160026003811015156124d057fe5b6020020151098460046010811015156124e557fe5b602002018181525050888015156124f857fe5b84600460108110151561250757fe5b602002015187600660088110151561251b57fe5b6020020151600260038110151561252e57fe5b60200201510984600560108110151561254357fe5b6020020181815250508880151561255657fe5b84600560108110151561256557fe5b602002015187600760088110151561257957fe5b6020020151600260038110151561258c57fe5b6020020151098460066010811015156125a157fe5b6020020181815250506125c78460066010811015156125bc57fe5b60200201518a61393d565b8460076010811015156125d657fe5b6020020181815250508360076010811015156125ee57fe5b602002015184600860108110151561260257fe5b6020020181815250508880151561261557fe5b84600860108110151561262457fe5b602002015185600560108110151561263857fe5b60200201510984600f60108110151561264d57fe5b602002018181525050600692505b600283101515612722578880151561266f57fe5b84600860108110151561267e57fe5b6020020151876001860160088110151561269457fe5b602002015160026003811015156126a757fe5b6020020151098460086010811015156126bc57fe5b602002018181525050888015156126cf57fe5b8460086010811015156126de57fe5b602002015185600286036010811015156126f457fe5b602002015109848460080160108110151561270b57fe5b60200201818152505082806001900393505061265b565b8880151561272c57fe5b84600860108110151561273b57fe5b602002015187600260088110151561274f57fe5b6020020151600260038110151561276257fe5b60200201510984600960108110151561277757fe5b602002018181525050600092505b6007831015612807576127fa86600185016008811015156127a257fe5b602002015185600986016010811015156127b857fe5b60200201518b8015156127c757fe5b87600988016010811015156127d857fe5b602002015188600989016010811015156127ee57fe5b6020020151098c6139e9565b8280600101935050612785565b5b6000871115612940578680600190039750508688015160001a915061282c8a613a85565b60108211156128b657600282601f0381151561284457fe5b0490506128b18a6040805190810160405280898560088110151561286457fe5b6020020151600060038110151561287757fe5b60200201518152602001898560088110151561288f57fe5b602002015160016003811015156128a257fe5b60200201518d03815250613c33565b61293b565b600082111561293a576002600183038115156128ce57fe5b0490506129398a604080519081016040528089856008811015156128ee57fe5b6020020151600060038110151561290157fe5b60200201518152602001898560088110151561291957fe5b6020020151600160038110151561292c57fe5b6020020151815250613c33565b5b5b612808565b5b50505050505050505092915050565b612958614136565b60006129626142cd565b61296a6142cd565b6000806000806000808b600260038110151561298257fe5b6020020151141561299557899850612e68565b60008a60026003811015156129a657fe5b602002015114156129b9578a9850612e68565b7ffffffffffffffffffffffffffffffffffffffffffffffffffffffffefffffc2f9750878015156129e657fe5b8b60026003811015156129f557fe5b60200201518c6002600381101515612a0957fe5b602002015109876000600481101515612a1e57fe5b60200201818152505087801515612a3157fe5b876000600481101515612a4057fe5b60200201518c6002600381101515612a5457fe5b602002015109876001600481101515612a6957fe5b60200201818152505087801515612a7c57fe5b8a6002600381101515612a8b57fe5b60200201518b6002600381101515612a9f57fe5b602002015109876002600481101515612ab457fe5b60200201818152505087801515612ac757fe5b876002600481101515612ad657fe5b60200201518b6002600381101515612aea57fe5b602002015109876003600481101515612aff57fe5b60200201818152505060806040519081016040528089801515612b1e57fe5b896002600481101515612b2d57fe5b60200201518e6000600381101515612b4157fe5b602002015109815260200189801515612b5657fe5b896003600481101515612b6557fe5b60200201518e6001600381101515612b7957fe5b602002015109815260200189801515612b8e57fe5b896000600481101515612b9d57fe5b60200201518d6000600381101515612bb157fe5b602002015109815260200189801515612bc657fe5b896001600481101515612bd557fe5b60200201518d6001600381101515612be957fe5b6020020151098152509550856002600481101515612c0357fe5b6020020151866000600481101515612c1757fe5b60200201511415612c6657856003600481101515612c3157fe5b6020020151866001600481101515612c4557fe5b6020020151141515612c5657612e68565b612c5f8b6132c3565b9850612e68565b87801515612c7057fe5b866000600481101515612c7f57fe5b60200201518903876002600481101515612c9557fe5b602002015108945087801515612ca757fe5b866001600481101515612cb657fe5b60200201518903876003600481101515612ccc57fe5b602002015108935087801515612cde57fe5b858609925087801515612ced57fe5b858409915087801515612cfc57fe5b82890389801515612d0957fe5b86870908905087801515612d1957fe5b88801515612d2357fe5b89801515612d2d57fe5b85896000600481101515612d3d57fe5b60200201510960020989038208905080896000600381101515612d5c57fe5b60200201818152505087801515612d6f57fe5b88801515612d7957fe5b828a038a801515612d8657fe5b868a6000600481101515612d9657fe5b602002015109088509896001600381101515612dae57fe5b60200201818152505087801515612dc157fe5b88801515612dcb57fe5b83886001600481101515612ddb57fe5b60200201510989038a6001600381101515612df257fe5b602002015108896001600381101515612e0757fe5b60200201818152505087801515612e1a57fe5b88801515612e2457fe5b8b6002600381101515612e3357fe5b60200201518d6002600381101515612e4757fe5b6020020151098609896002600381101515612e5e57fe5b6020020181815250505b505050505050505092915050565b600080612e96846002600381101515612e8b57fe5b60200201518461393d565b915082801515612ea257fe5b828309905082801515612eb157fe5b81856000600381101515612ec157fe5b602002015109846000600381101515612ed657fe5b60200201818152505082801515612ee957fe5b83801515612ef357fe5b828409856001600381101515612f0557fe5b602002015109846001600381101515612f1a57fe5b6020020181815250506001846002600381101515612f3457fe5b60200201818152505050505050565b6000806000806003811115612f5457fe5b601460009054906101000a900460ff166003811115612f6f57fe5b141515612f7b57600080fd5b3373ffffffffffffffffffffffffffffffffffffffff166000809054906101000a900473ffffffffffffffffffffffffffffffffffffffff1673ffffffffffffffffffffffffffffffffffffffff16141515612fd657600080fd5b6003845110151561316d57600091505b83518210156131645760046000858481518110151561300157fe5b9060200190602002015173ffffffffffffffffffffffffffffffffffffffff1673ffffffffffffffffffffffffffffffffffffffff16815260200190815260200160002060009054906101000a900460ff16151561315757600160046000868581518110151561306d57fe5b9060200190602002015173ffffffffffffffffffffffffffffffffffffffff1673ffffffffffffffffffffffffffffffffffffffff16815260200190815260200160002060006101000a81548160ff021916908315150217905550600184838151811015156130d857fe5b9060200190602002015190806001815401808255809150509060018203906000526020600020016000909192909190916101000a81548173ffffffffffffffffffffffffffffffffffffffff021916908373ffffffffffffffffffffffffffffffffffffffff160217905550506001600b600082825401925050819055505b8180600101925050612fe6565b60019250613172565b600092505b5050919050565b6000806000807ffffffffffffffffffffffffffffffffffffffffffffffffffffffffefffffc2f92508460006002811015156131b157fe5b6020020151600014806131d65750828560006002811015156131cf57fe5b6020020151145b806131f457508460016002811015156131eb57fe5b60200201516000145b8061321157508285600160028110151561320a57fe5b6020020151145b1561321f57600093506132bb565b8280151561322957fe5b85600160028110151561323857fe5b602002015186600160028110151561324c57fe5b60200201510991508280151561325e57fe5b60078480151561326a57fe5b87600060028110151561327957fe5b60200201518680151561328857fe5b89600060028110151561329757fe5b60200201518a60006002811015156132ab57fe5b6020020151090908905080821493505b505050919050565b6132cb614136565b60008060008060008060007ffffffffffffffffffffffffffffffffffffffffffffffffffffffffefffffc2f9650600089600260038110151561330a57fe5b6020020151141561331a5761346f565b88600060038110151561332957fe5b6020020151955088600160038110151561333f57fe5b602002015194508680151561335057fe5b85860993508680151561335f57fe5b8780151561336957fe5b85880960040992508680151561337b57fe5b8780151561338557fe5b87880960030991508680151561339757fe5b878015156133a157fe5b8485088803888015156133b057fe5b848509089050808860006003811015156133c657fe5b602002018181525050868015156133d957fe5b878015156133e357fe5b888015156133ed57fe5b8687096008098803888015156133ff57fe5b8980151561340957fe5b848b03870885090888600160038110151561342057fe5b6020020181815250508680151561343357fe5b8780151561343d57fe5b8a600260038110151561344c57fe5b6020020151870960020988600260038110151561346557fe5b6020020181815250505b50505050505050919050565b613483614136565b600061348d614114565b6134956142cd565b6000806000806000808b60026003811015156134ad57fe5b60200201511415613502576060604051908101604052808b60006002811015156134d357fe5b602002015181526020018b60016002811015156134ec57fe5b602002015181526020016001815250985061392f565b60008a600160028110151561351357fe5b60200201511415613526578a985061392f565b7ffffffffffffffffffffffffffffffffffffffffffffffffffffffffefffffc2f97508780151561355357fe5b8b600260038110151561356257fe5b60200201518c600260038110151561357657fe5b60200201510987600060028110151561358b57fe5b6020020181815250508780151561359e57fe5b8760006002811015156135ad57fe5b60200201518c60026003811015156135c157fe5b6020020151098760016002811015156135d657fe5b6020020181815250506080604051908101604052808c60006003811015156135fa57fe5b602002015181526020018c600160038110151561361357fe5b602002015181526020018980151561362757fe5b89600060028110151561363657fe5b60200201518d600060028110151561364a57fe5b60200201510981526020018980151561365f57fe5b89600160028110151561366e57fe5b60200201518d600160028110151561368257fe5b602002015109815250955085600260048110151561369c57fe5b60200201518660006004811015156136b057fe5b6020020151141561374c578560036004811015156136ca57fe5b60200201518660016004811015156136de57fe5b602002015114151561373d5760008b60006003811015156136fb57fe5b60200201818152505060008b600160038110151561371557fe5b60200201818152505060008b600260038110151561372f57fe5b60200201818152505061392f565b6137468b6132c3565b5061392f565b8780151561375657fe5b86600060048110151561376557fe5b6020020151890387600260048110151561377b57fe5b60200201510894508780151561378d57fe5b86600160048110151561379c57fe5b602002015189038760036004811015156137b257fe5b6020020151089350878015156137c457fe5b8586099250878015156137d357fe5b8584099150878015156137e257fe5b828903898015156137ef57fe5b868709089050878015156137ff57fe5b8880151561380957fe5b8980151561381357fe5b8589600060048110151561382357fe5b6020020151096002098903820890508089600060038110151561384257fe5b6020020181815250508780151561385557fe5b8880151561385f57fe5b828a038a80151561386c57fe5b868a600060048110151561387c57fe5b60200201510908850989600160038110151561389457fe5b602002018181525050878015156138a757fe5b888015156138b157fe5b838860016004811015156138c157fe5b60200201510989038a60016003811015156138d857fe5b6020020151088960016003811015156138ed57fe5b6020020181815250508780151561390057fe5b8b600260038110151561390f57fe5b6020020151860989600260038110151561392557fe5b6020020181815250505b505050505050505092915050565b600080600080600080600088148061395457508688145b8061395f5750600087145b1561396957600080fd5b8688111561398057868881151561397c57fe5b0697505b600193508692508791505b6000821415156139c45781838115156139a057fe5b0490508384820286038384840286038095508196508297508398505050505061398b565b60008512156139da5784600003870395506139de565b8495505b505050505092915050565b808015156139f357fe5b82856000600381101515613a0357fe5b602002015109846000600381101515613a1857fe5b60200201818152505080801515613a2b57fe5b81801515613a3557fe5b838509856001600381101515613a4757fe5b602002015109846001600381101515613a5c57fe5b6020020181815250506001846002600381101515613a7657fe5b60200201818152505050505050565b60008060008060008060007ffffffffffffffffffffffffffffffffffffffffffffffffffffffffefffffc2f96506000886002600381101515613ac457fe5b60200201511415613ad457613c29565b876000600381101515613ae357fe5b60200201519550876001600381101515613af957fe5b6020020151945086801515613b0a57fe5b858609935086801515613b1957fe5b87801515613b2357fe5b858809600409925086801515613b3557fe5b87801515613b3f57fe5b878809600309915086801515613b5157fe5b87801515613b5b57fe5b848508880388801515613b6a57fe5b84850908905080886000600381101515613b8057fe5b60200201818152505086801515613b9357fe5b87801515613b9d57fe5b88801515613ba757fe5b868709600809880388801515613bb957fe5b89801515613bc357fe5b848b038708850908886001600381101515613bda57fe5b60200201818152505086801515613bed57fe5b87801515613bf757fe5b896002600381101515613c0657fe5b60200201518709600209886002600381101515613c1f57fe5b6020020181815250505b5050505050505050565b6000613c3d614114565b613c456142cd565b6000806000806000808a6001600381101515613c5d57fe5b60200201511415613cdf57886000600281101515613c7757fe5b60200201518a6000600381101515613c8b57fe5b602002018181525050886001600281101515613ca357fe5b60200201518a6001600381101515613cb757fe5b60200201818152505060018a6002600381101515613cd157fe5b602002018181525050614108565b6000896001600281101515613cf057fe5b60200201511415613d0057614108565b7ffffffffffffffffffffffffffffffffffffffffffffffffffffffffefffffc2f975087801515613d2d57fe5b8a6002600381101515613d3c57fe5b60200201518b6002600381101515613d5057fe5b602002015109876000600281101515613d6557fe5b60200201818152505087801515613d7857fe5b876000600281101515613d8757fe5b60200201518b6002600381101515613d9b57fe5b602002015109876001600281101515613db057fe5b6020020181815250506080604051908101604052808b6000600381101515613dd457fe5b602002015181526020018b6001600381101515613ded57fe5b6020020151815260200189801515613e0157fe5b896000600281101515613e1057fe5b60200201518c6000600281101515613e2457fe5b602002015109815260200189801515613e3957fe5b896001600281101515613e4857fe5b60200201518c6001600281101515613e5c57fe5b6020020151098152509550856002600481101515613e7657fe5b6020020151866000600481101515613e8a57fe5b60200201511415613f2557856003600481101515613ea457fe5b6020020151866001600481101515613eb857fe5b6020020151141515613f175760008a6000600381101515613ed557fe5b60200201818152505060008a6001600381101515613eef57fe5b60200201818152505060008a6002600381101515613f0957fe5b602002018181525050614108565b613f208a613a85565b614108565b87801515613f2f57fe5b866000600481101515613f3e57fe5b60200201518903876002600481101515613f5457fe5b602002015108945087801515613f6657fe5b866001600481101515613f7557fe5b60200201518903876003600481101515613f8b57fe5b602002015108935087801515613f9d57fe5b858609925087801515613fac57fe5b858409915087801515613fbb57fe5b82890389801515613fc857fe5b86870908905087801515613fd857fe5b88801515613fe257fe5b89801515613fec57fe5b85896000600481101515613ffc57fe5b602002015109600209890382089050808a600060038110151561401b57fe5b6020020181815250508780151561402e57fe5b8880151561403857fe5b828a038a80151561404557fe5b868a600060048110151561405557fe5b6020020151090885098a600160038110151561406d57fe5b6020020181815250508780151561408057fe5b8880151561408a57fe5b8388600160048110151561409a57fe5b60200201510989038b60016003811015156140b157fe5b6020020151088a60016003811015156140c657fe5b602002018181525050878015156140d957fe5b8a60026003811015156140e857fe5b602002015186098a60026003811015156140fe57fe5b6020020181815250505b50505050505050505050565b6040805190810160405280600290602082028038833980820191505090505090565b606060405190810160405280600390602082028038833980820191505090505090565b8260028101928215614188579160200282015b8281111561418757825182559160200191906001019061416c565b5b50905061419591906142f0565b5090565b82600281019282156141c8579160200282015b828111156141c75782518255916020019190600101906141ac565b5b5090506141d591906142f0565b5090565b50805460008255906000526020600020908101906141f791906142f0565b50565b828054600181600116156101000203166002900490600052602060002090601f016020900481019282601f1061423b57805160ff1916838001178555614269565b82800160010185558215614269579182015b8281111561426857825182559160200191906001019061424d565b5b50905061427691906142f0565b5090565b610300604051908101604052806008905b614293614315565b81526020019060019003908161428b5790505090565b61020060405190810160405280601090602082028038833980820191505090505090565b608060405190810160405280600490602082028038833980820191505090505090565b61431291905b8082111561430e5760008160009055506001016142f6565b5090565b90565b6060604051908101604052806003906020820280388339808201915050905050905600a165627a7a72305820f720aea99e5af7393485ffe67d08a428739892500a9416f60de73b60a36f2e980029",
  "source": "pragma solidity >=0.4.21 <0.7.0;\r\n\r\nimport \"./Owned.sol\";\r\nimport \"./libraries/Secp256k1.sol\";\r\n\r\ncontract VotingSys is Owned {\r\n\r\n    struct Voter {\r\n        address addr;\r\n        uint[2] registeredKey;\r\n        uint[2] reconstructedKey;\r\n        uint[2] vote;\r\n    }\r\n\r\n    address[] public addresses;\r\n    mapping(address => uint) public addressID; // Address to Counter\r\n    mapping(uint => Voter) public voters;\r\n    mapping(address => bool) public eligible; // White list of addresses allowed to vote\r\n    mapping(address => bool) public registered; // Address registered?\r\n    mapping(address => bool) public votecast; // Address voted?\r\n    mapping(address => uint) public refunds; //amount to be refunded\r\n\r\n    uint public endRegistrationPhase;\r\n    uint public endVotingPhase;\r\n    uint public totalRegistered; // Total number of participants that have submitted a voting key\r\n    uint public totalEligible;\r\n    uint public totalVoted;\r\n    string public ballotName; // Ballot Name\r\n    string[2] public options;\r\n    uint[2] public finalTally; // Final tally\r\n    uint[2] public prevFinalTally; // Final tally before last reset (not sure will be used)\r\n\r\n    enum State {CREATE, REGISTER, VOTE, FINISH}\r\n    State public currentState;\r\n\r\n    uint public minDeposit;\r\n\r\n    modifier inState(State s) {\r\n        if (currentState != s) {\r\n            revert();\r\n        }\r\n        _;\r\n    }\r\n\r\n    function VotingSys() {\r\n        currentState = State.CREATE;\r\n    }\r\n\r\n    //  must be more that 3 voters in the beginning (called by create ballot only)\r\n    function setInitialEligible(address[] addr) private inState(State.CREATE) onlyOwner returns (bool){\r\n        if (addr.length >= 3) {\r\n            for (uint i = 0; i < addr.length; i++) {\r\n                if (!eligible[addr[i]]) {// avoid duplicates\r\n                    eligible[addr[i]] = true;\r\n                    addresses.push(addr[i]);\r\n                    totalEligible += 1;\r\n                }\r\n            }\r\n            return true;\r\n        } else {\r\n            return false;\r\n        }\r\n    }\r\n\r\n    function creatBallot(\r\n        string _ballotStatement,\r\n        string option1,\r\n        string option2,\r\n        uint _endRegistrationPhase,\r\n        uint _endVotingPhase,\r\n        uint _depositRequired,\r\n        address[] addr\r\n    )\r\n    inState(State.CREATE)\r\n    onlyOwner\r\n    returns (bool){\r\n        if (_endRegistrationPhase < now) {\r\n            return false;\r\n        }\r\n        if (_endVotingPhase < _endRegistrationPhase) {\r\n            return false;\r\n        }\r\n        if (!setInitialEligible(addr)) {\r\n            return false;\r\n        }\r\n        ballotName = _ballotStatement;\r\n        options[0] = option1;\r\n        options[1] = option2;\r\n        endRegistrationPhase = _endRegistrationPhase;\r\n        endVotingPhase = _endVotingPhase;\r\n        minDeposit = _depositRequired;\r\n        currentState = State.REGISTER;\r\n        return true;\r\n    }\r\n\r\n    //  inState(State.REGISTER) to allow the admin to add more eligible users in the reg phase\r\n    //  should be after creation of ballot\r\n    function addEligible(address[] addr) inState(State.REGISTER) onlyOwner {\r\n        for (uint i = 0; i < addr.length; i++) {\r\n            if (!eligible[addr[i]]) {\r\n                eligible[addr[i]] = true;\r\n                addresses.push(addr[i]);\r\n                totalEligible += 1;\r\n            }\r\n        }\r\n    }\r\n\r\n    // called when someone try to:\r\n    // regester\r\n    // vote\r\n    // in order to set to correct state and reset if finished\r\n    function deadlinePassed() returns (bool){\r\n        uint[2] memory empty;\r\n        if (now > endRegistrationPhase) {\r\n            currentState = State.VOTE;\r\n        }\r\n        if (now > endVotingPhase) {\r\n            currentState = State.FINISH;\r\n        }\r\n        if (currentState == State.FINISH) {\r\n            //    todo: should be separated in private function called resetBallot()\r\n            //    todo: lost deposits\r\n            for (uint i = 0; i < addresses.length; i++) {\r\n                address addr = addresses[i];\r\n                eligible[addr] = false;\r\n                // No longer eligible\r\n                registered[addr] = false;\r\n                // Remove voting registration\r\n                voters[i] = Voter({\r\n                addr : 0,\r\n                registeredKey : empty,\r\n                reconstructedKey : empty,\r\n                vote : empty\r\n                });\r\n                addressID[addr] = 0;\r\n                // Remove index\r\n                votecast[addr] = false;\r\n                // Remove that vote was cast\r\n                refunds[addr] = 0;\r\n                // Remove refunds\r\n            }\r\n\r\n            // Reset timers.\r\n            endRegistrationPhase = 0;\r\n            endVotingPhase = 0;\r\n            delete addresses;\r\n\r\n            // reset voters activity\r\n            totalRegistered = 0;\r\n            totalEligible = 0;\r\n            totalVoted = 0;\r\n\r\n            // General values that need reset\r\n            ballotName = \"\";\r\n            options[0] = \"\";\r\n            options[1] = \"\";\r\n            finalTally[0] = 0;\r\n            finalTally[1] = 0;\r\n            minDeposit = 0;\r\n            currentState = State.CREATE;\r\n            return true;\r\n        }\r\n        return false;\r\n        //false means that current state != FINISH\r\n    }\r\n\r\n    function register(uint[2] xG, uint[3] vG, uint r) inState(State.REGISTER) payable returns (bool) {\r\n\r\n        if (deadlinePassed()) {\r\n            return false;\r\n        }\r\n\r\n        if (currentState != State.REGISTER) {\r\n            return false;\r\n        }\r\n\r\n        if (msg.value < minDeposit) {\r\n            return false;\r\n        }\r\n        // Only eligible addresses can vote\r\n        if (eligible[msg.sender]) {\r\n            if (verifyKey(xG, r, vG) && !registered[msg.sender]) {\r\n                // Update voter's registration\r\n                refunds[msg.sender] = msg.value;\r\n                uint[2] memory empty;\r\n                addressID[msg.sender] = totalRegistered;\r\n                voters[totalRegistered] = Voter({\r\n                addr : msg.sender,\r\n                registeredKey : xG,\r\n                reconstructedKey : empty,\r\n                vote : empty\r\n                });\r\n                registered[msg.sender] = true;\r\n                totalRegistered += 1;\r\n                return true;\r\n            }\r\n        }\r\n        return false;\r\n    }\r\n\r\n    function submitVote(uint[2] choice) inState(State.VOTE) returns (bool) {\r\n        if (now > endVotingPhase) {\r\n            return;\r\n            \r\n        }\r\n\r\n        uint c = addressID[msg.sender];\r\n\r\n        // Make sure the sender can vote, and hasn't already voted.\r\n        if (registered[msg.sender] && !votecast[msg.sender]) {\r\n            voters[c].vote = choice;\r\n            votecast[msg.sender] = true;\r\n            totalVoted += 1;\r\n            uint refund = refunds[msg.sender];\r\n            refunds[msg.sender] = 0;\r\n\r\n            if (!msg.sender.send(refund)) {//failed to refund\r\n                refunds[msg.sender] = refund;\r\n            }\r\n            return true;\r\n        }\r\n\r\n        return false;\r\n\r\n    }\r\n\r\n\r\n    // todo: fix EL SHEEE2 DA!!!!!!!!!!!!!!!!!!!!!!\r\n    //____________________________________________________________________________\r\n    //_________________should be separated in another contract____________________\r\n    //___________________________gives stupid error!!!____________________________\r\n    //____________________________________________________________________________\r\n\r\n    // Modulus for public keys\r\n    uint constant pp = 0xFFFFFFFFFFFFFFFFFFFFFFFFFFFFFFFFFFFFFFFFFFFFFFFFFFFFFFFEFFFFFC2F;\r\n\r\n    // Base point (generator) G\r\n    uint constant Gx = 0x79BE667EF9DCBBAC55A06295CE870B07029BFCDB2DCE28D959F2815B16F81798;\r\n    uint constant Gy = 0x483ADA7726A3C4655DA4FBFC0E1108A8FD17B448A68554199C47D08FFB10D4B8;\r\n\r\n    // New  point (generator) Y\r\n    uint constant Yx = 98038005178408974007512590727651089955354106077095278304532603697039577112780;\r\n    uint constant Yy = 1801119347122147381158502909947365828020117721497557484744596940174906898953;\r\n\r\n    // Modulus for private keys (sub-group)\r\n    uint constant nn = 0xFFFFFFFFFFFFFFFFFFFFFFFFFFFFFFFEBAAEDCE6AF48A03BBFD25E8CD0364141;\r\n\r\n    uint[2] G;\r\n    uint[2] Y;\r\n    // Parameters xG, r where r = v - xc, and vG.\r\n    // Verify that vG = rG + xcG!\r\n    function verifyKey(uint[2] xG, uint r, uint[3] vG) returns (bool){\r\n        uint[2] memory G;\r\n        G[0] = Gx;\r\n        G[1] = Gy;\r\n\r\n        // Check both keys are on the curve.\r\n        if (!Secp256k1.isPubKey(xG) || !Secp256k1.isPubKey(vG)) {\r\n            return false;\r\n            //Must be on the curve!\r\n        }\r\n\r\n        // Get c = H(g, g^{x}, g^{v});\r\n        bytes32 b_c = sha256(abi.encodePacked(msg.sender, Gx, Gy, xG, vG));\r\n        uint c = uint(b_c);\r\n\r\n        // Get g^{r}, and g^{xc}\r\n        uint[3] memory rG = Secp256k1._mul(r, G);\r\n        uint[3] memory xcG = Secp256k1._mul(c, xG);\r\n\r\n        // Add both points together\r\n        uint[3] memory rGxcG = Secp256k1._add(rG, xcG);\r\n\r\n        // Convert to Affine Co-ordinates\r\n        ECCMath.toZ1(rGxcG, pp);\r\n\r\n        // Verify. Do they match?\r\n        if (rGxcG[0] == vG[0] && rGxcG[1] == vG[1]) {\r\n            return true;\r\n        } else {\r\n            return false;\r\n        }\r\n    }\r\n}",
  "sourcePath": "C:/Users/Jarvis/DZK_Vote/Dapp/contracts/VotingSys.sol",
  "compiler": {
    "name": "solc",
    "version": "0.4.26+commit.4563c3fc.Emscripten.clang"
  },
  "schemaVersion": "3.3.4",
  "updatedAt": "2021-06-09T17:44:10.362Z",
  "networkType": "ethereum",
  "devdoc": {
    "methods": {}
  },
  "userdoc": {
    "methods": {}
  }
}