{
  "contractName": "VotingSys",
  "abi": [
    {
      "constant": true,
      "inputs": [
        {
          "name": "",
          "type": "address"
        }
      ],
      "name": "eligible",
      "outputs": [
        {
          "name": "",
          "type": "bool"
        }
      ],
      "payable": false,
      "stateMutability": "view",
      "type": "function",
      "signature": "0x0713b139"
    },
    {
      "constant": true,
      "inputs": [],
      "name": "currentState",
      "outputs": [
        {
          "name": "",
          "type": "uint8"
        }
      ],
      "payable": false,
      "stateMutability": "view",
      "type": "function",
      "signature": "0x0c3f6acf"
    },
    {
      "constant": true,
      "inputs": [
        {
          "name": "",
          "type": "address"
        }
      ],
      "name": "addressid",
      "outputs": [
        {
          "name": "",
          "type": "uint256"
        }
      ],
      "payable": false,
      "stateMutability": "view",
      "type": "function",
      "signature": "0x14cf9c53"
    },
    {
      "constant": true,
      "inputs": [],
      "name": "ballotName",
      "outputs": [
        {
          "name": "",
          "type": "string"
        }
      ],
      "payable": false,
      "stateMutability": "view",
      "type": "function",
      "signature": "0x1b26586c"
    },
    {
      "constant": true,
      "inputs": [],
      "name": "totalEligible",
      "outputs": [
        {
          "name": "",
          "type": "uint256"
        }
      ],
      "payable": false,
      "stateMutability": "view",
      "type": "function",
      "signature": "0x3138ffe7"
    },
    {
      "constant": true,
      "inputs": [
        {
          "name": "",
          "type": "uint256"
        }
      ],
      "name": "finalTally",
      "outputs": [
        {
          "name": "",
          "type": "uint256"
        }
      ],
      "payable": false,
      "stateMutability": "view",
      "type": "function",
      "signature": "0x3a5f547a"
    },
    {
      "constant": true,
      "inputs": [
        {
          "name": "",
          "type": "uint256"
        }
      ],
      "name": "options",
      "outputs": [
        {
          "name": "",
          "type": "string"
        }
      ],
      "payable": false,
      "stateMutability": "view",
      "type": "function",
      "signature": "0x409e2205"
    },
    {
      "constant": true,
      "inputs": [],
      "name": "minDeposit",
      "outputs": [
        {
          "name": "",
          "type": "uint256"
        }
      ],
      "payable": false,
      "stateMutability": "view",
      "type": "function",
      "signature": "0x41b3d185"
    },
    {
      "constant": true,
      "inputs": [
        {
          "name": "",
          "type": "address"
        }
      ],
      "name": "votecast",
      "outputs": [
        {
          "name": "",
          "type": "bool"
        }
      ],
      "payable": false,
      "stateMutability": "view",
      "type": "function",
      "signature": "0x742d4d31"
    },
    {
      "constant": true,
      "inputs": [],
      "name": "owner",
      "outputs": [
        {
          "name": "",
          "type": "address"
        }
      ],
      "payable": false,
      "stateMutability": "view",
      "type": "function",
      "signature": "0x8da5cb5b"
    },
    {
      "constant": true,
      "inputs": [],
      "name": "totalRegistered",
      "outputs": [
        {
          "name": "",
          "type": "uint256"
        }
      ],
      "payable": false,
      "stateMutability": "view",
      "type": "function",
      "signature": "0x927416c0"
    },
    {
      "constant": true,
      "inputs": [],
      "name": "endVotingPhase",
      "outputs": [
        {
          "name": "",
          "type": "uint256"
        }
      ],
      "payable": false,
      "stateMutability": "view",
      "type": "function",
      "signature": "0xa300e224"
    },
    {
      "constant": true,
      "inputs": [],
      "name": "endRegistrationPhase",
      "outputs": [
        {
          "name": "",
          "type": "uint256"
        }
      ],
      "payable": false,
      "stateMutability": "view",
      "type": "function",
      "signature": "0xb21a64da"
    },
    {
      "constant": true,
      "inputs": [
        {
          "name": "",
          "type": "address"
        }
      ],
      "name": "registered",
      "outputs": [
        {
          "name": "",
          "type": "bool"
        }
      ],
      "payable": false,
      "stateMutability": "view",
      "type": "function",
      "signature": "0xb2dd5c07"
    },
    {
      "constant": true,
      "inputs": [],
      "name": "totalVoted",
      "outputs": [
        {
          "name": "",
          "type": "uint256"
        }
      ],
      "payable": false,
      "stateMutability": "view",
      "type": "function",
      "signature": "0xb3a2273f"
    },
    {
      "constant": true,
      "inputs": [
        {
          "name": "",
          "type": "uint256"
        }
      ],
      "name": "voters",
      "outputs": [
        {
          "name": "addr",
          "type": "address"
        }
      ],
      "payable": false,
      "stateMutability": "view",
      "type": "function",
      "signature": "0xda58c7d9"
    },
    {
      "constant": true,
      "inputs": [
        {
          "name": "",
          "type": "uint256"
        }
      ],
      "name": "addresses",
      "outputs": [
        {
          "name": "",
          "type": "address"
        }
      ],
      "payable": false,
      "stateMutability": "view",
      "type": "function",
      "signature": "0xedf26d9b"
    },
    {
      "constant": false,
      "inputs": [
        {
          "name": "newOwner",
          "type": "address"
        }
      ],
      "name": "transferOwnership",
      "outputs": [],
      "payable": false,
      "stateMutability": "nonpayable",
      "type": "function",
      "signature": "0xf2fde38b"
    },
    {
      "inputs": [],
      "payable": false,
      "stateMutability": "nonpayable",
      "type": "constructor",
      "signature": "constructor"
    },
    {
      "constant": false,
      "inputs": [
        {
          "name": "addr",
          "type": "address[]"
        }
      ],
      "name": "addEligible",
      "outputs": [],
      "payable": false,
      "stateMutability": "nonpayable",
      "type": "function",
      "signature": "0x63333cb2"
    },
    {
      "constant": false,
      "inputs": [
        {
          "name": "_ballotStatement",
          "type": "string"
        },
        {
          "name": "option1",
          "type": "string"
        },
        {
          "name": "option2",
          "type": "string"
        },
        {
          "name": "_endRegistrationPhase",
          "type": "uint256"
        },
        {
          "name": "_endVotingPhase",
          "type": "uint256"
        },
        {
          "name": "_depositRequired",
          "type": "uint256"
        },
        {
          "name": "addr",
          "type": "address[]"
        }
      ],
      "name": "creatBallot",
      "outputs": [
        {
          "name": "",
          "type": "bool"
        }
      ],
      "payable": false,
      "stateMutability": "nonpayable",
      "type": "function",
      "signature": "0xaeb32ae3"
    },
    {
      "constant": false,
      "inputs": [
        {
          "name": "_key",
          "type": "uint256[2]"
        }
      ],
      "name": "register",
      "outputs": [
        {
          "name": "",
          "type": "bool"
        }
      ],
      "payable": false,
      "stateMutability": "nonpayable",
      "type": "function",
      "signature": "0x3442af5c"
    },
    {
      "constant": false,
      "inputs": [
        {
          "name": "choice",
          "type": "uint256[2]"
        }
      ],
      "name": "submitVote",
      "outputs": [
        {
          "name": "",
          "type": "bool"
        }
      ],
      "payable": false,
      "stateMutability": "nonpayable",
      "type": "function",
      "signature": "0x4bbc44e4"
    }
  ],
  "bytecode": "0x608060405234801561001057600080fd5b50336000806101000a81548173ffffffffffffffffffffffffffffffffffffffff021916908373ffffffffffffffffffffffffffffffffffffffff1602179055506000601160006101000a81548160ff0219169083600381111561007057fe5b021790555061182d806100846000396000f300608060405260043610610128576000357c0100000000000000000000000000000000000000000000000000000000900463ffffffff1680630713b1391461012d5780630c3f6acf1461018857806314cf9c53146101c15780631b26586c146102185780633138ffe7146102a85780633442af5c146102d35780633a5f547a1461033d578063409e22051461037e57806341b3d185146104245780634bbc44e41461044f57806363333cb2146104b9578063742d4d311461051f5780638da5cb5b1461057a578063927416c0146105d1578063a300e224146105fc578063aeb32ae314610627578063b21a64da14610795578063b2dd5c07146107c0578063b3a2273f1461081b578063da58c7d914610846578063edf26d9b146108b3578063f2fde38b14610920575b600080fd5b34801561013957600080fd5b5061016e600480360381019080803573ffffffffffffffffffffffffffffffffffffffff169060200190929190505050610963565b604051808215151515815260200191505060405180910390f35b34801561019457600080fd5b5061019d610983565b604051808260038111156101ad57fe5b60ff16815260200191505060405180910390f35b3480156101cd57600080fd5b50610202600480360381019080803573ffffffffffffffffffffffffffffffffffffffff169060200190929190505050610996565b6040518082815260200191505060405180910390f35b34801561022457600080fd5b5061022d6109ae565b6040518080602001828103825283818151815260200191508051906020019080838360005b8381101561026d578082015181840152602081019050610252565b50505050905090810190601f16801561029a5780820380516001836020036101000a031916815260200191505b509250505060405180910390f35b3480156102b457600080fd5b506102bd610a4c565b6040518082815260200191505060405180910390f35b3480156102df57600080fd5b506103236004803603810190808060400190600280602002604051908101604052809291908260026020028082843782019150505050509192919290505050610a52565b604051808215151515815260200191505060405180910390f35b34801561034957600080fd5b5061036860048036038101908080359060200190929190505050610cbc565b6040518082815260200191505060405180910390f35b34801561038a57600080fd5b506103a960048036038101908080359060200190929190505050610cd6565b6040518080602001828103825283818151815260200191508051906020019080838360005b838110156103e95780820151818401526020810190506103ce565b50505050905090810190601f1680156104165780820380516001836020036101000a031916815260200191505b509250505060405180910390f35b34801561043057600080fd5b50610439610d88565b6040518082815260200191505060405180910390f35b34801561045b57600080fd5b5061049f6004803603810190808060400190600280602002604051908101604052809291908260026020028082843782019150505050509192919290505050610d8e565b604051808215151515815260200191505060405180910390f35b3480156104c557600080fd5b5061051d60048036038101908080359060200190820180359060200190808060200260200160405190810160405280939291908181526020018383602002808284378201915050505050509192919290505050610f5b565b005b34801561052b57600080fd5b50610560600480360381019080803573ffffffffffffffffffffffffffffffffffffffff169060200190929190505050611175565b604051808215151515815260200191505060405180910390f35b34801561058657600080fd5b5061058f611195565b604051808273ffffffffffffffffffffffffffffffffffffffff1673ffffffffffffffffffffffffffffffffffffffff16815260200191505060405180910390f35b3480156105dd57600080fd5b506105e66111ba565b6040518082815260200191505060405180910390f35b34801561060857600080fd5b506106116111c0565b6040518082815260200191505060405180910390f35b34801561063357600080fd5b5061077b600480360381019080803590602001908201803590602001908080601f0160208091040260200160405190810160405280939291908181526020018383808284378201915050505050509192919290803590602001908201803590602001908080601f0160208091040260200160405190810160405280939291908181526020018383808284378201915050505050509192919290803590602001908201803590602001908080601f0160208091040260200160405190810160405280939291908181526020018383808284378201915050505050509192919290803590602001909291908035906020019092919080359060200190929190803590602001908201803590602001908080602002602001604051908101604052809392919081815260200183836020028082843782019150505050505091929192905050506111c6565b604051808215151515815260200191505060405180910390f35b3480156107a157600080fd5b506107aa61133e565b6040518082815260200191505060405180910390f35b3480156107cc57600080fd5b50610801600480360381019080803573ffffffffffffffffffffffffffffffffffffffff169060200190929190505050611344565b604051808215151515815260200191505060405180910390f35b34801561082757600080fd5b50610830611364565b6040518082815260200191505060405180910390f35b34801561085257600080fd5b506108716004803603810190808035906020019092919050505061136a565b604051808273ffffffffffffffffffffffffffffffffffffffff1673ffffffffffffffffffffffffffffffffffffffff16815260200191505060405180910390f35b3480156108bf57600080fd5b506108de600480360381019080803590602001909291905050506113a8565b604051808273ffffffffffffffffffffffffffffffffffffffff1673ffffffffffffffffffffffffffffffffffffffff16815260200191505060405180910390f35b34801561092c57600080fd5b50610961600480360381019080803573ffffffffffffffffffffffffffffffffffffffff1690602001909291905050506113e6565b005b60046020528060005260406000206000915054906101000a900460ff1681565b601160009054906101000a900460ff1681565b60026020528060005260406000206000915090505481565b600c8054600181600116156101000203166002900480601f016020809104026020016040519081016040528092919081815260200182805460018160011615610100020316600290048015610a445780601f10610a1957610100808354040283529160200191610a44565b820191906000526020600020905b815481529060010190602001808311610a2757829003601f168201915b505050505081565b600a5481565b6000610a5c6116ba565b6001806003811115610a6a57fe5b601160009054906101000a900460ff166003811115610a8557fe5b141515610a9157600080fd5b600460003373ffffffffffffffffffffffffffffffffffffffff1673ffffffffffffffffffffffffffffffffffffffff16815260200190815260200160002060009054906101000a900460ff1615610cb057600560003373ffffffffffffffffffffffffffffffffffffffff1673ffffffffffffffffffffffffffffffffffffffff16815260200190815260200160002060009054906101000a900460ff161515610caf57600954600260003373ffffffffffffffffffffffffffffffffffffffff1673ffffffffffffffffffffffffffffffffffffffff168152602001908152602001600020819055506060604051908101604052803373ffffffffffffffffffffffffffffffffffffffff1681526020018581526020018381525060036000600954815260200190815260200160002060008201518160000160006101000a81548173ffffffffffffffffffffffffffffffffffffffff021916908373ffffffffffffffffffffffffffffffffffffffff160217905550602082015181600101906002610c219291906116dc565b50604082015181600301906002610c399291906116dc565b509050506001600560003373ffffffffffffffffffffffffffffffffffffffff1673ffffffffffffffffffffffffffffffffffffffff16815260200190815260200160002060006101000a81548160ff021916908315150217905550600160096000828254019250508190555060019250610cb5565b5b600092505b5050919050565b600f81600281101515610ccb57fe5b016000915090505481565b600d81600281101515610ce557fe5b016000915090508054600181600116156101000203166002900480601f016020809104026020016040519081016040528092919081815260200182805460018160011615610100020316600290048015610d805780601f10610d5557610100808354040283529160200191610d80565b820191906000526020600020905b815481529060010190602001808311610d6357829003601f168201915b505050505081565b60125481565b6000806002806003811115610d9f57fe5b601160009054906101000a900460ff166003811115610dba57fe5b141515610dc657600080fd5b600854421115610dd557610f54565b600260003373ffffffffffffffffffffffffffffffffffffffff1673ffffffffffffffffffffffffffffffffffffffff168152602001908152602001600020549150600560003373ffffffffffffffffffffffffffffffffffffffff1673ffffffffffffffffffffffffffffffffffffffff16815260200190815260200160002060009054906101000a900460ff168015610eba5750600660003373ffffffffffffffffffffffffffffffffffffffff1673ffffffffffffffffffffffffffffffffffffffff16815260200190815260200160002060009054906101000a900460ff16155b15610f4f578360036000848152602001908152602001600020600301906002610ee492919061171c565b506001600660003373ffffffffffffffffffffffffffffffffffffffff1673ffffffffffffffffffffffffffffffffffffffff16815260200190815260200160002060006101000a81548160ff0219169083151502179055506001600b600082825401925050819055505b600092505b5050919050565b60006001806003811115610f6b57fe5b601160009054906101000a900460ff166003811115610f8657fe5b141515610f9257600080fd5b3373ffffffffffffffffffffffffffffffffffffffff166000809054906101000a900473ffffffffffffffffffffffffffffffffffffffff1673ffffffffffffffffffffffffffffffffffffffff16141515610fed57600080fd5b600091505b82518210156111705760046000848481518110151561100d57fe5b9060200190602002015173ffffffffffffffffffffffffffffffffffffffff1673ffffffffffffffffffffffffffffffffffffffff16815260200190815260200160002060009054906101000a900460ff16151561116357600160046000858581518110151561107957fe5b9060200190602002015173ffffffffffffffffffffffffffffffffffffffff1673ffffffffffffffffffffffffffffffffffffffff16815260200190815260200160002060006101000a81548160ff021916908315150217905550600183838151811015156110e457fe5b9060200190602002015190806001815401808255809150509060018203906000526020600020016000909192909190916101000a81548173ffffffffffffffffffffffffffffffffffffffff021916908373ffffffffffffffffffffffffffffffffffffffff160217905550506001600a600082825401925050819055505b8180600101925050610ff2565b505050565b60066020528060005260406000206000915054906101000a900460ff1681565b6000809054906101000a900473ffffffffffffffffffffffffffffffffffffffff1681565b60095481565b60085481565b6000808060038111156111d557fe5b601160009054906101000a900460ff1660038111156111f057fe5b1415156111fc57600080fd5b3373ffffffffffffffffffffffffffffffffffffffff166000809054906101000a900473ffffffffffffffffffffffffffffffffffffffff1673ffffffffffffffffffffffffffffffffffffffff1614151561125757600080fd5b428610156112685760009150611332565b858510156112795760009150611332565b61128283611484565b15156112915760009150611332565b88600c90805190602001906112a792919061175c565b5087600d60006002811015156112b957fe5b0190805190602001906112cd92919061175c565b5086600d60016002811015156112df57fe5b0190805190602001906112f392919061175c565b508560078190555084600881905550836012819055506001601160006101000a81548160ff0219169083600381111561132857fe5b0217905550600191505b50979650505050505050565b60075481565b60056020528060005260406000206000915054906101000a900460ff1681565b600b5481565b60036020528060005260406000206000915090508060000160009054906101000a900473ffffffffffffffffffffffffffffffffffffffff16905081565b6001818154811015156113b757fe5b906000526020600020016000915054906101000a900473ffffffffffffffffffffffffffffffffffffffff1681565b3373ffffffffffffffffffffffffffffffffffffffff166000809054906101000a900473ffffffffffffffffffffffffffffffffffffffff1673ffffffffffffffffffffffffffffffffffffffff1614151561144157600080fd5b806000806101000a81548173ffffffffffffffffffffffffffffffffffffffff021916908373ffffffffffffffffffffffffffffffffffffffff16021790555050565b600080600080600381111561149557fe5b601160009054906101000a900460ff1660038111156114b057fe5b1415156114bc57600080fd5b3373ffffffffffffffffffffffffffffffffffffffff166000809054906101000a900473ffffffffffffffffffffffffffffffffffffffff1673ffffffffffffffffffffffffffffffffffffffff1614151561151757600080fd5b600384511015156116ae57600091505b83518210156116a55760046000858481518110151561154257fe5b9060200190602002015173ffffffffffffffffffffffffffffffffffffffff1673ffffffffffffffffffffffffffffffffffffffff16815260200190815260200160002060009054906101000a900460ff1615156116985760016004600086858151811015156115ae57fe5b9060200190602002015173ffffffffffffffffffffffffffffffffffffffff1673ffffffffffffffffffffffffffffffffffffffff16815260200190815260200160002060006101000a81548160ff0219169083151502179055506001848381518110151561161957fe5b9060200190602002015190806001815401808255809150509060018203906000526020600020016000909192909190916101000a81548173ffffffffffffffffffffffffffffffffffffffff021916908373ffffffffffffffffffffffffffffffffffffffff160217905550506001600a600082825401925050819055505b8180600101925050611527565b600192506116b3565b600092505b5050919050565b6040805190810160405280600290602082028038833980820191505090505090565b826002810192821561170b579160200282015b8281111561170a5782518255916020019190600101906116ef565b5b50905061171891906117dc565b5090565b826002810192821561174b579160200282015b8281111561174a57825182559160200191906001019061172f565b5b50905061175891906117dc565b5090565b828054600181600116156101000203166002900490600052602060002090601f016020900481019282601f1061179d57805160ff19168380011785556117cb565b828001600101855582156117cb579182015b828111156117ca5782518255916020019190600101906117af565b5b5090506117d891906117dc565b5090565b6117fe91905b808211156117fa5760008160009055506001016117e2565b5090565b905600a165627a7a7230582009ebc32589fb26ebb1008d8749e07d27b7f145233b10f3154c9198a96e3a92c10029",
  "source": "pragma solidity >=0.4.21 <0.7.0;\r\n\r\nimport \"./Owned.sol\";\r\nimport \"./libraries/Secp256k1_noconflict.sol\";\r\n\r\n//admin (deploy, ballot name, candidates,start and finish time, allowed addresses)\r\n//user (check address, compute dzk, cast vote, view results)\r\n\r\ncontract VotingSys is Owned {\r\n\r\n    struct Voter {\r\n        address addr;\r\n        uint[2] key;\r\n        uint[2] vote;\r\n    }\r\n\r\n    address[] public addresses;\r\n    mapping(address => uint) public addressid; // Address to Counter\r\n    mapping(uint => Voter) public voters;\r\n    mapping(address => bool) public eligible; // White list of addresses allowed to vote\r\n    mapping(address => bool) public registered; // Address registered?\r\n    mapping(address => bool) public votecast; // Address voted?\r\n\r\n    uint public endRegistrationPhase;\r\n    uint public endVotingPhase;\r\n    uint public totalRegistered; // Total number of participants that have submitted a voting key\r\n    uint public totalEligible;\r\n    uint public totalVoted;\r\n    string public ballotName; // Ballot Name\r\n    string[2] public options;\r\n    uint[2] public finalTally; // Final tally\r\n\r\n    enum State {CREATE, REGISTER, VOTE, FINISH}\r\n    State public currentState;\r\n\r\n    uint public minDeposit;\r\n\r\n    modifier inState(State s) {\r\n        if (currentState != s) {\r\n            throw;\r\n        }\r\n        _;\r\n    }\r\n\r\n    function VotingSys() {\r\n        currentState = State.CREATE;\r\n    }\r\n\r\n    //  must be more that 3 voters in the beginning (called by create ballot only)\r\n    function setInitialEligible(address[] addr) private inState(State.CREATE) onlyOwner returns (bool){\r\n        if (addr.length >= 3) {\r\n            for (uint i = 0; i < addr.length; i++) {\r\n                if (!eligible[addr[i]]) {\r\n                    eligible[addr[i]] = true;\r\n                    addresses.push(addr[i]);\r\n                    totalEligible += 1;\r\n                }\r\n            }\r\n            return true;\r\n        } else {\r\n            return false;\r\n        }\r\n    }\r\n\r\n    //  inState(State.REGISTER) to allow the admin to add more eligible users in the reg phase\r\n    //  should be after creation of ballot\r\n    function addEligible(address[] addr) inState(State.REGISTER) onlyOwner {\r\n        for (uint i = 0; i < addr.length; i++) {\r\n            if (!eligible[addr[i]]) {\r\n                eligible[addr[i]] = true;\r\n                addresses.push(addr[i]);\r\n                totalEligible += 1;\r\n            }\r\n        }\r\n    }\r\n\r\n    function creatBallot(\r\n        string _ballotStatement,\r\n        string option1,\r\n        string option2,\r\n        uint _endRegistrationPhase,\r\n        uint _endVotingPhase,\r\n        uint _depositRequired,\r\n        address[] addr\r\n    )\r\n    inState(State.CREATE)\r\n    onlyOwner\r\n    returns (bool){\r\n        if (_endRegistrationPhase < now) {\r\n            return false;\r\n        }\r\n        if (_endVotingPhase < _endRegistrationPhase) {\r\n            return false;\r\n        }\r\n        if (!setInitialEligible(addr)) {\r\n            return false;\r\n        }\r\n        ballotName = _ballotStatement;\r\n        options[0] = option1;\r\n        options[1] = option2;\r\n        endRegistrationPhase = _endRegistrationPhase;\r\n        endVotingPhase = _endVotingPhase;\r\n        minDeposit = _depositRequired;\r\n        currentState = State.REGISTER;\r\n        return true;\r\n    }\r\n\r\n    //    todo: find usage for this!!\r\n    //    function deadlinePassed() returns (bool){\r\n    //\r\n    //        uint[2] memory empty;\r\n    //        if (now > endRegistrationPhase) {\r\n    //            currentState = State.VOTE;\r\n    //        }\r\n    //        if (now > endVotingPhase) {\r\n    //            currentState = State.FINISH;\r\n    //        }\r\n    //        if (currentState == State.FINISH) {\r\n    //    todo: should be separated in private function called resetBallot()\r\n    //            for (uint i = 0; i < addresses.length; i++) {\r\n    //                address addr = addresses[i];\r\n    //                eligible[addr] = false;\r\n    //                // No longer eligible\r\n    //                registered[addr] = false;\r\n    //                // Remove voting registration\r\n    //                voters[i] = Voter({addr : 0, key : empty, vote : empty});\r\n    //                addressid[addr] = 0;\r\n    //                // Remove index\r\n    //                votecast[addr] = false;\r\n    //                // Remove that vote was cast\r\n    //            }\r\n    //\r\n    //            // Reset timers.\r\n    //            endRegistrationPhase = 0;\r\n    //            endVotingPhase = 0;\r\n    //            delete addresses;\r\n    //\r\n    //            // Keep track of voter activity\r\n    //            totalRegistered = 0;\r\n    //            totalEligible = 0;\r\n    //            totalVoted = 0;\r\n    //\r\n    //            // General values that need reset\r\n    //            ballotName = \"\";\r\n    //            options[0] = \"\";\r\n    //            options[1] = \"\";\r\n    //            finaltally[0] = 0;\r\n    //            finaltally[1] = 0;\r\n    //            currentState = State.CREATE;\r\n    //            return true;\r\n    //        }\r\n    //        return false;\r\n    //    }\r\n\r\n\r\n\r\n    function register(uint[2] _key) inState(State.REGISTER) returns (bool) {\r\n        // Only eligible addresses can vote\r\n        if (eligible[msg.sender]) {\r\n            if (!registered[msg.sender]) {\r\n                // Update voter's registration\r\n                uint[2] memory empty;\r\n                addressid[msg.sender] = totalRegistered;\r\n                voters[totalRegistered] = Voter({addr : msg.sender, key : _key, vote : empty});\r\n                registered[msg.sender] = true;\r\n                totalRegistered += 1;\r\n\r\n                return true;\r\n            }\r\n        }\r\n        return false;\r\n    }\r\n\r\n    function submitVote(uint[2] choice) inState(State.VOTE) returns (bool) {\r\n        if (now > endVotingPhase) {\r\n            return;\r\n        }\r\n\r\n        uint c = addressid[msg.sender];\r\n\r\n        // Make sure the sender can vote, and hasn't already voted.\r\n        if (registered[msg.sender] && !votecast[msg.sender]) {\r\n            voters[c].vote = choice;\r\n            votecast[msg.sender] = true;\r\n            totalVoted += 1;\r\n        }\r\n\r\n        return false;\r\n    }\r\n}",
  "sourcePath": "C:/Users/Mayar's Laptop/react_test/DZK_Vote/Dapp/contracts/VotingSys.sol",
  "compiler": {
    "name": "solc",
    "version": "0.4.26+commit.4563c3fc.Emscripten.clang"
  },
  "schemaVersion": "3.0.2",
  "updatedAt": "2021-05-22T15:15:14.460Z",
  "devdoc": {
    "methods": {}
  },
  "userdoc": {
    "methods": {}
  }
}