{
  "contractName": "VotingSys",
  "abi": [
    {
      "constant": true,
      "inputs": [
        {
          "name": "",
          "type": "address"
        }
      ],
      "name": "eligible",
      "outputs": [
        {
          "name": "",
          "type": "bool"
        }
      ],
      "payable": false,
      "stateMutability": "view",
      "type": "function"
    },
    {
      "constant": true,
      "inputs": [],
      "name": "currentState",
      "outputs": [
        {
          "name": "",
          "type": "uint8"
        }
      ],
      "payable": false,
      "stateMutability": "view",
      "type": "function"
    },
    {
      "constant": true,
      "inputs": [],
      "name": "ballotName",
      "outputs": [
        {
          "name": "",
          "type": "string"
        }
      ],
      "payable": false,
      "stateMutability": "view",
      "type": "function"
    },
    {
      "constant": true,
      "inputs": [],
      "name": "totalEligible",
      "outputs": [
        {
          "name": "",
          "type": "uint256"
        }
      ],
      "payable": false,
      "stateMutability": "view",
      "type": "function"
    },
    {
      "constant": true,
      "inputs": [
        {
          "name": "",
          "type": "uint256"
        }
      ],
      "name": "finalTally",
      "outputs": [
        {
          "name": "",
          "type": "uint256"
        }
      ],
      "payable": false,
      "stateMutability": "view",
      "type": "function"
    },
    {
      "constant": true,
      "inputs": [
        {
          "name": "",
          "type": "uint256"
        }
      ],
      "name": "options",
      "outputs": [
        {
          "name": "",
          "type": "string"
        }
      ],
      "payable": false,
      "stateMutability": "view",
      "type": "function"
    },
    {
      "constant": true,
      "inputs": [],
      "name": "minDeposit",
      "outputs": [
        {
          "name": "",
          "type": "uint256"
        }
      ],
      "payable": false,
      "stateMutability": "view",
      "type": "function"
    },
    {
      "constant": true,
      "inputs": [
        {
          "name": "",
          "type": "address"
        }
      ],
      "name": "addressID",
      "outputs": [
        {
          "name": "",
          "type": "uint256"
        }
      ],
      "payable": false,
      "stateMutability": "view",
      "type": "function"
    },
    {
      "constant": true,
      "inputs": [
        {
          "name": "",
          "type": "address"
        }
      ],
      "name": "voteCast",
      "outputs": [
        {
          "name": "",
          "type": "bool"
        }
      ],
      "payable": false,
      "stateMutability": "view",
      "type": "function"
    },
    {
      "constant": true,
      "inputs": [
        {
          "name": "",
          "type": "uint256"
        }
      ],
      "name": "prevFinalTally",
      "outputs": [
        {
          "name": "",
          "type": "uint256"
        }
      ],
      "payable": false,
      "stateMutability": "view",
      "type": "function"
    },
    {
      "constant": true,
      "inputs": [],
      "name": "owner",
      "outputs": [
        {
          "name": "",
          "type": "address"
        }
      ],
      "payable": false,
      "stateMutability": "view",
      "type": "function"
    },
    {
      "constant": true,
      "inputs": [],
      "name": "totalRegistered",
      "outputs": [
        {
          "name": "",
          "type": "uint256"
        }
      ],
      "payable": false,
      "stateMutability": "view",
      "type": "function"
    },
    {
      "constant": true,
      "inputs": [],
      "name": "endVotingPhase",
      "outputs": [
        {
          "name": "",
          "type": "uint256"
        }
      ],
      "payable": false,
      "stateMutability": "view",
      "type": "function"
    },
    {
      "constant": true,
      "inputs": [],
      "name": "endRegistrationPhase",
      "outputs": [
        {
          "name": "",
          "type": "uint256"
        }
      ],
      "payable": false,
      "stateMutability": "view",
      "type": "function"
    },
    {
      "constant": true,
      "inputs": [
        {
          "name": "",
          "type": "address"
        }
      ],
      "name": "registered",
      "outputs": [
        {
          "name": "",
          "type": "bool"
        }
      ],
      "payable": false,
      "stateMutability": "view",
      "type": "function"
    },
    {
      "constant": true,
      "inputs": [],
      "name": "totalVoted",
      "outputs": [
        {
          "name": "",
          "type": "uint256"
        }
      ],
      "payable": false,
      "stateMutability": "view",
      "type": "function"
    },
    {
      "constant": true,
      "inputs": [
        {
          "name": "",
          "type": "address"
        }
      ],
      "name": "refunds",
      "outputs": [
        {
          "name": "",
          "type": "uint256"
        }
      ],
      "payable": false,
      "stateMutability": "view",
      "type": "function"
    },
    {
      "constant": true,
      "inputs": [
        {
          "name": "",
          "type": "uint256"
        }
      ],
      "name": "voters",
      "outputs": [
        {
          "name": "addr",
          "type": "address"
        }
      ],
      "payable": false,
      "stateMutability": "view",
      "type": "function"
    },
    {
      "constant": true,
      "inputs": [
        {
          "name": "",
          "type": "uint256"
        }
      ],
      "name": "addresses",
      "outputs": [
        {
          "name": "",
          "type": "address"
        }
      ],
      "payable": false,
      "stateMutability": "view",
      "type": "function"
    },
    {
      "constant": false,
      "inputs": [
        {
          "name": "newOwner",
          "type": "address"
        }
      ],
      "name": "transferOwnership",
      "outputs": [],
      "payable": false,
      "stateMutability": "nonpayable",
      "type": "function"
    },
    {
      "inputs": [],
      "payable": false,
      "stateMutability": "nonpayable",
      "type": "constructor"
    },
    {
      "constant": false,
      "inputs": [],
      "name": "getVoter",
      "outputs": [
        {
          "name": "_registeredKey",
          "type": "uint256[2]"
        },
        {
          "name": "_reconstructedKey",
          "type": "uint256[2]"
        }
      ],
      "payable": false,
      "stateMutability": "nonpayable",
      "type": "function"
    },
    {
      "constant": false,
      "inputs": [
        {
          "name": "_ballotStatement",
          "type": "string"
        },
        {
          "name": "option1",
          "type": "string"
        },
        {
          "name": "option2",
          "type": "string"
        },
        {
          "name": "_endRegistrationPhase",
          "type": "uint256"
        },
        {
          "name": "_endVotingPhase",
          "type": "uint256"
        },
        {
          "name": "_depositRequired",
          "type": "uint256"
        },
        {
          "name": "addr",
          "type": "address[]"
        }
      ],
      "name": "creatBallot",
      "outputs": [
        {
          "name": "",
          "type": "bool"
        }
      ],
      "payable": false,
      "stateMutability": "nonpayable",
      "type": "function"
    },
    {
      "constant": false,
      "inputs": [
        {
          "name": "addr",
          "type": "address[]"
        }
      ],
      "name": "addEligible",
      "outputs": [],
      "payable": false,
      "stateMutability": "nonpayable",
      "type": "function"
    },
    {
      "constant": false,
      "inputs": [],
      "name": "deadlinePassed",
      "outputs": [
        {
          "name": "",
          "type": "bool"
        }
      ],
      "payable": false,
      "stateMutability": "nonpayable",
      "type": "function"
    },
    {
      "constant": false,
      "inputs": [
        {
          "name": "xG",
          "type": "uint256[2]"
        },
        {
          "name": "vG",
          "type": "uint256[3]"
        },
        {
          "name": "r",
          "type": "uint256"
        }
      ],
      "name": "register",
      "outputs": [
        {
          "name": "",
          "type": "bool"
        }
      ],
      "payable": true,
      "stateMutability": "payable",
      "type": "function"
    },
    {
      "constant": false,
      "inputs": [],
      "name": "finishRegistrationPhase",
      "outputs": [
        {
          "name": "",
          "type": "bool"
        }
      ],
      "payable": false,
      "stateMutability": "nonpayable",
      "type": "function"
    },
    {
      "constant": false,
      "inputs": [
        {
          "name": "params",
          "type": "uint256[4]"
        },
        {
          "name": "y",
          "type": "uint256[2]"
        },
        {
          "name": "a1",
          "type": "uint256[2]"
        },
        {
          "name": "b1",
          "type": "uint256[2]"
        },
        {
          "name": "a2",
          "type": "uint256[2]"
        },
        {
          "name": "b2",
          "type": "uint256[2]"
        }
      ],
      "name": "submitVote",
      "outputs": [
        {
          "name": "",
          "type": "bool"
        }
      ],
      "payable": false,
      "stateMutability": "nonpayable",
      "type": "function"
    },
    {
      "constant": false,
      "inputs": [
        {
          "name": "xG",
          "type": "uint256[2]"
        },
        {
          "name": "r",
          "type": "uint256"
        },
        {
          "name": "vG",
          "type": "uint256[3]"
        }
      ],
      "name": "verifyKey",
      "outputs": [
        {
          "name": "",
          "type": "bool"
        }
      ],
      "payable": false,
      "stateMutability": "nonpayable",
      "type": "function"
    },
    {
      "constant": false,
      "inputs": [
        {
          "name": "params",
          "type": "uint256[4]"
        },
        {
          "name": "xG",
          "type": "uint256[2]"
        },
        {
          "name": "yG",
          "type": "uint256[2]"
        },
        {
          "name": "y",
          "type": "uint256[2]"
        },
        {
          "name": "a1",
          "type": "uint256[2]"
        },
        {
          "name": "b1",
          "type": "uint256[2]"
        },
        {
          "name": "a2",
          "type": "uint256[2]"
        },
        {
          "name": "b2",
          "type": "uint256[2]"
        }
      ],
      "name": "verify1outof2ZKP",
      "outputs": [
        {
          "name": "",
          "type": "bool"
        }
      ],
      "payable": false,
      "stateMutability": "nonpayable",
      "type": "function"
    }
  ],
  "bytecode": "0x60806040523480156200001157600080fd5b50336000806101000a81548173ffffffffffffffffffffffffffffffffffffffff021916908373ffffffffffffffffffffffffffffffffffffffff1602179055506000601460006101000a81548160ff021916908360038111156200007257fe5b021790555061575780620000876000396000f300608060405260043610610175576000357c0100000000000000000000000000000000000000000000000000000000900463ffffffff16806305c5aabc1461017a5780630713b1391461021d57806308de18c3146102785780630c3f6acf1461030e5780631b26586c146103475780632b37f53c146103d75780633138ffe7146104595780633a5f547a14610484578063409e2205146104c557806341b3d1851461056b5780634a4ab63d1461059657806357dee00d146105ed57806363333cb2146106485780636447d208146106ae578063648136d4146106dd57806377df5fc8146108325780638460be61146108615780638da5cb5b146108a2578063927416c0146108f9578063a300e22414610924578063aeb32ae31461094f578063b21a64da14610abd578063b2dd5c0714610ae8578063b3a2273f14610b43578063bc3da53514610b6e578063c07bbc8714610bc5578063da58c7d914610d78578063edf26d9b14610de5578063f2fde38b14610e52575b600080fd5b34801561018657600080fd5b506102036004803603810190808060400190600280602002604051908101604052809291908260026020028082843782019150505050509192919290803590602001909291908060600190600380602002604051908101604052809291908260036020028082843782019150505050509192919290505050610e95565b604051808215151515815260200191505060405180910390f35b34801561022957600080fd5b5061025e600480360381019080803573ffffffffffffffffffffffffffffffffffffffff1690602001909291905050506111c3565b604051808215151515815260200191505060405180910390f35b6102f460048036038101908080604001906002806020026040519081016040528092919082600260200280828437820191505050505091929192908060600190600380602002604051908101604052809291908260036020028082843782019150505050509192919290803590602001909291905050506111e3565b604051808215151515815260200191505060405180910390f35b34801561031a57600080fd5b50610323611527565b6040518082600381111561033357fe5b60ff16815260200191505060405180910390f35b34801561035357600080fd5b5061035c61153a565b6040518080602001828103825283818151815260200191508051906020019080838360005b8381101561039c578082015181840152602081019050610381565b50505050905090810190601f1680156103c95780820380516001836020036101000a031916815260200191505b509250505060405180910390f35b3480156103e357600080fd5b506103ec6115d8565b6040518083600260200280838360005b838110156104175780820151818401526020810190506103fc565b5050505090500182600260200280838360005b8381101561044557808201518184015260208101905061042a565b505050509050019250505060405180910390f35b34801561046557600080fd5b5061046e6116d9565b6040518082815260200191505060405180910390f35b34801561049057600080fd5b506104af600480360381019080803590602001909291905050506116df565b6040518082815260200191505060405180910390f35b3480156104d157600080fd5b506104f0600480360381019080803590602001909291905050506116f9565b6040518080602001828103825283818151815260200191508051906020019080838360005b83811015610530578082015181840152602081019050610515565b50505050905090810190601f16801561055d5780820380516001836020036101000a031916815260200191505b509250505060405180910390f35b34801561057757600080fd5b506105806117ab565b6040518082815260200191505060405180910390f35b3480156105a257600080fd5b506105d7600480360381019080803573ffffffffffffffffffffffffffffffffffffffff1690602001909291905050506117b1565b6040518082815260200191505060405180910390f35b3480156105f957600080fd5b5061062e600480360381019080803573ffffffffffffffffffffffffffffffffffffffff1690602001909291905050506117c9565b604051808215151515815260200191505060405180910390f35b34801561065457600080fd5b506106ac600480360381019080803590602001908201803590602001908080602002602001604051908101604052809392919081815260200183836020028082843782019150505050505091929192905050506117e9565b005b3480156106ba57600080fd5b506106c3611a03565b604051808215151515815260200191505060405180910390f35b3480156106e957600080fd5b506108186004803603810190808060800190600480602002604051908101604052809291908260046020028082843782019150505050509192919290806040019060028060200260405190810160405280929190826002602002808284378201915050505050919291929080604001906002806020026040519081016040528092919082600260200280828437820191505050505091929192908060400190600280602002604051908101604052809291908260026020028082843782019150505050509192919290806040019060028060200260405190810160405280929190826002602002808284378201915050505050919291929080604001906002806020026040519081016040528092919082600260200280828437820191505050505091929192905050506120a0565b604051808215151515815260200191505060405180910390f35b34801561083e57600080fd5b50610847612463565b604051808215151515815260200191505060405180910390f35b34801561086d57600080fd5b5061088c600480360381019080803590602001909291905050506128ce565b6040518082815260200191505060405180910390f35b3480156108ae57600080fd5b506108b76128e8565b604051808273ffffffffffffffffffffffffffffffffffffffff1673ffffffffffffffffffffffffffffffffffffffff16815260200191505060405180910390f35b34801561090557600080fd5b5061090e61290d565b6040518082815260200191505060405180910390f35b34801561093057600080fd5b50610939612913565b6040518082815260200191505060405180910390f35b34801561095b57600080fd5b50610aa3600480360381019080803590602001908201803590602001908080601f0160208091040260200160405190810160405280939291908181526020018383808284378201915050505050509192919290803590602001908201803590602001908080601f0160208091040260200160405190810160405280939291908181526020018383808284378201915050505050509192919290803590602001908201803590602001908080601f016020809104026020016040519081016040528093929190818152602001838380828437820191505050505050919291929080359060200190929190803590602001909291908035906020019092919080359060200190820180359060200190808060200260200160405190810160405280939291908181526020018383602002808284378201915050505050509192919290505050612919565b604051808215151515815260200191505060405180910390f35b348015610ac957600080fd5b50610ad2612a91565b6040518082815260200191505060405180910390f35b348015610af457600080fd5b50610b29600480360381019080803573ffffffffffffffffffffffffffffffffffffffff169060200190929190505050612a97565b604051808215151515815260200191505060405180910390f35b348015610b4f57600080fd5b50610b58612ab7565b6040518082815260200191505060405180910390f35b348015610b7a57600080fd5b50610baf600480360381019080803573ffffffffffffffffffffffffffffffffffffffff169060200190929190505050612abd565b6040518082815260200191505060405180910390f35b348015610bd157600080fd5b50610d5e60048036038101908080608001906004806020026040519081016040528092919082600460200280828437820191505050505091929192908060400190600280602002604051908101604052809291908260026020028082843782019150505050509192919290806040019060028060200260405190810160405280929190826002602002808284378201915050505050919291929080604001906002806020026040519081016040528092919082600260200280828437820191505050505091929192908060400190600280602002604051908101604052809291908260026020028082843782019150505050509192919290806040019060028060200260405190810160405280929190826002602002808284378201915050505050919291929080604001906002806020026040519081016040528092919082600260200280828437820191505050505091929192908060400190600280602002604051908101604052809291908260026020028082843782019150505050509192919290505050612ad5565b604051808215151515815260200191505060405180910390f35b348015610d8457600080fd5b50610da360048036038101908080359060200190929190505050613352565b604051808273ffffffffffffffffffffffffffffffffffffffff1673ffffffffffffffffffffffffffffffffffffffff16815260200191505060405180910390f35b348015610df157600080fd5b50610e1060048036038101908080359060200190929190505050613390565b604051808273ffffffffffffffffffffffffffffffffffffffff1673ffffffffffffffffffffffffffffffffffffffff16815260200191505060405180910390f35b348015610e5e57600080fd5b50610e93600480360381019080803573ffffffffffffffffffffffffffffffffffffffff1690602001909291905050506133ce565b005b6000610e9f615547565b600080610eaa615569565b610eb2615569565b610eba615569565b7f79be667ef9dcbbac55a06295ce870b07029bfcdb2dce28d959f2815b16f81798866000600281101515610eea57fe5b6020020181815250507f483ada7726a3c4655da4fbfc0e1108a8fd17b448a68554199c47d08ffb10d4b8866001600281101515610f2357fe5b602002018181525050610f358a61346c565b1580610f475750610f458861347e565b155b15610f5557600096506111b6565b6002337f79be667ef9dcbbac55a06295ce870b07029bfcdb2dce28d959f2815b16f817987f483ada7726a3c4655da4fbfc0e1108a8fd17b448a68554199c47d08ffb10d4b88d8c604051602001808673ffffffffffffffffffffffffffffffffffffffff1673ffffffffffffffffffffffffffffffffffffffff16815260200185815260200184815260200183600260200280838360005b83811015611008578082015181840152602081019050610fed565b5050505090500182600360200280838360005b8381101561103657808201518184015260208101905061101b565b50505050905001955050505050506040516020818303038152906040526040518082805190602001908083835b6020831015156110885780518252602082019150602081019050602083039250611063565b6001836020036101000a0380198251168184511680821785525050505050509050019150506020604051808303816000865af11580156110cc573d6000803e3d6000fd5b5050506040513d60208110156110e157600080fd5b810190808051906020019092919050505094508460019004935061110589876134f1565b9250611111848b6134f1565b915061111d8383613d83565b9050611149817ffffffffffffffffffffffffffffffffffffffffffffffffffffffffefffffc2f6142a9565b87600060038110151561115857fe5b602002015181600060038110151561116c57fe5b60200201511480156111a3575087600160038110151561118857fe5b602002015181600160038110151561119c57fe5b6020020151145b156111b157600196506111b6565b600096505b5050505050509392505050565b60046020528060005260406000206000915054906101000a900460ff1681565b60006111ed615547565b60018060038111156111fb57fe5b601460009054906101000a900460ff16600381111561121657fe5b14151561122257600080fd5b61122a612463565b15611238576000925061151e565b6001600381111561124557fe5b601460009054906101000a900460ff16600381111561126057fe5b141515611270576000925061151e565b601554341015611283576000925061151e565b600460003373ffffffffffffffffffffffffffffffffffffffff1673ffffffffffffffffffffffffffffffffffffffff16815260200190815260200160002060009054906101000a900460ff1615611519576112e0868587610e95565b156115185734600760003373ffffffffffffffffffffffffffffffffffffffff1673ffffffffffffffffffffffffffffffffffffffff16815260200190815260200160002081905550600a54600260003373ffffffffffffffffffffffffffffffffffffffff1673ffffffffffffffffffffffffffffffffffffffff168152602001908152602001600020819055506080604051908101604052803373ffffffffffffffffffffffffffffffffffffffff1681526020018781526020018381526020018381525060036000600a54815260200190815260200160002060008201518160000160006101000a81548173ffffffffffffffffffffffffffffffffffffffff021916908373ffffffffffffffffffffffffffffffffffffffff16021790555060208201518160010190600261141a92919061558c565b5060408201518160030190600261143292919061558c565b5060608201518160050190600261144a92919061558c565b509050506001600560003373ffffffffffffffffffffffffffffffffffffffff1673ffffffffffffffffffffffffffffffffffffffff16815260200190815260200160002060006101000a81548160ff0219169083151502179055506000600660003373ffffffffffffffffffffffffffffffffffffffff1673ffffffffffffffffffffffffffffffffffffffff16815260200190815260200160002060006101000a81548160ff0219169083151502179055506001600a600082825401925050819055506001925061151e565b5b600092505b50509392505050565b601460009054906101000a900460ff1681565b600d8054600181600116156101000203166002900480601f0160208091040260200160405190810160405280929190818152602001828054600181600116156101000203166002900480156115d05780601f106115a5576101008083540402835291602001916115d0565b820191906000526020600020905b8154815290600101906020018083116115b357829003601f168201915b505050505081565b6115e0615547565b6115e8615547565b6000600260003373ffffffffffffffffffffffffffffffffffffffff1673ffffffffffffffffffffffffffffffffffffffff16815260200190815260200160002054905060036000828152602001908152602001600020600101600280602002604051908101604052809291908260028015611679576020028201915b815481526020019060010190808311611665575b50505050509250600360008281526020019081526020016000206003016002806020026040519081016040528092919082600280156116cd576020028201915b8154815260200190600101908083116116b9575b50505050509150509091565b600b5481565b6010816002811015156116ee57fe5b016000915090505481565b600e8160028110151561170857fe5b016000915090508054600181600116156101000203166002900480601f0160208091040260200160405190810160405280929190818152602001828054600181600116156101000203166002900480156117a35780601f10611778576101008083540402835291602001916117a3565b820191906000526020600020905b81548152906001019060200180831161178657829003601f168201915b505050505081565b60155481565b60026020528060005260406000206000915090505481565b60066020528060005260406000206000915054906101000a900460ff1681565b600060018060038111156117f957fe5b601460009054906101000a900460ff16600381111561181457fe5b14151561182057600080fd5b3373ffffffffffffffffffffffffffffffffffffffff166000809054906101000a900473ffffffffffffffffffffffffffffffffffffffff1673ffffffffffffffffffffffffffffffffffffffff1614151561187b57600080fd5b600091505b82518210156119fe5760046000848481518110151561189b57fe5b9060200190602002015173ffffffffffffffffffffffffffffffffffffffff1673ffffffffffffffffffffffffffffffffffffffff16815260200190815260200160002060009054906101000a900460ff1615156119f157600160046000858581518110151561190757fe5b9060200190602002015173ffffffffffffffffffffffffffffffffffffffff1673ffffffffffffffffffffffffffffffffffffffff16815260200190815260200160002060006101000a81548160ff0219169083151502179055506001838381518110151561197257fe5b9060200190602002015190806001815401808255809150509060018203906000526020600020016000909192909190916101000a81548173ffffffffffffffffffffffffffffffffffffffff021916908373ffffffffffffffffffffffffffffffffffffffff160217905550506001600b600082825401925050819055505b8180600101925050611880565b505050565b6000611a0d615547565b611a15615569565b611a1d615569565b611a25615569565b60006001806003811115611a3557fe5b601460009054906101000a900460ff166003811115611a5057fe5b141515611a5c57600080fd5b3373ffffffffffffffffffffffffffffffffffffffff166000809054906101000a900473ffffffffffffffffffffffffffffffffffffffff1673ffffffffffffffffffffffffffffffffffffffff16141515611ab757600080fd5b6003600a541015611ac757612097565b60036000600181526020019081526020016000206001016000600281101515611aec57fe5b0154836000600381101515611afd57fe5b60200201818152505060036000600181526020019081526020016000206001016001600281101515611b2b57fe5b0154836001600381101515611b3c57fe5b6020020181815250506001836002600381101515611b5657fe5b602002018181525050600291505b600a54821015611bd657611bc98360036000858152602001908152602001600020600101600280602002604051908101604052809291908260028015611bbf576020028201915b815481526020019060010190808311611bab575b5050505050614376565b8180600101925050611b64565b611c00837ffffffffffffffffffffffffffffffffffffffffffffffffffffffffefffffc2f6142a9565b826000600381101515611c0f57fe5b6020020151600360008081526020019081526020016000206003016000600281101515611c3857fe5b0181905550826001600381101515611c4c57fe5b60200201517ffffffffffffffffffffffffffffffffffffffffffffffffffffffffefffffc2f03600360008081526020019081526020016000206003016001600281101515611c9757fe5b0181905550600191505b600a5482101561206e576001821415611d4f57600360008081526020019081526020016000206001016000600281101515611cd857fe5b0154846000600381101515611ce957fe5b602002018181525050600360008081526020019081526020016000206001016001600281101515611d1657fe5b0154846001600381101515611d2757fe5b6020020181815250506001846002600381101515611d4157fe5b602002018181525050611dae565b611dad8460036000600186038152602001908152602001600020600101600280602002604051908101604052809291908260028015611da3576020028201915b815481526020019060010190808311611d8f575b5050505050614376565b5b6001600a5403821415611e6457611de5847ffffffffffffffffffffffffffffffffffffffffffffffffffffffffefffffc2f6142a9565b836000600381101515611df457fe5b6020020151600360008481526020019081526020016000206003016000600281101515611e1d57fe5b0181905550836001600381101515611e3157fe5b6020020151600360008481526020019081526020016000206003016001600281101515611e5a57fe5b0181905550612061565b600360008381526020019081526020016000206001016000600281101515611e8857fe5b0154866000600281101515611e9957fe5b602002018181525050600360008381526020019081526020016000206001016001600281101515611ec657fe5b01547ffffffffffffffffffffffffffffffffffffffffffffffffffffffffefffffc2f03866001600281101515611ef957fe5b602002018181525050611f0c8387614376565b611f36837ffffffffffffffffffffffffffffffffffffffffffffffffffffffffefffffc2f6142a9565b826000600381101515611f4557fe5b6020020151866000600281101515611f5957fe5b602002018181525050826001600381101515611f7157fe5b60200201517ffffffffffffffffffffffffffffffffffffffffffffffffffffffffefffffc2f03866001600281101515611fa757fe5b602002018181525050611fba8487614857565b9450611fe6857ffffffffffffffffffffffffffffffffffffffffffffffffffffffffefffffc2f6142a9565b846000600381101515611ff557fe5b602002015160036000848152602001908152602001600020600301600060028110151561201e57fe5b018190555084600160038110151561203257fe5b602002015160036000848152602001908152602001600020600301600160028110151561205b57fe5b01819055505b8180600101925050611ca1565b6002601460006101000a81548160ff0219169083600381111561208d57fe5b0217905550600196505b50505050505090565b6000806120ab615547565b6120b3615547565b6000600260003373ffffffffffffffffffffffffffffffffffffffff1673ffffffffffffffffffffffffffffffffffffffff16815260200190815260200160002054935060036000858152602001908152602001600020600301600280602002604051908101604052809291908260028015612144576020028201915b815481526020019060010190808311612130575b5050505050925060036000858152602001908152602001600020600101600280602002604051908101604052809291908260028015612198576020028201915b815481526020019060010190808311612184575b50505050509150600560003373ffffffffffffffffffffffffffffffffffffffff1673ffffffffffffffffffffffffffffffffffffffff16815260200190815260200160002060009054906101000a900460ff1680156122425750600660003373ffffffffffffffffffffffffffffffffffffffff1673ffffffffffffffffffffffffffffffffffffffff16815260200190815260200160002060009054906101000a900460ff16155b15612450576122578b83858d8d8d8d8d612ad5565b1561244f5789600060028110151561226b57fe5b602002015160036000868152602001908152602001600020600501600060028110151561229457fe5b01819055508960016002811015156122a857fe5b60200201516003600086815260200190815260200160002060050160016002811015156122d157fe5b01819055506001600660003373ffffffffffffffffffffffffffffffffffffffff1673ffffffffffffffffffffffffffffffffffffffff16815260200190815260200160002060006101000a81548160ff0219169083151502179055506001600c60008282540192505081905550600760003373ffffffffffffffffffffffffffffffffffffffff1673ffffffffffffffffffffffffffffffffffffffff1681526020019081526020016000205490506000600760003373ffffffffffffffffffffffffffffffffffffffff1673ffffffffffffffffffffffffffffffffffffffff168152602001908152602001600020819055503373ffffffffffffffffffffffffffffffffffffffff166108fc829081150290604051600060405180830381858888f1935050505015156124465780600760003373ffffffffffffffffffffffffffffffffffffffff1673ffffffffffffffffffffffffffffffffffffffff168152602001908152602001600020819055505b60019450612455565b5b600094505b505050509695505050505050565b600061246d615547565b60008060095442111561249f576003601460006101000a81548160ff0219169083600381111561249957fe5b02179055505b6003808111156124ab57fe5b601460009054906101000a900460ff1660038111156124c657fe5b14156128c357600091505b600180549050821015612797576001828154811015156124ed57fe5b9060005260206000200160009054906101000a900473ffffffffffffffffffffffffffffffffffffffff1690506000600460008373ffffffffffffffffffffffffffffffffffffffff1673ffffffffffffffffffffffffffffffffffffffff16815260200190815260200160002060006101000a81548160ff0219169083151502179055506000600560008373ffffffffffffffffffffffffffffffffffffffff1673ffffffffffffffffffffffffffffffffffffffff16815260200190815260200160002060006101000a81548160ff021916908315150217905550608060405190810160405280600073ffffffffffffffffffffffffffffffffffffffff168152602001848152602001848152602001848152506003600084815260200190815260200160002060008201518160000160006101000a81548173ffffffffffffffffffffffffffffffffffffffff021916908373ffffffffffffffffffffffffffffffffffffffff16021790555060208201518160010190600261267492919061558c565b5060408201518160030190600261268c92919061558c565b506060820151816005019060026126a492919061558c565b509050506000600260008373ffffffffffffffffffffffffffffffffffffffff1673ffffffffffffffffffffffffffffffffffffffff168152602001908152602001600020819055506000600660008373ffffffffffffffffffffffffffffffffffffffff1673ffffffffffffffffffffffffffffffffffffffff16815260200190815260200160002060006101000a81548160ff0219169083151502179055506000600760008373ffffffffffffffffffffffffffffffffffffffff1673ffffffffffffffffffffffffffffffffffffffff1681526020019081526020016000208190555081806001019250506124d1565b60006008819055506000600981905550600160006127b591906155cc565b6000600a819055506000600b819055506000600c819055506020604051908101604052806000815250600d90805190602001906127f39291906155ed565b506020604051908101604052806000815250600e600060028110151561281557fe5b0190805190602001906128299291906155ed565b506020604051908101604052806000815250600e600160028110151561284b57fe5b01908051906020019061285f9291906155ed565b5060006010600060028110151561287257fe5b018190555060006010600160028110151561288957fe5b018190555060006015819055506000601460006101000a81548160ff021916908360038111156128b557fe5b0217905550600193506128c8565b600093505b50505090565b6012816002811015156128dd57fe5b016000915090505481565b6000809054906101000a900473ffffffffffffffffffffffffffffffffffffffff1681565b600a5481565b60095481565b60008080600381111561292857fe5b601460009054906101000a900460ff16600381111561294357fe5b14151561294f57600080fd5b3373ffffffffffffffffffffffffffffffffffffffff166000809054906101000a900473ffffffffffffffffffffffffffffffffffffffff1673ffffffffffffffffffffffffffffffffffffffff161415156129aa57600080fd5b428610156129bb5760009150612a85565b858510156129cc5760009150612a85565b6129d583614d19565b15156129e45760009150612a85565b88600d90805190602001906129fa9291906155ed565b5087600e6000600281101515612a0c57fe5b019080519060200190612a209291906155ed565b5086600e6001600281101515612a3257fe5b019080519060200190612a469291906155ed565b508560088190555084600981905550836015819055506001601460006101000a81548160ff02191690836003811115612a7b57fe5b0217905550600191505b50979650505050505050565b60085481565b60056020528060005260406000206000915054906101000a900460ff1681565b600c5481565b60076020528060005260406000206000915090505481565b6000612adf615547565b612ae7615569565b612aef615569565b612af7615547565b7f79be667ef9dcbbac55a06295ce870b07029bfcdb2dce28d959f2815b16f81798816000600281101515612b2757fe5b6020020181815250507f483ada7726a3c4655da4fbfc0e1108a8fd17b448a68554199c47d08ffb10d4b8816001600281101515612b6057fe5b602002018181525050612b728c61346c565b1580612b845750612b828b61346c565b155b80612b955750612b938a61346c565b155b80612ba65750612ba48961346c565b155b80612bb75750612bb58861346c565b155b80612bc85750612bc68761346c565b155b80612bd95750612bd78661346c565b155b15612be75760009450613342565b7ffffffffffffffffffffffffffffffffebaaedce6af48a03bbfd25e8cd0364141801515612c1157fe5b8d6001600481101515612c2057fe5b60200201518e6000600481101515612c3457fe5b6020020151086002338e8d8d8d8d8d604051602001808873ffffffffffffffffffffffffffffffffffffffff1673ffffffffffffffffffffffffffffffffffffffff16815260200187600260200280838360005b83811015612ca3578082015181840152602081019050612c88565b5050505090500186600260200280838360005b83811015612cd1578082015181840152602081019050612cb6565b5050505090500185600260200280838360005b83811015612cff578082015181840152602081019050612ce4565b5050505090500184600260200280838360005b83811015612d2d578082015181840152602081019050612d12565b5050505090500183600260200280838360005b83811015612d5b578082015181840152602081019050612d40565b5050505090500182600260200280838360005b83811015612d89578082015181840152602081019050612d6e565b505050509050019750505050505050506040516020818303038152906040526040518082805190602001908083835b602083101515612ddd5780518252602082019150602081019050602083039250612db8565b6001836020036101000a0380198251168184511680821785525050505050509050019150506020604051808303816000865af1158015612e21573d6000803e3d6000fd5b5050506040513d6020811015612e3657600080fd5b810190808051906020019092919050505060019004141515612e5b5760009450613342565b612e788d6002600481101515612e6d57fe5b6020020151826134f1565b9250612ea083612e9b8f6000600481101515612e9057fe5b60200201518f6134f1565b613d83565b9150612ecc827ffffffffffffffffffffffffffffffffffffffffffffffffffffffffefffffc2f6142a9565b816000600381101515612edb57fe5b6020020151896000600281101515612eef57fe5b6020020151141580612f275750816001600381101515612f0b57fe5b6020020151896001600281101515612f1f57fe5b602002015114155b15612f355760009450613342565b612f528d6002600481101515612f4757fe5b60200201518c6134f1565b9250612f7a83612f758f6000600481101515612f6a57fe5b60200201518d6134f1565b613d83565b9150612fa6827ffffffffffffffffffffffffffffffffffffffffffffffffffffffffefffffc2f6142a9565b816000600381101515612fb557fe5b6020020151886000600281101515612fc957fe5b60200201511415806130015750816001600381101515612fe557fe5b6020020151886001600281101515612ff957fe5b602002015114155b1561300f5760009450613342565b61302c8d600360048110151561302157fe5b6020020151826134f1565b92506130548361304f8f600160048110151561304457fe5b60200201518f6134f1565b613d83565b9150613080827ffffffffffffffffffffffffffffffffffffffffffffffffffffffffefffffc2f6142a9565b81600060038110151561308f57fe5b60200201518760006002811015156130a357fe5b60200201511415806130db57508160016003811015156130bf57fe5b60200201518760016002811015156130d357fe5b602002015114155b156130e95760009450613342565b8060006002811015156130f857fe5b602002015184600060028110151561310c57fe5b60200201818152505080600160028110151561312457fe5b60200201517ffffffffffffffffffffffffffffffffffffffffffffffffffffffffefffffc2f0384600160028110151561315a57fe5b60200201818152505089600060028110151561317257fe5b602002015182600060038110151561318657fe5b60200201818152505089600160028110151561319e57fe5b60200201518260016003811015156131b257fe5b60200201818152505060018260026003811015156131cc57fe5b6020020181815250506131df8285614857565b925061320b837ffffffffffffffffffffffffffffffffffffffffffffffffffffffffefffffc2f6142a9565b82600060038110151561321a57fe5b602002015184600060028110151561322e57fe5b60200201818152505082600160038110151561324657fe5b602002015184600160028110151561325a57fe5b6020020181815250506132808d600160048110151561327557fe5b6020020151856134f1565b92506132a86132a28e600360048110151561329757fe5b60200201518d6134f1565b84613d83565b91506132d4827ffffffffffffffffffffffffffffffffffffffffffffffffffffffffefffffc2f6142a9565b8160006003811015156132e357fe5b60200201518660006002811015156132f757fe5b602002015114158061332f575081600160038110151561331357fe5b602002015186600160028110151561332757fe5b602002015114155b1561333d5760009450613342565b600194505b5050505098975050505050505050565b60036020528060005260406000206000915090508060000160009054906101000a900473ffffffffffffffffffffffffffffffffffffffff16905081565b60018181548110151561339f57fe5b906000526020600020016000915054906101000a900473ffffffffffffffffffffffffffffffffffffffff1681565b3373ffffffffffffffffffffffffffffffffffffffff166000809054906101000a900473ffffffffffffffffffffffffffffffffffffffff1673ffffffffffffffffffffffffffffffffffffffff1614151561342957600080fd5b806000806101000a81548173ffffffffffffffffffffffffffffffffffffffff021916908373ffffffffffffffffffffffffffffffffffffffff16021790555050565b600061347782614f4f565b9050919050565b6000613488615547565b82600060038110151561349757fe5b60200201518160006002811015156134ab57fe5b6020020181815250508260016003811015156134c357fe5b60200201518160016002811015156134d757fe5b6020020181815250506134e981614f4f565b915050919050565b6134f9615569565b600080600061350661566d565b61350e615569565b61351661569c565b60008060007ffffffffffffffffffffffffffffffffffffffffffffffffffffffffefffffc2f985060008c141561354c57613d74565b6000604051985061020089016040525b8c156135955760018d16156135845760208d06905080888a015360206010821102818e03019c505b60028d049c5060018801975061355c565b508797506060604051908101604052808c60006002811015156135b457fe5b602002015181526020018c60016002811015156135cd57fe5b6020020151815260200160018152508660006008811015156135eb57fe5b602002018190525061360f86600060088110151561360557fe5b6020020151615099565b945061361b858c614857565b86600160088110151561362a57fe5b602002018190525061364f8587600160088110151561364557fe5b6020020151613d83565b86600260088110151561365e57fe5b60200201819052506136838587600260088110151561367957fe5b6020020151613d83565b86600360088110151561369257fe5b60200201819052506136b7858760036008811015156136ad57fe5b6020020151613d83565b8660046008811015156136c657fe5b60200201819052506136eb858760046008811015156136e157fe5b6020020151613d83565b8660056008811015156136fa57fe5b602002018190525061371f8587600560088110151561371557fe5b6020020151613d83565b86600660088110151561372e57fe5b60200201819052506137538587600660088110151561374957fe5b6020020151613d83565b86600760088110151561376257fe5b602002018190525085600160088110151561377957fe5b6020020151600260038110151561378c57fe5b60200201518460006010811015156137a057fe5b602002018181525050888015156137b357fe5b8460006010811015156137c257fe5b60200201518760026008811015156137d657fe5b602002015160026003811015156137e957fe5b6020020151098460016010811015156137fe57fe5b6020020181815250508880151561381157fe5b84600160108110151561382057fe5b602002015187600360088110151561383457fe5b6020020151600260038110151561384757fe5b60200201510984600260108110151561385c57fe5b6020020181815250508880151561386f57fe5b84600260108110151561387e57fe5b602002015187600460088110151561389257fe5b602002015160026003811015156138a557fe5b6020020151098460036010811015156138ba57fe5b602002018181525050888015156138cd57fe5b8460036010811015156138dc57fe5b60200201518760056008811015156138f057fe5b6020020151600260038110151561390357fe5b60200201510984600460108110151561391857fe5b6020020181815250508880151561392b57fe5b84600460108110151561393a57fe5b602002015187600660088110151561394e57fe5b6020020151600260038110151561396157fe5b60200201510984600560108110151561397657fe5b6020020181815250508880151561398957fe5b84600560108110151561399857fe5b60200201518760076008811015156139ac57fe5b602002015160026003811015156139bf57fe5b6020020151098460066010811015156139d457fe5b6020020181815250506139fa8460066010811015156139ef57fe5b60200201518a615251565b846007601081101515613a0957fe5b602002018181525050836007601081101515613a2157fe5b6020020151846008601081101515613a3557fe5b60200201818152505088801515613a4857fe5b846008601081101515613a5757fe5b6020020151856005601081101515613a6b57fe5b60200201510984600f601081101515613a8057fe5b602002018181525050600692505b600283101515613b555788801515613aa257fe5b846008601081101515613ab157fe5b60200201518760018601600881101515613ac757fe5b60200201516002600381101515613ada57fe5b602002015109846008601081101515613aef57fe5b60200201818152505088801515613b0257fe5b846008601081101515613b1157fe5b60200201518560028603601081101515613b2757fe5b6020020151098484600801601081101515613b3e57fe5b602002018181525050828060019003935050613a8e565b88801515613b5f57fe5b846008601081101515613b6e57fe5b6020020151876002600881101515613b8257fe5b60200201516002600381101515613b9557fe5b602002015109846009601081101515613baa57fe5b602002018181525050600092505b6007831015613c3a57613c2d8660018501600881101515613bd557fe5b60200201518560098601601081101515613beb57fe5b60200201518b801515613bfa57fe5b8760098801601081101515613c0b57fe5b60200201518860098901601081101515613c2157fe5b6020020151098c6152fd565b8280600101935050613bb8565b5b6000871115613d73578680600190039750508688015160001a9150613c5f8a615399565b6010821115613ce957600282601f03811515613c7757fe5b049050613ce48a60408051908101604052808985600881101515613c9757fe5b60200201516000600381101515613caa57fe5b602002015181526020018985600881101515613cc257fe5b60200201516001600381101515613cd557fe5b60200201518d03815250614376565b613d6e565b6000821115613d6d57600260018303811515613d0157fe5b049050613d6c8a60408051908101604052808985600881101515613d2157fe5b60200201516000600381101515613d3457fe5b602002015181526020018985600881101515613d4c57fe5b60200201516001600381101515613d5f57fe5b6020020151815250614376565b5b5b613c3b565b5b50505050505050505092915050565b613d8b615569565b6000613d956156c0565b613d9d6156c0565b6000806000806000808b6002600381101515613db557fe5b60200201511415613dc85789985061429b565b60008a6002600381101515613dd957fe5b60200201511415613dec578a985061429b565b7ffffffffffffffffffffffffffffffffffffffffffffffffffffffffefffffc2f975087801515613e1957fe5b8b6002600381101515613e2857fe5b60200201518c6002600381101515613e3c57fe5b602002015109876000600481101515613e5157fe5b60200201818152505087801515613e6457fe5b876000600481101515613e7357fe5b60200201518c6002600381101515613e8757fe5b602002015109876001600481101515613e9c57fe5b60200201818152505087801515613eaf57fe5b8a6002600381101515613ebe57fe5b60200201518b6002600381101515613ed257fe5b602002015109876002600481101515613ee757fe5b60200201818152505087801515613efa57fe5b876002600481101515613f0957fe5b60200201518b6002600381101515613f1d57fe5b602002015109876003600481101515613f3257fe5b60200201818152505060806040519081016040528089801515613f5157fe5b896002600481101515613f6057fe5b60200201518e6000600381101515613f7457fe5b602002015109815260200189801515613f8957fe5b896003600481101515613f9857fe5b60200201518e6001600381101515613fac57fe5b602002015109815260200189801515613fc157fe5b896000600481101515613fd057fe5b60200201518d6000600381101515613fe457fe5b602002015109815260200189801515613ff957fe5b89600160048110151561400857fe5b60200201518d600160038110151561401c57fe5b602002015109815250955085600260048110151561403657fe5b602002015186600060048110151561404a57fe5b602002015114156140995785600360048110151561406457fe5b602002015186600160048110151561407857fe5b60200201511415156140895761429b565b6140928b615099565b985061429b565b878015156140a357fe5b8660006004811015156140b257fe5b602002015189038760026004811015156140c857fe5b6020020151089450878015156140da57fe5b8660016004811015156140e957fe5b602002015189038760036004811015156140ff57fe5b60200201510893508780151561411157fe5b85860992508780151561412057fe5b85840991508780151561412f57fe5b8289038980151561413c57fe5b8687090890508780151561414c57fe5b8880151561415657fe5b8980151561416057fe5b8589600060048110151561417057fe5b6020020151096002098903820890508089600060038110151561418f57fe5b602002018181525050878015156141a257fe5b888015156141ac57fe5b828a038a8015156141b957fe5b868a60006004811015156141c957fe5b6020020151090885098960016003811015156141e157fe5b602002018181525050878015156141f457fe5b888015156141fe57fe5b8388600160048110151561420e57fe5b60200201510989038a600160038110151561422557fe5b60200201510889600160038110151561423a57fe5b6020020181815250508780151561424d57fe5b8880151561425757fe5b8b600260038110151561426657fe5b60200201518d600260038110151561427a57fe5b602002015109860989600260038110151561429157fe5b6020020181815250505b505050505050505092915050565b6000806142c98460026003811015156142be57fe5b602002015184615251565b9150828015156142d557fe5b8283099050828015156142e457fe5b818560006003811015156142f457fe5b60200201510984600060038110151561430957fe5b6020020181815250508280151561431c57fe5b8380151561432657fe5b82840985600160038110151561433857fe5b60200201510984600160038110151561434d57fe5b602002018181525050600184600260038110151561436757fe5b60200201818152505050505050565b6000614380615547565b6143886156c0565b6000806000806000808a60016003811015156143a057fe5b60200201511415614422578860006002811015156143ba57fe5b60200201518a60006003811015156143ce57fe5b6020020181815250508860016002811015156143e657fe5b60200201518a60016003811015156143fa57fe5b60200201818152505060018a600260038110151561441457fe5b60200201818152505061484b565b600089600160028110151561443357fe5b602002015114156144435761484b565b7ffffffffffffffffffffffffffffffffffffffffffffffffffffffffefffffc2f97508780151561447057fe5b8a600260038110151561447f57fe5b60200201518b600260038110151561449357fe5b6020020151098760006002811015156144a857fe5b602002018181525050878015156144bb57fe5b8760006002811015156144ca57fe5b60200201518b60026003811015156144de57fe5b6020020151098760016002811015156144f357fe5b6020020181815250506080604051908101604052808b600060038110151561451757fe5b602002015181526020018b600160038110151561453057fe5b602002015181526020018980151561454457fe5b89600060028110151561455357fe5b60200201518c600060028110151561456757fe5b60200201510981526020018980151561457c57fe5b89600160028110151561458b57fe5b60200201518c600160028110151561459f57fe5b60200201510981525095508560026004811015156145b957fe5b60200201518660006004811015156145cd57fe5b60200201511415614668578560036004811015156145e757fe5b60200201518660016004811015156145fb57fe5b602002015114151561465a5760008a600060038110151561461857fe5b60200201818152505060008a600160038110151561463257fe5b60200201818152505060008a600260038110151561464c57fe5b60200201818152505061484b565b6146638a615399565b61484b565b8780151561467257fe5b86600060048110151561468157fe5b6020020151890387600260048110151561469757fe5b6020020151089450878015156146a957fe5b8660016004811015156146b857fe5b602002015189038760036004811015156146ce57fe5b6020020151089350878015156146e057fe5b8586099250878015156146ef57fe5b8584099150878015156146fe57fe5b8289038980151561470b57fe5b8687090890508780151561471b57fe5b8880151561472557fe5b8980151561472f57fe5b8589600060048110151561473f57fe5b602002015109600209890382089050808a600060038110151561475e57fe5b6020020181815250508780151561477157fe5b8880151561477b57fe5b828a038a80151561478857fe5b868a600060048110151561479857fe5b6020020151090885098a60016003811015156147b057fe5b602002018181525050878015156147c357fe5b888015156147cd57fe5b838860016004811015156147dd57fe5b60200201510989038b60016003811015156147f457fe5b6020020151088a600160038110151561480957fe5b6020020181815250508780151561481c57fe5b8a600260038110151561482b57fe5b602002015186098a600260038110151561484157fe5b6020020181815250505b50505050505050505050565b61485f615569565b6000614869615547565b6148716156c0565b6000806000806000808b600260038110151561488957fe5b602002015114156148de576060604051908101604052808b60006002811015156148af57fe5b602002015181526020018b60016002811015156148c857fe5b6020020151815260200160018152509850614d0b565b60008a60016002811015156148ef57fe5b60200201511415614902578a9850614d0b565b7ffffffffffffffffffffffffffffffffffffffffffffffffffffffffefffffc2f97508780151561492f57fe5b8b600260038110151561493e57fe5b60200201518c600260038110151561495257fe5b60200201510987600060028110151561496757fe5b6020020181815250508780151561497a57fe5b87600060028110151561498957fe5b60200201518c600260038110151561499d57fe5b6020020151098760016002811015156149b257fe5b6020020181815250506080604051908101604052808c60006003811015156149d657fe5b602002015181526020018c60016003811015156149ef57fe5b6020020151815260200189801515614a0357fe5b896000600281101515614a1257fe5b60200201518d6000600281101515614a2657fe5b602002015109815260200189801515614a3b57fe5b896001600281101515614a4a57fe5b60200201518d6001600281101515614a5e57fe5b6020020151098152509550856002600481101515614a7857fe5b6020020151866000600481101515614a8c57fe5b60200201511415614b2857856003600481101515614aa657fe5b6020020151866001600481101515614aba57fe5b6020020151141515614b195760008b6000600381101515614ad757fe5b60200201818152505060008b6001600381101515614af157fe5b60200201818152505060008b6002600381101515614b0b57fe5b602002018181525050614d0b565b614b228b615099565b50614d0b565b87801515614b3257fe5b866000600481101515614b4157fe5b60200201518903876002600481101515614b5757fe5b602002015108945087801515614b6957fe5b866001600481101515614b7857fe5b60200201518903876003600481101515614b8e57fe5b602002015108935087801515614ba057fe5b858609925087801515614baf57fe5b858409915087801515614bbe57fe5b82890389801515614bcb57fe5b86870908905087801515614bdb57fe5b88801515614be557fe5b89801515614bef57fe5b85896000600481101515614bff57fe5b60200201510960020989038208905080896000600381101515614c1e57fe5b60200201818152505087801515614c3157fe5b88801515614c3b57fe5b828a038a801515614c4857fe5b868a6000600481101515614c5857fe5b602002015109088509896001600381101515614c7057fe5b60200201818152505087801515614c8357fe5b88801515614c8d57fe5b83886001600481101515614c9d57fe5b60200201510989038a6001600381101515614cb457fe5b602002015108896001600381101515614cc957fe5b60200201818152505087801515614cdc57fe5b8b6002600381101515614ceb57fe5b60200201518609896002600381101515614d0157fe5b6020020181815250505b505050505050505092915050565b6000806000806003811115614d2a57fe5b601460009054906101000a900460ff166003811115614d4557fe5b141515614d5157600080fd5b3373ffffffffffffffffffffffffffffffffffffffff166000809054906101000a900473ffffffffffffffffffffffffffffffffffffffff1673ffffffffffffffffffffffffffffffffffffffff16141515614dac57600080fd5b60038451101515614f4357600091505b8351821015614f3a57600460008584815181101515614dd757fe5b9060200190602002015173ffffffffffffffffffffffffffffffffffffffff1673ffffffffffffffffffffffffffffffffffffffff16815260200190815260200160002060009054906101000a900460ff161515614f2d576001600460008685815181101515614e4357fe5b9060200190602002015173ffffffffffffffffffffffffffffffffffffffff1673ffffffffffffffffffffffffffffffffffffffff16815260200190815260200160002060006101000a81548160ff02191690831515021790555060018483815181101515614eae57fe5b9060200190602002015190806001815401808255809150509060018203906000526020600020016000909192909190916101000a81548173ffffffffffffffffffffffffffffffffffffffff021916908373ffffffffffffffffffffffffffffffffffffffff160217905550506001600b600082825401925050819055505b8180600101925050614dbc565b60019250614f48565b600092505b5050919050565b6000806000807ffffffffffffffffffffffffffffffffffffffffffffffffffffffffefffffc2f9250846000600281101515614f8757fe5b602002015160001480614fac575082856000600281101515614fa557fe5b6020020151145b80614fca5750846001600281101515614fc157fe5b60200201516000145b80614fe7575082856001600281101515614fe057fe5b6020020151145b15614ff55760009350615091565b82801515614fff57fe5b85600160028110151561500e57fe5b602002015186600160028110151561502257fe5b60200201510991508280151561503457fe5b60078480151561504057fe5b87600060028110151561504f57fe5b60200201518680151561505e57fe5b89600060028110151561506d57fe5b60200201518a600060028110151561508157fe5b6020020151090908905080821493505b505050919050565b6150a1615569565b60008060008060008060007ffffffffffffffffffffffffffffffffffffffffffffffffffffffffefffffc2f965060008960026003811015156150e057fe5b602002015114156150f057615245565b8860006003811015156150ff57fe5b6020020151955088600160038110151561511557fe5b602002015194508680151561512657fe5b85860993508680151561513557fe5b8780151561513f57fe5b85880960040992508680151561515157fe5b8780151561515b57fe5b87880960030991508680151561516d57fe5b8780151561517757fe5b84850888038880151561518657fe5b8485090890508088600060038110151561519c57fe5b602002018181525050868015156151af57fe5b878015156151b957fe5b888015156151c357fe5b8687096008098803888015156151d557fe5b898015156151df57fe5b848b0387088509088860016003811015156151f657fe5b6020020181815250508680151561520957fe5b8780151561521357fe5b8a600260038110151561522257fe5b6020020151870960020988600260038110151561523b57fe5b6020020181815250505b50505050505050919050565b600080600080600080600088148061526857508688145b806152735750600087145b1561527d57600080fd5b8688111561529457868881151561529057fe5b0697505b600193508692508791505b6000821415156152d85781838115156152b457fe5b0490508384820286038384840286038095508196508297508398505050505061529f565b60008512156152ee5784600003870395506152f2565b8495505b505050505092915050565b8080151561530757fe5b8285600060038110151561531757fe5b60200201510984600060038110151561532c57fe5b6020020181815250508080151561533f57fe5b8180151561534957fe5b83850985600160038110151561535b57fe5b60200201510984600160038110151561537057fe5b602002018181525050600184600260038110151561538a57fe5b60200201818152505050505050565b60008060008060008060007ffffffffffffffffffffffffffffffffffffffffffffffffffffffffefffffc2f965060008860026003811015156153d857fe5b602002015114156153e85761553d565b8760006003811015156153f757fe5b6020020151955087600160038110151561540d57fe5b602002015194508680151561541e57fe5b85860993508680151561542d57fe5b8780151561543757fe5b85880960040992508680151561544957fe5b8780151561545357fe5b87880960030991508680151561546557fe5b8780151561546f57fe5b84850888038880151561547e57fe5b8485090890508088600060038110151561549457fe5b602002018181525050868015156154a757fe5b878015156154b157fe5b888015156154bb57fe5b8687096008098803888015156154cd57fe5b898015156154d757fe5b848b0387088509088860016003811015156154ee57fe5b6020020181815250508680151561550157fe5b8780151561550b57fe5b89600260038110151561551a57fe5b6020020151870960020988600260038110151561553357fe5b6020020181815250505b5050505050505050565b6040805190810160405280600290602082028038833980820191505090505090565b606060405190810160405280600390602082028038833980820191505090505090565b82600281019282156155bb579160200282015b828111156155ba57825182559160200191906001019061559f565b5b5090506155c891906156e3565b5090565b50805460008255906000526020600020908101906155ea91906156e3565b50565b828054600181600116156101000203166002900490600052602060002090601f016020900481019282601f1061562e57805160ff191683800117855561565c565b8280016001018555821561565c579182015b8281111561565b578251825591602001919060010190615640565b5b50905061566991906156e3565b5090565b610300604051908101604052806008905b615686615708565b81526020019060019003908161567e5790505090565b61020060405190810160405280601090602082028038833980820191505090505090565b608060405190810160405280600490602082028038833980820191505090505090565b61570591905b808211156157015760008160009055506001016156e9565b5090565b90565b6060604051908101604052806003906020820280388339808201915050905050905600a165627a7a72305820b5741ea5812150f65a52d2ca8a229317c2ea328a74147587020add8477da6b430029",
  "source": "pragma solidity >=0.4.21 <0.7.0;\r\n\r\nimport \"./Owned.sol\";\r\nimport \"./libraries/Secp256k1.sol\";\r\n\r\ncontract VotingSys is Owned {\r\n\r\n    struct Voter {\r\n        address addr;\r\n        uint[2] registeredKey;\r\n        uint[2] reconstructedKey;\r\n        uint[2] vote;\r\n    }\r\n\r\n    address[] public addresses;\r\n    mapping(address => uint) public addressID; // Address to Counter\r\n    mapping(uint => Voter) public voters;\r\n    mapping(address => bool) public eligible; // White list of addresses allowed to vote\r\n    mapping(address => bool) public registered; // Address registered?\r\n    mapping(address => bool) public voteCast; // Address voted?\r\n    mapping(address => uint) public refunds; //amount to be refunded\r\n\r\n    uint public endRegistrationPhase;\r\n    uint public endVotingPhase;\r\n    uint public totalRegistered; // Total number of participants that have submitted a voting key\r\n    uint public totalEligible;\r\n    uint public totalVoted;\r\n    string public ballotName; // Ballot Name\r\n    string[2] public options;\r\n    uint[2] public finalTally; // Final tally\r\n    uint[2] public prevFinalTally; // Final tally before last reset (not sure will be used)\r\n\r\n    enum State {CREATE, REGISTER, VOTE, FINISH}\r\n    State public currentState;\r\n\r\n    uint public minDeposit;\r\n\r\n    modifier inState(State s) {\r\n        if (currentState != s) {\r\n            revert();\r\n        }\r\n        _;\r\n    }\r\n\r\n    constructor() public {\r\n        currentState = State.CREATE;\r\n    }\r\n\r\n    function getVoter() public returns (uint[2] _registeredKey, uint[2] _reconstructedKey) {\r\n        uint index = addressID[msg.sender];\r\n        _registeredKey = voters[index].registeredKey;\r\n        _reconstructedKey = voters[index].reconstructedKey;\r\n    }\r\n\r\n    //  must be more that 3 voters in the beginning (called by create ballot only)\r\n    function setInitialEligible(address[] addr) private inState(State.CREATE) onlyOwner returns (bool){\r\n        if (addr.length >= 3) {\r\n            for (uint i = 0; i < addr.length; i++) {\r\n                if (!eligible[addr[i]]) {// avoid duplicates\r\n                    eligible[addr[i]] = true;\r\n                    addresses.push(addr[i]);\r\n                    totalEligible += 1;\r\n                }\r\n            }\r\n            return true;\r\n        } else {\r\n            return false;\r\n        }\r\n    }\r\n\r\n    function creatBallot(\r\n        string _ballotStatement,\r\n        string option1,\r\n        string option2,\r\n        uint _endRegistrationPhase,\r\n        uint _endVotingPhase,\r\n        uint _depositRequired,\r\n        address[] addr\r\n    )\r\n    public\r\n    inState(State.CREATE)\r\n    onlyOwner\r\n    returns (bool){\r\n        if (_endRegistrationPhase < now) {\r\n            return false;\r\n        }\r\n        if (_endVotingPhase < _endRegistrationPhase) {\r\n            return false;\r\n        }\r\n        if (!setInitialEligible(addr)) {\r\n            return false;\r\n        }\r\n        ballotName = _ballotStatement;\r\n        options[0] = option1;\r\n        options[1] = option2;\r\n        endRegistrationPhase = _endRegistrationPhase;\r\n        endVotingPhase = _endVotingPhase;\r\n        minDeposit = _depositRequired;\r\n        currentState = State.REGISTER;\r\n        return true;\r\n    }\r\n\r\n    //  inState(State.REGISTER) to allow the admin to add more eligible users in the reg phase\r\n    //  should be after creation of ballot\r\n    function addEligible(address[] addr) public inState(State.REGISTER) onlyOwner {\r\n        for (uint i = 0; i < addr.length; i++) {\r\n            if (!eligible[addr[i]]) {\r\n                eligible[addr[i]] = true;\r\n                addresses.push(addr[i]);\r\n                totalEligible += 1;\r\n            }\r\n        }\r\n    }\r\n\r\n    // called when someone try to:\r\n    // regester\r\n    // vote\r\n    // in order to set to correct state and reset if finished\r\n    function deadlinePassed() public returns (bool){\r\n        uint[2] memory empty;\r\n\r\n        if (now > endVotingPhase) {\r\n            currentState = State.FINISH;\r\n        }\r\n        if (currentState == State.FINISH) {\r\n            //    todo: should be separated in private function called resetBallot()\r\n            //    todo: lost deposits\r\n            for (uint i = 0; i < addresses.length; i++) {\r\n                address addr = addresses[i];\r\n                eligible[addr] = false;\r\n                // No longer eligible\r\n                registered[addr] = false;\r\n                // Remove voting registration\r\n                voters[i] = Voter({\r\n                addr : 0,\r\n                registeredKey : empty,\r\n                reconstructedKey : empty,\r\n                vote : empty\r\n                });\r\n                addressID[addr] = 0;\r\n                // Remove index\r\n                voteCast[addr] = false;\r\n                // Remove that vote was cast\r\n                refunds[addr] = 0;\r\n                // Remove refunds\r\n            }\r\n\r\n            // Reset timers.\r\n            endRegistrationPhase = 0;\r\n            endVotingPhase = 0;\r\n            delete addresses;\r\n\r\n            // reset voters activity\r\n            totalRegistered = 0;\r\n            totalEligible = 0;\r\n            totalVoted = 0;\r\n\r\n            // General values that need reset\r\n            ballotName = \"\";\r\n            options[0] = \"\";\r\n            options[1] = \"\";\r\n            finalTally[0] = 0;\r\n            finalTally[1] = 0;\r\n            minDeposit = 0;\r\n            currentState = State.CREATE;\r\n            return true;\r\n        }\r\n        return false;\r\n        //false means that current state != FINISH\r\n    }\r\n\r\n    function register(uint[2] xG, uint[3] vG, uint r) public inState(State.REGISTER) payable returns (bool) {\r\n\r\n        if (deadlinePassed()) {\r\n            return false;\r\n        }\r\n\r\n        if (currentState != State.REGISTER) {\r\n            return false;\r\n        }\r\n\r\n        if (msg.value < minDeposit) {\r\n            return false;\r\n        }\r\n        \r\n        // Only eligible addresses can vote\r\n        if (eligible[msg.sender]) {\r\n            if(verifyKey(xG,r,vG)){\r\n                // Update voter's registration\r\n                refunds[msg.sender] = msg.value;\r\n                uint[2] memory empty;\r\n                addressID[msg.sender] = totalRegistered;\r\n                voters[totalRegistered] = Voter({\r\n                addr : msg.sender,\r\n                registeredKey : xG,\r\n                reconstructedKey : empty,\r\n                vote : empty\r\n                });\r\n                registered[msg.sender] = true;\r\n                voteCast[msg.sender] = false;\r\n                totalRegistered += 1;\r\n                return true;\r\n            }\r\n            \r\n        }\r\n        return false;\r\n    }\r\n\r\n\r\n    // Timer has expired - we want to start computing the reconstructed keys\r\n    function finishRegistrationPhase() public inState(State.REGISTER) onlyOwner returns (bool) {\r\n\r\n        // Make sure at least 3 people have signed up...\r\n        if (totalRegistered < 3) {\r\n            return;\r\n        }\r\n        // We can only compute the public keys once participants\r\n        // have been given an opportunity to register their\r\n        // voting public key.\r\n        //        todo: comment this to bypass time while testing\r\n        //        if (block.timestamp < endRegistrationPhase) {\r\n        //            return false;\r\n        //        }\r\n\r\n        uint[2] memory temp;\r\n        uint[3] memory yG;\r\n        uint[3] memory before_i;\r\n        uint[3] memory after_i;\r\n\r\n        // Step 1 is to compute the index 1 reconstructed key\r\n        after_i[0] = voters[1].registeredKey[0];\r\n        after_i[1] = voters[1].registeredKey[1];\r\n        after_i[2] = 1;\r\n\r\n        for (uint i = 2; i < totalRegistered; i++) {\r\n            Secp256k1._addMixedM(after_i, voters[i].registeredKey);\r\n        }\r\n\r\n        ECCMath.toZ1(after_i, pp);\r\n        voters[0].reconstructedKey[0] = after_i[0];\r\n        voters[0].reconstructedKey[1] = pp - after_i[1];\r\n\r\n        // Step 2 is to add to before_i, and subtract from after_i.\r\n        for (i = 1; i < totalRegistered; i++) {\r\n\r\n            if (i == 1) {\r\n                before_i[0] = voters[0].registeredKey[0];\r\n                before_i[1] = voters[0].registeredKey[1];\r\n                before_i[2] = 1;\r\n            } else {\r\n                Secp256k1._addMixedM(before_i, voters[i - 1].registeredKey);\r\n            }\r\n\r\n            // If we have reached the end... just store before_i\r\n            // Otherwise, we need to compute a key.\r\n            // Counting from 0 to n-1...\r\n            if (i == (totalRegistered - 1)) {\r\n                ECCMath.toZ1(before_i, pp);\r\n                voters[i].reconstructedKey[0] = before_i[0];\r\n                voters[i].reconstructedKey[1] = before_i[1];\r\n\r\n            } else {\r\n\r\n                // Subtract 'i' from after_i\r\n                temp[0] = voters[i].registeredKey[0];\r\n                temp[1] = pp - voters[i].registeredKey[1];\r\n\r\n                // Grab negation of after_i (did not seem to work with Jacob co-ordinates)\r\n                Secp256k1._addMixedM(after_i, temp);\r\n                ECCMath.toZ1(after_i, pp);\r\n\r\n                temp[0] = after_i[0];\r\n                temp[1] = pp - after_i[1];\r\n\r\n                // Now we do before_i - after_i...\r\n                yG = Secp256k1._addMixed(before_i, temp);\r\n\r\n                ECCMath.toZ1(yG, pp);\r\n\r\n                voters[i].reconstructedKey[0] = yG[0];\r\n                voters[i].reconstructedKey[1] = yG[1];\r\n            }\r\n        }\r\n        currentState = State.VOTE;\r\n        return true;\r\n    }\r\n\r\n    // Given the 1 out of 2 ZKP - record the users vote! // todo: add inState(State.VOTE) after development\r\n    function submitVote(uint[4] params, uint[2] y, uint[2] a1, uint[2] b1, uint[2] a2, uint[2] b2) returns (bool) {\r\n\r\n        // HARD DEADLINE\r\n        //        todo: commented for development purpose\r\n        //        if(now > endVotingPhase) {\r\n        //            return;\r\n        //        }\r\n\r\n        uint i = addressID[msg.sender];\r\n\r\n        uint[2] memory yG = voters[i].reconstructedKey;\r\n        uint[2] memory xG = voters[i].registeredKey;\r\n\r\n        // Make sure the sender can vote, and hasn't already voted.\r\n        if (registered[msg.sender] && !voteCast[msg.sender]) {\r\n            // Verify the ZKP for the vote being cast\r\n            if (verify1outof2ZKP(params, xG, yG, y, a1, b1, a2, b2)) {\r\n\r\n                voters[i].vote[0] = y[0];\r\n                voters[i].vote[1] = y[1];\r\n\r\n                voteCast[msg.sender] = true;\r\n\r\n                totalVoted += 1;\r\n\r\n                // Refund the sender their ether..\r\n                // Voter has finished their part of the protocol...\r\n                uint refund = refunds[msg.sender];\r\n                refunds[msg.sender] = 0;\r\n\r\n                // We can still fail... Safety first.\r\n                // If failed... voter can call withdrawRefund()\r\n                // to collect their money once the election has finished.\r\n                if (!msg.sender.send(refund)) {\r\n                    refunds[msg.sender] = refund;\r\n                }\r\n\r\n                return true;\r\n            }\r\n        }\r\n\r\n        // Either vote has already been cast, or ZKP verification failed.\r\n        return false;\r\n    }\r\n\r\n\r\n    // todo: fix EL SHEEE2 DA!!!!!!!!!!!!!!!!!!!!!!\r\n    //____________________________________________________________________________\r\n    //_________________should be separated in another contract____________________\r\n    //___________________________gives stupid error!!!____________________________\r\n    //____________________________________________________________________________\r\n\r\n    // Modulus for public keys\r\n    uint constant pp = 0xFFFFFFFFFFFFFFFFFFFFFFFFFFFFFFFFFFFFFFFFFFFFFFFFFFFFFFFEFFFFFC2F;\r\n\r\n    // Base point (generator) G\r\n    uint constant Gx = 0x79BE667EF9DCBBAC55A06295CE870B07029BFCDB2DCE28D959F2815B16F81798;\r\n    uint constant Gy = 0x483ADA7726A3C4655DA4FBFC0E1108A8FD17B448A68554199C47D08FFB10D4B8;\r\n\r\n    // New  point (generator) Y\r\n    uint constant Yx = 98038005178408974007512590727651089955354106077095278304532603697039577112780;\r\n    uint constant Yy = 1801119347122147381158502909947365828020117721497557484744596940174906898953;\r\n\r\n    // Modulus for private keys (sub-group)\r\n    uint constant nn = 0xFFFFFFFFFFFFFFFFFFFFFFFFFFFFFFFEBAAEDCE6AF48A03BBFD25E8CD0364141;\r\n\r\n\r\n\r\n    // Parameters xG, r where r = v - xc, and vG.\r\n    // Verify that vG = rG + xcG!\r\n    function verifyKey(uint[2] xG, uint r, uint[3] vG) public returns (bool) {\r\n        uint[2] memory G;\r\n        G[0] = Gx;\r\n        G[1] = Gy;\r\n\r\n        // Check both keys are on the curve.\r\n        if (!Secp256k1.isPubKey(xG) || !Secp256k1.isPubKey(vG)) {\r\n            return false;\r\n            //Must be on the curve!\r\n        }\r\n\r\n        // Get c = H(g, g^{x}, g^{v});\r\n        bytes32 b_c = sha256(abi.encode(msg.sender, Gx, Gy, xG, vG));\r\n        uint c = uint(b_c);\r\n\r\n        // Get g^{r}, and g^{xc}\r\n        uint[3] memory rG = Secp256k1._mul(r, G);\r\n        uint[3] memory xcG = Secp256k1._mul(c, xG);\r\n\r\n        // Add both points together\r\n        uint[3] memory rGxcG = Secp256k1._add(rG, xcG);\r\n\r\n        // Convert to Affine Co-ordinates\r\n        ECCMath.toZ1(rGxcG, pp);\r\n\r\n        // Verify. Do they match?\r\n        if (rGxcG[0] == vG[0] && rGxcG[1] == vG[1]) {\r\n            return true;\r\n        } else {\r\n            return false;\r\n        }\r\n    }\r\n\r\n    // We verify that the ZKP is of 0 or 1.\r\n    // params[4] input is res2[4] from the creator\r\n\r\n    // We verify that the ZKP is of 0 or 1.\r\n    function verify1outof2ZKP(uint[4] params, uint[2] xG, uint[2] yG, uint[2] y, uint[2] a1, uint[2] b1, uint[2] a2, uint[2] b2) returns (bool) {\r\n        uint[2] memory temp1;\r\n        uint[3] memory temp2;\r\n        uint[3] memory temp3;\r\n\r\n        uint[2] memory G;\r\n        G[0] = Gx;\r\n        G[1] = Gy;\r\n\r\n\r\n        // Make sure we are only dealing with valid public keys!\r\n        if (!Secp256k1.isPubKey(xG) || !Secp256k1.isPubKey(yG) || !Secp256k1.isPubKey(y) || !Secp256k1.isPubKey(a1) ||\r\n        !Secp256k1.isPubKey(b1) || !Secp256k1.isPubKey(a2) || !Secp256k1.isPubKey(b2)) {\r\n            return false;\r\n        }\r\n\r\n        // Does c =? d1 + d2 (mod n)\r\n        if (uint(sha256(abi.encode(msg.sender, xG, y, a1, b1, a2, b2))) != addmod(params[0], params[1], nn)) {\r\n            return false;\r\n        }\r\n\r\n        // a1 =? g^{r1} * x^{d1}\r\n        temp2 = Secp256k1._mul(params[2], G);\r\n        temp3 = Secp256k1._add(temp2, Secp256k1._mul(params[0], xG));\r\n        ECCMath.toZ1(temp3, pp);\r\n\r\n        if (a1[0] != temp3[0] || a1[1] != temp3[1]) {\r\n            return false;\r\n        }\r\n\r\n        //b1 =? h^{r1} * y^{d1} (temp = affine 'y')\r\n        temp2 = Secp256k1._mul(params[2], yG);\r\n        temp3 = Secp256k1._add(temp2, Secp256k1._mul(params[0], y));\r\n        ECCMath.toZ1(temp3, pp);\r\n\r\n        if (b1[0] != temp3[0] || b1[1] != temp3[1]) {\r\n            return false;\r\n        }\r\n\r\n        //a2 =? g^{r2} * x^{d2}\r\n        temp2 = Secp256k1._mul(params[3], G);\r\n        temp3 = Secp256k1._add(temp2, Secp256k1._mul(params[1], xG));\r\n        ECCMath.toZ1(temp3, pp);\r\n\r\n        if (a2[0] != temp3[0] || a2[1] != temp3[1]) {\r\n            return false;\r\n        }\r\n\r\n        // Negate the 'y' co-ordinate of g\r\n        temp1[0] = G[0];\r\n        temp1[1] = pp - G[1];\r\n\r\n        // get 'y'\r\n        temp3[0] = y[0];\r\n        temp3[1] = y[1];\r\n        temp3[2] = 1;\r\n\r\n        // y-g\r\n        temp2 = Secp256k1._addMixed(temp3, temp1);\r\n\r\n        // Return to affine co-ordinates\r\n        ECCMath.toZ1(temp2, pp);\r\n        temp1[0] = temp2[0];\r\n        temp1[1] = temp2[1];\r\n\r\n        // (y-g)^{d2}\r\n        temp2 = Secp256k1._mul(params[1], temp1);\r\n\r\n        // Now... it is h^{r2} + temp2..\r\n        temp3 = Secp256k1._add(Secp256k1._mul(params[3], yG), temp2);\r\n\r\n        // Convert to Affine Co-ordinates\r\n        ECCMath.toZ1(temp3, pp);\r\n\r\n        // Should all match up.\r\n        if (b2[0] != temp3[0] || b2[1] != temp3[1]) {\r\n            return false;\r\n        }\r\n\r\n        return true;\r\n    }\r\n}",
  "sourcePath": "C:/Users/Jarvis/DZK_Vote/Dapp/contracts/VotingSys.sol",
  "compiler": {
    "name": "solc",
    "version": "0.4.26+commit.4563c3fc.Emscripten.clang"
  },
  "schemaVersion": "3.3.4",
  "updatedAt": "2021-07-12T12:29:36.604Z",
  "networkType": "ethereum",
  "devdoc": {
    "methods": {}
  },
  "userdoc": {
    "methods": {}
  }
}