{
  "contractName": "VotingSys",
  "abi": [
    {
      "constant": true,
      "inputs": [
        {
          "name": "",
          "type": "address"
        }
      ],
      "name": "eligible",
      "outputs": [
        {
          "name": "",
          "type": "bool"
        }
      ],
      "payable": false,
      "stateMutability": "view",
      "type": "function"
    },
    {
      "constant": true,
      "inputs": [
        {
          "name": "",
          "type": "address"
        }
      ],
      "name": "addressid",
      "outputs": [
        {
          "name": "",
          "type": "uint256"
        }
      ],
      "payable": false,
      "stateMutability": "view",
      "type": "function"
    },
    {
      "constant": true,
      "inputs": [],
      "name": "ballotName",
      "outputs": [
        {
          "name": "",
          "type": "string"
        }
      ],
      "payable": false,
      "stateMutability": "view",
      "type": "function"
    },
    {
      "constant": true,
      "inputs": [],
      "name": "totalEligible",
      "outputs": [
        {
          "name": "",
          "type": "uint256"
        }
      ],
      "payable": false,
      "stateMutability": "view",
      "type": "function"
    },
    {
      "constant": true,
      "inputs": [
        {
          "name": "",
          "type": "uint256"
        }
      ],
      "name": "candidates",
      "outputs": [
        {
          "name": "",
          "type": "string"
        }
      ],
      "payable": false,
      "stateMutability": "view",
      "type": "function"
    },
    {
      "constant": true,
      "inputs": [
        {
          "name": "",
          "type": "address"
        }
      ],
      "name": "votecast",
      "outputs": [
        {
          "name": "",
          "type": "bool"
        }
      ],
      "payable": false,
      "stateMutability": "view",
      "type": "function"
    },
    {
      "constant": true,
      "inputs": [],
      "name": "owner",
      "outputs": [
        {
          "name": "",
          "type": "address"
        }
      ],
      "payable": false,
      "stateMutability": "view",
      "type": "function"
    },
    {
      "constant": true,
      "inputs": [],
      "name": "totalRegistered",
      "outputs": [
        {
          "name": "",
          "type": "uint256"
        }
      ],
      "payable": false,
      "stateMutability": "view",
      "type": "function"
    },
    {
      "constant": true,
      "inputs": [],
      "name": "startRegistrationPhase",
      "outputs": [
        {
          "name": "",
          "type": "uint256"
        }
      ],
      "payable": false,
      "stateMutability": "view",
      "type": "function"
    },
    {
      "constant": true,
      "inputs": [],
      "name": "endVotingPhase",
      "outputs": [
        {
          "name": "",
          "type": "uint256"
        }
      ],
      "payable": false,
      "stateMutability": "view",
      "type": "function"
    },
    {
      "constant": true,
      "inputs": [],
      "name": "endRegistrationPhase",
      "outputs": [
        {
          "name": "",
          "type": "uint256"
        }
      ],
      "payable": false,
      "stateMutability": "view",
      "type": "function"
    },
    {
      "constant": true,
      "inputs": [
        {
          "name": "",
          "type": "address"
        }
      ],
      "name": "registered",
      "outputs": [
        {
          "name": "",
          "type": "bool"
        }
      ],
      "payable": false,
      "stateMutability": "view",
      "type": "function"
    },
    {
      "constant": true,
      "inputs": [],
      "name": "totalVoted",
      "outputs": [
        {
          "name": "",
          "type": "uint256"
        }
      ],
      "payable": false,
      "stateMutability": "view",
      "type": "function"
    },
    {
      "constant": true,
      "inputs": [],
      "name": "state",
      "outputs": [
        {
          "name": "",
          "type": "uint8"
        }
      ],
      "payable": false,
      "stateMutability": "view",
      "type": "function"
    },
    {
      "constant": true,
      "inputs": [
        {
          "name": "",
          "type": "uint256"
        }
      ],
      "name": "finaltally",
      "outputs": [
        {
          "name": "",
          "type": "uint256"
        }
      ],
      "payable": false,
      "stateMutability": "view",
      "type": "function"
    },
    {
      "constant": true,
      "inputs": [
        {
          "name": "",
          "type": "uint256"
        }
      ],
      "name": "voters",
      "outputs": [
        {
          "name": "addr",
          "type": "address"
        }
      ],
      "payable": false,
      "stateMutability": "view",
      "type": "function"
    },
    {
      "constant": true,
      "inputs": [
        {
          "name": "",
          "type": "uint256"
        }
      ],
      "name": "addresses",
      "outputs": [
        {
          "name": "",
          "type": "address"
        }
      ],
      "payable": false,
      "stateMutability": "view",
      "type": "function"
    },
    {
      "constant": false,
      "inputs": [
        {
          "name": "newOwner",
          "type": "address"
        }
      ],
      "name": "transferOwnership",
      "outputs": [],
      "payable": false,
      "stateMutability": "nonpayable",
      "type": "function"
    },
    {
      "constant": false,
      "inputs": [],
      "name": "AnonymousVoting",
      "outputs": [],
      "payable": false,
      "stateMutability": "nonpayable",
      "type": "function"
    },
    {
      "constant": false,
      "inputs": [
        {
          "name": "addr",
          "type": "address[]"
        }
      ],
      "name": "setEligible",
      "outputs": [],
      "payable": false,
      "stateMutability": "nonpayable",
      "type": "function"
    },
    {
      "constant": false,
      "inputs": [
        {
          "name": "_ballotName",
          "type": "string"
        },
        {
          "name": "candidateA",
          "type": "string"
        },
        {
          "name": "candidateB",
          "type": "string"
        },
        {
          "name": "_startRegistrationPhase",
          "type": "uint256"
        },
        {
          "name": "_endRegistrationPhase",
          "type": "uint256"
        },
        {
          "name": "_endVotingPhase",
          "type": "uint256"
        },
        {
          "name": "_depositrequired",
          "type": "uint256"
        }
      ],
      "name": "creatBallot",
      "outputs": [
        {
          "name": "",
          "type": "bool"
        }
      ],
      "payable": true,
      "stateMutability": "payable",
      "type": "function"
    },
    {
      "constant": false,
      "inputs": [],
      "name": "deadlinePassed",
      "outputs": [
        {
          "name": "",
          "type": "bool"
        }
      ],
      "payable": false,
      "stateMutability": "nonpayable",
      "type": "function"
    },
    {
      "constant": false,
      "inputs": [
        {
          "name": "_key",
          "type": "uint256[2]"
        }
      ],
      "name": "register",
      "outputs": [
        {
          "name": "",
          "type": "bool"
        }
      ],
      "payable": false,
      "stateMutability": "nonpayable",
      "type": "function"
    },
    {
      "constant": false,
      "inputs": [
        {
          "name": "choice",
          "type": "uint256[2]"
        }
      ],
      "name": "submitVote",
      "outputs": [
        {
          "name": "",
          "type": "bool"
        }
      ],
      "payable": false,
      "stateMutability": "nonpayable",
      "type": "function"
    }
  ],
  "bytecode": "0x6080604052336000806101000a81548173ffffffffffffffffffffffffffffffffffffffff021916908373ffffffffffffffffffffffffffffffffffffffff160217905550611aca806100536000396000f30060806040526004361061013e576000357c0100000000000000000000000000000000000000000000000000000000900463ffffffff1680630235fb1a146101435780630713b1391461015a57806314cf9c53146101b55780631b26586c1461020c5780633138ffe71461029c5780633442af5c146102c75780633477ee2e1461033157806347723ef3146103d75780634bbc44e41461043d578063742d4d31146104a757806377df5fc8146105025780638da5cb5b14610531578063927416c014610588578063945493b0146105b3578063a300e224146105de578063b21a64da14610609578063b2dd5c0714610634578063b3a2273f1461068f578063c19d93fb146106ba578063c8f347c1146106f3578063cb01016b14610734578063da58c7d91461085c578063edf26d9b146108c9578063f2fde38b14610936575b600080fd5b34801561014f57600080fd5b50610158610979565b005b34801561016657600080fd5b5061019b600480360381019080803573ffffffffffffffffffffffffffffffffffffffff16906020019092919050505061099f565b604051808215151515815260200191505060405180910390f35b3480156101c157600080fd5b506101f6600480360381019080803573ffffffffffffffffffffffffffffffffffffffff1690602001909291905050506109bf565b6040518082815260200191505060405180910390f35b34801561021857600080fd5b506102216109d7565b6040518080602001828103825283818151815260200191508051906020019080838360005b83811015610261578082015181840152602081019050610246565b50505050905090810190601f16801561028e5780820380516001836020036101000a031916815260200191505b509250505060405180910390f35b3480156102a857600080fd5b506102b1610a75565b6040518082815260200191505060405180910390f35b3480156102d357600080fd5b506103176004803603810190808060400190600280602002604051908101604052809291908260026020028082843782019150505050509192919290505050610a7b565b604051808215151515815260200191505060405180910390f35b34801561033d57600080fd5b5061035c60048036038101908080359060200190929190505050610ce5565b6040518080602001828103825283818151815260200191508051906020019080838360005b8381101561039c578082015181840152602081019050610381565b50505050905090810190601f1680156103c95780820380516001836020036101000a031916815260200191505b509250505060405180910390f35b3480156103e357600080fd5b5061043b60048036038101908080359060200190820180359060200190808060200260200160405190810160405280939291908181526020018383602002808284378201915050505050509192919290505050610d97565b005b34801561044957600080fd5b5061048d6004803603810190808060400190600280602002604051908101604052809291908260026020028082843782019150505050509192919290505050610f45565b604051808215151515815260200191505060405180910390f35b3480156104b357600080fd5b506104e8600480360381019080803573ffffffffffffffffffffffffffffffffffffffff169060200190929190505050611112565b604051808215151515815260200191505060405180910390f35b34801561050e57600080fd5b50610517611132565b604051808215151515815260200191505060405180910390f35b34801561053d57600080fd5b50610546611598565b604051808273ffffffffffffffffffffffffffffffffffffffff1673ffffffffffffffffffffffffffffffffffffffff16815260200191505060405180910390f35b34801561059457600080fd5b5061059d6115bd565b6040518082815260200191505060405180910390f35b3480156105bf57600080fd5b506105c86115c3565b6040518082815260200191505060405180910390f35b3480156105ea57600080fd5b506105f36115c9565b6040518082815260200191505060405180910390f35b34801561061557600080fd5b5061061e6115cf565b6040518082815260200191505060405180910390f35b34801561064057600080fd5b50610675600480360381019080803573ffffffffffffffffffffffffffffffffffffffff1690602001909291905050506115d5565b604051808215151515815260200191505060405180910390f35b34801561069b57600080fd5b506106a46115f5565b6040518082815260200191505060405180910390f35b3480156106c657600080fd5b506106cf6115fb565b604051808260038111156106df57fe5b60ff16815260200191505060405180910390f35b3480156106ff57600080fd5b5061071e6004803603810190808035906020019092919050505061160e565b6040518082815260200191505060405180910390f35b610842600480360381019080803590602001908201803590602001908080601f0160208091040260200160405190810160405280939291908181526020018383808284378201915050505050509192919290803590602001908201803590602001908080601f0160208091040260200160405190810160405280939291908181526020018383808284378201915050505050509192919290803590602001908201803590602001908080601f016020809104026020016040519081016040528093929190818152602001838380828437820191505050505050919291929080359060200190929190803590602001909291908035906020019092919080359060200190929190505050611628565b604051808215151515815260200191505060405180910390f35b34801561086857600080fd5b5061088760048036038101908080359060200190929190505050611795565b604051808273ffffffffffffffffffffffffffffffffffffffff1673ffffffffffffffffffffffffffffffffffffffff16815260200191505060405180910390f35b3480156108d557600080fd5b506108f4600480360381019080803590602001909291905050506117d3565b604051808273ffffffffffffffffffffffffffffffffffffffff1673ffffffffffffffffffffffffffffffffffffffff16815260200191505060405180910390f35b34801561094257600080fd5b50610977600480360381019080803573ffffffffffffffffffffffffffffffffffffffff169060200190929190505050611811565b005b6000601260006101000a81548160ff0219169083600381111561099857fe5b0217905550565b60046020528060005260406000206000915054906101000a900460ff1681565b60026020528060005260406000206000915090505481565b600d8054600181600116156101000203166002900480601f016020809104026020016040519081016040528092919081815260200182805460018160011615610100020316600290048015610a6d5780601f10610a4257610100808354040283529160200191610a6d565b820191906000526020600020905b815481529060010190602001808311610a5057829003601f168201915b505050505081565b600b5481565b6000610a856118af565b6001806003811115610a9357fe5b601260009054906101000a900460ff166003811115610aae57fe5b141515610aba57600080fd5b600460003373ffffffffffffffffffffffffffffffffffffffff1673ffffffffffffffffffffffffffffffffffffffff16815260200190815260200160002060009054906101000a900460ff1615610cd957600560003373ffffffffffffffffffffffffffffffffffffffff1673ffffffffffffffffffffffffffffffffffffffff16815260200190815260200160002060009054906101000a900460ff161515610cd857600a54600260003373ffffffffffffffffffffffffffffffffffffffff1673ffffffffffffffffffffffffffffffffffffffff168152602001908152602001600020819055506060604051908101604052803373ffffffffffffffffffffffffffffffffffffffff1681526020018581526020018381525060036000600a54815260200190815260200160002060008201518160000160006101000a81548173ffffffffffffffffffffffffffffffffffffffff021916908373ffffffffffffffffffffffffffffffffffffffff160217905550602082015181600101906002610c4a9291906118d1565b50604082015181600301906002610c629291906118d1565b509050506001600560003373ffffffffffffffffffffffffffffffffffffffff1673ffffffffffffffffffffffffffffffffffffffff16815260200190815260200160002060006101000a81548160ff0219169083151502179055506001600a6000828254019250508190555060019250610cde565b5b600092505b5050919050565b600e81600281101515610cf457fe5b016000915090508054600181600116156101000203166002900480601f016020809104026020016040519081016040528092919081815260200182805460018160011615610100020316600290048015610d8f5780601f10610d6457610100808354040283529160200191610d8f565b820191906000526020600020905b815481529060010190602001808311610d7257829003601f168201915b505050505081565b600080806003811115610da657fe5b601260009054906101000a900460ff166003811115610dc157fe5b141515610dcd57600080fd5b3373ffffffffffffffffffffffffffffffffffffffff166000809054906101000a900473ffffffffffffffffffffffffffffffffffffffff1673ffffffffffffffffffffffffffffffffffffffff16141515610e2857600080fd5b600091505b8251821015610f40576001600460008585815181101515610e4a57fe5b9060200190602002015173ffffffffffffffffffffffffffffffffffffffff1673ffffffffffffffffffffffffffffffffffffffff16815260200190815260200160002060006101000a81548160ff02191690831515021790555060018383815181101515610eb557fe5b9060200190602002015190806001815401808255809150509060018203906000526020600020016000909192909190916101000a81548173ffffffffffffffffffffffffffffffffffffffff021916908373ffffffffffffffffffffffffffffffffffffffff160217905550506001600b600082825401925050819055508180600101925050610e2d565b505050565b6000806002806003811115610f5657fe5b601260009054906101000a900460ff166003811115610f7157fe5b141515610f7d57600080fd5b600954421115610f8c5761110b565b600260003373ffffffffffffffffffffffffffffffffffffffff1673ffffffffffffffffffffffffffffffffffffffff168152602001908152602001600020549150600560003373ffffffffffffffffffffffffffffffffffffffff1673ffffffffffffffffffffffffffffffffffffffff16815260200190815260200160002060009054906101000a900460ff1680156110715750600660003373ffffffffffffffffffffffffffffffffffffffff1673ffffffffffffffffffffffffffffffffffffffff16815260200190815260200160002060009054906101000a900460ff16155b1561110657836003600084815260200190815260200160002060030190600261109b929190611911565b506001600660003373ffffffffffffffffffffffffffffffffffffffff1673ffffffffffffffffffffffffffffffffffffffff16815260200190815260200160002060006101000a81548160ff0219169083151502179055506001600c600082825401925050819055505b600092505b5050919050565b60066020528060005260406000206000915054906101000a900460ff1681565b600061113c6118af565b60008060075442111561116e576001601260006101000a81548160ff0219169083600381111561116857fe5b02179055505b60085442111561119d576002601260006101000a81548160ff0219169083600381111561119757fe5b02179055505b6009544211156111cc576003601260006101000a81548160ff021916908360038111156111c657fe5b02179055505b6003808111156111d857fe5b601260009054906101000a900460ff1660038111156111f357fe5b141561158d57600091505b6001805490508210156114615760018281548110151561121a57fe5b9060005260206000200160009054906101000a900473ffffffffffffffffffffffffffffffffffffffff1690506000600460008373ffffffffffffffffffffffffffffffffffffffff1673ffffffffffffffffffffffffffffffffffffffff16815260200190815260200160002060006101000a81548160ff0219169083151502179055506000600560008373ffffffffffffffffffffffffffffffffffffffff1673ffffffffffffffffffffffffffffffffffffffff16815260200190815260200160002060006101000a81548160ff021916908315150217905550606060405190810160405280600073ffffffffffffffffffffffffffffffffffffffff168152602001848152602001848152506003600084815260200190815260200160002060008201518160000160006101000a81548173ffffffffffffffffffffffffffffffffffffffff021916908373ffffffffffffffffffffffffffffffffffffffff16021790555060208201518160010190600261139b9291906118d1565b506040820151816003019060026113b39291906118d1565b509050506000600260008373ffffffffffffffffffffffffffffffffffffffff1673ffffffffffffffffffffffffffffffffffffffff168152602001908152602001600020819055506000600660008373ffffffffffffffffffffffffffffffffffffffff1673ffffffffffffffffffffffffffffffffffffffff16815260200190815260200160002060006101000a81548160ff02191690831515021790555081806001019250506111fe565b600060078190555060006008819055506000600981905550600160006114879190611951565b6000600a819055506000600b819055506000600c819055506020604051908101604052806000815250600d90805190602001906114c5929190611972565b506020604051908101604052806000815250600e60006002811015156114e757fe5b0190805190602001906114fb929190611972565b506020604051908101604052806000815250600e600160028110151561151d57fe5b019080519060200190611531929190611972565b5060006010600060028110151561154457fe5b018190555060006010600160028110151561155b57fe5b01819055506000601260006101000a81548160ff0219169083600381111561157f57fe5b021790555060019350611592565b600093505b50505090565b6000809054906101000a900473ffffffffffffffffffffffffffffffffffffffff1681565b600a5481565b60075481565b60095481565b60085481565b60056020528060005260406000206000915054906101000a900460ff1681565b600c5481565b601260009054906101000a900460ff1681565b60108160028110151561161d57fe5b016000915090505481565b60008080600381111561163757fe5b601260009054906101000a900460ff16600381111561165257fe5b14151561165e57600080fd5b3373ffffffffffffffffffffffffffffffffffffffff166000809054906101000a900473ffffffffffffffffffffffffffffffffffffffff1673ffffffffffffffffffffffffffffffffffffffff161415156116b957600080fd5b6000861180156116cf5750600360018054905010155b1561177f57858510156116e55760009150611789565b848410156116f65760009150611789565b600d8090805460018160011615610100020316600290046117189291906119f2565b5087600e600060028110151561172a57fe5b01908051906020019061173e929190611972565b5086600e600160028110151561175057fe5b019080519060200190611764929190611972565b50856007819055508460088190555083600981905550611788565b60009150611789565b5b50979650505050505050565b60036020528060005260406000206000915090508060000160009054906101000a900473ffffffffffffffffffffffffffffffffffffffff16905081565b6001818154811015156117e257fe5b906000526020600020016000915054906101000a900473ffffffffffffffffffffffffffffffffffffffff1681565b3373ffffffffffffffffffffffffffffffffffffffff166000809054906101000a900473ffffffffffffffffffffffffffffffffffffffff1673ffffffffffffffffffffffffffffffffffffffff1614151561186c57600080fd5b806000806101000a81548173ffffffffffffffffffffffffffffffffffffffff021916908373ffffffffffffffffffffffffffffffffffffffff16021790555050565b6040805190810160405280600290602082028038833980820191505090505090565b8260028101928215611900579160200282015b828111156118ff5782518255916020019190600101906118e4565b5b50905061190d9190611a79565b5090565b8260028101928215611940579160200282015b8281111561193f578251825591602001919060010190611924565b5b50905061194d9190611a79565b5090565b508054600082559060005260206000209081019061196f9190611a79565b50565b828054600181600116156101000203166002900490600052602060002090601f016020900481019282601f106119b357805160ff19168380011785556119e1565b828001600101855582156119e1579182015b828111156119e05782518255916020019190600101906119c5565b5b5090506119ee9190611a79565b5090565b828054600181600116156101000203166002900490600052602060002090601f016020900481019282601f10611a2b5780548555611a68565b82800160010185558215611a6857600052602060002091601f016020900482015b82811115611a67578254825591600101919060010190611a4c565b5b509050611a759190611a79565b5090565b611a9b91905b80821115611a97576000816000905550600101611a7f565b5090565b905600a165627a7a72305820d4341965a01a602248682b661a577077baf2e958b3cea1ffcd73bd1f33f51be30029",
  "source": "pragma solidity >=0.4.21 <0.7.0;\n\n//admin (deploy, ballot name, candidates,start and fenish time, allowed addresses)\n//user (check address, compute dzk, cast vote, view results)\n\ncontract owned {\n    address public owner;\n    function owned() {\n        owner = msg.sender;\n    }\n    modifier onlyOwner {\n        if(owner != msg.sender) throw;\n        _;\n    }\n    function transferOwnership(address newOwner) onlyOwner() {\n        owner = newOwner;\n    }\n}\n\ncontract VotingSys is owned{\n\n  struct Voter {\n      address addr;\n      uint[2] key;\n      uint[2] vote;\n  }\n\n  address[] public addresses;\n  mapping (address => uint) public addressid; // Address to Counter\n  mapping (uint => Voter) public voters;\n  mapping (address => bool) public eligible; // White list of addresses allowed to vote\n  mapping (address => bool) public registered; // Address registered?\n  mapping (address => bool) public votecast; // Address voted?\n\n  uint public startRegistrationPhase;\n  uint public endRegistrationPhase;\n  uint public endVotingPhase;\n  uint public totalRegistered; //Total number of participants that have submited a voting key\n  uint public totalEligible;\n  uint public totalVoted;\n  string public ballotName; //Ballot Name\n  string[2] public candidates;\n  uint[2] public finaltally; // Final tally\n  \n  enum State { CREATE, REGISTER, VOTE, FINISH }\n  State public state;\n\n  modifier inState(State s) {\n    if(state != s) {\n        throw;\n    }\n    _;\n  }\n\n  function AnonymousVoting() {\n    state = State.CREATE;\n  }\n  function setEligible(address[] addr) inState(State.CREATE) onlyOwner{\n    //el file hyet3mallo read abl ma yetb3tly\n    //as an array??\n    for(uint i=0; i<addr.length; i++) {\n      eligible[addr[i]] = true;\n        addresses.push(addr[i]);\n        totalEligible += 1;\n    }\n  }\n\n  function creatBallot(string _ballotName, string candidateA, string candidateB, uint _startRegistrationPhase, uint _endRegistrationPhase, uint _endVotingPhase, uint _depositrequired) inState(State.CREATE) onlyOwner payable returns (bool){\n  if(_startRegistrationPhase > 0 && addresses.length >= 3){\n    if(_endRegistrationPhase < _startRegistrationPhase){\n      return false;\n      }\n    if(_endVotingPhase < _endRegistrationPhase){\n      return false;\n      }\n    ballotName = ballotName;\n    candidates[0] = candidateA;\n    candidates[1] = candidateB;\n    startRegistrationPhase = _startRegistrationPhase;\n    endRegistrationPhase = _endRegistrationPhase;\n    endVotingPhase = _endVotingPhase;\n    \n    }\n  else{\n    return false;\n    }\n  }\n\n  function deadlinePassed() returns (bool){\n\n    uint[2] memory empty;\n    if(block.timestamp > startRegistrationPhase){\n      state = State.REGISTER;\n    }\n    if(block.timestamp > endRegistrationPhase){\n      state = State.VOTE;\n    }\n    if(block.timestamp > endVotingPhase){\n      state = State.FINISH;\n    }\n    if(state == State.FINISH) {\n       for(uint i=0; i<addresses.length; i++) {\n          address addr = addresses[i];\n          eligible[addr] = false; // No longer eligible\n          registered[addr] = false; // Remove voting registration\n          voters[i] = Voter({addr: 0, key: empty, vote: empty});\n          addressid[addr] = 0; // Remove index\n          votecast[addr] = false; // Remove that vote was cast\n         }\n\n         // Reset timers.\n         startRegistrationPhase = 0;\n         endRegistrationPhase = 0;\n         endVotingPhase = 0;\n         delete addresses;\n\n         // Keep track of voter activity\n         totalRegistered = 0;\n         totalEligible = 0;\n         totalVoted = 0;\n\n         // General values that need reset\n         ballotName = \"\";\n         candidates[0] = \"\";\n         candidates[1] = \"\";\n         finaltally[0] = 0;\n         finaltally[1] = 0;\n         state = State.CREATE;\n         return true;\n      }\n      return false;\n  }\n  function register(uint[2] _key) inState(State.REGISTER) returns (bool) {\n    // Only eligible addresses can vote\n    if(eligible[msg.sender]) {\n        if(!registered[msg.sender]) {\n\n            // Update voter's registration\n            uint[2] memory empty;\n            addressid[msg.sender] = totalRegistered;\n            voters[totalRegistered] = Voter({addr: msg.sender, key: _key, vote: empty});\n            registered[msg.sender] = true;\n            totalRegistered += 1;\n\n            return true;\n        }\n    }\n\n    return false;\n  }\n  function submitVote(uint[2] choice) inState(State.VOTE) returns (bool) {\n     if(block.timestamp > endVotingPhase) {\n       return;\n     }\n\n     uint c = addressid[msg.sender];\n\n     // Make sure the sender can vote, and hasn't already voted.\n     if(registered[msg.sender] && !votecast[msg.sender]) {\n       voters[c].vote = choice;\n       votecast[msg.sender] = true;\n       totalVoted += 1;\n     }\n\n     return false;\n  }\n}",
  "sourcePath": "/Users/mariambeltagy/Desktop/DZK_Vote-main/Dapp/contracts/VotingSys.sol",
  "compiler": {
    "name": "solc",
    "version": "0.4.26+commit.4563c3fc.Emscripten.clang"
  },
  "schemaVersion": "3.0.23",
  "updatedAt": "2021-05-17T04:16:25.414Z",
  "devdoc": {
    "methods": {}
  },
  "userdoc": {
    "methods": {}
  }
}