{
  "contractName": "VotingSys",
  "abi": [
    {
      "constant": true,
      "inputs": [
        {
          "name": "",
          "type": "address"
        }
      ],
      "name": "eligible",
      "outputs": [
        {
          "name": "",
          "type": "bool"
        }
      ],
      "payable": false,
      "stateMutability": "view",
      "type": "function"
    },
    {
      "constant": true,
      "inputs": [],
      "name": "currentState",
      "outputs": [
        {
          "name": "",
          "type": "uint8"
        }
      ],
      "payable": false,
      "stateMutability": "view",
      "type": "function"
    },
    {
      "constant": true,
      "inputs": [
        {
          "name": "",
          "type": "address"
        }
      ],
      "name": "addressid",
      "outputs": [
        {
          "name": "",
          "type": "uint256"
        }
      ],
      "payable": false,
      "stateMutability": "view",
      "type": "function"
    },
    {
      "constant": true,
      "inputs": [],
      "name": "ballotName",
      "outputs": [
        {
          "name": "",
          "type": "string"
        }
      ],
      "payable": false,
      "stateMutability": "view",
      "type": "function"
    },
    {
      "constant": true,
      "inputs": [],
      "name": "totalEligible",
      "outputs": [
        {
          "name": "",
          "type": "uint256"
        }
      ],
      "payable": false,
      "stateMutability": "view",
      "type": "function"
    },
    {
      "constant": true,
      "inputs": [
        {
          "name": "",
          "type": "uint256"
        }
      ],
      "name": "finalTally",
      "outputs": [
        {
          "name": "",
          "type": "uint256"
        }
      ],
      "payable": false,
      "stateMutability": "view",
      "type": "function"
    },
    {
      "constant": true,
      "inputs": [
        {
          "name": "",
          "type": "uint256"
        }
      ],
      "name": "options",
      "outputs": [
        {
          "name": "",
          "type": "string"
        }
      ],
      "payable": false,
      "stateMutability": "view",
      "type": "function"
    },
    {
      "constant": true,
      "inputs": [],
      "name": "minDeposit",
      "outputs": [
        {
          "name": "",
          "type": "uint256"
        }
      ],
      "payable": false,
      "stateMutability": "view",
      "type": "function"
    },
    {
      "constant": true,
      "inputs": [
        {
          "name": "",
          "type": "address"
        }
      ],
      "name": "votecast",
      "outputs": [
        {
          "name": "",
          "type": "bool"
        }
      ],
      "payable": false,
      "stateMutability": "view",
      "type": "function"
    },
    {
      "constant": true,
      "inputs": [],
      "name": "owner",
      "outputs": [
        {
          "name": "",
          "type": "address"
        }
      ],
      "payable": false,
      "stateMutability": "view",
      "type": "function"
    },
    {
      "constant": true,
      "inputs": [],
      "name": "totalRegistered",
      "outputs": [
        {
          "name": "",
          "type": "uint256"
        }
      ],
      "payable": false,
      "stateMutability": "view",
      "type": "function"
    },
    {
      "constant": true,
      "inputs": [],
      "name": "endVotingPhase",
      "outputs": [
        {
          "name": "",
          "type": "uint256"
        }
      ],
      "payable": false,
      "stateMutability": "view",
      "type": "function"
    },
    {
      "constant": true,
      "inputs": [],
      "name": "endRegistrationPhase",
      "outputs": [
        {
          "name": "",
          "type": "uint256"
        }
      ],
      "payable": false,
      "stateMutability": "view",
      "type": "function"
    },
    {
      "constant": true,
      "inputs": [
        {
          "name": "",
          "type": "address"
        }
      ],
      "name": "registered",
      "outputs": [
        {
          "name": "",
          "type": "bool"
        }
      ],
      "payable": false,
      "stateMutability": "view",
      "type": "function"
    },
    {
      "constant": true,
      "inputs": [],
      "name": "totalVoted",
      "outputs": [
        {
          "name": "",
          "type": "uint256"
        }
      ],
      "payable": false,
      "stateMutability": "view",
      "type": "function"
    },
    {
      "constant": true,
      "inputs": [
        {
          "name": "",
          "type": "address"
        }
      ],
      "name": "refunds",
      "outputs": [
        {
          "name": "",
          "type": "uint256"
        }
      ],
      "payable": false,
      "stateMutability": "view",
      "type": "function"
    },
    {
      "constant": true,
      "inputs": [
        {
          "name": "",
          "type": "uint256"
        }
      ],
      "name": "voters",
      "outputs": [
        {
          "name": "addr",
          "type": "address"
        }
      ],
      "payable": false,
      "stateMutability": "view",
      "type": "function"
    },
    {
      "constant": true,
      "inputs": [
        {
          "name": "",
          "type": "uint256"
        }
      ],
      "name": "addresses",
      "outputs": [
        {
          "name": "",
          "type": "address"
        }
      ],
      "payable": false,
      "stateMutability": "view",
      "type": "function"
    },
    {
      "constant": false,
      "inputs": [
        {
          "name": "newOwner",
          "type": "address"
        }
      ],
      "name": "transferOwnership",
      "outputs": [],
      "payable": false,
      "stateMutability": "nonpayable",
      "type": "function"
    },
    {
      "inputs": [],
      "payable": false,
      "stateMutability": "nonpayable",
      "type": "constructor"
    },
    {
      "constant": false,
      "inputs": [
        {
          "name": "_ballotStatement",
          "type": "string"
        },
        {
          "name": "option1",
          "type": "string"
        },
        {
          "name": "option2",
          "type": "string"
        },
        {
          "name": "_endRegistrationPhase",
          "type": "uint256"
        },
        {
          "name": "_endVotingPhase",
          "type": "uint256"
        },
        {
          "name": "_depositRequired",
          "type": "uint256"
        },
        {
          "name": "addr",
          "type": "address[]"
        }
      ],
      "name": "creatBallot",
      "outputs": [
        {
          "name": "",
          "type": "bool"
        }
      ],
      "payable": false,
      "stateMutability": "nonpayable",
      "type": "function"
    },
    {
      "constant": false,
      "inputs": [
        {
          "name": "addr",
          "type": "address[]"
        }
      ],
      "name": "addEligible",
      "outputs": [],
      "payable": false,
      "stateMutability": "nonpayable",
      "type": "function"
    },
    {
      "constant": false,
      "inputs": [],
      "name": "deadlinePassed",
      "outputs": [
        {
          "name": "",
          "type": "bool"
        }
      ],
      "payable": false,
      "stateMutability": "nonpayable",
      "type": "function"
    },
    {
      "constant": false,
      "inputs": [
        {
          "name": "_key",
          "type": "uint256[2]"
        }
      ],
      "name": "register",
      "outputs": [
        {
          "name": "",
          "type": "bool"
        }
      ],
      "payable": true,
      "stateMutability": "payable",
      "type": "function"
    },
    {
      "constant": false,
      "inputs": [
        {
          "name": "choice",
          "type": "uint256[2]"
        }
      ],
      "name": "submitVote",
      "outputs": [
        {
          "name": "",
          "type": "bool"
        }
      ],
      "payable": false,
      "stateMutability": "nonpayable",
      "type": "function"
    }
  ],
  "bytecode": "0x608060405234801561001057600080fd5b50336000806101000a81548173ffffffffffffffffffffffffffffffffffffffff021916908373ffffffffffffffffffffffffffffffffffffffff1602179055506000601260006101000a81548160ff0219169083600381111561007057fe5b0217905550611edb806100846000396000f30060806040526004361061013e576000357c0100000000000000000000000000000000000000000000000000000000900463ffffffff1680630713b139146101435780630c3f6acf1461019e57806314cf9c53146101d75780631b26586c1461022e5780633138ffe7146102be5780633442af5c146102e95780633a5f547a14610346578063409e22051461038757806341b3d1851461042d5780634bbc44e41461045857806363333cb2146104c2578063742d4d311461052857806377df5fc8146105835780638da5cb5b146105b2578063927416c014610609578063a300e22414610634578063aeb32ae31461065f578063b21a64da146107cd578063b2dd5c07146107f8578063b3a2273f14610853578063bc3da5351461087e578063da58c7d9146108d5578063edf26d9b14610942578063f2fde38b146109af575b600080fd5b34801561014f57600080fd5b50610184600480360381019080803573ffffffffffffffffffffffffffffffffffffffff1690602001909291905050506109f2565b604051808215151515815260200191505060405180910390f35b3480156101aa57600080fd5b506101b3610a12565b604051808260038111156101c357fe5b60ff16815260200191505060405180910390f35b3480156101e357600080fd5b50610218600480360381019080803573ffffffffffffffffffffffffffffffffffffffff169060200190929190505050610a25565b6040518082815260200191505060405180910390f35b34801561023a57600080fd5b50610243610a3d565b6040518080602001828103825283818151815260200191508051906020019080838360005b83811015610283578082015181840152602081019050610268565b50505050905090810190601f1680156102b05780820380516001836020036101000a031916815260200191505b509250505060405180910390f35b3480156102ca57600080fd5b506102d3610adb565b6040518082815260200191505060405180910390f35b61032c6004803603810190808060400190600280602002604051908101604052809291908260026020028082843782019150505050509192919290505050610ae1565b604051808215151515815260200191505060405180910390f35b34801561035257600080fd5b5061037160048036038101908080359060200190929190505050610da3565b6040518082815260200191505060405180910390f35b34801561039357600080fd5b506103b260048036038101908080359060200190929190505050610dbd565b6040518080602001828103825283818151815260200191508051906020019080838360005b838110156103f25780820151818401526020810190506103d7565b50505050905090810190601f16801561041f5780820380516001836020036101000a031916815260200191505b509250505060405180910390f35b34801561043957600080fd5b50610442610e6f565b6040518082815260200191505060405180910390f35b34801561046457600080fd5b506104a86004803603810190808060400190600280602002604051908101604052809291908260026020028082843782019150505050509192919290505050610e75565b604051808215151515815260200191505060405180910390f35b3480156104ce57600080fd5b5061052660048036038101908080359060200190820180359060200190808060200260200160405190810160405280939291908181526020018383602002808284378201915050505050509192919290505050611154565b005b34801561053457600080fd5b50610569600480360381019080803573ffffffffffffffffffffffffffffffffffffffff16906020019092919050505061136e565b604051808215151515815260200191505060405180910390f35b34801561058f57600080fd5b5061059861138e565b604051808215151515815260200191505060405180910390f35b3480156105be57600080fd5b506105c761180a565b604051808273ffffffffffffffffffffffffffffffffffffffff1673ffffffffffffffffffffffffffffffffffffffff16815260200191505060405180910390f35b34801561061557600080fd5b5061061e61182f565b6040518082815260200191505060405180910390f35b34801561064057600080fd5b50610649611835565b6040518082815260200191505060405180910390f35b34801561066b57600080fd5b506107b3600480360381019080803590602001908201803590602001908080601f0160208091040260200160405190810160405280939291908181526020018383808284378201915050505050509192919290803590602001908201803590602001908080601f0160208091040260200160405190810160405280939291908181526020018383808284378201915050505050509192919290803590602001908201803590602001908080601f01602080910402602001604051908101604052809392919081815260200183838082843782019150505050505091929192908035906020019092919080359060200190929190803590602001909291908035906020019082018035906020019080806020026020016040519081016040528093929190818152602001838360200280828437820191505050505050919291929050505061183b565b604051808215151515815260200191505060405180910390f35b3480156107d957600080fd5b506107e26119b3565b6040518082815260200191505060405180910390f35b34801561080457600080fd5b50610839600480360381019080803573ffffffffffffffffffffffffffffffffffffffff1690602001909291905050506119b9565b604051808215151515815260200191505060405180910390f35b34801561085f57600080fd5b506108686119d9565b6040518082815260200191505060405180910390f35b34801561088a57600080fd5b506108bf600480360381019080803573ffffffffffffffffffffffffffffffffffffffff1690602001909291905050506119df565b6040518082815260200191505060405180910390f35b3480156108e157600080fd5b50610900600480360381019080803590602001909291905050506119f7565b604051808273ffffffffffffffffffffffffffffffffffffffff1673ffffffffffffffffffffffffffffffffffffffff16815260200191505060405180910390f35b34801561094e57600080fd5b5061096d60048036038101908080359060200190929190505050611a35565b604051808273ffffffffffffffffffffffffffffffffffffffff1673ffffffffffffffffffffffffffffffffffffffff16815260200191505060405180910390f35b3480156109bb57600080fd5b506109f0600480360381019080803573ffffffffffffffffffffffffffffffffffffffff169060200190929190505050611a73565b005b60046020528060005260406000206000915054906101000a900460ff1681565b601260009054906101000a900460ff1681565b60026020528060005260406000206000915090505481565b600d8054600181600116156101000203166002900480601f016020809104026020016040519081016040528092919081815260200182805460018160011615610100020316600290048015610ad35780601f10610aa857610100808354040283529160200191610ad3565b820191906000526020600020905b815481529060010190602001808311610ab657829003601f168201915b505050505081565b600b5481565b6000610aeb611d47565b6001806003811115610af957fe5b601260009054906101000a900460ff166003811115610b1457fe5b141515610b2057600080fd5b60135434141515610b345760009250610d9c565b600460003373ffffffffffffffffffffffffffffffffffffffff1673ffffffffffffffffffffffffffffffffffffffff16815260200190815260200160002060009054906101000a900460ff1615610d9757600560003373ffffffffffffffffffffffffffffffffffffffff1673ffffffffffffffffffffffffffffffffffffffff16815260200190815260200160002060009054906101000a900460ff161515610d965734600760003373ffffffffffffffffffffffffffffffffffffffff1673ffffffffffffffffffffffffffffffffffffffff16815260200190815260200160002081905550600a54600260003373ffffffffffffffffffffffffffffffffffffffff1673ffffffffffffffffffffffffffffffffffffffff168152602001908152602001600020819055506060604051908101604052803373ffffffffffffffffffffffffffffffffffffffff1681526020018581526020018381525060036000600a54815260200190815260200160002060008201518160000160006101000a81548173ffffffffffffffffffffffffffffffffffffffff021916908373ffffffffffffffffffffffffffffffffffffffff160217905550602082015181600101906002610d08929190611d69565b50604082015181600301906002610d20929190611d69565b509050506001600560003373ffffffffffffffffffffffffffffffffffffffff1673ffffffffffffffffffffffffffffffffffffffff16815260200190815260200160002060006101000a81548160ff0219169083151502179055506001600a6000828254019250508190555060019250610d9c565b5b600092505b5050919050565b601081600281101515610db257fe5b016000915090505481565b600e81600281101515610dcc57fe5b016000915090508054600181600116156101000203166002900480601f016020809104026020016040519081016040528092919081815260200182805460018160011615610100020316600290048015610e675780601f10610e3c57610100808354040283529160200191610e67565b820191906000526020600020905b815481529060010190602001808311610e4a57829003601f168201915b505050505081565b60135481565b60008060006002806003811115610e8857fe5b601260009054906101000a900460ff166003811115610ea357fe5b141515610eaf57600080fd5b600954421115610ebe5761114c565b600260003373ffffffffffffffffffffffffffffffffffffffff1673ffffffffffffffffffffffffffffffffffffffff168152602001908152602001600020549250600560003373ffffffffffffffffffffffffffffffffffffffff1673ffffffffffffffffffffffffffffffffffffffff16815260200190815260200160002060009054906101000a900460ff168015610fa35750600660003373ffffffffffffffffffffffffffffffffffffffff1673ffffffffffffffffffffffffffffffffffffffff16815260200190815260200160002060009054906101000a900460ff16155b15611147578460036000858152602001908152602001600020600301906002610fcd929190611da9565b506001600660003373ffffffffffffffffffffffffffffffffffffffff1673ffffffffffffffffffffffffffffffffffffffff16815260200190815260200160002060006101000a81548160ff0219169083151502179055506001600c60008282540192505081905550600760003373ffffffffffffffffffffffffffffffffffffffff1673ffffffffffffffffffffffffffffffffffffffff1681526020019081526020016000205491506000600760003373ffffffffffffffffffffffffffffffffffffffff1673ffffffffffffffffffffffffffffffffffffffff168152602001908152602001600020819055503373ffffffffffffffffffffffffffffffffffffffff166108fc839081150290604051600060405180830381858888f19350505050151561113e5781600760003373ffffffffffffffffffffffffffffffffffffffff1673ffffffffffffffffffffffffffffffffffffffff168152602001908152602001600020819055505b6001935061114c565b600093505b505050919050565b6000600180600381111561116457fe5b601260009054906101000a900460ff16600381111561117f57fe5b14151561118b57600080fd5b3373ffffffffffffffffffffffffffffffffffffffff166000809054906101000a900473ffffffffffffffffffffffffffffffffffffffff1673ffffffffffffffffffffffffffffffffffffffff161415156111e657600080fd5b600091505b82518210156113695760046000848481518110151561120657fe5b9060200190602002015173ffffffffffffffffffffffffffffffffffffffff1673ffffffffffffffffffffffffffffffffffffffff16815260200190815260200160002060009054906101000a900460ff16151561135c57600160046000858581518110151561127257fe5b9060200190602002015173ffffffffffffffffffffffffffffffffffffffff1673ffffffffffffffffffffffffffffffffffffffff16815260200190815260200160002060006101000a81548160ff021916908315150217905550600183838151811015156112dd57fe5b9060200190602002015190806001815401808255809150509060018203906000526020600020016000909192909190916101000a81548173ffffffffffffffffffffffffffffffffffffffff021916908373ffffffffffffffffffffffffffffffffffffffff160217905550506001600b600082825401925050819055505b81806001019250506111eb565b505050565b60066020528060005260406000206000915054906101000a900460ff1681565b6000611398611d47565b6000806008544211156113ca576002601260006101000a81548160ff021916908360038111156113c457fe5b02179055505b6009544211156113f9576003601260006101000a81548160ff021916908360038111156113f357fe5b02179055505b60038081111561140557fe5b601260009054906101000a900460ff16600381111561142057fe5b14156117ff57600091505b6001805490508210156116d35760018281548110151561144757fe5b9060005260206000200160009054906101000a900473ffffffffffffffffffffffffffffffffffffffff1690506000600460008373ffffffffffffffffffffffffffffffffffffffff1673ffffffffffffffffffffffffffffffffffffffff16815260200190815260200160002060006101000a81548160ff0219169083151502179055506000600560008373ffffffffffffffffffffffffffffffffffffffff1673ffffffffffffffffffffffffffffffffffffffff16815260200190815260200160002060006101000a81548160ff021916908315150217905550606060405190810160405280600073ffffffffffffffffffffffffffffffffffffffff168152602001848152602001848152506003600084815260200190815260200160002060008201518160000160006101000a81548173ffffffffffffffffffffffffffffffffffffffff021916908373ffffffffffffffffffffffffffffffffffffffff1602179055506020820151816001019060026115c8929190611d69565b506040820151816003019060026115e0929190611d69565b509050506000600260008373ffffffffffffffffffffffffffffffffffffffff1673ffffffffffffffffffffffffffffffffffffffff168152602001908152602001600020819055506000600660008373ffffffffffffffffffffffffffffffffffffffff1673ffffffffffffffffffffffffffffffffffffffff16815260200190815260200160002060006101000a81548160ff0219169083151502179055506000600760008373ffffffffffffffffffffffffffffffffffffffff1673ffffffffffffffffffffffffffffffffffffffff16815260200190815260200160002081905550818060010192505061142b565b60006008819055506000600981905550600160006116f19190611de9565b6000600a819055506000600b819055506000600c819055506020604051908101604052806000815250600d908051906020019061172f929190611e0a565b506020604051908101604052806000815250600e600060028110151561175157fe5b019080519060200190611765929190611e0a565b506020604051908101604052806000815250600e600160028110151561178757fe5b01908051906020019061179b929190611e0a565b506000601060006002811015156117ae57fe5b01819055506000601060016002811015156117c557fe5b018190555060006013819055506000601260006101000a81548160ff021916908360038111156117f157fe5b021790555060019350611804565b600093505b50505090565b6000809054906101000a900473ffffffffffffffffffffffffffffffffffffffff1681565b600a5481565b60095481565b60008080600381111561184a57fe5b601260009054906101000a900460ff16600381111561186557fe5b14151561187157600080fd5b3373ffffffffffffffffffffffffffffffffffffffff166000809054906101000a900473ffffffffffffffffffffffffffffffffffffffff1673ffffffffffffffffffffffffffffffffffffffff161415156118cc57600080fd5b428610156118dd57600091506119a7565b858510156118ee57600091506119a7565b6118f783611b11565b151561190657600091506119a7565b88600d908051906020019061191c929190611e0a565b5087600e600060028110151561192e57fe5b019080519060200190611942929190611e0a565b5086600e600160028110151561195457fe5b019080519060200190611968929190611e0a565b508560088190555084600981905550836013819055506001601260006101000a81548160ff0219169083600381111561199d57fe5b0217905550600191505b50979650505050505050565b60085481565b60056020528060005260406000206000915054906101000a900460ff1681565b600c5481565b60076020528060005260406000206000915090505481565b60036020528060005260406000206000915090508060000160009054906101000a900473ffffffffffffffffffffffffffffffffffffffff16905081565b600181815481101515611a4457fe5b906000526020600020016000915054906101000a900473ffffffffffffffffffffffffffffffffffffffff1681565b3373ffffffffffffffffffffffffffffffffffffffff166000809054906101000a900473ffffffffffffffffffffffffffffffffffffffff1673ffffffffffffffffffffffffffffffffffffffff16141515611ace57600080fd5b806000806101000a81548173ffffffffffffffffffffffffffffffffffffffff021916908373ffffffffffffffffffffffffffffffffffffffff16021790555050565b6000806000806003811115611b2257fe5b601260009054906101000a900460ff166003811115611b3d57fe5b141515611b4957600080fd5b3373ffffffffffffffffffffffffffffffffffffffff166000809054906101000a900473ffffffffffffffffffffffffffffffffffffffff1673ffffffffffffffffffffffffffffffffffffffff16141515611ba457600080fd5b60038451101515611d3b57600091505b8351821015611d3257600460008584815181101515611bcf57fe5b9060200190602002015173ffffffffffffffffffffffffffffffffffffffff1673ffffffffffffffffffffffffffffffffffffffff16815260200190815260200160002060009054906101000a900460ff161515611d25576001600460008685815181101515611c3b57fe5b9060200190602002015173ffffffffffffffffffffffffffffffffffffffff1673ffffffffffffffffffffffffffffffffffffffff16815260200190815260200160002060006101000a81548160ff02191690831515021790555060018483815181101515611ca657fe5b9060200190602002015190806001815401808255809150509060018203906000526020600020016000909192909190916101000a81548173ffffffffffffffffffffffffffffffffffffffff021916908373ffffffffffffffffffffffffffffffffffffffff160217905550506001600b600082825401925050819055505b8180600101925050611bb4565b60019250611d40565b600092505b5050919050565b6040805190810160405280600290602082028038833980820191505090505090565b8260028101928215611d98579160200282015b82811115611d97578251825591602001919060010190611d7c565b5b509050611da59190611e8a565b5090565b8260028101928215611dd8579160200282015b82811115611dd7578251825591602001919060010190611dbc565b5b509050611de59190611e8a565b5090565b5080546000825590600052602060002090810190611e079190611e8a565b50565b828054600181600116156101000203166002900490600052602060002090601f016020900481019282601f10611e4b57805160ff1916838001178555611e79565b82800160010185558215611e79579182015b82811115611e78578251825591602001919060010190611e5d565b5b509050611e869190611e8a565b5090565b611eac91905b80821115611ea8576000816000905550600101611e90565b5090565b905600a165627a7a72305820026dcd70cc4136e167744729856fe1526bfb93ffc7ac20e2676c236a18d0e5c10029",
  "source": "pragma solidity >=0.4.21 <0.7.0;\n\nimport \"./Owned.sol\";\nimport \"./libraries/Secp256k1_noconflict.sol\";\n\ncontract VotingSys is Owned {\n\n    struct Voter {\n        address addr;\n        uint[2] key;\n        uint[2] vote;\n    }\n\n    address[] public addresses;\n    mapping(address => uint) public addressid; // Address to Counter\n    mapping(uint => Voter) public voters;\n    mapping(address => bool) public eligible; // White list of addresses allowed to vote\n    mapping(address => bool) public registered; // Address registered?\n    mapping(address => bool) public votecast; // Address voted?\n    mapping (address => uint) public refunds; //amount to be refunded\n\n    uint public endRegistrationPhase;\n    uint public endVotingPhase;\n    uint public totalRegistered; // Total number of participants that have submitted a voting key\n    uint public totalEligible;\n    uint public totalVoted;\n    string public ballotName; // Ballot Name\n    string[2] public options;\n    uint[2] public finalTally; // Final tally\n\n    enum State {CREATE, REGISTER, VOTE, FINISH}\n    State public currentState;\n\n    uint public minDeposit;\n\n    modifier inState(State s) {\n        if (currentState != s) {\n            throw;\n        }\n        _;\n    }\n\n    function VotingSys() {\n        currentState = State.CREATE;\n    }\n\n    //  must be more that 3 voters in the beginning (called by create ballot only)\n    function setInitialEligible(address[] addr) private inState(State.CREATE) onlyOwner returns (bool){\n        if (addr.length >= 3) {\n            for (uint i = 0; i < addr.length; i++) {\n                if (!eligible[addr[i]]) { // can't be too careful\n                    eligible[addr[i]] = true;\n                    addresses.push(addr[i]);\n                    totalEligible += 1;\n                }\n            }\n            return true;\n        } else {\n            return false;\n        }\n    }\n\n    function creatBallot(\n        string _ballotStatement,\n        string option1,\n        string option2,\n        uint _endRegistrationPhase,\n        uint _endVotingPhase,\n        uint _depositRequired,\n        address[] addr\n    )\n    inState(State.CREATE)\n    onlyOwner\n    returns (bool){\n        if (_endRegistrationPhase < now) {\n            return false;\n        }\n        if (_endVotingPhase < _endRegistrationPhase) {\n            return false;\n        }\n        if (!setInitialEligible(addr)) {\n            return false;\n        }\n        ballotName = _ballotStatement;\n        options[0] = option1;\n        options[1] = option2;\n        endRegistrationPhase = _endRegistrationPhase;\n        endVotingPhase = _endVotingPhase;\n        minDeposit = _depositRequired;\n        currentState = State.REGISTER;\n        return true;\n    }\n\n    //  inState(State.REGISTER) to allow the admin to add more eligible users in the reg phase\n    //  should be after creation of ballot\n    function addEligible(address[] addr) inState(State.REGISTER) onlyOwner {\n        for (uint i = 0; i < addr.length; i++) {\n            if (!eligible[addr[i]]) {\n                eligible[addr[i]] = true;\n                addresses.push(addr[i]);\n                totalEligible += 1;\n            }\n        }\n    }\n\n    // called when someone try to:\n    // regester\n    // vote\n    // in order to set to correct state and reset if finished\n        function deadlinePassed() returns (bool){\n    \n            uint[2] memory empty;\n            if (now > endRegistrationPhase) {\n                currentState = State.VOTE;\n            }\n            if (now > endVotingPhase) {\n                currentState = State.FINISH;\n            }\n            if (currentState == State.FINISH) {\n    //    todo: should be separated in private function called resetBallot()\n    //    todo: lost deposits\n                for (uint i = 0; i < addresses.length; i++) {\n                    address addr = addresses[i];\n                    eligible[addr] = false;\n                    // No longer eligible\n                    registered[addr] = false;\n                    // Remove voting registration\n                    voters[i] = Voter({addr : 0, key : empty, vote : empty});\n                    addressid[addr] = 0;\n                    // Remove index\n                    votecast[addr] = false;\n                    // Remove that vote was cast\n                    refunds[addr] = 0;\n                    // Remove refunds\n                }\n    \n                // Reset timers.\n                endRegistrationPhase = 0;\n                endVotingPhase = 0;\n                delete addresses;\n    \n                // Keep track of voter activity\n                totalRegistered = 0;\n                totalEligible = 0;\n                totalVoted = 0;\n    \n                // General values that need reset\n                ballotName = \"\";\n                options[0] = \"\";\n                options[1] = \"\";\n                finalTally[0] = 0;\n                finalTally[1] = 0;\n                minDeposit = 0;\n                currentState = State.CREATE;\n                return true;\n            }\n            return false;\n            //false means that current state != FINISH \n        }\n\n\n\n    function register(uint[2] _key) inState(State.REGISTER) payable returns (bool) {\n        \n        if(msg.value != minDeposit) {\n           return false;\n        }\n    // Only eligible addresses can vote\n        if (eligible[msg.sender]) {\n            if (!registered[msg.sender]) {\n                // Update voter's registration\n                refunds[msg.sender] = msg.value;\n                uint[2] memory empty;\n                addressid[msg.sender] = totalRegistered;\n                voters[totalRegistered] = Voter({addr : msg.sender, key : _key, vote : empty});\n                registered[msg.sender] = true;\n                totalRegistered += 1;\n\n                return true;\n            }\n        }\n        return false;\n    }\n\n    function submitVote(uint[2] choice) inState(State.VOTE) returns (bool) {\n        if (now > endVotingPhase) {\n            return;\n        }\n\n        uint c = addressid[msg.sender];\n\n        // Make sure the sender can vote, and hasn't already voted.\n        if (registered[msg.sender] && !votecast[msg.sender]) {\n            voters[c].vote = choice;\n            votecast[msg.sender] = true;\n            totalVoted += 1;\n            uint refund = refunds[msg.sender];\n            refunds[msg.sender] = 0;\n\n            if (!msg.sender.send(refund)) {//failed to refund\n               refunds[msg.sender] = refund;\n            }\n            return true;\n        }\n\n        return false;\n    }\n}",
  "sourcePath": "/Users/mariambeltagy/Desktop/DZK_Vote/Dapp/contracts/VotingSys.sol",
  "compiler": {
    "name": "solc",
    "version": "0.4.26+commit.4563c3fc.Emscripten.clang"
  },
  "schemaVersion": "3.0.23",
  "updatedAt": "2021-06-04T14:43:40.373Z",
  "devdoc": {
    "methods": {}
  },
  "userdoc": {
    "methods": {}
  }
}