{
  "contractName": "VotingSys",
  "abi": [
    {
      "constant": true,
      "inputs": [
        {
          "name": "",
          "type": "address"
        }
      ],
      "name": "eligible",
      "outputs": [
        {
          "name": "",
          "type": "bool"
        }
      ],
      "payable": false,
      "stateMutability": "view",
      "type": "function"
    },
    {
      "constant": true,
      "inputs": [],
      "name": "currentState",
      "outputs": [
        {
          "name": "",
          "type": "uint8"
        }
      ],
      "payable": false,
      "stateMutability": "view",
      "type": "function"
    },
    {
      "constant": true,
      "inputs": [],
      "name": "ballotName",
      "outputs": [
        {
          "name": "",
          "type": "string"
        }
      ],
      "payable": false,
      "stateMutability": "view",
      "type": "function"
    },
    {
      "constant": true,
      "inputs": [],
      "name": "totalEligible",
      "outputs": [
        {
          "name": "",
          "type": "uint256"
        }
      ],
      "payable": false,
      "stateMutability": "view",
      "type": "function"
    },
    {
      "constant": true,
      "inputs": [
        {
          "name": "",
          "type": "uint256"
        }
      ],
      "name": "finalTally",
      "outputs": [
        {
          "name": "",
          "type": "uint256"
        }
      ],
      "payable": false,
      "stateMutability": "view",
      "type": "function"
    },
    {
      "constant": true,
      "inputs": [
        {
          "name": "",
          "type": "uint256"
        }
      ],
      "name": "options",
      "outputs": [
        {
          "name": "",
          "type": "string"
        }
      ],
      "payable": false,
      "stateMutability": "view",
      "type": "function"
    },
    {
      "constant": true,
      "inputs": [],
      "name": "minDeposit",
      "outputs": [
        {
          "name": "",
          "type": "uint256"
        }
      ],
      "payable": false,
      "stateMutability": "view",
      "type": "function"
    },
    {
      "constant": true,
      "inputs": [
        {
          "name": "",
          "type": "address"
        }
      ],
      "name": "addressID",
      "outputs": [
        {
          "name": "",
          "type": "uint256"
        }
      ],
      "payable": false,
      "stateMutability": "view",
      "type": "function"
    },
    {
      "constant": true,
      "inputs": [
        {
          "name": "",
          "type": "address"
        }
      ],
      "name": "votecast",
      "outputs": [
        {
          "name": "",
          "type": "bool"
        }
      ],
      "payable": false,
      "stateMutability": "view",
      "type": "function"
    },
    {
      "constant": true,
      "inputs": [
        {
          "name": "",
          "type": "uint256"
        }
      ],
      "name": "prevFinalTally",
      "outputs": [
        {
          "name": "",
          "type": "uint256"
        }
      ],
      "payable": false,
      "stateMutability": "view",
      "type": "function"
    },
    {
      "constant": true,
      "inputs": [],
      "name": "owner",
      "outputs": [
        {
          "name": "",
          "type": "address"
        }
      ],
      "payable": false,
      "stateMutability": "view",
      "type": "function"
    },
    {
      "constant": true,
      "inputs": [],
      "name": "totalRegistered",
      "outputs": [
        {
          "name": "",
          "type": "uint256"
        }
      ],
      "payable": false,
      "stateMutability": "view",
      "type": "function"
    },
    {
      "constant": true,
      "inputs": [],
      "name": "endVotingPhase",
      "outputs": [
        {
          "name": "",
          "type": "uint256"
        }
      ],
      "payable": false,
      "stateMutability": "view",
      "type": "function"
    },
    {
      "constant": true,
      "inputs": [],
      "name": "endRegistrationPhase",
      "outputs": [
        {
          "name": "",
          "type": "uint256"
        }
      ],
      "payable": false,
      "stateMutability": "view",
      "type": "function"
    },
    {
      "constant": true,
      "inputs": [
        {
          "name": "",
          "type": "address"
        }
      ],
      "name": "registered",
      "outputs": [
        {
          "name": "",
          "type": "bool"
        }
      ],
      "payable": false,
      "stateMutability": "view",
      "type": "function"
    },
    {
      "constant": true,
      "inputs": [],
      "name": "totalVoted",
      "outputs": [
        {
          "name": "",
          "type": "uint256"
        }
      ],
      "payable": false,
      "stateMutability": "view",
      "type": "function"
    },
    {
      "constant": true,
      "inputs": [
        {
          "name": "",
          "type": "address"
        }
      ],
      "name": "refunds",
      "outputs": [
        {
          "name": "",
          "type": "uint256"
        }
      ],
      "payable": false,
      "stateMutability": "view",
      "type": "function"
    },
    {
      "constant": true,
      "inputs": [
        {
          "name": "",
          "type": "uint256"
        }
      ],
      "name": "voters",
      "outputs": [
        {
          "name": "addr",
          "type": "address"
        }
      ],
      "payable": false,
      "stateMutability": "view",
      "type": "function"
    },
    {
      "constant": true,
      "inputs": [
        {
          "name": "",
          "type": "uint256"
        }
      ],
      "name": "addresses",
      "outputs": [
        {
          "name": "",
          "type": "address"
        }
      ],
      "payable": false,
      "stateMutability": "view",
      "type": "function"
    },
    {
      "constant": false,
      "inputs": [
        {
          "name": "newOwner",
          "type": "address"
        }
      ],
      "name": "transferOwnership",
      "outputs": [],
      "payable": false,
      "stateMutability": "nonpayable",
      "type": "function"
    },
    {
      "inputs": [],
      "payable": false,
      "stateMutability": "nonpayable",
      "type": "constructor"
    },
    {
      "constant": false,
      "inputs": [
        {
          "name": "_ballotStatement",
          "type": "string"
        },
        {
          "name": "option1",
          "type": "string"
        },
        {
          "name": "option2",
          "type": "string"
        },
        {
          "name": "_endRegistrationPhase",
          "type": "uint256"
        },
        {
          "name": "_endVotingPhase",
          "type": "uint256"
        },
        {
          "name": "_depositRequired",
          "type": "uint256"
        },
        {
          "name": "addr",
          "type": "address[]"
        }
      ],
      "name": "creatBallot",
      "outputs": [
        {
          "name": "",
          "type": "bool"
        }
      ],
      "payable": false,
      "stateMutability": "nonpayable",
      "type": "function"
    },
    {
      "constant": false,
      "inputs": [
        {
          "name": "addr",
          "type": "address[]"
        }
      ],
      "name": "addEligible",
      "outputs": [],
      "payable": false,
      "stateMutability": "nonpayable",
      "type": "function"
    },
    {
      "constant": false,
      "inputs": [],
      "name": "deadlinePassed",
      "outputs": [
        {
          "name": "",
          "type": "bool"
        }
      ],
      "payable": false,
      "stateMutability": "nonpayable",
      "type": "function"
    },
    {
      "constant": false,
      "inputs": [
        {
          "name": "xG",
          "type": "uint256[2]"
        },
        {
          "name": "vG",
          "type": "uint256[3]"
        },
        {
          "name": "r",
          "type": "uint256"
        }
      ],
      "name": "register",
      "outputs": [
        {
          "name": "",
          "type": "bool"
        }
      ],
      "payable": true,
      "stateMutability": "payable",
      "type": "function"
    },
    {
      "constant": false,
      "inputs": [
        {
          "name": "choice",
          "type": "uint256[2]"
        }
      ],
      "name": "submitVote",
      "outputs": [
        {
          "name": "",
          "type": "bool"
        }
      ],
      "payable": false,
      "stateMutability": "nonpayable",
      "type": "function"
    },
    {
      "constant": false,
      "inputs": [
        {
          "name": "xG",
          "type": "uint256[2]"
        },
        {
          "name": "r",
          "type": "uint256"
        },
        {
          "name": "vG",
          "type": "uint256[3]"
        }
      ],
      "name": "verifyKey",
      "outputs": [
        {
          "name": "",
          "type": "bool"
        }
      ],
      "payable": false,
      "stateMutability": "nonpayable",
      "type": "function"
    }
  ],
  "bytecode": "0x608060405234801561001057600080fd5b50336000806101000a81548173ffffffffffffffffffffffffffffffffffffffff021916908373ffffffffffffffffffffffffffffffffffffffff1602179055506000601460006101000a81548160ff0219169083600381111561007057fe5b02179055506142ff80620000856000396000f300608060405260043610610154576000357c0100000000000000000000000000000000000000000000000000000000900463ffffffff16806305c5aabc146101595780630713b139146101fc57806308de18c3146102575780630c3f6acf146102ed5780631b26586c146103265780633138ffe7146103b65780633a5f547a146103e1578063409e22051461042257806341b3d185146104c85780634a4ab63d146104f35780634bbc44e41461054a57806363333cb2146105b4578063742d4d311461061a57806377df5fc8146106755780638460be61146106a45780638da5cb5b146106e5578063927416c01461073c578063a300e22414610767578063aeb32ae314610792578063b21a64da14610900578063b2dd5c071461092b578063b3a2273f14610986578063bc3da535146109b1578063da58c7d914610a08578063edf26d9b14610a75578063f2fde38b14610ae2575b600080fd5b34801561016557600080fd5b506101e26004803603810190808060400190600280602002604051908101604052809291908260026020028082843782019150505050509192919290803590602001909291908060600190600380602002604051908101604052809291908260036020028082843782019150505050509192919290505050610b25565b604051808215151515815260200191505060405180910390f35b34801561020857600080fd5b5061023d600480360381019080803573ffffffffffffffffffffffffffffffffffffffff169060200190929190505050610e53565b604051808215151515815260200191505060405180910390f35b6102d36004803603810190808060400190600280602002604051908101604052809291908260026020028082843782019150505050509192919290806060019060038060200260405190810160405280929190826003602002808284378201915050505050919291929080359060200190929190505050610e73565b604051808215151515815260200191505060405180910390f35b3480156102f957600080fd5b5061030261115f565b6040518082600381111561031257fe5b60ff16815260200191505060405180910390f35b34801561033257600080fd5b5061033b611172565b6040518080602001828103825283818151815260200191508051906020019080838360005b8381101561037b578082015181840152602081019050610360565b50505050905090810190601f1680156103a85780820380516001836020036101000a031916815260200191505b509250505060405180910390f35b3480156103c257600080fd5b506103cb611210565b6040518082815260200191505060405180910390f35b3480156103ed57600080fd5b5061040c60048036038101908080359060200190929190505050611216565b6040518082815260200191505060405180910390f35b34801561042e57600080fd5b5061044d60048036038101908080359060200190929190505050611230565b6040518080602001828103825283818151815260200191508051906020019080838360005b8381101561048d578082015181840152602081019050610472565b50505050905090810190601f1680156104ba5780820380516001836020036101000a031916815260200191505b509250505060405180910390f35b3480156104d457600080fd5b506104dd6112e2565b6040518082815260200191505060405180910390f35b3480156104ff57600080fd5b50610534600480360381019080803573ffffffffffffffffffffffffffffffffffffffff1690602001909291905050506112e8565b6040518082815260200191505060405180910390f35b34801561055657600080fd5b5061059a6004803603810190808060400190600280602002604051908101604052809291908260026020028082843782019150505050509192919290505050611300565b604051808215151515815260200191505060405180910390f35b3480156105c057600080fd5b50610618600480360381019080803590602001908201803590602001908080602002602001604051908101604052809392919081815260200183836020028082843782019150505050505091929192905050506115df565b005b34801561062657600080fd5b5061065b600480360381019080803573ffffffffffffffffffffffffffffffffffffffff1690602001909291905050506117f9565b604051808215151515815260200191505060405180910390f35b34801561068157600080fd5b5061068a611819565b604051808215151515815260200191505060405180910390f35b3480156106b057600080fd5b506106cf60048036038101908080359060200190929190505050611cb3565b6040518082815260200191505060405180910390f35b3480156106f157600080fd5b506106fa611ccd565b604051808273ffffffffffffffffffffffffffffffffffffffff1673ffffffffffffffffffffffffffffffffffffffff16815260200191505060405180910390f35b34801561074857600080fd5b50610751611cf2565b6040518082815260200191505060405180910390f35b34801561077357600080fd5b5061077c611cf8565b6040518082815260200191505060405180910390f35b34801561079e57600080fd5b506108e6600480360381019080803590602001908201803590602001908080601f0160208091040260200160405190810160405280939291908181526020018383808284378201915050505050509192919290803590602001908201803590602001908080601f0160208091040260200160405190810160405280939291908181526020018383808284378201915050505050509192919290803590602001908201803590602001908080601f016020809104026020016040519081016040528093929190818152602001838380828437820191505050505050919291929080359060200190929190803590602001909291908035906020019092919080359060200190820180359060200190808060200260200160405190810160405280939291908181526020018383602002808284378201915050505050509192919290505050611cfe565b604051808215151515815260200191505060405180910390f35b34801561090c57600080fd5b50610915611e76565b6040518082815260200191505060405180910390f35b34801561093757600080fd5b5061096c600480360381019080803573ffffffffffffffffffffffffffffffffffffffff169060200190929190505050611e7c565b604051808215151515815260200191505060405180910390f35b34801561099257600080fd5b5061099b611e9c565b6040518082815260200191505060405180910390f35b3480156109bd57600080fd5b506109f2600480360381019080803573ffffffffffffffffffffffffffffffffffffffff169060200190929190505050611ea2565b6040518082815260200191505060405180910390f35b348015610a1457600080fd5b50610a3360048036038101908080359060200190929190505050611eba565b604051808273ffffffffffffffffffffffffffffffffffffffff1673ffffffffffffffffffffffffffffffffffffffff16815260200191505060405180910390f35b348015610a8157600080fd5b50610aa060048036038101908080359060200190929190505050611ef8565b604051808273ffffffffffffffffffffffffffffffffffffffff1673ffffffffffffffffffffffffffffffffffffffff16815260200191505060405180910390f35b348015610aee57600080fd5b50610b23600480360381019080803573ffffffffffffffffffffffffffffffffffffffff169060200190929190505050611f36565b005b6000610b2f6140af565b600080610b3a6140d1565b610b426140d1565b610b4a6140d1565b7f79be667ef9dcbbac55a06295ce870b07029bfcdb2dce28d959f2815b16f81798866000600281101515610b7a57fe5b6020020181815250507f483ada7726a3c4655da4fbfc0e1108a8fd17b448a68554199c47d08ffb10d4b8866001600281101515610bb357fe5b602002018181525050610bc58a611fd4565b1580610bd75750610bd588611fe6565b155b15610be55760009650610e46565b6002337f79be667ef9dcbbac55a06295ce870b07029bfcdb2dce28d959f2815b16f817987f483ada7726a3c4655da4fbfc0e1108a8fd17b448a68554199c47d08ffb10d4b88d8c604051602001808673ffffffffffffffffffffffffffffffffffffffff1673ffffffffffffffffffffffffffffffffffffffff16815260200185815260200184815260200183600260200280838360005b83811015610c98578082015181840152602081019050610c7d565b5050505090500182600360200280838360005b83811015610cc6578082015181840152602081019050610cab565b50505050905001955050505050506040516020818303038152906040526040518082805190602001908083835b602083101515610d185780518252602082019150602081019050602083039250610cf3565b6001836020036101000a0380198251168184511680821785525050505050509050019150506020604051808303816000865af1158015610d5c573d6000803e3d6000fd5b5050506040513d6020811015610d7157600080fd5b8101908080519060200190929190505050945084600190049350610d958987612059565b9250610da1848b612059565b9150610dad83836128eb565b9050610dd9817ffffffffffffffffffffffffffffffffffffffffffffffffffffffffefffffc2f612e11565b876000600381101515610de857fe5b6020020151816000600381101515610dfc57fe5b6020020151148015610e335750876001600381101515610e1857fe5b6020020151816001600381101515610e2c57fe5b6020020151145b15610e415760019650610e46565b600096505b5050505050509392505050565b60046020528060005260406000206000915054906101000a900460ff1681565b6000610e7d6140af565b6001806003811115610e8b57fe5b601460009054906101000a900460ff166003811115610ea657fe5b141515610eb257600080fd5b610eba611819565b15610ec85760009250611156565b60016003811115610ed557fe5b601460009054906101000a900460ff166003811115610ef057fe5b141515610f005760009250611156565b601554341015610f135760009250611156565b600460003373ffffffffffffffffffffffffffffffffffffffff1673ffffffffffffffffffffffffffffffffffffffff16815260200190815260200160002060009054906101000a900460ff161561115157610f70868587610b25565b156111505734600760003373ffffffffffffffffffffffffffffffffffffffff1673ffffffffffffffffffffffffffffffffffffffff16815260200190815260200160002081905550600a54600260003373ffffffffffffffffffffffffffffffffffffffff1673ffffffffffffffffffffffffffffffffffffffff168152602001908152602001600020819055506080604051908101604052803373ffffffffffffffffffffffffffffffffffffffff1681526020018781526020018381526020018381525060036000600a54815260200190815260200160002060008201518160000160006101000a81548173ffffffffffffffffffffffffffffffffffffffff021916908373ffffffffffffffffffffffffffffffffffffffff1602179055506020820151816001019060026110aa9291906140f4565b506040820151816003019060026110c29291906140f4565b506060820151816005019060026110da9291906140f4565b509050506001600560003373ffffffffffffffffffffffffffffffffffffffff1673ffffffffffffffffffffffffffffffffffffffff16815260200190815260200160002060006101000a81548160ff0219169083151502179055506001600a6000828254019250508190555060019250611156565b5b600092505b50509392505050565b601460009054906101000a900460ff1681565b600d8054600181600116156101000203166002900480601f0160208091040260200160405190810160405280929190818152602001828054600181600116156101000203166002900480156112085780601f106111dd57610100808354040283529160200191611208565b820191906000526020600020905b8154815290600101906020018083116111eb57829003601f168201915b505050505081565b600b5481565b60108160028110151561122557fe5b016000915090505481565b600e8160028110151561123f57fe5b016000915090508054600181600116156101000203166002900480601f0160208091040260200160405190810160405280929190818152602001828054600181600116156101000203166002900480156112da5780601f106112af576101008083540402835291602001916112da565b820191906000526020600020905b8154815290600101906020018083116112bd57829003601f168201915b505050505081565b60155481565b60026020528060005260406000206000915090505481565b6000806000600280600381111561131357fe5b601460009054906101000a900460ff16600381111561132e57fe5b14151561133a57600080fd5b600954421115611349576115d7565b600260003373ffffffffffffffffffffffffffffffffffffffff1673ffffffffffffffffffffffffffffffffffffffff168152602001908152602001600020549250600560003373ffffffffffffffffffffffffffffffffffffffff1673ffffffffffffffffffffffffffffffffffffffff16815260200190815260200160002060009054906101000a900460ff16801561142e5750600660003373ffffffffffffffffffffffffffffffffffffffff1673ffffffffffffffffffffffffffffffffffffffff16815260200190815260200160002060009054906101000a900460ff16155b156115d2578460036000858152602001908152602001600020600501906002611458929190614134565b506001600660003373ffffffffffffffffffffffffffffffffffffffff1673ffffffffffffffffffffffffffffffffffffffff16815260200190815260200160002060006101000a81548160ff0219169083151502179055506001600c60008282540192505081905550600760003373ffffffffffffffffffffffffffffffffffffffff1673ffffffffffffffffffffffffffffffffffffffff1681526020019081526020016000205491506000600760003373ffffffffffffffffffffffffffffffffffffffff1673ffffffffffffffffffffffffffffffffffffffff168152602001908152602001600020819055503373ffffffffffffffffffffffffffffffffffffffff166108fc839081150290604051600060405180830381858888f1935050505015156115c95781600760003373ffffffffffffffffffffffffffffffffffffffff1673ffffffffffffffffffffffffffffffffffffffff168152602001908152602001600020819055505b600193506115d7565b600093505b505050919050565b600060018060038111156115ef57fe5b601460009054906101000a900460ff16600381111561160a57fe5b14151561161657600080fd5b3373ffffffffffffffffffffffffffffffffffffffff166000809054906101000a900473ffffffffffffffffffffffffffffffffffffffff1673ffffffffffffffffffffffffffffffffffffffff1614151561167157600080fd5b600091505b82518210156117f45760046000848481518110151561169157fe5b9060200190602002015173ffffffffffffffffffffffffffffffffffffffff1673ffffffffffffffffffffffffffffffffffffffff16815260200190815260200160002060009054906101000a900460ff1615156117e75760016004600085858151811015156116fd57fe5b9060200190602002015173ffffffffffffffffffffffffffffffffffffffff1673ffffffffffffffffffffffffffffffffffffffff16815260200190815260200160002060006101000a81548160ff0219169083151502179055506001838381518110151561176857fe5b9060200190602002015190806001815401808255809150509060018203906000526020600020016000909192909190916101000a81548173ffffffffffffffffffffffffffffffffffffffff021916908373ffffffffffffffffffffffffffffffffffffffff160217905550506001600b600082825401925050819055505b8180600101925050611676565b505050565b60066020528060005260406000206000915054906101000a900460ff1681565b60006118236140af565b600080600854421115611855576002601460006101000a81548160ff0219169083600381111561184f57fe5b02179055505b600954421115611884576003601460006101000a81548160ff0219169083600381111561187e57fe5b02179055505b60038081111561189057fe5b601460009054906101000a900460ff1660038111156118ab57fe5b1415611ca857600091505b600180549050821015611b7c576001828154811015156118d257fe5b9060005260206000200160009054906101000a900473ffffffffffffffffffffffffffffffffffffffff1690506000600460008373ffffffffffffffffffffffffffffffffffffffff1673ffffffffffffffffffffffffffffffffffffffff16815260200190815260200160002060006101000a81548160ff0219169083151502179055506000600560008373ffffffffffffffffffffffffffffffffffffffff1673ffffffffffffffffffffffffffffffffffffffff16815260200190815260200160002060006101000a81548160ff021916908315150217905550608060405190810160405280600073ffffffffffffffffffffffffffffffffffffffff168152602001848152602001848152602001848152506003600084815260200190815260200160002060008201518160000160006101000a81548173ffffffffffffffffffffffffffffffffffffffff021916908373ffffffffffffffffffffffffffffffffffffffff160217905550602082015181600101906002611a599291906140f4565b50604082015181600301906002611a719291906140f4565b50606082015181600501906002611a899291906140f4565b509050506000600260008373ffffffffffffffffffffffffffffffffffffffff1673ffffffffffffffffffffffffffffffffffffffff168152602001908152602001600020819055506000600660008373ffffffffffffffffffffffffffffffffffffffff1673ffffffffffffffffffffffffffffffffffffffff16815260200190815260200160002060006101000a81548160ff0219169083151502179055506000600760008373ffffffffffffffffffffffffffffffffffffffff1673ffffffffffffffffffffffffffffffffffffffff1681526020019081526020016000208190555081806001019250506118b6565b6000600881905550600060098190555060016000611b9a9190614174565b6000600a819055506000600b819055506000600c819055506020604051908101604052806000815250600d9080519060200190611bd8929190614195565b506020604051908101604052806000815250600e6000600281101515611bfa57fe5b019080519060200190611c0e929190614195565b506020604051908101604052806000815250600e6001600281101515611c3057fe5b019080519060200190611c44929190614195565b50600060106000600281101515611c5757fe5b0181905550600060106001600281101515611c6e57fe5b018190555060006015819055506000601460006101000a81548160ff02191690836003811115611c9a57fe5b021790555060019350611cad565b600093505b50505090565b601281600281101515611cc257fe5b016000915090505481565b6000809054906101000a900473ffffffffffffffffffffffffffffffffffffffff1681565b600a5481565b60095481565b600080806003811115611d0d57fe5b601460009054906101000a900460ff166003811115611d2857fe5b141515611d3457600080fd5b3373ffffffffffffffffffffffffffffffffffffffff166000809054906101000a900473ffffffffffffffffffffffffffffffffffffffff1673ffffffffffffffffffffffffffffffffffffffff16141515611d8f57600080fd5b42861015611da05760009150611e6a565b85851015611db15760009150611e6a565b611dba83612ede565b1515611dc95760009150611e6a565b88600d9080519060200190611ddf929190614195565b5087600e6000600281101515611df157fe5b019080519060200190611e05929190614195565b5086600e6001600281101515611e1757fe5b019080519060200190611e2b929190614195565b508560088190555084600981905550836015819055506001601460006101000a81548160ff02191690836003811115611e6057fe5b0217905550600191505b50979650505050505050565b60085481565b60056020528060005260406000206000915054906101000a900460ff1681565b600c5481565b60076020528060005260406000206000915090505481565b60036020528060005260406000206000915090508060000160009054906101000a900473ffffffffffffffffffffffffffffffffffffffff16905081565b600181815481101515611f0757fe5b906000526020600020016000915054906101000a900473ffffffffffffffffffffffffffffffffffffffff1681565b3373ffffffffffffffffffffffffffffffffffffffff166000809054906101000a900473ffffffffffffffffffffffffffffffffffffffff1673ffffffffffffffffffffffffffffffffffffffff16141515611f9157600080fd5b806000806101000a81548173ffffffffffffffffffffffffffffffffffffffff021916908373ffffffffffffffffffffffffffffffffffffffff16021790555050565b6000611fdf82613114565b9050919050565b6000611ff06140af565b826000600381101515611fff57fe5b602002015181600060028110151561201357fe5b60200201818152505082600160038110151561202b57fe5b602002015181600160028110151561203f57fe5b60200201818152505061205181613114565b915050919050565b6120616140d1565b600080600061206e614215565b6120766140d1565b61207e614244565b60008060007ffffffffffffffffffffffffffffffffffffffffffffffffffffffffefffffc2f985060008c14156120b4576128dc565b6000604051985061020089016040525b8c156120fd5760018d16156120ec5760208d06905080888a015360206010821102818e03019c505b60028d049c506001880197506120c4565b508797506060604051908101604052808c600060028110151561211c57fe5b602002015181526020018c600160028110151561213557fe5b60200201518152602001600181525086600060088110151561215357fe5b602002018190525061217786600060088110151561216d57fe5b602002015161325e565b9450612183858c613416565b86600160088110151561219257fe5b60200201819052506121b7858760016008811015156121ad57fe5b60200201516128eb565b8660026008811015156121c657fe5b60200201819052506121eb858760026008811015156121e157fe5b60200201516128eb565b8660036008811015156121fa57fe5b602002018190525061221f8587600360088110151561221557fe5b60200201516128eb565b86600460088110151561222e57fe5b60200201819052506122538587600460088110151561224957fe5b60200201516128eb565b86600560088110151561226257fe5b60200201819052506122878587600560088110151561227d57fe5b60200201516128eb565b86600660088110151561229657fe5b60200201819052506122bb858760066008811015156122b157fe5b60200201516128eb565b8660076008811015156122ca57fe5b60200201819052508560016008811015156122e157fe5b602002015160026003811015156122f457fe5b602002015184600060108110151561230857fe5b6020020181815250508880151561231b57fe5b84600060108110151561232a57fe5b602002015187600260088110151561233e57fe5b6020020151600260038110151561235157fe5b60200201510984600160108110151561236657fe5b6020020181815250508880151561237957fe5b84600160108110151561238857fe5b602002015187600360088110151561239c57fe5b602002015160026003811015156123af57fe5b6020020151098460026010811015156123c457fe5b602002018181525050888015156123d757fe5b8460026010811015156123e657fe5b60200201518760046008811015156123fa57fe5b6020020151600260038110151561240d57fe5b60200201510984600360108110151561242257fe5b6020020181815250508880151561243557fe5b84600360108110151561244457fe5b602002015187600560088110151561245857fe5b6020020151600260038110151561246b57fe5b60200201510984600460108110151561248057fe5b6020020181815250508880151561249357fe5b8460046010811015156124a257fe5b60200201518760066008811015156124b657fe5b602002015160026003811015156124c957fe5b6020020151098460056010811015156124de57fe5b602002018181525050888015156124f157fe5b84600560108110151561250057fe5b602002015187600760088110151561251457fe5b6020020151600260038110151561252757fe5b60200201510984600660108110151561253c57fe5b60200201818152505061256284600660108110151561255757fe5b60200201518a6138d8565b84600760108110151561257157fe5b60200201818152505083600760108110151561258957fe5b602002015184600860108110151561259d57fe5b602002018181525050888015156125b057fe5b8460086010811015156125bf57fe5b60200201518560056010811015156125d357fe5b60200201510984600f6010811015156125e857fe5b602002018181525050600692505b6002831015156126bd578880151561260a57fe5b84600860108110151561261957fe5b6020020151876001860160088110151561262f57fe5b6020020151600260038110151561264257fe5b60200201510984600860108110151561265757fe5b6020020181815250508880151561266a57fe5b84600860108110151561267957fe5b6020020151856002860360108110151561268f57fe5b60200201510984846008016010811015156126a657fe5b6020020181815250508280600190039350506125f6565b888015156126c757fe5b8460086010811015156126d657fe5b60200201518760026008811015156126ea57fe5b602002015160026003811015156126fd57fe5b60200201510984600960108110151561271257fe5b602002018181525050600092505b60078310156127a257612795866001850160088110151561273d57fe5b6020020151856009860160108110151561275357fe5b60200201518b80151561276257fe5b876009880160108110151561277357fe5b6020020151886009890160108110151561278957fe5b6020020151098c613984565b8280600101935050612720565b5b60008711156128db578680600190039750508688015160001a91506127c78a613a20565b601082111561285157600282601f038115156127df57fe5b04905061284c8a604080519081016040528089856008811015156127ff57fe5b6020020151600060038110151561281257fe5b60200201518152602001898560088110151561282a57fe5b6020020151600160038110151561283d57fe5b60200201518d03815250613bce565b6128d6565b60008211156128d55760026001830381151561286957fe5b0490506128d48a6040805190810160405280898560088110151561288957fe5b6020020151600060038110151561289c57fe5b6020020151815260200189856008811015156128b457fe5b602002015160016003811015156128c757fe5b6020020151815250613bce565b5b5b6127a3565b5b50505050505050505092915050565b6128f36140d1565b60006128fd614268565b612905614268565b6000806000806000808b600260038110151561291d57fe5b6020020151141561293057899850612e03565b60008a600260038110151561294157fe5b60200201511415612954578a9850612e03565b7ffffffffffffffffffffffffffffffffffffffffffffffffffffffffefffffc2f97508780151561298157fe5b8b600260038110151561299057fe5b60200201518c60026003811015156129a457fe5b6020020151098760006004811015156129b957fe5b602002018181525050878015156129cc57fe5b8760006004811015156129db57fe5b60200201518c60026003811015156129ef57fe5b602002015109876001600481101515612a0457fe5b60200201818152505087801515612a1757fe5b8a6002600381101515612a2657fe5b60200201518b6002600381101515612a3a57fe5b602002015109876002600481101515612a4f57fe5b60200201818152505087801515612a6257fe5b876002600481101515612a7157fe5b60200201518b6002600381101515612a8557fe5b602002015109876003600481101515612a9a57fe5b60200201818152505060806040519081016040528089801515612ab957fe5b896002600481101515612ac857fe5b60200201518e6000600381101515612adc57fe5b602002015109815260200189801515612af157fe5b896003600481101515612b0057fe5b60200201518e6001600381101515612b1457fe5b602002015109815260200189801515612b2957fe5b896000600481101515612b3857fe5b60200201518d6000600381101515612b4c57fe5b602002015109815260200189801515612b6157fe5b896001600481101515612b7057fe5b60200201518d6001600381101515612b8457fe5b6020020151098152509550856002600481101515612b9e57fe5b6020020151866000600481101515612bb257fe5b60200201511415612c0157856003600481101515612bcc57fe5b6020020151866001600481101515612be057fe5b6020020151141515612bf157612e03565b612bfa8b61325e565b9850612e03565b87801515612c0b57fe5b866000600481101515612c1a57fe5b60200201518903876002600481101515612c3057fe5b602002015108945087801515612c4257fe5b866001600481101515612c5157fe5b60200201518903876003600481101515612c6757fe5b602002015108935087801515612c7957fe5b858609925087801515612c8857fe5b858409915087801515612c9757fe5b82890389801515612ca457fe5b86870908905087801515612cb457fe5b88801515612cbe57fe5b89801515612cc857fe5b85896000600481101515612cd857fe5b60200201510960020989038208905080896000600381101515612cf757fe5b60200201818152505087801515612d0a57fe5b88801515612d1457fe5b828a038a801515612d2157fe5b868a6000600481101515612d3157fe5b602002015109088509896001600381101515612d4957fe5b60200201818152505087801515612d5c57fe5b88801515612d6657fe5b83886001600481101515612d7657fe5b60200201510989038a6001600381101515612d8d57fe5b602002015108896001600381101515612da257fe5b60200201818152505087801515612db557fe5b88801515612dbf57fe5b8b6002600381101515612dce57fe5b60200201518d6002600381101515612de257fe5b6020020151098609896002600381101515612df957fe5b6020020181815250505b505050505050505092915050565b600080612e31846002600381101515612e2657fe5b6020020151846138d8565b915082801515612e3d57fe5b828309905082801515612e4c57fe5b81856000600381101515612e5c57fe5b602002015109846000600381101515612e7157fe5b60200201818152505082801515612e8457fe5b83801515612e8e57fe5b828409856001600381101515612ea057fe5b602002015109846001600381101515612eb557fe5b6020020181815250506001846002600381101515612ecf57fe5b60200201818152505050505050565b6000806000806003811115612eef57fe5b601460009054906101000a900460ff166003811115612f0a57fe5b141515612f1657600080fd5b3373ffffffffffffffffffffffffffffffffffffffff166000809054906101000a900473ffffffffffffffffffffffffffffffffffffffff1673ffffffffffffffffffffffffffffffffffffffff16141515612f7157600080fd5b6003845110151561310857600091505b83518210156130ff57600460008584815181101515612f9c57fe5b9060200190602002015173ffffffffffffffffffffffffffffffffffffffff1673ffffffffffffffffffffffffffffffffffffffff16815260200190815260200160002060009054906101000a900460ff1615156130f257600160046000868581518110151561300857fe5b9060200190602002015173ffffffffffffffffffffffffffffffffffffffff1673ffffffffffffffffffffffffffffffffffffffff16815260200190815260200160002060006101000a81548160ff0219169083151502179055506001848381518110151561307357fe5b9060200190602002015190806001815401808255809150509060018203906000526020600020016000909192909190916101000a81548173ffffffffffffffffffffffffffffffffffffffff021916908373ffffffffffffffffffffffffffffffffffffffff160217905550506001600b600082825401925050819055505b8180600101925050612f81565b6001925061310d565b600092505b5050919050565b6000806000807ffffffffffffffffffffffffffffffffffffffffffffffffffffffffefffffc2f925084600060028110151561314c57fe5b60200201516000148061317157508285600060028110151561316a57fe5b6020020151145b8061318f575084600160028110151561318657fe5b60200201516000145b806131ac5750828560016002811015156131a557fe5b6020020151145b156131ba5760009350613256565b828015156131c457fe5b8560016002811015156131d357fe5b60200201518660016002811015156131e757fe5b6020020151099150828015156131f957fe5b60078480151561320557fe5b87600060028110151561321457fe5b60200201518680151561322357fe5b89600060028110151561323257fe5b60200201518a600060028110151561324657fe5b6020020151090908905080821493505b505050919050565b6132666140d1565b60008060008060008060007ffffffffffffffffffffffffffffffffffffffffffffffffffffffffefffffc2f965060008960026003811015156132a557fe5b602002015114156132b55761340a565b8860006003811015156132c457fe5b602002015195508860016003811015156132da57fe5b60200201519450868015156132eb57fe5b8586099350868015156132fa57fe5b8780151561330457fe5b85880960040992508680151561331657fe5b8780151561332057fe5b87880960030991508680151561333257fe5b8780151561333c57fe5b84850888038880151561334b57fe5b8485090890508088600060038110151561336157fe5b6020020181815250508680151561337457fe5b8780151561337e57fe5b8880151561338857fe5b86870960080988038880151561339a57fe5b898015156133a457fe5b848b0387088509088860016003811015156133bb57fe5b602002018181525050868015156133ce57fe5b878015156133d857fe5b8a60026003811015156133e757fe5b6020020151870960020988600260038110151561340057fe5b6020020181815250505b50505050505050919050565b61341e6140d1565b60006134286140af565b613430614268565b6000806000806000808b600260038110151561344857fe5b6020020151141561349d576060604051908101604052808b600060028110151561346e57fe5b602002015181526020018b600160028110151561348757fe5b60200201518152602001600181525098506138ca565b60008a60016002811015156134ae57fe5b602002015114156134c1578a98506138ca565b7ffffffffffffffffffffffffffffffffffffffffffffffffffffffffefffffc2f9750878015156134ee57fe5b8b60026003811015156134fd57fe5b60200201518c600260038110151561351157fe5b60200201510987600060028110151561352657fe5b6020020181815250508780151561353957fe5b87600060028110151561354857fe5b60200201518c600260038110151561355c57fe5b60200201510987600160028110151561357157fe5b6020020181815250506080604051908101604052808c600060038110151561359557fe5b602002015181526020018c60016003811015156135ae57fe5b60200201518152602001898015156135c257fe5b8960006002811015156135d157fe5b60200201518d60006002811015156135e557fe5b6020020151098152602001898015156135fa57fe5b89600160028110151561360957fe5b60200201518d600160028110151561361d57fe5b602002015109815250955085600260048110151561363757fe5b602002015186600060048110151561364b57fe5b602002015114156136e75785600360048110151561366557fe5b602002015186600160048110151561367957fe5b60200201511415156136d85760008b600060038110151561369657fe5b60200201818152505060008b60016003811015156136b057fe5b60200201818152505060008b60026003811015156136ca57fe5b6020020181815250506138ca565b6136e18b61325e565b506138ca565b878015156136f157fe5b86600060048110151561370057fe5b6020020151890387600260048110151561371657fe5b60200201510894508780151561372857fe5b86600160048110151561373757fe5b6020020151890387600360048110151561374d57fe5b60200201510893508780151561375f57fe5b85860992508780151561376e57fe5b85840991508780151561377d57fe5b8289038980151561378a57fe5b8687090890508780151561379a57fe5b888015156137a457fe5b898015156137ae57fe5b858960006004811015156137be57fe5b602002015109600209890382089050808960006003811015156137dd57fe5b602002018181525050878015156137f057fe5b888015156137fa57fe5b828a038a80151561380757fe5b868a600060048110151561381757fe5b60200201510908850989600160038110151561382f57fe5b6020020181815250508780151561384257fe5b8880151561384c57fe5b8388600160048110151561385c57fe5b60200201510989038a600160038110151561387357fe5b60200201510889600160038110151561388857fe5b6020020181815250508780151561389b57fe5b8b60026003811015156138aa57fe5b602002015186098960026003811015156138c057fe5b6020020181815250505b505050505050505092915050565b60008060008060008060008814806138ef57508688145b806138fa5750600087145b1561390457600080fd5b8688111561391b57868881151561391757fe5b0697505b600193508692508791505b60008214151561395f57818381151561393b57fe5b04905083848202860383848402860380955081965082975083985050505050613926565b6000851215613975578460000387039550613979565b8495505b505050505092915050565b8080151561398e57fe5b8285600060038110151561399e57fe5b6020020151098460006003811015156139b357fe5b602002018181525050808015156139c657fe5b818015156139d057fe5b8385098560016003811015156139e257fe5b6020020151098460016003811015156139f757fe5b6020020181815250506001846002600381101515613a1157fe5b60200201818152505050505050565b60008060008060008060007ffffffffffffffffffffffffffffffffffffffffffffffffffffffffefffffc2f96506000886002600381101515613a5f57fe5b60200201511415613a6f57613bc4565b876000600381101515613a7e57fe5b60200201519550876001600381101515613a9457fe5b6020020151945086801515613aa557fe5b858609935086801515613ab457fe5b87801515613abe57fe5b858809600409925086801515613ad057fe5b87801515613ada57fe5b878809600309915086801515613aec57fe5b87801515613af657fe5b848508880388801515613b0557fe5b84850908905080886000600381101515613b1b57fe5b60200201818152505086801515613b2e57fe5b87801515613b3857fe5b88801515613b4257fe5b868709600809880388801515613b5457fe5b89801515613b5e57fe5b848b038708850908886001600381101515613b7557fe5b60200201818152505086801515613b8857fe5b87801515613b9257fe5b896002600381101515613ba157fe5b60200201518709600209886002600381101515613bba57fe5b6020020181815250505b5050505050505050565b6000613bd86140af565b613be0614268565b6000806000806000808a6001600381101515613bf857fe5b60200201511415613c7a57886000600281101515613c1257fe5b60200201518a6000600381101515613c2657fe5b602002018181525050886001600281101515613c3e57fe5b60200201518a6001600381101515613c5257fe5b60200201818152505060018a6002600381101515613c6c57fe5b6020020181815250506140a3565b6000896001600281101515613c8b57fe5b60200201511415613c9b576140a3565b7ffffffffffffffffffffffffffffffffffffffffffffffffffffffffefffffc2f975087801515613cc857fe5b8a6002600381101515613cd757fe5b60200201518b6002600381101515613ceb57fe5b602002015109876000600281101515613d0057fe5b60200201818152505087801515613d1357fe5b876000600281101515613d2257fe5b60200201518b6002600381101515613d3657fe5b602002015109876001600281101515613d4b57fe5b6020020181815250506080604051908101604052808b6000600381101515613d6f57fe5b602002015181526020018b6001600381101515613d8857fe5b6020020151815260200189801515613d9c57fe5b896000600281101515613dab57fe5b60200201518c6000600281101515613dbf57fe5b602002015109815260200189801515613dd457fe5b896001600281101515613de357fe5b60200201518c6001600281101515613df757fe5b6020020151098152509550856002600481101515613e1157fe5b6020020151866000600481101515613e2557fe5b60200201511415613ec057856003600481101515613e3f57fe5b6020020151866001600481101515613e5357fe5b6020020151141515613eb25760008a6000600381101515613e7057fe5b60200201818152505060008a6001600381101515613e8a57fe5b60200201818152505060008a6002600381101515613ea457fe5b6020020181815250506140a3565b613ebb8a613a20565b6140a3565b87801515613eca57fe5b866000600481101515613ed957fe5b60200201518903876002600481101515613eef57fe5b602002015108945087801515613f0157fe5b866001600481101515613f1057fe5b60200201518903876003600481101515613f2657fe5b602002015108935087801515613f3857fe5b858609925087801515613f4757fe5b858409915087801515613f5657fe5b82890389801515613f6357fe5b86870908905087801515613f7357fe5b88801515613f7d57fe5b89801515613f8757fe5b85896000600481101515613f9757fe5b602002015109600209890382089050808a6000600381101515613fb657fe5b60200201818152505087801515613fc957fe5b88801515613fd357fe5b828a038a801515613fe057fe5b868a6000600481101515613ff057fe5b6020020151090885098a600160038110151561400857fe5b6020020181815250508780151561401b57fe5b8880151561402557fe5b8388600160048110151561403557fe5b60200201510989038b600160038110151561404c57fe5b6020020151088a600160038110151561406157fe5b6020020181815250508780151561407457fe5b8a600260038110151561408357fe5b602002015186098a600260038110151561409957fe5b6020020181815250505b50505050505050505050565b6040805190810160405280600290602082028038833980820191505090505090565b606060405190810160405280600390602082028038833980820191505090505090565b8260028101928215614123579160200282015b82811115614122578251825591602001919060010190614107565b5b509050614130919061428b565b5090565b8260028101928215614163579160200282015b82811115614162578251825591602001919060010190614147565b5b509050614170919061428b565b5090565b5080546000825590600052602060002090810190614192919061428b565b50565b828054600181600116156101000203166002900490600052602060002090601f016020900481019282601f106141d657805160ff1916838001178555614204565b82800160010185558215614204579182015b828111156142035782518255916020019190600101906141e8565b5b509050614211919061428b565b5090565b610300604051908101604052806008905b61422e6142b0565b8152602001906001900390816142265790505090565b61020060405190810160405280601090602082028038833980820191505090505090565b608060405190810160405280600490602082028038833980820191505090505090565b6142ad91905b808211156142a9576000816000905550600101614291565b5090565b90565b6060604051908101604052806003906020820280388339808201915050905050905600a165627a7a723058201626d1eabcf320ee55eafcc8d2a606110467a8469b06d84f13dbd6b49a3c32600029",
  "source": "pragma solidity >=0.4.21 <0.7.0;\r\n\r\nimport \"./Owned.sol\";\r\nimport \"./libraries/Secp256k1.sol\";\r\n\r\ncontract VotingSys is Owned {\r\n\r\n    struct Voter {\r\n        address addr;\r\n        uint[2] registeredKey;\r\n        uint[2] reconstructedKey;\r\n        uint[2] vote;\r\n    }\r\n\r\n    address[] public addresses;\r\n    mapping(address => uint) public addressID; // Address to Counter\r\n    mapping(uint => Voter) public voters;\r\n    mapping(address => bool) public eligible; // White list of addresses allowed to vote\r\n    mapping(address => bool) public registered; // Address registered?\r\n    mapping(address => bool) public votecast; // Address voted?\r\n    mapping(address => uint) public refunds; //amount to be refunded\r\n\r\n    uint public endRegistrationPhase;\r\n    uint public endVotingPhase;\r\n    uint public totalRegistered; // Total number of participants that have submitted a voting key\r\n    uint public totalEligible;\r\n    uint public totalVoted;\r\n    string public ballotName; // Ballot Name\r\n    string[2] public options;\r\n    uint[2] public finalTally; // Final tally\r\n    uint[2] public prevFinalTally; // Final tally before last reset (not sure will be used)\r\n\r\n    enum State {CREATE, REGISTER, VOTE, FINISH}\r\n    State public currentState;\r\n\r\n    uint public minDeposit;\r\n\r\n    modifier inState(State s) {\r\n        if (currentState != s) {\r\n            revert();\r\n        }\r\n        _;\r\n    }\r\n\r\n    function VotingSys() {\r\n        currentState = State.CREATE;\r\n    }\r\n\r\n    //  must be more that 3 voters in the beginning (called by create ballot only)\r\n    function setInitialEligible(address[] addr) private inState(State.CREATE) onlyOwner returns (bool){\r\n        if (addr.length >= 3) {\r\n            for (uint i = 0; i < addr.length; i++) {\r\n                if (!eligible[addr[i]]) {// avoid duplicates\r\n                    eligible[addr[i]] = true;\r\n                    addresses.push(addr[i]);\r\n                    totalEligible += 1;\r\n                }\r\n            }\r\n            return true;\r\n        } else {\r\n            return false;\r\n        }\r\n    }\r\n\r\n    function creatBallot(\r\n        string _ballotStatement,\r\n        string option1,\r\n        string option2,\r\n        uint _endRegistrationPhase,\r\n        uint _endVotingPhase,\r\n        uint _depositRequired,\r\n        address[] addr\r\n    )\r\n    inState(State.CREATE)\r\n    onlyOwner\r\n    returns (bool){\r\n        if (_endRegistrationPhase < now) {\r\n            return false;\r\n        }\r\n        if (_endVotingPhase < _endRegistrationPhase) {\r\n            return false;\r\n        }\r\n        if (!setInitialEligible(addr)) {\r\n            return false;\r\n        }\r\n        ballotName = _ballotStatement;\r\n        options[0] = option1;\r\n        options[1] = option2;\r\n        endRegistrationPhase = _endRegistrationPhase;\r\n        endVotingPhase = _endVotingPhase;\r\n        minDeposit = _depositRequired;\r\n        currentState = State.REGISTER;\r\n        return true;\r\n    }\r\n\r\n    //  inState(State.REGISTER) to allow the admin to add more eligible users in the reg phase\r\n    //  should be after creation of ballot\r\n    function addEligible(address[] addr) inState(State.REGISTER) onlyOwner {\r\n        for (uint i = 0; i < addr.length; i++) {\r\n            if (!eligible[addr[i]]) {\r\n                eligible[addr[i]] = true;\r\n                addresses.push(addr[i]);\r\n                totalEligible += 1;\r\n            }\r\n        }\r\n    }\r\n\r\n    // called when someone try to:\r\n    // regester\r\n    // vote\r\n    // in order to set to correct state and reset if finished\r\n    function deadlinePassed() returns (bool){\r\n        uint[2] memory empty;\r\n        if (now > endRegistrationPhase) {\r\n            currentState = State.VOTE;\r\n        }\r\n        if (now > endVotingPhase) {\r\n            currentState = State.FINISH;\r\n        }\r\n        if (currentState == State.FINISH) {\r\n            //    todo: should be separated in private function called resetBallot()\r\n            //    todo: lost deposits\r\n            for (uint i = 0; i < addresses.length; i++) {\r\n                address addr = addresses[i];\r\n                eligible[addr] = false;\r\n                // No longer eligible\r\n                registered[addr] = false;\r\n                // Remove voting registration\r\n                voters[i] = Voter({\r\n                addr : 0,\r\n                registeredKey : empty,\r\n                reconstructedKey : empty,\r\n                vote : empty\r\n                });\r\n                addressID[addr] = 0;\r\n                // Remove index\r\n                votecast[addr] = false;\r\n                // Remove that vote was cast\r\n                refunds[addr] = 0;\r\n                // Remove refunds\r\n            }\r\n\r\n            // Reset timers.\r\n            endRegistrationPhase = 0;\r\n            endVotingPhase = 0;\r\n            delete addresses;\r\n\r\n            // reset voters activity\r\n            totalRegistered = 0;\r\n            totalEligible = 0;\r\n            totalVoted = 0;\r\n\r\n            // General values that need reset\r\n            ballotName = \"\";\r\n            options[0] = \"\";\r\n            options[1] = \"\";\r\n            finalTally[0] = 0;\r\n            finalTally[1] = 0;\r\n            minDeposit = 0;\r\n            currentState = State.CREATE;\r\n            return true;\r\n        }\r\n        return false;\r\n        //false means that current state != FINISH\r\n    }\r\n\r\n    function register(uint[2] xG, uint[3] vG, uint r) inState(State.REGISTER) payable returns (bool) {\r\n\r\n        if (deadlinePassed()) {\r\n            return false;\r\n        }\r\n\r\n        if (currentState != State.REGISTER) {\r\n            return false;\r\n        }\r\n\r\n        if (msg.value < minDeposit) {\r\n            return false;\r\n        }\r\n        \r\n        // Only eligible addresses can vote\r\n        if (eligible[msg.sender]) {\r\n            if(verifyKey(xG,r,vG)){\r\n                // Update voter's registration\r\n                refunds[msg.sender] = msg.value;\r\n                uint[2] memory empty;\r\n                addressID[msg.sender] = totalRegistered;\r\n                voters[totalRegistered] = Voter({\r\n                addr : msg.sender,\r\n                registeredKey : xG,\r\n                reconstructedKey : empty,\r\n                vote : empty\r\n                });\r\n                registered[msg.sender] = true;\r\n                totalRegistered += 1;\r\n                return true;\r\n            }\r\n            \r\n        }\r\n        return false;\r\n    }\r\n\r\n    function submitVote(uint[2] choice) inState(State.VOTE) returns (bool) {\r\n        if (now > endVotingPhase) {\r\n            return;\r\n            \r\n        }\r\n\r\n        uint c = addressID[msg.sender];\r\n\r\n        // Make sure the sender can vote, and hasn't already voted.\r\n        if (registered[msg.sender] && !votecast[msg.sender]) {\r\n            voters[c].vote = choice;\r\n            votecast[msg.sender] = true;\r\n            totalVoted += 1;\r\n            uint refund = refunds[msg.sender];\r\n            refunds[msg.sender] = 0;\r\n\r\n            if (!msg.sender.send(refund)) {//failed to refund\r\n                refunds[msg.sender] = refund;\r\n            }\r\n            return true;\r\n        }\r\n\r\n        return false;\r\n\r\n    }\r\n\r\n\r\n    // todo: fix EL SHEEE2 DA!!!!!!!!!!!!!!!!!!!!!!\r\n    //____________________________________________________________________________\r\n    //_________________should be separated in another contract____________________\r\n    //___________________________gives stupid error!!!____________________________\r\n    //____________________________________________________________________________\r\n\r\n    // Modulus for public keys\r\n    uint constant pp = 0xFFFFFFFFFFFFFFFFFFFFFFFFFFFFFFFFFFFFFFFFFFFFFFFFFFFFFFFEFFFFFC2F;\r\n\r\n    // Base point (generator) G\r\n    uint constant Gx = 0x79BE667EF9DCBBAC55A06295CE870B07029BFCDB2DCE28D959F2815B16F81798;\r\n    uint constant Gy = 0x483ADA7726A3C4655DA4FBFC0E1108A8FD17B448A68554199C47D08FFB10D4B8;\r\n\r\n    // New  point (generator) Y\r\n    uint constant Yx = 98038005178408974007512590727651089955354106077095278304532603697039577112780;\r\n    uint constant Yy = 1801119347122147381158502909947365828020117721497557484744596940174906898953;\r\n\r\n    // Modulus for private keys (sub-group)\r\n    uint constant nn = 0xFFFFFFFFFFFFFFFFFFFFFFFFFFFFFFFEBAAEDCE6AF48A03BBFD25E8CD0364141;\r\n\r\n    uint[2] G;\r\n    uint[2] Y;\r\n    // Parameters xG, r where r = v - xc, and vG.\r\n    // Verify that vG = rG + xcG!\r\n    function verifyKey(uint[2] xG, uint r, uint[3] vG) public returns (bool) {\r\n        uint[2] memory G;\r\n        G[0] = Gx;\r\n        G[1] = Gy;\r\n\r\n        // Check both keys are on the curve.\r\n        if (!Secp256k1.isPubKey(xG) || !Secp256k1.isPubKey(vG)) {\r\n            return false;\r\n            //Must be on the curve!\r\n        }\r\n\r\n        // Get c = H(g, g^{x}, g^{v});\r\n        bytes32 b_c = sha256(abi.encode(msg.sender, Gx, Gy, xG, vG));\r\n        uint c = uint(b_c);\r\n\r\n        // Get g^{r}, and g^{xc}\r\n        uint[3] memory rG = Secp256k1._mul(r, G);\r\n        uint[3] memory xcG = Secp256k1._mul(c, xG);\r\n\r\n        // Add both points together\r\n        uint[3] memory rGxcG = Secp256k1._add(rG, xcG);\r\n\r\n        // Convert to Affine Co-ordinates\r\n        ECCMath.toZ1(rGxcG, pp);\r\n\r\n        // Verify. Do they match?\r\n        if (rGxcG[0] == vG[0] && rGxcG[1] == vG[1]) {\r\n            return true;\r\n        } else {\r\n            return false;\r\n        }\r\n    }\r\n}",
  "sourcePath": "C:/Users/Jarvis/DZK_Vote/Dapp/contracts/VotingSys.sol",
  "compiler": {
    "name": "solc",
    "version": "0.4.26+commit.4563c3fc.Emscripten.clang"
  },
  "schemaVersion": "3.3.4",
  "updatedAt": "2021-07-09T16:00:52.352Z",
  "networkType": "ethereum",
  "devdoc": {
    "methods": {}
  },
  "userdoc": {
    "methods": {}
  }
}