{
  "contractName": "VotingSys",
  "abi": [
    {
      "constant": true,
      "inputs": [
        {
          "name": "",
          "type": "address"
        }
      ],
      "name": "eligible",
      "outputs": [
        {
          "name": "",
          "type": "bool"
        }
      ],
      "payable": false,
      "stateMutability": "view",
      "type": "function"
    },
    {
      "constant": true,
      "inputs": [
        {
          "name": "",
          "type": "address"
        }
      ],
      "name": "addressId",
      "outputs": [
        {
          "name": "",
          "type": "uint256"
        }
      ],
      "payable": false,
      "stateMutability": "view",
      "type": "function"
    },
    {
      "constant": true,
      "inputs": [],
      "name": "currentState",
      "outputs": [
        {
          "name": "",
          "type": "uint8"
        }
      ],
      "payable": false,
      "stateMutability": "view",
      "type": "function"
    },
    {
      "constant": true,
      "inputs": [],
      "name": "ballotName",
      "outputs": [
        {
          "name": "",
          "type": "string"
        }
      ],
      "payable": false,
      "stateMutability": "view",
      "type": "function"
    },
    {
      "constant": true,
      "inputs": [],
      "name": "totalEligible",
      "outputs": [
        {
          "name": "",
          "type": "uint256"
        }
      ],
      "payable": false,
      "stateMutability": "view",
      "type": "function"
    },
    {
      "constant": true,
      "inputs": [
        {
          "name": "",
          "type": "uint256"
        }
      ],
      "name": "finalTally",
      "outputs": [
        {
          "name": "",
          "type": "uint256"
        }
      ],
      "payable": false,
      "stateMutability": "view",
      "type": "function"
    },
    {
      "constant": true,
      "inputs": [
        {
          "name": "",
          "type": "uint256"
        }
      ],
      "name": "options",
      "outputs": [
        {
          "name": "",
          "type": "string"
        }
      ],
      "payable": false,
      "stateMutability": "view",
      "type": "function"
    },
    {
      "constant": true,
      "inputs": [],
      "name": "minDeposit",
      "outputs": [
        {
          "name": "",
          "type": "uint256"
        }
      ],
      "payable": false,
      "stateMutability": "view",
      "type": "function"
    },
    {
      "constant": true,
      "inputs": [
        {
          "name": "",
          "type": "address"
        }
      ],
      "name": "voteCast",
      "outputs": [
        {
          "name": "",
          "type": "bool"
        }
      ],
      "payable": false,
      "stateMutability": "view",
      "type": "function"
    },
    {
      "constant": true,
      "inputs": [
        {
          "name": "",
          "type": "uint256"
        }
      ],
      "name": "prevFinalTally",
      "outputs": [
        {
          "name": "",
          "type": "uint256"
        }
      ],
      "payable": false,
      "stateMutability": "view",
      "type": "function"
    },
    {
      "constant": true,
      "inputs": [],
      "name": "owner",
      "outputs": [
        {
          "name": "",
          "type": "address"
        }
      ],
      "payable": false,
      "stateMutability": "view",
      "type": "function"
    },
    {
      "constant": true,
      "inputs": [],
      "name": "totalRegistered",
      "outputs": [
        {
          "name": "",
          "type": "uint256"
        }
      ],
      "payable": false,
      "stateMutability": "view",
      "type": "function"
    },
    {
      "constant": true,
      "inputs": [],
      "name": "endVotingPhase",
      "outputs": [
        {
          "name": "",
          "type": "uint256"
        }
      ],
      "payable": false,
      "stateMutability": "view",
      "type": "function"
    },
    {
      "constant": true,
      "inputs": [],
      "name": "endRegistrationPhase",
      "outputs": [
        {
          "name": "",
          "type": "uint256"
        }
      ],
      "payable": false,
      "stateMutability": "view",
      "type": "function"
    },
    {
      "constant": true,
      "inputs": [
        {
          "name": "",
          "type": "address"
        }
      ],
      "name": "registered",
      "outputs": [
        {
          "name": "",
          "type": "bool"
        }
      ],
      "payable": false,
      "stateMutability": "view",
      "type": "function"
    },
    {
      "constant": true,
      "inputs": [],
      "name": "totalVoted",
      "outputs": [
        {
          "name": "",
          "type": "uint256"
        }
      ],
      "payable": false,
      "stateMutability": "view",
      "type": "function"
    },
    {
      "constant": true,
      "inputs": [
        {
          "name": "",
          "type": "address"
        }
      ],
      "name": "refunds",
      "outputs": [
        {
          "name": "",
          "type": "uint256"
        }
      ],
      "payable": false,
      "stateMutability": "view",
      "type": "function"
    },
    {
      "constant": true,
      "inputs": [
        {
          "name": "",
          "type": "uint256"
        }
      ],
      "name": "voters",
      "outputs": [
        {
          "name": "addr",
          "type": "address"
        }
      ],
      "payable": false,
      "stateMutability": "view",
      "type": "function"
    },
    {
      "constant": true,
      "inputs": [
        {
          "name": "",
          "type": "uint256"
        }
      ],
      "name": "addresses",
      "outputs": [
        {
          "name": "",
          "type": "address"
        }
      ],
      "payable": false,
      "stateMutability": "view",
      "type": "function"
    },
    {
      "constant": false,
      "inputs": [
        {
          "name": "newOwner",
          "type": "address"
        }
      ],
      "name": "transferOwnership",
      "outputs": [],
      "payable": false,
      "stateMutability": "nonpayable",
      "type": "function"
    },
    {
      "inputs": [],
      "payable": false,
      "stateMutability": "nonpayable",
      "type": "constructor"
    },
    {
      "constant": false,
      "inputs": [],
      "name": "getVoter",
      "outputs": [
        {
          "name": "_registeredKey",
          "type": "uint256[2]"
        },
        {
          "name": "_reconstructedKey",
          "type": "uint256[2]"
        }
      ],
      "payable": false,
      "stateMutability": "nonpayable",
      "type": "function"
    },
    {
      "constant": false,
      "inputs": [
        {
          "name": "_ballotStatement",
          "type": "string"
        },
        {
          "name": "option1",
          "type": "string"
        },
        {
          "name": "option2",
          "type": "string"
        },
        {
          "name": "_endRegistrationPhase",
          "type": "uint256"
        },
        {
          "name": "_endVotingPhase",
          "type": "uint256"
        },
        {
          "name": "_depositRequired",
          "type": "uint256"
        },
        {
          "name": "addr",
          "type": "address[]"
        }
      ],
      "name": "creatBallot",
      "outputs": [
        {
          "name": "",
          "type": "bool"
        }
      ],
      "payable": false,
      "stateMutability": "nonpayable",
      "type": "function"
    },
    {
      "constant": false,
      "inputs": [
        {
          "name": "addr",
          "type": "address[]"
        }
      ],
      "name": "addEligible",
      "outputs": [],
      "payable": false,
      "stateMutability": "nonpayable",
      "type": "function"
    },
    {
      "constant": false,
      "inputs": [],
      "name": "deadlinePassed",
      "outputs": [
        {
          "name": "",
          "type": "bool"
        }
      ],
      "payable": false,
      "stateMutability": "nonpayable",
      "type": "function"
    },
    {
      "constant": false,
      "inputs": [
        {
          "name": "xG",
          "type": "uint256[2]"
        },
        {
          "name": "vG",
          "type": "uint256[3]"
        },
        {
          "name": "r",
          "type": "uint256"
        }
      ],
      "name": "register",
      "outputs": [
        {
          "name": "",
          "type": "bool"
        }
      ],
      "payable": true,
      "stateMutability": "payable",
      "type": "function"
    },
    {
      "constant": false,
      "inputs": [],
      "name": "finishRegistrationPhase",
      "outputs": [
        {
          "name": "",
          "type": "bool"
        }
      ],
      "payable": false,
      "stateMutability": "nonpayable",
      "type": "function"
    },
    {
      "constant": false,
      "inputs": [
        {
          "name": "params",
          "type": "uint256[4]"
        },
        {
          "name": "y",
          "type": "uint256[2]"
        },
        {
          "name": "a1",
          "type": "uint256[2]"
        },
        {
          "name": "b1",
          "type": "uint256[2]"
        },
        {
          "name": "a2",
          "type": "uint256[2]"
        },
        {
          "name": "b2",
          "type": "uint256[2]"
        }
      ],
      "name": "submitVote",
      "outputs": [
        {
          "name": "",
          "type": "bool"
        }
      ],
      "payable": false,
      "stateMutability": "nonpayable",
      "type": "function"
    },
    {
      "constant": false,
      "inputs": [],
      "name": "computeTally",
      "outputs": [
        {
          "name": "",
          "type": "bool"
        }
      ],
      "payable": false,
      "stateMutability": "nonpayable",
      "type": "function"
    },
    {
      "constant": false,
      "inputs": [
        {
          "name": "xG",
          "type": "uint256[2]"
        },
        {
          "name": "r",
          "type": "uint256"
        },
        {
          "name": "vG",
          "type": "uint256[3]"
        }
      ],
      "name": "verifyKey",
      "outputs": [
        {
          "name": "",
          "type": "bool"
        }
      ],
      "payable": false,
      "stateMutability": "nonpayable",
      "type": "function"
    },
    {
      "constant": false,
      "inputs": [
        {
          "name": "params",
          "type": "uint256[4]"
        },
        {
          "name": "xG",
          "type": "uint256[2]"
        },
        {
          "name": "yG",
          "type": "uint256[2]"
        },
        {
          "name": "y",
          "type": "uint256[2]"
        },
        {
          "name": "a1",
          "type": "uint256[2]"
        },
        {
          "name": "b1",
          "type": "uint256[2]"
        },
        {
          "name": "a2",
          "type": "uint256[2]"
        },
        {
          "name": "b2",
          "type": "uint256[2]"
        }
      ],
      "name": "verify1outof2ZKP",
      "outputs": [
        {
          "name": "",
          "type": "bool"
        }
      ],
      "payable": false,
      "stateMutability": "nonpayable",
      "type": "function"
    }
  ],
  "bytecode": "0x60806040523480156200001157600080fd5b50336000806101000a81548173ffffffffffffffffffffffffffffffffffffffff021916908373ffffffffffffffffffffffffffffffffffffffff1602179055506000601460006101000a81548160ff021916908360038111156200007257fe5b0217905550615f5d80620000876000396000f300608060405260043610610180576000357c0100000000000000000000000000000000000000000000000000000000900463ffffffff16806305c5aabc146101855780630713b13914610228578063078002ac1461028357806308de18c3146102da5780630997a83a146103705780630c3f6acf1461039f5780631b26586c146103d85780632b37f53c146104685780633138ffe7146104ea5780633a5f547a14610515578063409e22051461055657806341b3d185146105fc57806357dee00d1461062757806363333cb2146106825780636447d208146106e8578063648136d41461071757806377df5fc81461086c5780638460be611461089b5780638da5cb5b146108dc578063927416c014610933578063a300e2241461095e578063aeb32ae314610989578063b21a64da14610af7578063b2dd5c0714610b22578063b3a2273f14610b7d578063bc3da53514610ba8578063c07bbc8714610bff578063da58c7d914610db2578063edf26d9b14610e1f578063f2fde38b14610e8c575b600080fd5b34801561019157600080fd5b5061020e6004803603810190808060400190600280602002604051908101604052809291908260026020028082843782019150505050509192919290803590602001909291908060600190600380602002604051908101604052809291908260036020028082843782019150505050509192919290505050610ecf565b604051808215151515815260200191505060405180910390f35b34801561023457600080fd5b50610269600480360381019080803573ffffffffffffffffffffffffffffffffffffffff1690602001909291905050506111fd565b604051808215151515815260200191505060405180910390f35b34801561028f57600080fd5b506102c4600480360381019080803573ffffffffffffffffffffffffffffffffffffffff16906020019092919050505061121d565b6040518082815260200191505060405180910390f35b6103566004803603810190808060400190600280602002604051908101604052809291908260026020028082843782019150505050509192919290806060019060038060200260405190810160405280929190826003602002808284378201915050505050919291929080359060200190929190505050611235565b604051808215151515815260200191505060405180910390f35b34801561037c57600080fd5b50610385611579565b604051808215151515815260200191505060405180910390f35b3480156103ab57600080fd5b506103b4611d45565b604051808260038111156103c457fe5b60ff16815260200191505060405180910390f35b3480156103e457600080fd5b506103ed611d58565b6040518080602001828103825283818151815260200191508051906020019080838360005b8381101561042d578082015181840152602081019050610412565b50505050905090810190601f16801561045a5780820380516001836020036101000a031916815260200191505b509250505060405180910390f35b34801561047457600080fd5b5061047d611df6565b6040518083600260200280838360005b838110156104a857808201518184015260208101905061048d565b5050505090500182600260200280838360005b838110156104d65780820151818401526020810190506104bb565b505050509050019250505060405180910390f35b3480156104f657600080fd5b506104ff611ef7565b6040518082815260200191505060405180910390f35b34801561052157600080fd5b5061054060048036038101908080359060200190929190505050611efd565b6040518082815260200191505060405180910390f35b34801561056257600080fd5b5061058160048036038101908080359060200190929190505050611f17565b6040518080602001828103825283818151815260200191508051906020019080838360005b838110156105c15780820151818401526020810190506105a6565b50505050905090810190601f1680156105ee5780820380516001836020036101000a031916815260200191505b509250505060405180910390f35b34801561060857600080fd5b50610611611fc9565b6040518082815260200191505060405180910390f35b34801561063357600080fd5b50610668600480360381019080803573ffffffffffffffffffffffffffffffffffffffff169060200190929190505050611fcf565b604051808215151515815260200191505060405180910390f35b34801561068e57600080fd5b506106e660048036038101908080359060200190820180359060200190808060200260200160405190810160405280939291908181526020018383602002808284378201915050505050509192919290505050611fef565b005b3480156106f457600080fd5b506106fd612209565b604051808215151515815260200191505060405180910390f35b34801561072357600080fd5b506108526004803603810190808060800190600480602002604051908101604052809291908260046020028082843782019150505050509192919290806040019060028060200260405190810160405280929190826002602002808284378201915050505050919291929080604001906002806020026040519081016040528092919082600260200280828437820191505050505091929192908060400190600280602002604051908101604052809291908260026020028082843782019150505050509192919290806040019060028060200260405190810160405280929190826002602002808284378201915050505050919291929080604001906002806020026040519081016040528092919082600260200280828437820191505050505091929192905050506128a6565b604051808215151515815260200191505060405180910390f35b34801561087857600080fd5b50610881612c69565b604051808215151515815260200191505060405180910390f35b3480156108a757600080fd5b506108c6600480360381019080803590602001909291905050506130d4565b6040518082815260200191505060405180910390f35b3480156108e857600080fd5b506108f16130ee565b604051808273ffffffffffffffffffffffffffffffffffffffff1673ffffffffffffffffffffffffffffffffffffffff16815260200191505060405180910390f35b34801561093f57600080fd5b50610948613113565b6040518082815260200191505060405180910390f35b34801561096a57600080fd5b50610973613119565b6040518082815260200191505060405180910390f35b34801561099557600080fd5b50610add600480360381019080803590602001908201803590602001908080601f0160208091040260200160405190810160405280939291908181526020018383808284378201915050505050509192919290803590602001908201803590602001908080601f0160208091040260200160405190810160405280939291908181526020018383808284378201915050505050509192919290803590602001908201803590602001908080601f01602080910402602001604051908101604052809392919081815260200183838082843782019150505050505091929192908035906020019092919080359060200190929190803590602001909291908035906020019082018035906020019080806020026020016040519081016040528093929190818152602001838360200280828437820191505050505050919291929050505061311f565b604051808215151515815260200191505060405180910390f35b348015610b0357600080fd5b50610b0c613297565b6040518082815260200191505060405180910390f35b348015610b2e57600080fd5b50610b63600480360381019080803573ffffffffffffffffffffffffffffffffffffffff16906020019092919050505061329d565b604051808215151515815260200191505060405180910390f35b348015610b8957600080fd5b50610b926132bd565b6040518082815260200191505060405180910390f35b348015610bb457600080fd5b50610be9600480360381019080803573ffffffffffffffffffffffffffffffffffffffff1690602001909291905050506132c3565b6040518082815260200191505060405180910390f35b348015610c0b57600080fd5b50610d98600480360381019080806080019060048060200260405190810160405280929190826004602002808284378201915050505050919291929080604001906002806020026040519081016040528092919082600260200280828437820191505050505091929192908060400190600280602002604051908101604052809291908260026020028082843782019150505050509192919290806040019060028060200260405190810160405280929190826002602002808284378201915050505050919291929080604001906002806020026040519081016040528092919082600260200280828437820191505050505091929192908060400190600280602002604051908101604052809291908260026020028082843782019150505050509192919290806040019060028060200260405190810160405280929190826002602002808284378201915050505050919291929080604001906002806020026040519081016040528092919082600260200280828437820191505050505091929192905050506132db565b604051808215151515815260200191505060405180910390f35b348015610dbe57600080fd5b50610ddd60048036038101908080359060200190929190505050613b58565b604051808273ffffffffffffffffffffffffffffffffffffffff1673ffffffffffffffffffffffffffffffffffffffff16815260200191505060405180910390f35b348015610e2b57600080fd5b50610e4a60048036038101908080359060200190929190505050613b96565b604051808273ffffffffffffffffffffffffffffffffffffffff1673ffffffffffffffffffffffffffffffffffffffff16815260200191505060405180910390f35b348015610e9857600080fd5b50610ecd600480360381019080803573ffffffffffffffffffffffffffffffffffffffff169060200190929190505050613bd4565b005b6000610ed9615d4d565b600080610ee4615d6f565b610eec615d6f565b610ef4615d6f565b7f79be667ef9dcbbac55a06295ce870b07029bfcdb2dce28d959f2815b16f81798866000600281101515610f2457fe5b6020020181815250507f483ada7726a3c4655da4fbfc0e1108a8fd17b448a68554199c47d08ffb10d4b8866001600281101515610f5d57fe5b602002018181525050610f6f8a613c72565b1580610f815750610f7f88613c84565b155b15610f8f57600096506111f0565b6002337f79be667ef9dcbbac55a06295ce870b07029bfcdb2dce28d959f2815b16f817987f483ada7726a3c4655da4fbfc0e1108a8fd17b448a68554199c47d08ffb10d4b88d8c604051602001808673ffffffffffffffffffffffffffffffffffffffff1673ffffffffffffffffffffffffffffffffffffffff16815260200185815260200184815260200183600260200280838360005b83811015611042578082015181840152602081019050611027565b5050505090500182600360200280838360005b83811015611070578082015181840152602081019050611055565b50505050905001955050505050506040516020818303038152906040526040518082805190602001908083835b6020831015156110c2578051825260208201915060208101905060208303925061109d565b6001836020036101000a0380198251168184511680821785525050505050509050019150506020604051808303816000865af1158015611106573d6000803e3d6000fd5b5050506040513d602081101561111b57600080fd5b810190808051906020019092919050505094508460019004935061113f8987613cf7565b925061114b848b613cf7565b91506111578383614589565b9050611183817ffffffffffffffffffffffffffffffffffffffffffffffffffffffffefffffc2f614aaf565b87600060038110151561119257fe5b60200201518160006003811015156111a657fe5b60200201511480156111dd57508760016003811015156111c257fe5b60200201518160016003811015156111d657fe5b6020020151145b156111eb57600196506111f0565b600096505b5050505050509392505050565b60046020528060005260406000206000915054906101000a900460ff1681565b60026020528060005260406000206000915090505481565b600061123f615d4d565b600180600381111561124d57fe5b601460009054906101000a900460ff16600381111561126857fe5b14151561127457600080fd5b61127c612c69565b1561128a5760009250611570565b6001600381111561129757fe5b601460009054906101000a900460ff1660038111156112b257fe5b1415156112c25760009250611570565b6015543410156112d55760009250611570565b600460003373ffffffffffffffffffffffffffffffffffffffff1673ffffffffffffffffffffffffffffffffffffffff16815260200190815260200160002060009054906101000a900460ff161561156b57611332868587610ecf565b1561156a5734600760003373ffffffffffffffffffffffffffffffffffffffff1673ffffffffffffffffffffffffffffffffffffffff16815260200190815260200160002081905550600a54600260003373ffffffffffffffffffffffffffffffffffffffff1673ffffffffffffffffffffffffffffffffffffffff168152602001908152602001600020819055506080604051908101604052803373ffffffffffffffffffffffffffffffffffffffff1681526020018781526020018381526020018381525060036000600a54815260200190815260200160002060008201518160000160006101000a81548173ffffffffffffffffffffffffffffffffffffffff021916908373ffffffffffffffffffffffffffffffffffffffff16021790555060208201518160010190600261146c929190615d92565b50604082015181600301906002611484929190615d92565b5060608201518160050190600261149c929190615d92565b509050506001600560003373ffffffffffffffffffffffffffffffffffffffff1673ffffffffffffffffffffffffffffffffffffffff16815260200190815260200160002060006101000a81548160ff0219169083151502179055506000600660003373ffffffffffffffffffffffffffffffffffffffff1673ffffffffffffffffffffffffffffffffffffffff16815260200190815260200160002060006101000a81548160ff0219169083151502179055506001600a6000828254019250508190555060019250611570565b5b600092505b50509392505050565b6000611583615d4d565b61158b615d6f565b611593615d4d565b60008061159e615d6f565b60028060038111156115ac57fe5b601460009054906101000a900460ff1660038111156115c757fe5b1415156115d357600080fd5b3373ffffffffffffffffffffffffffffffffffffffff166000809054906101000a900473ffffffffffffffffffffffffffffffffffffffff1673ffffffffffffffffffffffffffffffffffffffff1614151561162e57600080fd5b7f79be667ef9dcbbac55a06295ce870b07029bfcdb2dce28d959f2815b16f8179887600060028110151561165e57fe5b6020020181815250507f483ada7726a3c4655da4fbfc0e1108a8fd17b448a68554199c47d08ffb10d4b887600160028110151561169757fe5b602002018181525050600092505b600a5483101561182957600660006003600086815260200190815260200160002060000160009054906101000a900473ffffffffffffffffffffffffffffffffffffffff1673ffffffffffffffffffffffffffffffffffffffff1673ffffffffffffffffffffffffffffffffffffffff16815260200190815260200160002060009054906101000a900460ff16151561173d57600080fd5b6003600084815260200190815260200160002060050160028060200260405190810160405280929190826002801561178a576020028201915b815481526020019060010190808311611776575b505050505094506000831415611811578460006002811015156117a957fe5b60200201518660006003811015156117bd57fe5b6020020181815250508460016002811015156117d557fe5b60200201518660016003811015156117e957fe5b602002018181525050600186600260038110151561180357fe5b60200201818152505061181c565b61181b8686614b7c565b5b82806001019350506116a5565b6003601460006101000a81548160ff0219169083600381111561184857fe5b0217905550600086600060038110151561185e57fe5b602002015114156119a85760006010600060028110151561187b57fe5b0181905550600a546010600160028110151561189357fe5b0181905550600760003373ffffffffffffffffffffffffffffffffffffffff1673ffffffffffffffffffffffffffffffffffffffff1681526020019081526020016000205493506000600760003373ffffffffffffffffffffffffffffffffffffffff1673ffffffffffffffffffffffffffffffffffffffff168152602001908152602001600020819055503373ffffffffffffffffffffffffffffffffffffffff166108fc859081150290604051600060405180830381858888f19350505050151561199f5783600760003373ffffffffffffffffffffffffffffffffffffffff1673ffffffffffffffffffffffffffffffffffffffff168152602001908152602001600020819055505b60019750611d3b565b6119d2867ffffffffffffffffffffffffffffffffffffffffffffffffffffffffefffffc2f614aaf565b8660006002811015156119e157fe5b60200201518260006003811015156119f557fe5b602002018181525050866001600281101515611a0d57fe5b6020020151826001600381101515611a2157fe5b6020020181815250506001826002600381101515611a3b57fe5b602002018181525050600192505b600a5483111515611c0157816000600381101515611a6357fe5b6020020151866000600381101515611a7757fe5b60200201511415611bc0578260106000600281101515611a9357fe5b0181905550600a5460106001600281101515611aab57fe5b0181905550600760003373ffffffffffffffffffffffffffffffffffffffff1673ffffffffffffffffffffffffffffffffffffffff1681526020019081526020016000205493506000600760003373ffffffffffffffffffffffffffffffffffffffff1673ffffffffffffffffffffffffffffffffffffffff168152602001908152602001600020819055503373ffffffffffffffffffffffffffffffffffffffff166108fc859081150290604051600060405180830381858888f193505050501515611bb75783600760003373ffffffffffffffffffffffffffffffffffffffff1673ffffffffffffffffffffffffffffffffffffffff168152602001908152602001600020819055505b60019750611d3b565b611bca8288614b7c565b611bf4827ffffffffffffffffffffffffffffffffffffffffffffffffffffffffefffffc2f614aaf565b8280600101935050611a49565b600060106000600281101515611c1357fe5b0181905550600060106001600281101515611c2a57fe5b0181905550600760003373ffffffffffffffffffffffffffffffffffffffff1673ffffffffffffffffffffffffffffffffffffffff1681526020019081526020016000205493506000600760003373ffffffffffffffffffffffffffffffffffffffff1673ffffffffffffffffffffffffffffffffffffffff168152602001908152602001600020819055503373ffffffffffffffffffffffffffffffffffffffff166108fc859081150290604051600060405180830381858888f193505050501515611d365783600760003373ffffffffffffffffffffffffffffffffffffffff1673ffffffffffffffffffffffffffffffffffffffff168152602001908152602001600020819055505b600097505b5050505050505090565b601460009054906101000a900460ff1681565b600d8054600181600116156101000203166002900480601f016020809104026020016040519081016040528092919081815260200182805460018160011615610100020316600290048015611dee5780601f10611dc357610100808354040283529160200191611dee565b820191906000526020600020905b815481529060010190602001808311611dd157829003601f168201915b505050505081565b611dfe615d4d565b611e06615d4d565b6000600260003373ffffffffffffffffffffffffffffffffffffffff1673ffffffffffffffffffffffffffffffffffffffff16815260200190815260200160002054905060036000828152602001908152602001600020600101600280602002604051908101604052809291908260028015611e97576020028201915b815481526020019060010190808311611e83575b5050505050925060036000828152602001908152602001600020600301600280602002604051908101604052809291908260028015611eeb576020028201915b815481526020019060010190808311611ed7575b50505050509150509091565b600b5481565b601081600281101515611f0c57fe5b016000915090505481565b600e81600281101515611f2657fe5b016000915090508054600181600116156101000203166002900480601f016020809104026020016040519081016040528092919081815260200182805460018160011615610100020316600290048015611fc15780601f10611f9657610100808354040283529160200191611fc1565b820191906000526020600020905b815481529060010190602001808311611fa457829003601f168201915b505050505081565b60155481565b60066020528060005260406000206000915054906101000a900460ff1681565b60006001806003811115611fff57fe5b601460009054906101000a900460ff16600381111561201a57fe5b14151561202657600080fd5b3373ffffffffffffffffffffffffffffffffffffffff166000809054906101000a900473ffffffffffffffffffffffffffffffffffffffff1673ffffffffffffffffffffffffffffffffffffffff1614151561208157600080fd5b600091505b8251821015612204576004600084848151811015156120a157fe5b9060200190602002015173ffffffffffffffffffffffffffffffffffffffff1673ffffffffffffffffffffffffffffffffffffffff16815260200190815260200160002060009054906101000a900460ff1615156121f757600160046000858581518110151561210d57fe5b9060200190602002015173ffffffffffffffffffffffffffffffffffffffff1673ffffffffffffffffffffffffffffffffffffffff16815260200190815260200160002060006101000a81548160ff0219169083151502179055506001838381518110151561217857fe5b9060200190602002015190806001815401808255809150509060018203906000526020600020016000909192909190916101000a81548173ffffffffffffffffffffffffffffffffffffffff021916908373ffffffffffffffffffffffffffffffffffffffff160217905550506001600b600082825401925050819055505b8180600101925050612086565b505050565b6000612213615d4d565b61221b615d6f565b612223615d6f565b61222b615d6f565b6000600180600381111561223b57fe5b601460009054906101000a900460ff16600381111561225657fe5b14151561226257600080fd5b3373ffffffffffffffffffffffffffffffffffffffff166000809054906101000a900473ffffffffffffffffffffffffffffffffffffffff1673ffffffffffffffffffffffffffffffffffffffff161415156122bd57600080fd5b6003600a5410156122cd5761289d565b600360006001815260200190815260200160002060010160006002811015156122f257fe5b015483600060038110151561230357fe5b6020020181815250506003600060018152602001908152602001600020600101600160028110151561233157fe5b015483600160038110151561234257fe5b602002018181525050600183600260038110151561235c57fe5b602002018181525050600291505b600a548210156123dc576123cf83600360008581526020019081526020016000206001016002806020026040519081016040528092919082600280156123c5576020028201915b8154815260200190600101908083116123b1575b5050505050614b7c565b818060010192505061236a565b612406837ffffffffffffffffffffffffffffffffffffffffffffffffffffffffefffffc2f614aaf565b82600060038110151561241557fe5b602002015160036000808152602001908152602001600020600301600060028110151561243e57fe5b018190555082600160038110151561245257fe5b60200201517ffffffffffffffffffffffffffffffffffffffffffffffffffffffffefffffc2f0360036000808152602001908152602001600020600301600160028110151561249d57fe5b0181905550600191505b600a54821015612874576001821415612555576003600080815260200190815260200160002060010160006002811015156124de57fe5b01548460006003811015156124ef57fe5b60200201818152505060036000808152602001908152602001600020600101600160028110151561251c57fe5b015484600160038110151561252d57fe5b602002018181525050600184600260038110151561254757fe5b6020020181815250506125b4565b6125b384600360006001860381526020019081526020016000206001016002806020026040519081016040528092919082600280156125a9576020028201915b815481526020019060010190808311612595575b5050505050614b7c565b5b6001600a540382141561266a576125eb847ffffffffffffffffffffffffffffffffffffffffffffffffffffffffefffffc2f614aaf565b8360006003811015156125fa57fe5b602002015160036000848152602001908152602001600020600301600060028110151561262357fe5b018190555083600160038110151561263757fe5b602002015160036000848152602001908152602001600020600301600160028110151561266057fe5b0181905550612867565b60036000838152602001908152602001600020600101600060028110151561268e57fe5b015486600060028110151561269f57fe5b6020020181815250506003600083815260200190815260200160002060010160016002811015156126cc57fe5b01547ffffffffffffffffffffffffffffffffffffffffffffffffffffffffefffffc2f038660016002811015156126ff57fe5b6020020181815250506127128387614b7c565b61273c837ffffffffffffffffffffffffffffffffffffffffffffffffffffffffefffffc2f614aaf565b82600060038110151561274b57fe5b602002015186600060028110151561275f57fe5b60200201818152505082600160038110151561277757fe5b60200201517ffffffffffffffffffffffffffffffffffffffffffffffffffffffffefffffc2f038660016002811015156127ad57fe5b6020020181815250506127c0848761505d565b94506127ec857ffffffffffffffffffffffffffffffffffffffffffffffffffffffffefffffc2f614aaf565b8460006003811015156127fb57fe5b602002015160036000848152602001908152602001600020600301600060028110151561282457fe5b018190555084600160038110151561283857fe5b602002015160036000848152602001908152602001600020600301600160028110151561286157fe5b01819055505b81806001019250506124a7565b6002601460006101000a81548160ff0219169083600381111561289357fe5b0217905550600196505b50505050505090565b6000806128b1615d4d565b6128b9615d4d565b6000600260003373ffffffffffffffffffffffffffffffffffffffff1673ffffffffffffffffffffffffffffffffffffffff1681526020019081526020016000205493506003600085815260200190815260200160002060030160028060200260405190810160405280929190826002801561294a576020028201915b815481526020019060010190808311612936575b505050505092506003600085815260200190815260200160002060010160028060200260405190810160405280929190826002801561299e576020028201915b81548152602001906001019080831161298a575b50505050509150600560003373ffffffffffffffffffffffffffffffffffffffff1673ffffffffffffffffffffffffffffffffffffffff16815260200190815260200160002060009054906101000a900460ff168015612a485750600660003373ffffffffffffffffffffffffffffffffffffffff1673ffffffffffffffffffffffffffffffffffffffff16815260200190815260200160002060009054906101000a900460ff16155b15612c5657612a5d8b83858d8d8d8d8d6132db565b15612c5557896000600281101515612a7157fe5b6020020151600360008681526020019081526020016000206005016000600281101515612a9a57fe5b0181905550896001600281101515612aae57fe5b6020020151600360008681526020019081526020016000206005016001600281101515612ad757fe5b01819055506001600660003373ffffffffffffffffffffffffffffffffffffffff1673ffffffffffffffffffffffffffffffffffffffff16815260200190815260200160002060006101000a81548160ff0219169083151502179055506001600c60008282540192505081905550600760003373ffffffffffffffffffffffffffffffffffffffff1673ffffffffffffffffffffffffffffffffffffffff1681526020019081526020016000205490506000600760003373ffffffffffffffffffffffffffffffffffffffff1673ffffffffffffffffffffffffffffffffffffffff168152602001908152602001600020819055503373ffffffffffffffffffffffffffffffffffffffff166108fc829081150290604051600060405180830381858888f193505050501515612c4c5780600760003373ffffffffffffffffffffffffffffffffffffffff1673ffffffffffffffffffffffffffffffffffffffff168152602001908152602001600020819055505b60019450612c5b565b5b600094505b505050509695505050505050565b6000612c73615d4d565b600080600954421115612ca5576003601460006101000a81548160ff02191690836003811115612c9f57fe5b02179055505b600380811115612cb157fe5b601460009054906101000a900460ff166003811115612ccc57fe5b14156130c957600091505b600180549050821015612f9d57600182815481101515612cf357fe5b9060005260206000200160009054906101000a900473ffffffffffffffffffffffffffffffffffffffff1690506000600460008373ffffffffffffffffffffffffffffffffffffffff1673ffffffffffffffffffffffffffffffffffffffff16815260200190815260200160002060006101000a81548160ff0219169083151502179055506000600560008373ffffffffffffffffffffffffffffffffffffffff1673ffffffffffffffffffffffffffffffffffffffff16815260200190815260200160002060006101000a81548160ff021916908315150217905550608060405190810160405280600073ffffffffffffffffffffffffffffffffffffffff168152602001848152602001848152602001848152506003600084815260200190815260200160002060008201518160000160006101000a81548173ffffffffffffffffffffffffffffffffffffffff021916908373ffffffffffffffffffffffffffffffffffffffff160217905550602082015181600101906002612e7a929190615d92565b50604082015181600301906002612e92929190615d92565b50606082015181600501906002612eaa929190615d92565b509050506000600260008373ffffffffffffffffffffffffffffffffffffffff1673ffffffffffffffffffffffffffffffffffffffff168152602001908152602001600020819055506000600660008373ffffffffffffffffffffffffffffffffffffffff1673ffffffffffffffffffffffffffffffffffffffff16815260200190815260200160002060006101000a81548160ff0219169083151502179055506000600760008373ffffffffffffffffffffffffffffffffffffffff1673ffffffffffffffffffffffffffffffffffffffff168152602001908152602001600020819055508180600101925050612cd7565b6000600881905550600060098190555060016000612fbb9190615dd2565b6000600a819055506000600b819055506000600c819055506020604051908101604052806000815250600d9080519060200190612ff9929190615df3565b506020604051908101604052806000815250600e600060028110151561301b57fe5b01908051906020019061302f929190615df3565b506020604051908101604052806000815250600e600160028110151561305157fe5b019080519060200190613065929190615df3565b5060006010600060028110151561307857fe5b018190555060006010600160028110151561308f57fe5b018190555060006015819055506000601460006101000a81548160ff021916908360038111156130bb57fe5b0217905550600193506130ce565b600093505b50505090565b6012816002811015156130e357fe5b016000915090505481565b6000809054906101000a900473ffffffffffffffffffffffffffffffffffffffff1681565b600a5481565b60095481565b60008080600381111561312e57fe5b601460009054906101000a900460ff16600381111561314957fe5b14151561315557600080fd5b3373ffffffffffffffffffffffffffffffffffffffff166000809054906101000a900473ffffffffffffffffffffffffffffffffffffffff1673ffffffffffffffffffffffffffffffffffffffff161415156131b057600080fd5b428610156131c1576000915061328b565b858510156131d2576000915061328b565b6131db8361551f565b15156131ea576000915061328b565b88600d9080519060200190613200929190615df3565b5087600e600060028110151561321257fe5b019080519060200190613226929190615df3565b5086600e600160028110151561323857fe5b01908051906020019061324c929190615df3565b508560088190555084600981905550836015819055506001601460006101000a81548160ff0219169083600381111561328157fe5b0217905550600191505b50979650505050505050565b60085481565b60056020528060005260406000206000915054906101000a900460ff1681565b600c5481565b60076020528060005260406000206000915090505481565b60006132e5615d4d565b6132ed615d6f565b6132f5615d6f565b6132fd615d4d565b7f79be667ef9dcbbac55a06295ce870b07029bfcdb2dce28d959f2815b16f8179881600060028110151561332d57fe5b6020020181815250507f483ada7726a3c4655da4fbfc0e1108a8fd17b448a68554199c47d08ffb10d4b881600160028110151561336657fe5b6020020181815250506133788c613c72565b158061338a57506133888b613c72565b155b8061339b57506133998a613c72565b155b806133ac57506133aa89613c72565b155b806133bd57506133bb88613c72565b155b806133ce57506133cc87613c72565b155b806133df57506133dd86613c72565b155b156133ed5760009450613b48565b7ffffffffffffffffffffffffffffffffebaaedce6af48a03bbfd25e8cd036414180151561341757fe5b8d600160048110151561342657fe5b60200201518e600060048110151561343a57fe5b6020020151086002338e8d8d8d8d8d604051602001808873ffffffffffffffffffffffffffffffffffffffff1673ffffffffffffffffffffffffffffffffffffffff16815260200187600260200280838360005b838110156134a957808201518184015260208101905061348e565b5050505090500186600260200280838360005b838110156134d75780820151818401526020810190506134bc565b5050505090500185600260200280838360005b838110156135055780820151818401526020810190506134ea565b5050505090500184600260200280838360005b83811015613533578082015181840152602081019050613518565b5050505090500183600260200280838360005b83811015613561578082015181840152602081019050613546565b5050505090500182600260200280838360005b8381101561358f578082015181840152602081019050613574565b505050509050019750505050505050506040516020818303038152906040526040518082805190602001908083835b6020831015156135e357805182526020820191506020810190506020830392506135be565b6001836020036101000a0380198251168184511680821785525050505050509050019150506020604051808303816000865af1158015613627573d6000803e3d6000fd5b5050506040513d602081101561363c57600080fd5b8101908080519060200190929190505050600190041415156136615760009450613b48565b61367e8d600260048110151561367357fe5b602002015182613cf7565b92506136a6836136a18f600060048110151561369657fe5b60200201518f613cf7565b614589565b91506136d2827ffffffffffffffffffffffffffffffffffffffffffffffffffffffffefffffc2f614aaf565b8160006003811015156136e157fe5b60200201518960006002811015156136f557fe5b602002015114158061372d575081600160038110151561371157fe5b602002015189600160028110151561372557fe5b602002015114155b1561373b5760009450613b48565b6137588d600260048110151561374d57fe5b60200201518c613cf7565b92506137808361377b8f600060048110151561377057fe5b60200201518d613cf7565b614589565b91506137ac827ffffffffffffffffffffffffffffffffffffffffffffffffffffffffefffffc2f614aaf565b8160006003811015156137bb57fe5b60200201518860006002811015156137cf57fe5b602002015114158061380757508160016003811015156137eb57fe5b60200201518860016002811015156137ff57fe5b602002015114155b156138155760009450613b48565b6138328d600360048110151561382757fe5b602002015182613cf7565b925061385a836138558f600160048110151561384a57fe5b60200201518f613cf7565b614589565b9150613886827ffffffffffffffffffffffffffffffffffffffffffffffffffffffffefffffc2f614aaf565b81600060038110151561389557fe5b60200201518760006002811015156138a957fe5b60200201511415806138e157508160016003811015156138c557fe5b60200201518760016002811015156138d957fe5b602002015114155b156138ef5760009450613b48565b8060006002811015156138fe57fe5b602002015184600060028110151561391257fe5b60200201818152505080600160028110151561392a57fe5b60200201517ffffffffffffffffffffffffffffffffffffffffffffffffffffffffefffffc2f0384600160028110151561396057fe5b60200201818152505089600060028110151561397857fe5b602002015182600060038110151561398c57fe5b6020020181815250508960016002811015156139a457fe5b60200201518260016003811015156139b857fe5b60200201818152505060018260026003811015156139d257fe5b6020020181815250506139e5828561505d565b9250613a11837ffffffffffffffffffffffffffffffffffffffffffffffffffffffffefffffc2f614aaf565b826000600381101515613a2057fe5b6020020151846000600281101515613a3457fe5b602002018181525050826001600381101515613a4c57fe5b6020020151846001600281101515613a6057fe5b602002018181525050613a868d6001600481101515613a7b57fe5b602002015185613cf7565b9250613aae613aa88e6003600481101515613a9d57fe5b60200201518d613cf7565b84614589565b9150613ada827ffffffffffffffffffffffffffffffffffffffffffffffffffffffffefffffc2f614aaf565b816000600381101515613ae957fe5b6020020151866000600281101515613afd57fe5b6020020151141580613b355750816001600381101515613b1957fe5b6020020151866001600281101515613b2d57fe5b602002015114155b15613b435760009450613b48565b600194505b5050505098975050505050505050565b60036020528060005260406000206000915090508060000160009054906101000a900473ffffffffffffffffffffffffffffffffffffffff16905081565b600181815481101515613ba557fe5b906000526020600020016000915054906101000a900473ffffffffffffffffffffffffffffffffffffffff1681565b3373ffffffffffffffffffffffffffffffffffffffff166000809054906101000a900473ffffffffffffffffffffffffffffffffffffffff1673ffffffffffffffffffffffffffffffffffffffff16141515613c2f57600080fd5b806000806101000a81548173ffffffffffffffffffffffffffffffffffffffff021916908373ffffffffffffffffffffffffffffffffffffffff16021790555050565b6000613c7d82615755565b9050919050565b6000613c8e615d4d565b826000600381101515613c9d57fe5b6020020151816000600281101515613cb157fe5b602002018181525050826001600381101515613cc957fe5b6020020151816001600281101515613cdd57fe5b602002018181525050613cef81615755565b915050919050565b613cff615d6f565b6000806000613d0c615e73565b613d14615d6f565b613d1c615ea2565b60008060007ffffffffffffffffffffffffffffffffffffffffffffffffffffffffefffffc2f985060008c1415613d525761457a565b6000604051985061020089016040525b8c15613d9b5760018d1615613d8a5760208d06905080888a015360206010821102818e03019c505b60028d049c50600188019750613d62565b508797506060604051908101604052808c6000600281101515613dba57fe5b602002015181526020018c6001600281101515613dd357fe5b602002015181526020016001815250866000600881101515613df157fe5b6020020181905250613e15866000600881101515613e0b57fe5b602002015161589f565b9450613e21858c61505d565b866001600881101515613e3057fe5b6020020181905250613e5585876001600881101515613e4b57fe5b6020020151614589565b866002600881101515613e6457fe5b6020020181905250613e8985876002600881101515613e7f57fe5b6020020151614589565b866003600881101515613e9857fe5b6020020181905250613ebd85876003600881101515613eb357fe5b6020020151614589565b866004600881101515613ecc57fe5b6020020181905250613ef185876004600881101515613ee757fe5b6020020151614589565b866005600881101515613f0057fe5b6020020181905250613f2585876005600881101515613f1b57fe5b6020020151614589565b866006600881101515613f3457fe5b6020020181905250613f5985876006600881101515613f4f57fe5b6020020151614589565b866007600881101515613f6857fe5b6020020181905250856001600881101515613f7f57fe5b60200201516002600381101515613f9257fe5b6020020151846000601081101515613fa657fe5b60200201818152505088801515613fb957fe5b846000601081101515613fc857fe5b6020020151876002600881101515613fdc57fe5b60200201516002600381101515613fef57fe5b60200201510984600160108110151561400457fe5b6020020181815250508880151561401757fe5b84600160108110151561402657fe5b602002015187600360088110151561403a57fe5b6020020151600260038110151561404d57fe5b60200201510984600260108110151561406257fe5b6020020181815250508880151561407557fe5b84600260108110151561408457fe5b602002015187600460088110151561409857fe5b602002015160026003811015156140ab57fe5b6020020151098460036010811015156140c057fe5b602002018181525050888015156140d357fe5b8460036010811015156140e257fe5b60200201518760056008811015156140f657fe5b6020020151600260038110151561410957fe5b60200201510984600460108110151561411e57fe5b6020020181815250508880151561413157fe5b84600460108110151561414057fe5b602002015187600660088110151561415457fe5b6020020151600260038110151561416757fe5b60200201510984600560108110151561417c57fe5b6020020181815250508880151561418f57fe5b84600560108110151561419e57fe5b60200201518760076008811015156141b257fe5b602002015160026003811015156141c557fe5b6020020151098460066010811015156141da57fe5b6020020181815250506142008460066010811015156141f557fe5b60200201518a615a57565b84600760108110151561420f57fe5b60200201818152505083600760108110151561422757fe5b602002015184600860108110151561423b57fe5b6020020181815250508880151561424e57fe5b84600860108110151561425d57fe5b602002015185600560108110151561427157fe5b60200201510984600f60108110151561428657fe5b602002018181525050600692505b60028310151561435b57888015156142a857fe5b8460086010811015156142b757fe5b602002015187600186016008811015156142cd57fe5b602002015160026003811015156142e057fe5b6020020151098460086010811015156142f557fe5b6020020181815250508880151561430857fe5b84600860108110151561431757fe5b6020020151856002860360108110151561432d57fe5b602002015109848460080160108110151561434457fe5b602002018181525050828060019003935050614294565b8880151561436557fe5b84600860108110151561437457fe5b602002015187600260088110151561438857fe5b6020020151600260038110151561439b57fe5b6020020151098460096010811015156143b057fe5b602002018181525050600092505b60078310156144405761443386600185016008811015156143db57fe5b602002015185600986016010811015156143f157fe5b60200201518b80151561440057fe5b876009880160108110151561441157fe5b6020020151886009890160108110151561442757fe5b6020020151098c615b03565b82806001019350506143be565b5b6000871115614579578680600190039750508688015160001a91506144658a615b9f565b60108211156144ef57600282601f0381151561447d57fe5b0490506144ea8a6040805190810160405280898560088110151561449d57fe5b602002015160006003811015156144b057fe5b6020020151815260200189856008811015156144c857fe5b602002015160016003811015156144db57fe5b60200201518d03815250614b7c565b614574565b60008211156145735760026001830381151561450757fe5b0490506145728a6040805190810160405280898560088110151561452757fe5b6020020151600060038110151561453a57fe5b60200201518152602001898560088110151561455257fe5b6020020151600160038110151561456557fe5b6020020151815250614b7c565b5b5b614441565b5b50505050505050505092915050565b614591615d6f565b600061459b615ec6565b6145a3615ec6565b6000806000806000808b60026003811015156145bb57fe5b602002015114156145ce57899850614aa1565b60008a60026003811015156145df57fe5b602002015114156145f2578a9850614aa1565b7ffffffffffffffffffffffffffffffffffffffffffffffffffffffffefffffc2f97508780151561461f57fe5b8b600260038110151561462e57fe5b60200201518c600260038110151561464257fe5b60200201510987600060048110151561465757fe5b6020020181815250508780151561466a57fe5b87600060048110151561467957fe5b60200201518c600260038110151561468d57fe5b6020020151098760016004811015156146a257fe5b602002018181525050878015156146b557fe5b8a60026003811015156146c457fe5b60200201518b60026003811015156146d857fe5b6020020151098760026004811015156146ed57fe5b6020020181815250508780151561470057fe5b87600260048110151561470f57fe5b60200201518b600260038110151561472357fe5b60200201510987600360048110151561473857fe5b6020020181815250506080604051908101604052808980151561475757fe5b89600260048110151561476657fe5b60200201518e600060038110151561477a57fe5b60200201510981526020018980151561478f57fe5b89600360048110151561479e57fe5b60200201518e60016003811015156147b257fe5b6020020151098152602001898015156147c757fe5b8960006004811015156147d657fe5b60200201518d60006003811015156147ea57fe5b6020020151098152602001898015156147ff57fe5b89600160048110151561480e57fe5b60200201518d600160038110151561482257fe5b602002015109815250955085600260048110151561483c57fe5b602002015186600060048110151561485057fe5b6020020151141561489f5785600360048110151561486a57fe5b602002015186600160048110151561487e57fe5b602002015114151561488f57614aa1565b6148988b61589f565b9850614aa1565b878015156148a957fe5b8660006004811015156148b857fe5b602002015189038760026004811015156148ce57fe5b6020020151089450878015156148e057fe5b8660016004811015156148ef57fe5b6020020151890387600360048110151561490557fe5b60200201510893508780151561491757fe5b85860992508780151561492657fe5b85840991508780151561493557fe5b8289038980151561494257fe5b8687090890508780151561495257fe5b8880151561495c57fe5b8980151561496657fe5b8589600060048110151561497657fe5b6020020151096002098903820890508089600060038110151561499557fe5b602002018181525050878015156149a857fe5b888015156149b257fe5b828a038a8015156149bf57fe5b868a60006004811015156149cf57fe5b6020020151090885098960016003811015156149e757fe5b602002018181525050878015156149fa57fe5b88801515614a0457fe5b83886001600481101515614a1457fe5b60200201510989038a6001600381101515614a2b57fe5b602002015108896001600381101515614a4057fe5b60200201818152505087801515614a5357fe5b88801515614a5d57fe5b8b6002600381101515614a6c57fe5b60200201518d6002600381101515614a8057fe5b6020020151098609896002600381101515614a9757fe5b6020020181815250505b505050505050505092915050565b600080614acf846002600381101515614ac457fe5b602002015184615a57565b915082801515614adb57fe5b828309905082801515614aea57fe5b81856000600381101515614afa57fe5b602002015109846000600381101515614b0f57fe5b60200201818152505082801515614b2257fe5b83801515614b2c57fe5b828409856001600381101515614b3e57fe5b602002015109846001600381101515614b5357fe5b6020020181815250506001846002600381101515614b6d57fe5b60200201818152505050505050565b6000614b86615d4d565b614b8e615ec6565b6000806000806000808a6001600381101515614ba657fe5b60200201511415614c2857886000600281101515614bc057fe5b60200201518a6000600381101515614bd457fe5b602002018181525050886001600281101515614bec57fe5b60200201518a6001600381101515614c0057fe5b60200201818152505060018a6002600381101515614c1a57fe5b602002018181525050615051565b6000896001600281101515614c3957fe5b60200201511415614c4957615051565b7ffffffffffffffffffffffffffffffffffffffffffffffffffffffffefffffc2f975087801515614c7657fe5b8a6002600381101515614c8557fe5b60200201518b6002600381101515614c9957fe5b602002015109876000600281101515614cae57fe5b60200201818152505087801515614cc157fe5b876000600281101515614cd057fe5b60200201518b6002600381101515614ce457fe5b602002015109876001600281101515614cf957fe5b6020020181815250506080604051908101604052808b6000600381101515614d1d57fe5b602002015181526020018b6001600381101515614d3657fe5b6020020151815260200189801515614d4a57fe5b896000600281101515614d5957fe5b60200201518c6000600281101515614d6d57fe5b602002015109815260200189801515614d8257fe5b896001600281101515614d9157fe5b60200201518c6001600281101515614da557fe5b6020020151098152509550856002600481101515614dbf57fe5b6020020151866000600481101515614dd357fe5b60200201511415614e6e57856003600481101515614ded57fe5b6020020151866001600481101515614e0157fe5b6020020151141515614e605760008a6000600381101515614e1e57fe5b60200201818152505060008a6001600381101515614e3857fe5b60200201818152505060008a6002600381101515614e5257fe5b602002018181525050615051565b614e698a615b9f565b615051565b87801515614e7857fe5b866000600481101515614e8757fe5b60200201518903876002600481101515614e9d57fe5b602002015108945087801515614eaf57fe5b866001600481101515614ebe57fe5b60200201518903876003600481101515614ed457fe5b602002015108935087801515614ee657fe5b858609925087801515614ef557fe5b858409915087801515614f0457fe5b82890389801515614f1157fe5b86870908905087801515614f2157fe5b88801515614f2b57fe5b89801515614f3557fe5b85896000600481101515614f4557fe5b602002015109600209890382089050808a6000600381101515614f6457fe5b60200201818152505087801515614f7757fe5b88801515614f8157fe5b828a038a801515614f8e57fe5b868a6000600481101515614f9e57fe5b6020020151090885098a6001600381101515614fb657fe5b60200201818152505087801515614fc957fe5b88801515614fd357fe5b83886001600481101515614fe357fe5b60200201510989038b6001600381101515614ffa57fe5b6020020151088a600160038110151561500f57fe5b6020020181815250508780151561502257fe5b8a600260038110151561503157fe5b602002015186098a600260038110151561504757fe5b6020020181815250505b50505050505050505050565b615065615d6f565b600061506f615d4d565b615077615ec6565b6000806000806000808b600260038110151561508f57fe5b602002015114156150e4576060604051908101604052808b60006002811015156150b557fe5b602002015181526020018b60016002811015156150ce57fe5b6020020151815260200160018152509850615511565b60008a60016002811015156150f557fe5b60200201511415615108578a9850615511565b7ffffffffffffffffffffffffffffffffffffffffffffffffffffffffefffffc2f97508780151561513557fe5b8b600260038110151561514457fe5b60200201518c600260038110151561515857fe5b60200201510987600060028110151561516d57fe5b6020020181815250508780151561518057fe5b87600060028110151561518f57fe5b60200201518c60026003811015156151a357fe5b6020020151098760016002811015156151b857fe5b6020020181815250506080604051908101604052808c60006003811015156151dc57fe5b602002015181526020018c60016003811015156151f557fe5b602002015181526020018980151561520957fe5b89600060028110151561521857fe5b60200201518d600060028110151561522c57fe5b60200201510981526020018980151561524157fe5b89600160028110151561525057fe5b60200201518d600160028110151561526457fe5b602002015109815250955085600260048110151561527e57fe5b602002015186600060048110151561529257fe5b6020020151141561532e578560036004811015156152ac57fe5b60200201518660016004811015156152c057fe5b602002015114151561531f5760008b60006003811015156152dd57fe5b60200201818152505060008b60016003811015156152f757fe5b60200201818152505060008b600260038110151561531157fe5b602002018181525050615511565b6153288b61589f565b50615511565b8780151561533857fe5b86600060048110151561534757fe5b6020020151890387600260048110151561535d57fe5b60200201510894508780151561536f57fe5b86600160048110151561537e57fe5b6020020151890387600360048110151561539457fe5b6020020151089350878015156153a657fe5b8586099250878015156153b557fe5b8584099150878015156153c457fe5b828903898015156153d157fe5b868709089050878015156153e157fe5b888015156153eb57fe5b898015156153f557fe5b8589600060048110151561540557fe5b6020020151096002098903820890508089600060038110151561542457fe5b6020020181815250508780151561543757fe5b8880151561544157fe5b828a038a80151561544e57fe5b868a600060048110151561545e57fe5b60200201510908850989600160038110151561547657fe5b6020020181815250508780151561548957fe5b8880151561549357fe5b838860016004811015156154a357fe5b60200201510989038a60016003811015156154ba57fe5b6020020151088960016003811015156154cf57fe5b602002018181525050878015156154e257fe5b8b60026003811015156154f157fe5b6020020151860989600260038110151561550757fe5b6020020181815250505b505050505050505092915050565b600080600080600381111561553057fe5b601460009054906101000a900460ff16600381111561554b57fe5b14151561555757600080fd5b3373ffffffffffffffffffffffffffffffffffffffff166000809054906101000a900473ffffffffffffffffffffffffffffffffffffffff1673ffffffffffffffffffffffffffffffffffffffff161415156155b257600080fd5b6003845110151561574957600091505b8351821015615740576004600085848151811015156155dd57fe5b9060200190602002015173ffffffffffffffffffffffffffffffffffffffff1673ffffffffffffffffffffffffffffffffffffffff16815260200190815260200160002060009054906101000a900460ff16151561573357600160046000868581518110151561564957fe5b9060200190602002015173ffffffffffffffffffffffffffffffffffffffff1673ffffffffffffffffffffffffffffffffffffffff16815260200190815260200160002060006101000a81548160ff021916908315150217905550600184838151811015156156b457fe5b9060200190602002015190806001815401808255809150509060018203906000526020600020016000909192909190916101000a81548173ffffffffffffffffffffffffffffffffffffffff021916908373ffffffffffffffffffffffffffffffffffffffff160217905550506001600b600082825401925050819055505b81806001019250506155c2565b6001925061574e565b600092505b5050919050565b6000806000807ffffffffffffffffffffffffffffffffffffffffffffffffffffffffefffffc2f925084600060028110151561578d57fe5b6020020151600014806157b25750828560006002811015156157ab57fe5b6020020151145b806157d057508460016002811015156157c757fe5b60200201516000145b806157ed5750828560016002811015156157e657fe5b6020020151145b156157fb5760009350615897565b8280151561580557fe5b85600160028110151561581457fe5b602002015186600160028110151561582857fe5b60200201510991508280151561583a57fe5b60078480151561584657fe5b87600060028110151561585557fe5b60200201518680151561586457fe5b89600060028110151561587357fe5b60200201518a600060028110151561588757fe5b6020020151090908905080821493505b505050919050565b6158a7615d6f565b60008060008060008060007ffffffffffffffffffffffffffffffffffffffffffffffffffffffffefffffc2f965060008960026003811015156158e657fe5b602002015114156158f657615a4b565b88600060038110151561590557fe5b6020020151955088600160038110151561591b57fe5b602002015194508680151561592c57fe5b85860993508680151561593b57fe5b8780151561594557fe5b85880960040992508680151561595757fe5b8780151561596157fe5b87880960030991508680151561597357fe5b8780151561597d57fe5b84850888038880151561598c57fe5b848509089050808860006003811015156159a257fe5b602002018181525050868015156159b557fe5b878015156159bf57fe5b888015156159c957fe5b8687096008098803888015156159db57fe5b898015156159e557fe5b848b0387088509088860016003811015156159fc57fe5b60200201818152505086801515615a0f57fe5b87801515615a1957fe5b8a6002600381101515615a2857fe5b60200201518709600209886002600381101515615a4157fe5b6020020181815250505b50505050505050919050565b6000806000806000806000881480615a6e57508688145b80615a795750600087145b15615a8357600080fd5b86881115615a9a578688811515615a9657fe5b0697505b600193508692508791505b600082141515615ade578183811515615aba57fe5b04905083848202860383848402860380955081965082975083985050505050615aa5565b6000851215615af4578460000387039550615af8565b8495505b505050505092915050565b80801515615b0d57fe5b82856000600381101515615b1d57fe5b602002015109846000600381101515615b3257fe5b60200201818152505080801515615b4557fe5b81801515615b4f57fe5b838509856001600381101515615b6157fe5b602002015109846001600381101515615b7657fe5b6020020181815250506001846002600381101515615b9057fe5b60200201818152505050505050565b60008060008060008060007ffffffffffffffffffffffffffffffffffffffffffffffffffffffffefffffc2f96506000886002600381101515615bde57fe5b60200201511415615bee57615d43565b876000600381101515615bfd57fe5b60200201519550876001600381101515615c1357fe5b6020020151945086801515615c2457fe5b858609935086801515615c3357fe5b87801515615c3d57fe5b858809600409925086801515615c4f57fe5b87801515615c5957fe5b878809600309915086801515615c6b57fe5b87801515615c7557fe5b848508880388801515615c8457fe5b84850908905080886000600381101515615c9a57fe5b60200201818152505086801515615cad57fe5b87801515615cb757fe5b88801515615cc157fe5b868709600809880388801515615cd357fe5b89801515615cdd57fe5b848b038708850908886001600381101515615cf457fe5b60200201818152505086801515615d0757fe5b87801515615d1157fe5b896002600381101515615d2057fe5b60200201518709600209886002600381101515615d3957fe5b6020020181815250505b5050505050505050565b6040805190810160405280600290602082028038833980820191505090505090565b606060405190810160405280600390602082028038833980820191505090505090565b8260028101928215615dc1579160200282015b82811115615dc0578251825591602001919060010190615da5565b5b509050615dce9190615ee9565b5090565b5080546000825590600052602060002090810190615df09190615ee9565b50565b828054600181600116156101000203166002900490600052602060002090601f016020900481019282601f10615e3457805160ff1916838001178555615e62565b82800160010185558215615e62579182015b82811115615e61578251825591602001919060010190615e46565b5b509050615e6f9190615ee9565b5090565b610300604051908101604052806008905b615e8c615f0e565b815260200190600190039081615e845790505090565b61020060405190810160405280601090602082028038833980820191505090505090565b608060405190810160405280600490602082028038833980820191505090505090565b615f0b91905b80821115615f07576000816000905550600101615eef565b5090565b90565b6060604051908101604052806003906020820280388339808201915050905050905600a165627a7a72305820514cef2dfb14b30729cc414cfac67470f9369ddcab8ecc9b60ccb62687e3128c0029",
  "source": "pragma solidity >=0.4.21 <0.7.0;\r\n\r\nimport \"./Owned.sol\";\r\nimport \"./libraries/Secp256k1.sol\";\r\n\r\ncontract VotingSys is Owned {\r\n\r\n    struct Voter {\r\n        address addr;\r\n        uint[2] registeredKey;\r\n        uint[2] reconstructedKey;\r\n        uint[2] vote;\r\n    }\r\n\r\n    address[] public addresses;\r\n    mapping(address => uint) public addressId; // Address to Counter\r\n    mapping(uint => Voter) public voters;\r\n    mapping(address => bool) public eligible; // White list of addresses allowed to vote\r\n    mapping(address => bool) public registered; // Address registered?\r\n    mapping(address => bool) public voteCast; // Address voted?\r\n    mapping(address => uint) public refunds; //amount to be refunded\r\n\r\n    uint public endRegistrationPhase;\r\n    uint public endVotingPhase;\r\n    uint public totalRegistered; // Total number of participants that have submitted a voting key\r\n    uint public totalEligible;\r\n    uint public totalVoted;\r\n    string public ballotName; // Ballot Name\r\n    string[2] public options;\r\n    uint[2] public finalTally; // Final tally\r\n    uint[2] public prevFinalTally; // Final tally before last reset (not sure will be used)\r\n\r\n    enum State {CREATE, REGISTER, VOTE, FINISH}\r\n    State public currentState;\r\n\r\n    uint public minDeposit;\r\n\r\n    modifier inState(State s) {\r\n        if (currentState != s) {\r\n            revert();\r\n        }\r\n        _;\r\n    }\r\n\r\n    constructor() public {\r\n        currentState = State.CREATE;\r\n    }\r\n\r\n    function getVoter() public returns (uint[2] _registeredKey, uint[2] _reconstructedKey) {\r\n        uint index = addressId[msg.sender];\r\n        _registeredKey = voters[index].registeredKey;\r\n        _reconstructedKey = voters[index].reconstructedKey;\r\n    }\r\n\r\n    //  must be more that 3 voters in the beginning (called by create ballot only)\r\n    function setInitialEligible(address[] addr) private inState(State.CREATE) onlyOwner returns (bool){\r\n        if (addr.length >= 3) {\r\n            for (uint i = 0; i < addr.length; i++) {\r\n                if (!eligible[addr[i]]) {// avoid duplicates\r\n                    eligible[addr[i]] = true;\r\n                    addresses.push(addr[i]);\r\n                    totalEligible += 1;\r\n                }\r\n            }\r\n            return true;\r\n        } else {\r\n            return false;\r\n        }\r\n    }\r\n\r\n    function creatBallot(\r\n        string _ballotStatement,\r\n        string option1,\r\n        string option2,\r\n        uint _endRegistrationPhase,\r\n        uint _endVotingPhase,\r\n        uint _depositRequired,\r\n        address[] addr\r\n    )\r\n    public\r\n    inState(State.CREATE)\r\n    onlyOwner\r\n    returns (bool){\r\n        if (_endRegistrationPhase < now) {\r\n            return false;\r\n        }\r\n        if (_endVotingPhase < _endRegistrationPhase) {\r\n            return false;\r\n        }\r\n        if (!setInitialEligible(addr)) {\r\n            return false;\r\n        }\r\n        ballotName = _ballotStatement;\r\n        options[0] = option1;\r\n        options[1] = option2;\r\n        endRegistrationPhase = _endRegistrationPhase;\r\n        endVotingPhase = _endVotingPhase;\r\n        minDeposit = _depositRequired;\r\n        currentState = State.REGISTER;\r\n        return true;\r\n    }\r\n\r\n    //  inState(State.REGISTER) to allow the admin to add more eligible users in the reg phase\r\n    //  should be after creation of ballot\r\n    function addEligible(address[] addr) public inState(State.REGISTER) onlyOwner {\r\n        for (uint i = 0; i < addr.length; i++) {\r\n            if (!eligible[addr[i]]) {\r\n                eligible[addr[i]] = true;\r\n                addresses.push(addr[i]);\r\n                totalEligible += 1;\r\n            }\r\n        }\r\n    }\r\n\r\n    // in order to set to correct state and reset if finished\r\n    function deadlinePassed() public returns (bool){\r\n        uint[2] memory empty;\r\n\r\n        if (now > endVotingPhase) {\r\n            currentState = State.FINISH;\r\n        }\r\n        if (currentState == State.FINISH) {\r\n            //    todo: should be separated in private function called resetBallot()\r\n            //    todo: lost deposits\r\n            for (uint i = 0; i < addresses.length; i++) {\r\n                address addr = addresses[i];\r\n                eligible[addr] = false;\r\n                // No longer eligible\r\n                registered[addr] = false;\r\n                // Remove voting registration\r\n                voters[i] = Voter({\r\n                addr : 0,\r\n                registeredKey : empty,\r\n                reconstructedKey : empty,\r\n                vote : empty\r\n                });\r\n                addressId[addr] = 0;\r\n                // Remove index\r\n                voteCast[addr] = false;\r\n                // Remove that vote was cast\r\n                refunds[addr] = 0;\r\n                // Remove refunds\r\n            }\r\n\r\n            // Reset timers.\r\n            endRegistrationPhase = 0;\r\n            endVotingPhase = 0;\r\n            delete addresses;\r\n\r\n            // reset voters activity\r\n            totalRegistered = 0;\r\n            totalEligible = 0;\r\n            totalVoted = 0;\r\n\r\n            // General values that need reset\r\n            ballotName = \"\";\r\n            options[0] = \"\";\r\n            options[1] = \"\";\r\n            finalTally[0] = 0;\r\n            finalTally[1] = 0;\r\n            minDeposit = 0;\r\n            currentState = State.CREATE;\r\n            return true;\r\n        }\r\n        return false;\r\n        //false means that current state != FINISH\r\n    }\r\n\r\n    function register(uint[2] xG, uint[3] vG, uint r) public inState(State.REGISTER) payable returns (bool) {\r\n\r\n        if (deadlinePassed()) {\r\n            return false;\r\n        }\r\n\r\n        if (currentState != State.REGISTER) {\r\n            return false;\r\n        }\r\n\r\n        if (msg.value < minDeposit) {\r\n            return false;\r\n        }\r\n        \r\n        // Only eligible addresses can vote\r\n        if (eligible[msg.sender]) {\r\n            if(verifyKey(xG,r,vG)){\r\n                // Update voter's registration\r\n                refunds[msg.sender] = msg.value;\r\n                uint[2] memory empty;\r\n                addressId[msg.sender] = totalRegistered;\r\n                voters[totalRegistered] = Voter({\r\n                addr : msg.sender,\r\n                registeredKey : xG,\r\n                reconstructedKey : empty,\r\n                vote : empty\r\n                });\r\n                registered[msg.sender] = true;\r\n                voteCast[msg.sender] = false;\r\n                totalRegistered += 1;\r\n                return true;\r\n            }\r\n            \r\n        }\r\n        return false;\r\n    }\r\n\r\n    // Timer has expired - we want to start computing the reconstructed keys\r\n    function finishRegistrationPhase() public inState(State.REGISTER) onlyOwner returns (bool) {\r\n\r\n        // Make sure at least 3 people have signed up...\r\n        if (totalRegistered < 3) {\r\n            return;\r\n        }\r\n        // We can only compute the public keys once participants\r\n        // have been given an opportunity to register their\r\n        // voting public key.\r\n        //        todo: comment this to bypass time while testing\r\n        //        if (block.timestamp < endRegistrationPhase) {\r\n        //            return false;\r\n        //        }\r\n\r\n        uint[2] memory temp;\r\n        uint[3] memory yG;\r\n        uint[3] memory before_i;\r\n        uint[3] memory after_i;\r\n\r\n        // Step 1 is to compute the index 1 reconstructed key\r\n        after_i[0] = voters[1].registeredKey[0];\r\n        after_i[1] = voters[1].registeredKey[1];\r\n        after_i[2] = 1;\r\n\r\n        for (uint i = 2; i < totalRegistered; i++) {\r\n            Secp256k1._addMixedM(after_i, voters[i].registeredKey);\r\n        }\r\n\r\n        ECCMath.toZ1(after_i, pp);\r\n        voters[0].reconstructedKey[0] = after_i[0];\r\n        voters[0].reconstructedKey[1] = pp - after_i[1];\r\n\r\n        // Step 2 is to add to before_i, and subtract from after_i.\r\n        for (i = 1; i < totalRegistered; i++) {\r\n\r\n            if (i == 1) {\r\n                before_i[0] = voters[0].registeredKey[0];\r\n                before_i[1] = voters[0].registeredKey[1];\r\n                before_i[2] = 1;\r\n            } else {\r\n                Secp256k1._addMixedM(before_i, voters[i - 1].registeredKey);\r\n            }\r\n\r\n            // If we have reached the end... just store before_i\r\n            // Otherwise, we need to compute a key.\r\n            // Counting from 0 to n-1...\r\n            if (i == (totalRegistered - 1)) {\r\n                ECCMath.toZ1(before_i, pp);\r\n                voters[i].reconstructedKey[0] = before_i[0];\r\n                voters[i].reconstructedKey[1] = before_i[1];\r\n\r\n            } else {\r\n\r\n                // Subtract 'i' from after_i\r\n                temp[0] = voters[i].registeredKey[0];\r\n                temp[1] = pp - voters[i].registeredKey[1];\r\n\r\n                // Grab negation of after_i (did not seem to work with Jacob co-ordinates)\r\n                Secp256k1._addMixedM(after_i, temp);\r\n                ECCMath.toZ1(after_i, pp);\r\n\r\n                temp[0] = after_i[0];\r\n                temp[1] = pp - after_i[1];\r\n\r\n                // Now we do before_i - after_i...\r\n                yG = Secp256k1._addMixed(before_i, temp);\r\n\r\n                ECCMath.toZ1(yG, pp);\r\n\r\n                voters[i].reconstructedKey[0] = yG[0];\r\n                voters[i].reconstructedKey[1] = yG[1];\r\n            }\r\n        }\r\n        currentState = State.VOTE;\r\n        return true;\r\n    }\r\n\r\n    // Given the 1 out of 2 ZKP - record the users vote! // todo: add inState(State.VOTE) after development\r\n    function submitVote(uint[4] params, uint[2] y, uint[2] a1, uint[2] b1, uint[2] a2, uint[2] b2) returns (bool) {\r\n\r\n        // HARD DEADLINE\r\n        //        todo: commented for development purpose\r\n        //        if(now > endVotingPhase) {\r\n        //            return;\r\n        //        }\r\n\r\n        uint i = addressId[msg.sender];\r\n\r\n        uint[2] memory yG = voters[i].reconstructedKey;\r\n        uint[2] memory xG = voters[i].registeredKey;\r\n\r\n        // Make sure the sender can vote, and hasn't already voted.\r\n        if (registered[msg.sender] && !voteCast[msg.sender]) {\r\n            // Verify the ZKP for the vote being cast\r\n            if (verify1outof2ZKP(params, xG, yG, y, a1, b1, a2, b2)) {\r\n\r\n                voters[i].vote[0] = y[0];\r\n                voters[i].vote[1] = y[1];\r\n\r\n                voteCast[msg.sender] = true;\r\n\r\n                totalVoted += 1;\r\n\r\n                // Refund the sender their ether..\r\n                // Voter has finished their part of the protocol...\r\n                uint refund = refunds[msg.sender];\r\n                refunds[msg.sender] = 0;\r\n\r\n                // We can still fail... Safety first.\r\n                // If failed... voter can call withdrawRefund()\r\n                // to collect their money once the election has finished.\r\n                if (!msg.sender.send(refund)) {\r\n                    refunds[msg.sender] = refund;\r\n                }\r\n\r\n                return true;\r\n            }\r\n        }\r\n\r\n        // Either vote has already been cast, or ZKP verification failed.\r\n        return false;\r\n    }\r\n\r\n    function computeTally() public inState(State.VOTE) onlyOwner returns (bool){\r\n        uint[2] memory G;\r\n        G[0] = Gx;\r\n        G[1] = Gy;\r\n        uint[3] memory temp;\r\n        uint[2] memory vote;\r\n        uint refund;\r\n\r\n        // Sum all votes\r\n        for (uint i = 0; i < totalRegistered; i++) {\r\n\r\n            // Confirm all votes have been cast...\r\n            if (!voteCast[voters[i].addr]) {\r\n                revert();\r\n            }\r\n\r\n            vote = voters[i].vote;\r\n\r\n            if (i == 0) {\r\n                temp[0] = vote[0];\r\n                temp[1] = vote[1];\r\n                temp[2] = 1;\r\n            } else {\r\n                Secp256k1._addMixedM(temp, vote);\r\n            }\r\n        }\r\n\r\n        // All votes have been accounted for...\r\n        // Get tally, and change state to 'Finished'\r\n        currentState = State.FINISH;\r\n\r\n\r\n        // Each vote is represented by a G.\r\n        // If there are no votes... then it is 0G = (0,0)...\r\n        if (temp[0] == 0) {\r\n            finalTally[0] = 0;\r\n            finalTally[1] = totalRegistered;\r\n\r\n            // Election Authority is responsible for calling this....\r\n            // He should not fail his own refund...\r\n            // Make sure tally is computed before refunding...\r\n            // TODO: Check if this is necessary\r\n            refund = refunds[msg.sender];\r\n            refunds[msg.sender] = 0;\r\n\r\n            if (!msg.sender.send(refund)) {\r\n                refunds[msg.sender] = refund;\r\n            }\r\n            return true;\r\n        } else {\r\n\r\n            // There must be a vote. So lets\r\n            // start adding 'G' until we\r\n            // find the result.\r\n            ECCMath.toZ1(temp, pp);\r\n            uint[3] memory tempG;\r\n            tempG[0] = G[0];\r\n            tempG[1] = G[1];\r\n            tempG[2] = 1;\r\n\r\n            // Start adding 'G' and looking for a match\r\n            for (i = 1; i <= totalRegistered; i++) {\r\n\r\n                if (temp[0] == tempG[0]) {\r\n                    finalTally[0] = i;\r\n                    finalTally[1] = totalRegistered;\r\n\r\n                    // Election Authority is responsible for calling this....\r\n                    // He should not fail his own refund...\r\n                    // Make sure tally is computed before refunding...\r\n                    // TODO: Check if this is necessary\r\n                    // If it fails - he can use withdrawRefund()\r\n                    // Election cannot be reset until he is refunded.\r\n                    refund = refunds[msg.sender];\r\n                    refunds[msg.sender] = 0;\r\n\r\n                    if (!msg.sender.send(refund)) {\r\n                        refunds[msg.sender] = refund;\r\n                    }\r\n                    return true;\r\n                }\r\n\r\n                // If something bad happens and we cannot find the Tally\r\n                // Then this 'addition' will be run 1 extra time due to how\r\n                // we have structured the for loop.\r\n                // TODO: Does it need fixes?\r\n                Secp256k1._addMixedM(tempG, G);\r\n                ECCMath.toZ1(tempG, pp);\r\n            }\r\n\r\n            // Something bad happened. We should never get here....\r\n            // This represents an error message... best telling people\r\n            // As we cannot recover from it anyway.\r\n            // TODO: Handle this better....\r\n            finalTally[0] = 0;\r\n            finalTally[1] = 0;\r\n\r\n            // Election Authority is responsible for calling this....\r\n            // He should not fail his own refund...\r\n            // TODO: Check if this is necessary\r\n            refund = refunds[msg.sender];\r\n            refunds[msg.sender] = 0;\r\n\r\n            if (!msg.sender.send(refund)) {\r\n                refunds[msg.sender] = refund;\r\n            }\r\n            return false;\r\n        }\r\n    }\r\n\r\n    // todo: fix EL SHEEE2 DA!!!!!!!!!!!!!!!!!!!!!!\r\n    //____________________________________________________________________________\r\n    //_________________should be separated in another contract____________________\r\n    //___________________________gives stupid error!!!____________________________\r\n    //____________________________________________________________________________\r\n\r\n    // Modulus for public keys\r\n    uint constant pp = 0xFFFFFFFFFFFFFFFFFFFFFFFFFFFFFFFFFFFFFFFFFFFFFFFFFFFFFFFEFFFFFC2F;\r\n\r\n    // Base point (generator) G\r\n    uint constant Gx = 0x79BE667EF9DCBBAC55A06295CE870B07029BFCDB2DCE28D959F2815B16F81798;\r\n    uint constant Gy = 0x483ADA7726A3C4655DA4FBFC0E1108A8FD17B448A68554199C47D08FFB10D4B8;\r\n\r\n    // New  point (generator) Y\r\n    uint constant Yx = 98038005178408974007512590727651089955354106077095278304532603697039577112780;\r\n    uint constant Yy = 1801119347122147381158502909947365828020117721497557484744596940174906898953;\r\n\r\n    // Modulus for private keys (sub-group)\r\n    uint constant nn = 0xFFFFFFFFFFFFFFFFFFFFFFFFFFFFFFFEBAAEDCE6AF48A03BBFD25E8CD0364141;\r\n\r\n\r\n\r\n    // Parameters xG, r where r = v - xc, and vG.\r\n    // Verify that vG = rG + xcG!\r\n    function verifyKey(uint[2] xG, uint r, uint[3] vG) public returns (bool) {\r\n        uint[2] memory G;\r\n        G[0] = Gx;\r\n        G[1] = Gy;\r\n\r\n        // Check both keys are on the curve.\r\n        if (!Secp256k1.isPubKey(xG) || !Secp256k1.isPubKey(vG)) {\r\n            return false;\r\n            //Must be on the curve!\r\n        }\r\n\r\n        // Get c = H(g, g^{x}, g^{v});\r\n        bytes32 b_c = sha256(abi.encode(msg.sender, Gx, Gy, xG, vG));\r\n        uint c = uint(b_c);\r\n\r\n        // Get g^{r}, and g^{xc}\r\n        uint[3] memory rG = Secp256k1._mul(r, G);\r\n        uint[3] memory xcG = Secp256k1._mul(c, xG);\r\n\r\n        // Add both points together\r\n        uint[3] memory rGxcG = Secp256k1._add(rG, xcG);\r\n\r\n        // Convert to Affine Co-ordinates\r\n        ECCMath.toZ1(rGxcG, pp);\r\n\r\n        // Verify. Do they match?\r\n        if (rGxcG[0] == vG[0] && rGxcG[1] == vG[1]) {\r\n            return true;\r\n        } else {\r\n            return false;\r\n        }\r\n    }\r\n\r\n    // We verify that the ZKP is of 0 or 1.\r\n    // params[4] input is res2[4] from the creator\r\n\r\n    // We verify that the ZKP is of 0 or 1.\r\n    function verify1outof2ZKP(uint[4] params, uint[2] xG, uint[2] yG, uint[2] y, uint[2] a1, uint[2] b1, uint[2] a2, uint[2] b2) returns (bool) {\r\n        uint[2] memory temp1;\r\n        uint[3] memory temp2;\r\n        uint[3] memory temp3;\r\n\r\n        uint[2] memory G;\r\n        G[0] = Gx;\r\n        G[1] = Gy;\r\n\r\n\r\n        // Make sure we are only dealing with valid public keys!\r\n        if (!Secp256k1.isPubKey(xG) || !Secp256k1.isPubKey(yG) || !Secp256k1.isPubKey(y) || !Secp256k1.isPubKey(a1) ||\r\n        !Secp256k1.isPubKey(b1) || !Secp256k1.isPubKey(a2) || !Secp256k1.isPubKey(b2)) {\r\n            return false;\r\n        }\r\n\r\n        // Does c =? d1 + d2 (mod n)\r\n        if (uint(sha256(abi.encode(msg.sender, xG, y, a1, b1, a2, b2))) != addmod(params[0], params[1], nn)) {\r\n            return false;\r\n        }\r\n\r\n        // a1 =? g^{r1} * x^{d1}\r\n        temp2 = Secp256k1._mul(params[2], G);\r\n        temp3 = Secp256k1._add(temp2, Secp256k1._mul(params[0], xG));\r\n        ECCMath.toZ1(temp3, pp);\r\n\r\n        if (a1[0] != temp3[0] || a1[1] != temp3[1]) {\r\n            return false;\r\n        }\r\n\r\n        //b1 =? h^{r1} * y^{d1} (temp = affine 'y')\r\n        temp2 = Secp256k1._mul(params[2], yG);\r\n        temp3 = Secp256k1._add(temp2, Secp256k1._mul(params[0], y));\r\n        ECCMath.toZ1(temp3, pp);\r\n\r\n        if (b1[0] != temp3[0] || b1[1] != temp3[1]) {\r\n            return false;\r\n        }\r\n\r\n        //a2 =? g^{r2} * x^{d2}\r\n        temp2 = Secp256k1._mul(params[3], G);\r\n        temp3 = Secp256k1._add(temp2, Secp256k1._mul(params[1], xG));\r\n        ECCMath.toZ1(temp3, pp);\r\n\r\n        if (a2[0] != temp3[0] || a2[1] != temp3[1]) {\r\n            return false;\r\n        }\r\n\r\n        // Negate the 'y' co-ordinate of g\r\n        temp1[0] = G[0];\r\n        temp1[1] = pp - G[1];\r\n\r\n        // get 'y'\r\n        temp3[0] = y[0];\r\n        temp3[1] = y[1];\r\n        temp3[2] = 1;\r\n\r\n        // y-g\r\n        temp2 = Secp256k1._addMixed(temp3, temp1);\r\n\r\n        // Return to affine co-ordinates\r\n        ECCMath.toZ1(temp2, pp);\r\n        temp1[0] = temp2[0];\r\n        temp1[1] = temp2[1];\r\n\r\n        // (y-g)^{d2}\r\n        temp2 = Secp256k1._mul(params[1], temp1);\r\n\r\n        // Now... it is h^{r2} + temp2..\r\n        temp3 = Secp256k1._add(Secp256k1._mul(params[3], yG), temp2);\r\n\r\n        // Convert to Affine Co-ordinates\r\n        ECCMath.toZ1(temp3, pp);\r\n\r\n        // Should all match up.\r\n        if (b2[0] != temp3[0] || b2[1] != temp3[1]) {\r\n            return false;\r\n        }\r\n\r\n        return true;\r\n    }\r\n}",
  "sourcePath": "C:/Users/Jarvis/DZK_Vote/Dapp/contracts/VotingSys.sol",
  "compiler": {
    "name": "solc",
    "version": "0.4.26+commit.4563c3fc.Emscripten.clang"
  },
  "schemaVersion": "3.3.4",
  "updatedAt": "2021-07-15T10:56:56.791Z",
  "networkType": "ethereum",
  "devdoc": {
    "methods": {}
  },
  "userdoc": {
    "methods": {}
  }
}